:1000000000800020BD0100006D0F0000290F0000DE
:10001000290F0000290F0000290F0000290F000000
:10002000290F0000290F0000290F00006D0F0000AC
:100030006D0F0000290F0000B10C0000B50C00008E
:100040006D0F00006D0F00006D0F00006D0F0000C0
:100050006D0F00006D0F00006D0F00006D0F0000B0
:100060006D0F00006D0F00006D0F00006D0F0000A0
:100070006D0F00006D0F00006D0F00006D0F000090
:100080006D0F00006D0F00006D0F00006D0F000080
:100090006D0F00006D0F00006D0F00006D0F000070
:1000A0006D0F00006D0F00006D0F00006D0F000060
:1000B0006D0F00006D0F00006D0F00006D0F000050
:1000C0006D0F00006D0F00006D0F00006D0F000040
:1000D0006D0F00006D0F00006D0F00006D0F000030
:1000E0006D0F00006D0F00006D0F00006D0F000020
:1000F0006D0F00006D0F00006D0F00006D0F000010
:100100006D0F00006D0F00006D0F00006D0F0000FF
:100110006D0F00006D0F00006D0F00006D0F0000EF
:100120006D0F00006D0F00006D0F00006D0F0000DF
:100130006D0F00006D0F0000210800006D0F000022
:100140006D0F00006D0F00006D0F00006D0F0000BF
:100150006D0F00006D0F00006D0F00006D0F0000AF
:100160006D0F0000ED1300006D0F00006D0F00001B
:100170006D0F00006D0F00006D0F00006D0F00008F
:100180006D0F00006D0F00006D0F00006D0F00007F
:100190006D0F00006D0F00006D0F00006D0F00006F
:1001A0006D0F00006D0F00006D0F00006D0F00005F
:1001B0006D0F00006D0F00006D0F0000564B4CF2EC
:1001C000205210B51A804DF628121A8000BF00BFC9
:1001D00000F0D0FE514B4FF010621A60504A9A6006
:1001E000504ADA60504A136813F4807304D14F49BF
:1001F0000B604FF4A85313604D4B1A78110703D5C9
:100200001A7842F008021A704A4B4B492A221A7097
:100210004A4B4B4A8B4204D252F8040B43F8040B6E
:10022000F8E7484B484900228B4202D243F8042B9E
:10023000FAE7464A464811460023013350F8044B7A
:1002400041F8044B6F2BF8D1424B4349802003F80F
:10025000010B8B42FBD1414B1A60414B8A221A7031
:10026000A3F5805324225A70A0221A709A7992071B
:10027000FCD59A79D406FCD43A4B19469A7902F007
:100280000C02082AFAD103221A7146225A718B797C
:100290009806FCD5334B9A795106FCD5324A4FF07B
:1002A000827111600921516020221A702D4A9379C0
:1002B00003F00C030C2BFAD12C4B2D4A1A602D4B5A
:1002C0002D4A1A6000225A60072243F8042C2B4A58
:1002D000C3F80C2D62B600F04BFF144B1B68DA0715
:1002E00005D5274800F0D8FE264B274A1A60274B31
:1002F0001B785B0609D5234C234B22689A4204D114
:100300001F4800F0C9FE0023236002F08FFD00F0BB
:1003100037FE00F001FEFEE70E200540308004406D
:10032000823F04000100002B10D0034014D0034092
:1003300002D0074000E00740348DFF1F2087FF1FD9
:1003400060410000348DFF1F448FFF1F0082FF1F9C
:100350000000000000E400E05FE400E008ED00E0E1
:1003600000500640004006404480044004800440A1
:10037000C010050014E000E0BFD401000000202000
:1003800041634A5F1CE00340A5C3945A00F0074054
:10039000FFFFFFFFFFFFFFFFFFFFFFFFFFFFFFFF6D
:1003A000FFFFFFFFFFFFFFFFFFFFFFFFFFFFFFFF5D
:1003B000FFFFFFFFFFFFFFFFFFFFFFFFFFFFFFFF4D
:1003C000FFFFFFFFFFFFFFFFFFFFFFFFFFFFFFFF3D
:1003D000FFFFFFFFFFFFFFFFFFFFFFFFFFFFFFFF2D
:1003E000FFFFFFFFFFFFFFFFFFFFFFFFFFFFFFFF1D
:1003F000FFFFFFFFFFFFFFFFFFFFFFFFFFFFFFFF0D
:10040000FFFFFFFFFFFFFFFFFFFFFFFFDEF9FFFF23
:1004100008B5034B1BB103490348AFF3008008BD87
:1004200000000000348DFF1F60410000004870474D
:10043000508DFF1F70B50D460C4E044600F08CF930
:10044000284600F021F833787BB1043C002554F8AD
:10045000040F00F035F9206800F042F9206800F040
:10046000AFF833780135AB42F1DC70BD4C8DFF1F26
:1004700010B4044A13785C1C147010BC40F82310AC
:10048000704700BF4C8DFF1F38B5054D0446284608
:1004900000F006FB21462846BDE8384000F03EBB90
:1004A000B88DFF1FF0B43A493A4BCC7A1A68BCB108
:1004B00072B6CB7ADD071C4661D49F0706D5364D50
:1004C0000E692B68CC7A3340CB612B60660705D56B
:1004D000324C4D6923682B400B62236062B6CC7AA4
:1004E0000B68DD68954207D02D4E1E602D4DDA60F9
:1004F00042F080461E611D602822013AFDD12A4D3E
:1005000086792A4A55F83660012786F800714FF03F
:100510000046DE625A63DA6A002AFCDA82799E6B50
:1005200055F83270214E012287F88020877955F8DE
:10053000377087F800214FF00042DA625E63DA6AB2
:10054000002AFCDA8279986B55F832300122C0F328
:100550000D0083F8802084B1E50703D5144B8A6928
:10056000CC7A1A60A20703D5124BCA69CC7A1A60FA
:10057000630702D5104B0A6A1A60F0BC70470F4D32
:10058000CE682C6834408C612C601C4695E700BF17
:10059000B88DFF1F588DFF1F84E100E088E100E067
:1005A00001403F0000003F80A03F0000FFFF00101F
:1005B00000E100E004E100E008E100E080E100E0AB
:1005C00010B504460121807900F07EFDA07901215B
:1005D000BDE8104000F072BD014B024A1A6070473E
:1005E000588DFF1F0000013A2DE9F047D1F814A003
:1005F0002E4D2F4F0646894650462E4902F0A6FA48
:100600002D4902F09BF902F0F1FBB9F9243099F978
:100610000A20B9F91C40294903F5BA7302FB0343C8
:1006200003F2D153DC17804685FB0302C4EB22247E
:1006300040F2D159504609FB143402F087FAA4B2B3
:10064000824637F8140002F02DFA514602F07EFA85
:1006500002F0CCFB04F5F87285FB02131B0A09FBC0
:1006600013231FFA88F84044308037F8130002F053
:1006700019FA514602F06AFA04F5787402F0B6FBF2
:1006800085FB04352D0A09FB15444044B08037F83A
:10069000140002F007FA514602F058FA02F0A6FBE5
:1006A0008044A6F802803046BDE8F0874570032CF0
:1006B0007833000012AEEFC099593B440AD7233C6F
:1006C00010B504460121807800F0FEFC207801215D
:1006D00000F0FAFC60780121BDE8104000F0F4BCA5
:1006E0008378084A52F83310012381F8803001786A
:1006F00052F8311081F88030417852F8312082F878
:1007000080307047A03F000070B44B79153B022B3E
:100710000AD80B4D0B490C4B0688448882882E6002
:100720000C6070BC1A607047084D0949094B068877
:10073000848842882E600C6070BC1A60704700BFCD
:10074000408003401080034018800340288003400D
:100750004880034030800340F0B42848284F294E99
:1007600029492A4D2A4C2B4A00234FF0C00C036024
:10077000C7F800C0336006260E6040F2DC562E60DB
:1007800005F5A03528211035216013602C68224E14
:1007900040F2444214432C60A5F58055143D47F8BF
:1007A000781C33602C6814432C6047F8701CB360CD
:1007B0006C6814436C6005F58055183547F8401C8B
:1007C000B3632C6814432C60A5F580550C3D47F8A5
:1007D000601CB3612C6814432C60104C47F8581C03
:1007E00033622168A5F59735A5F5E2750A436821BE
:1007F00022602B6001600160F0BC70470080034004
:100800008480034074800340548003400880034088
:100810003C800340408003401080034010C00440EF
:10082000044A05491368012023F08003136008700F
:10083000704700BF008003405C8DFF1FF8B51A4C65
:100840001A4D1B4FFFF7F2FD2146FFF711FE4FF641
:10085000F676012384F82830A684FFF7E7FD2946C1
:10086000FFF706FE134C144A1449AE841378002B8C
:10087000FCD00B78DB07F9D53B6820681B1A0E2BE0
:10088000F4D94FF47A7000F025FCFFF7CFFD0D216D
:10089000FFF7D0FD72B60A490A4B40204FF0804264
:1008A00008701A6062B6F8BD608DFF1F8C8DFF1F47
:1008B000088EFF1F1C8FFF1FE88EFF1FF88EFF1F83
:1008C0003EE400E004E100E008B5064B1A7802B906
:1008D00008BD00221A70FFF7A9FDBDE8084003F02B
:1008E0002FBC00BF5C8DFF1F134A144B14491548E1
:1008F00070B4116041F61B41118119810021C2E9D8
:100900000811C3E90811104E104D5060FF2400205B
:100910001E605D6094729C72D06070BC106150610A
:10092000D860186158619161918382F828109961AB
:10093000998383F828107047608DFF1F8C8DFF1FEF
:10094000211A1F0A1617021A1C08190506090E1A81
:1009500010B4047F4160022CC26002D1836810BCD5
:10096000184710BC00F03EB970B4464B464AD3E974
:100970000B41087910704548227902709A6A0D7906
:100980000570002A4DD05868C068824220D9121ADA
:1009900020683F4C05689A62A5424FF0010238D0AA
:1009A0001C68E56815F0804F0568066815BF2D883E
:1009B0002D780236013645F00045066065633548FE
:1009C0000979017012B1DB6A1B79037070BC704742
:1009D0002068C48B260402F1FF313CD4C1F30E0120
:1009E000C183C58B196BADB20C68C582E58B2D0434
:1009F0003CD4C2F30E05E583E58BADB2E582056814
:100A0000234C013A4FF0000618BF0122A5429E6216
:100A1000C6D11868C46893F8244044F00044446385
:100A2000CDE71968586B1C4C0A630568CC62CC682A
:100A30002D681A4E24F08044CC60B5424FF003017B
:100A400083F825101AD1037F4260022BC2600AD1BD
:100A500070BC83681847C48BC1F3080104F47E445A
:100A60002143C183BDE770BC00F0BCB8E68BC2F384
:100A7000080506F47E463543E583BDE72B4611465F
:100A800070BC1847B88DFF1F1F8000401C800040BD
:100A9000DC8DFF1F1B80004000000FFF510900008C
:100AA0004368026870B4D3E900452168164E2943B3
:100AB0002160164D164C17491660D56014611160FF
:100AC000417A154A5C180A3194F8244053F82150B1
:100AD00002EBC40149680D60017A5C1803EB8101E7
:100AE000247ECD6902EBC40149680D60817A5818F3
:100AF00003EB810390F83000596B02EBC00270BC2D
:100B000053681960704700BF01401F000110003892
:100B10000110007800001F80A03F0000204A4368B9
:100B20009A42F0B40FD0827A1A4492F830208A4266
:100B300007D093F830408C4215D093F831408C4266
:100B40002BD0F0BC70470D2907D00E29EBD1154CE6
:100B5000227842F004022270E5E7124C227822F05B
:100B600004022270DFE700210C46D3E900653668F5
:100B70002E4210D00C4D05EBC202002756681A1900
:100B8000376092F830200C3405EBC20503EB840388
:100B90006A685B6813608172D3E701210C46E4E761
:100BA0001C3F0000048EFF1FA03F00000A4A0B4BB1
:100BB00010B413600023C2E90233094C93845460DB
:100BC000C2E90433C2E90A33C2E90C33C2E907338C
:100BD00010BC9361704700BFB88DFF1F00C002407A
:100BE0001C3F0000EFF3108272B6437F5BB9017FB8
:100BF000012910B40BD0032913D00123437702B984
:100C000062B610BC70470AB962B670477047124CA2
:100C10002168A1B1114943610B6883610860586183
:100C2000EBE70F4C216881B10E4943610B6883618A
:100C3000086058610C4B4FF080511960DDE7074B9D
:100C40002060C0E905111860D7E7064B2060C0E9B5
:100C500005111860EEE700BFF08DFF1F008EFF1F2B
:100C6000F88DFF1FF48DFF1F04ED00E070B5EFF36A
:100C7000108272B60C4C206880B10C4E002543697E
:100C8000236073B19D6102B962B683684577984766
:100C9000EFF3108272B620680028F0D102B962B674
:100CA00070BD3360EFE700BFF88DFF1FF48DFF1FAD
:100CB000FFF7DCBF024A136801331360704700BFBF
:100CC000088EFF1FF0B5012A14BF16460A268BB006
:100CD00059B3212202E05FFA8CF23946B1FBF6F7F4
:100CE00006FB1715ECB2092D04F1300598BFECB2E4
:100CF0000AAD88BF3734154488BFE4B2B14202F16F
:100D0000FF3C05F8244CE6D233B1013AD2B20AAB2B
:100D100013442D2103F8241C036801A911445B68C6
:100D2000C2F1220298470BB0F0BD30228DF8252089
:100D30002122E9E700B5036883B040F60D22ADF843
:100D400004205B68022201A9984703B05DF804FB08
:100D50002DE9F04F194687B00646104614469A46CC
:100D600001F0B0FD9DF84050002840F0AC802AF022
:100D70000047614B204639464FF0FF3201F0A2FD9B
:100D800048B95D4B204639464FF0FF3201F07CFDFB
:100D9000002800F09180594B204651464FF06042A8
:100DA00001F086FD00287CD1554B204651464FF07E
:100DB000604201F05FFD002873D1204651460022B9
:100DC000002301F057FD0746002878D1002D7DD083
:100DD0000FF21C19D9E900894A4B4FF0000B002291
:100DE0001046194642464B4602F0B4F80BF1010B8F
:100DF0000B465FFA8BF1A9420246F1D320465146D9
:100E000001F022FB8946804601F072FD044601F0A4
:100E100057FC02460B464046494601F013FB0F2D96
:100E2000804689463B46214628BF0F250A22304688
:100E30000195FFF747FF019ADFF8D8B002A92E23EA
:100E400044464D46074601EB020988468DF80830B6
:100E50004FF0000A52465B462046294602F07AF8D7
:100E60000D46044601F044FDC0B200F1300308F81D
:100E7000013F01F035FC02460B462046294601F0B1
:100E8000E1FAC14504460D46E4D1019A33680132C6
:100E90005B68D2B202A930469847384607B0BDE831
:100EA000F08F336818495B6830460322984707463D
:100EB000384607B0BDE8F08F33681449F3E70AF10C
:100EC000004A012782E733681149ECE70D4B002205
:100ED0002046514601F0B8FA01F00AFD3B460146B2
:100EE0000A223046FFF7EEFE0746E1E7AFF3008047
:100EF000000000A09999B93FFFFFEF7FFFFFEF418E
:100F0000FFFFEFC10000E03F9C3F0000983F000062
:100F1000943F00000000244008B5FFF78FFCFFF766
:100F2000D3FC01F055F9FAE708B50F4C23685803D4
:100F30000DD4236859050FD423681A0511D42368EA
:100F4000DB04F3D500F012F823685803F1D500F064
:100F50004DFA23685905EFD500F008F823681A0503
:100F6000EDD500F003F8EAE73480044008B5FFF758
:100F7000DBFF00BF014B10221A80704700200540A4
:100F8000704700BFF0B44C1E2746002501E0013534
:100F90003046B0FBF2F602FB1603092B03F1300CCE
:100FA0008ABF37335FFA8CF3DBB2904207F8013F18
:100FB000EDD2681C00230B5408446DB1224614F88E
:100FC000016F10F8013D2370E34302320B44521AC3
:100FD0002B449A420670F1DB0846F0BC704700BF14
:100FE00010B40F4B53F8302092F880422CB10123FB
:100FF00091B182F8803010BC704703EBC0004368A9
:101000001A6821B922F0020210BC1A60704742F03F
:10101000030210BC1A60704782F8003110BC7047A0
:10102000A03F00001B4A02EBC00301295B6818D0F7
:10103000042909D052F83000002280F88022E1B95A
:101040004FF480721A60704752F830104FF4A27259
:10105000012081F880021A601A6842F020021A60AA
:10106000704752F830004FF4A27280F880121A6074
:101070001A6822F020021A607047022905D003295D
:10108000F9D14FF481721A60704740F203121A606E
:10109000704700BFA03F000030B4054B054D064C23
:1010A000002210211A602A60206030BC196070474D
:1010B00014D0034004D0034000D00340212801D8BD
:1010C000FFF78EBF704700BF212801D8FFF7AABFE6
:1010D000704700BF2DE9F843044672B61F4E204BFF
:1010E000204A1B683168126862B6520102D5322B61
:1010F00088BF01310CB9BDE8F8831B4F1B4DDFF8E9
:101100006090DFF86080FB1AA5FB03234FF47A752B
:1011100005FB01F505EB931572B6D9F8001032689E
:10112000D8F800C062B611487B1AA0FB03031CF07C
:10113000806FC5EB93134FF47A7002D0322988BFC9
:10114000013200FB0233B3F57A7F04D3013CD2D0E5
:1011500005F57A75E0E701F03BF8DDE7088EFF1F43
:1011600018E000E004ED00E0BFD401008988888821
:10117000F8B5274B2749284C284D294A294F2A4E94
:101180004FF4000018604FF0807018604FF000704E
:1011900018604FF0806018604FF000601860002009
:1011A000086028234EF6FF713960336013602360B6
:1011B0002B609361A361AB611363092244F81C2C7B
:1011C00004F6EC74C5F8E00F2160C5F8E83FE36071
:1011D000C5F8DC2F04F5FD2405F5FF2505F2E475BF
:1011E000C4F8FC07296011481149C4F804380360A9
:1011F0000A6001F063F81920FFF76CFF04F2FC7439
:1012000000F0D0FDBDE8F84040F21310FFF762BFD8
:1012100008E100E0048003401C8003402480034078
:1012200014800340088003400C80034014800B406E
:1012300000800B40431E032B14D872B60A4951F8A4
:10124000230068B170B4094C058834F8132046684F
:1012500041F82360521B24F8132062B670BC70471B
:1012600062B67047002070479C8EFF1F0C8FFF1FD7
:10127000013803280BD872B6074B53F8203043B11E
:1012800000205B680130002BFBD162B67047002064
:1012900070471846F9E700BFC48EFF1F30B472B61E
:1012A0002B4A13781D0706D52A4B196A002936D018
:1012B000996A002941D053781C0706D5254B196C33
:1012C00000293ED0996C002939D09378190705D5AB
:1012D000204B196E002936D0996E89B1D3781B073F
:1012E00007D51C4BD3F880207AB3D3F8882011247B
:1012F0003AB162B6184B00221A7030BC00F0D4BD6F
:101300000D241549154D0A7843F8345003EBC403F6
:101310000830013A58600A7062B630BC7047042247
:101320000D4C0F4D217843F8325003EBC2030830C7
:1013300001395860217062B6EFE70524E1E709241E
:10134000DFE70822ECE70C22EAE71022E8E700BF1B
:101350002C4100000080FF1FEA8EFF1FC8004000E4
:1013600088004000421E032A0ED81C4B400140F06A
:10137000100070B4184472B6194CA35C032B1CD82F
:10138000DFE803F013150318704705250E88A554F0
:1013900010F0080F14BFC823882343EA064308311E
:1013A000C0E9003162B670BC70470325EEE7083033
:1013B0000225EBE708300425E8E70A4B53F8220042
:1013C00038B1094B53F82200416043F8221062B64D
:1013D000E9E743F82210044BF7E700BF0080FF1F46
:1013E000E48EFF1FC48EFF1FD48EFF1F2DE9F04F28
:1013F000DFF84893DFF848A385B03EE0BC4D9E0877
:1014000005EBC607013A796813F00803D4B2A1F1DD
:10141000080C40F0BF8055F83600020C000C21F893
:10142000082C00F0AE80B34821F8063C41F8043C9B
:1014300050F82430002B00F05C82AF4951F8243082
:10144000C3F804C0AD4B41F824C033F814100A446B
:1014500023F8142000F008FD002800F04382A84A79
:10146000A84B17F0080F00F1080008BF134678607A
:1014700045F83630082389F8003099F800305E07C7
:10148000DCB21BD5A04B1B78ABB1A0490A7802F0A7
:10149000FF032AB1013BDBB20B70002B00F0638429
:1014A0009B490A7802F0FF032AB1013BDBB20B70C3
:1014B000002B00F04182042389F8003014F0080268
:1014C00000F025829AF80020D3B2120996D1DFF8F5
:1014D00020B29B080BEBC3045BF833006568C0F3D4
:1014E0008300092800F0858010D80138012809D828
:1014F000884A148842F22100844200F04982814ADD
:101500004BF83320844A01231370B3E70D28F9D137
:101510002F687C496D687F4E4BF833107F48804CB4
:10152000CBF81020BBB240F2816E4FF0010C734536
:10153000C6E90075CBF81820026084F800C000F2FC
:101540001981B3F5D06F80F01283B3F5817F00F07D
:10155000F68240F2F78040F20232934240F08380FC
:1015600005F07F05042D00F2B9813A0C40F0B681F8
:101570006C4911F8253043F0020301F82530134679
:1015800077E05F4A5F4B17F0080F08BF134645F836
:1015900036306FE7604600F087FC6349634A51F8D4
:1015A0002430002B00F0A981586812F804C041F8DB
:1015B000240003F108017960BCF1030F05D8DFE8CE
:1015C0000CF0120F1502042111551A8817F0080F9C
:1015D00014BFC823882343EA024345F8363049E75D
:1015E00002211155F1E703211155EEE705211155AF
:1015F000EBE74A48076857B34D49494CB1F800C07A
:101600004C4D94F800802E786346402B28BF402331
:1016100046F0020EB8F1000F88F0010884F800804F
:10162000ACEB030214BFC82488240BEBCE0844EAB9
:10163000034492B286F001064BF83E400A803B44D8
:10164000C8F804702E70002A00F080810360314BCE
:101650001A88B2F5A06F7FF455AF00219A785970BF
:10166000354B1A704EE7B3F5A06F40F0378100227A
:101670001346F6882F4DB2422F7828BF3246402AB3
:10168000164647F0020828BF40264FEA064C0BEBEF
:10169000C80E4CF0C8014BF8381087F0010C4FF021
:1016A0000008CEF804303344961B85F800C084F857
:1016B000008000F05D814CF0020C402E32462F700D
:1016C00028BF40220BEBCC07150445F0880501210B
:1016D0007B601344B21A4BF83C50217000F04481F7
:1016E000134903600A800C4A012313700AE700BF04
:1016F0000080FF1F9C8EFF1FAC8EFF1F0C8FFF1FF3
:1017000088004000C8004000E88EFF1FE98EFF1FE0
:10171000F98EFF1FBC8EFF1F94200740908EFF1F85
:101720008D8EFF1FC0200740C48EFF1FE48EFF1F59
:101730008E8EFF1F8C8EFF1F982007408020074051
:1017400090200740802B00F0F581822B40F0C6806E
:1017500005F07F05042D00F2C180B44B00221A80F1
:10176000B34A12F82520950740F11A8201221A7017
:1017700002227EE742F221029342B4D013D942F210
:101780002122934240F0A580ADB2002D7FF46FAFCF
:10179000A84DA94AA94B2D681560C7F30747002239
:1017A0001F70134665E7B3F5086F00F0DA81B3F5F3
:1017B000106F40F09380DBF82030A14AC7F3074751
:1017C0001D06177000F1EE81DBF82830180600F1D5
:1017D0006782DBF83030190600F15C82DBF83830C4
:1017E0001A0600F15182DBF840301B0600F14682F8
:1017F000DBF848301F0600F13B82DBF850301E0654
:1018000000F16682DBF858301D0600F15B82DBF8E0
:101810006030180600F15082DBF86830190600F1DC
:101820004582DBF870301A0600F15E82DBF8783012
:101830001B0600F15382DBF880301F0600F1128294
:10184000DBF888301E0600F10782DBF890301D06B9
:1018500000F1DA81DBF89830180600F1CF81794A7F
:10186000794B0292794A0192794E7A4ADFF81882CE
:101870000394009200251C4656F8047B2FB138468D
:101880007F6800F011FB002FF9D1009BD8F80070A1
:1018900043F8045B46F8045C00932FB138467F6838
:1018A00000F002FB002FF9D1029A237842F8045B82
:1018B0000292019A48F8045B22F8025B023B019213
:1018C000032B00F2E680DFE813F02F01E1002F0187
:1018D000E10042F2213293423FF4C9AE544A0F2351
:1018E000137000E75C4A45F8360013780133137033
:1018F000C0E540F824C05749A4E5115D022923D072
:101900007FF6B8AD03291AD101231355B2E5E007DC
:101910006AD421061FD4A20706D5504A504913782D
:101920000220DBB213700870E30602D54C4B102284
:101930001A7005B0BDE8F08F00F026FCBBE517F08B
:10194000080F14BF03230223135593E5BCF13F0F87
:1019500098BF00237AE63649414B80220D2008705B
:101960001A70A207E0D5D8E73F2E3FF6B9AEBAE627
:101970003F2A4FF001007FF6B6AE4CF0020C0BEBA5
:10198000CC02207088204BF83C002F705360AAE6F0
:10199000928892B9334A2C78687814705070AC7879
:1019A000E8789470D07010682C796E79147186285C
:1019B000AC795671947100F0B9802B4D2B4C2A787C
:1019C000207882F00106002842F002022E7014BF37
:1019D000C82588254BF832500BEBC20280F001007D
:1019E0000025207055608AE5214B22481E491A6166
:1019F000022505700E4E0A701F4919609960174C38
:101A0000174D9A610D213170FF21217029702274C8
:101A10001A4A29739F251570194C1A4A0121017021
:101A20005C60DA6005B0BDE8F08F00BF948EFF1FE8
:101A3000C0200740088EFF1F1C8FFF1FF88EFF1F5E
:101A4000E88EFF1FD48EFF1FE48EFF1F0C8FFF1F39
:101A50009C8EFF1FAC8EFF1FEA8EFF1F8820074061
:101A600080200740148FFF1F8C8EFF1F8D8EFF1F5D
:101A70000080FF1F9420074088004000842007401A
:101A80000C8EFF1F4C8EFF1FC48EFF1F4FF00103F3
:101A90002370B54BB34204F101047FF4EDAEB34DB6
:101AA000B34E2B78039C00223270B24A1907137090
:101AB00000F191806B78B04800220370CBF83020A1
:101AC000CBF838201A0773D4AB78AC4800220370E7
:101AD0001B07CBF85020CBF8582000F1AC80EB78F6
:101AE000A74800221F070370CBF87020CBF878209E
:101AF00000F19080A34D20782F7847F002020BEB85
:101B0000C20600237360CBF89030CBF8983080F099
:101B10000103002840F01E8187F0010788204BF860
:101B200032002F702370DEE52570B2E7964A0F2051
:101B3000107042E7954B00221A80022299E505F0C9
:101B40007F05042D3FF6CAAE3B0C7FF4C7AE90492B
:101B500011F82530002223F0020301F82530134646
:101B600087E58C4A894B12781A70624681E58A4A69
:101B70005368002B3FF4B2AE3F0CADB204E01369E2
:101B80000C32002B3FF4AAAE1188B942F7D151882C
:101B9000A942F4D13F0A032F0CBF1A78128968E5D5
:101BA000022266E5DBF82400083800F07DF90BE638
:101BB00000F05AF9002800F0BB80784B0830CBE9E0
:101BC000103000F051F9002800F0AC80744B083060
:101BD000CBE9123078E700F047F9002800F0B48034
:101BE0006E4B0830CBE9083000F03EF9002800F0D9
:101BF000A5806B4B0830CBE90A305BE7DBF89C0033
:101C0000083800F051F92AE6DBF89400083800F0B3
:101C10004BF91FE600F028F900287DD05F4B083013
:101C2000CBE9203000F020F900286FD05C4B083061
:101C3000CBE922305EE700F017F9002860D0574B5F
:101C40000830CBE9183000F00FF9002852D0544B7F
:101C50000830CBE91A3042E7DBF88C00083800F096
:101C600023F9F2E5DBF88400083800F01DF9E7E518
:101C7000DBF84C00083800F017F9BEE5DBF844004B
:101C8000083800F011F9B3E5DBF83C00083800F043
:101C90000BF9A8E5DBF83400083800F005F99DE5FC
:101CA000DBF82C00083800F0FFF892E5DBF86C0058
:101CB000083800F0F9F8B4E5DBF86400083800F003
:101CC000F3F8A9E5DBF85C00083800F0EDF89EE5D4
:101CD000DBF85400083800F0E7F893E5DBF87C0007
:101CE000083800F0E1F8A6E5DBF87400083800F0E9
:101CF000DBF89BE53378CBF8680001333370EEE610
:101D00003378CBF86000013333709CE73378CBF83D
:101D1000880001333370EDE63378CBF8800001336F
:101D200033707FE73378CBF8480001333370CBE66C
:101D30003378CBF840000133337042E73378CBF887
:101D4000280001333370B5E63378CBF82000013337
:101D5000337049E787F0010CC8204BF8320085F852
:101D600000C02370BFE400BEAC8EFF1F2C410000FA
:101D7000EA8EFF1FC4200740C8200740CC20074040
:101D8000D02007408C8EFF1FE98EFF1F948EFF1F0F
:101D9000C0200740E88EFF1FD840000088004000A8
:101DA000C8004000F8B500F007FB1C48002200F115
:101DB000A0010346C3E9002208338B42FAD1184937
:101DC000184E0B68184C194DDFF870C0184F43F4CB
:101DD00080230B60C0F3072301F52731337001F531
:101DE0007771C0F307432370000EFF2328708CF82F
:101DF0000030104804F8283C0B700F4C01233B7056
:101E000085F84C2006F8183C70254FF4007210231A
:101E10002570026081F8F830F8BD00BF0080FF1F18
:101E2000348004409C200740B0200740B420074085
:101E30009420074008E100E049E400E080200740EA
:101E400000F0A4B800F07CB800F056B800F090B8EC
:101E500000F06EB900F048B90846114600F0B2B87B
:101E6000084600F033B900BF72B60D490B68B3FAEB
:101E700083F00B2810DC4FF00042C24023EA02033B
:101E80000B6062B6074A00EBC000C10002EBC00065
:101E9000002353504360704762B60020704700BF74
:101EA0005888FF1FBC83FF1F0E4BC31AB3F5587F22
:101EB00010D20D4A127872B972B60C480C49A0FBC8
:101EC00003231B0908684FF0004222FA03F303437F
:101ED0000B6062B67047074A1278002AECD0FFF711
:101EE000DDB900BFBC83FF1FEA8EFF1F398EE338C8
:101EF0005888FF1FE88EFF1F38B50F4C206878B157
:101F000043880288C11801339A420D7A02D943806E
:101F1000284638BDFFF7C8FF00232360284638BD98
:101F2000064B1B782BB10320FFF784F920600028B3
:101F3000E6D14FF0FF35EBE7EC8EFF1FE88EFF1F79
:101F400010B5094C206818B143881844007A10BDB8
:101F5000064B1B782BB10320FFF76CF9206000289B
:101F6000F2D14FF0FF3010BDEC8EFF1FE88EFF1F47
:101F7000044B054A1B6890881BB11A885B88D31AEA
:101F800018447047EC8EFF1F0C8FFF1F0B4B1B7804
:101F90009BB110B50A4C206848B1FFF785FF0023BC
:101FA00003202360FFF746F930B1FFF77DFF0320E0
:101FB000FFF740F90028F8D110BD7047E88EFF1FE9
:101FC000EC8EFF1F2DE9F04FDFF8F49083B0012273
:101FD000019189F8002079B3374FDFF8E880374E58
:101FE000DFF8E4A0019D83463968A1B3B1F802E0AF
:101FF000CEF1400CAC4528BFAC460EEB0C040022E1
:10200000A4B23270A5EB0C054C8001F10802BCF1C2
:10201000000F0AD00EF1FF3E7244DC441BF8014B66
:1020200002F8014FDC45F9D14C883F2C0BD8052232
:102030008AF80020002DD7D10198002389F80030BC
:1020400003B0BDE8F08F40220A800420FFF78AF930
:1020500000223A60EBE798F800202AB34DF2E90439
:1020600008E0013C19D03278BAB900F0B1F898F81C
:102070000020CAB10420FFF7FBF80728F1D84FF081
:10208000010389F80030FFF7EFFE014638600028B1
:10209000ACD1013C89F80000E5D101234FF0FF30BD
:1020A000337003B0BDE8F08F00234FF0FF3089F8A4
:1020B000003003B0BDE8F08FF48EFF1FF08EFF1FDD
:1020C000F18EFF1FE88EFF1FF98EFF1F00B583B052
:1020D000034601210DF107008DF80730FFF772FF6D
:1020E00003B05DF804FB00BF38B50E4D0E4C2868F8
:1020F0000123237028B140880023C0F140002370E1
:1021000038BD0A4B1B7813B90020207038BD04205D
:10211000FFF7AEF80728F7D8FFF7A6FE28600028DB
:10212000E9D1F1E7F48EFF1FF18EFF1FE88EFF1F4C
:10213000F8B5114B1B788BB1104E114D3468012747
:102140002F7064B10F4A63880027177021462380DF
:102150000420FFF707F9376000232B70F8BDFFF765
:1021600083FE084B014620B104201C70FFF7FAF8EB
:10217000F2E71F70F0E700BFE88EFF1FF48EFF1F2D
:10218000F18EFF1FF98EFF1F38B50E4B1B7853B928
:102190000D4C216841B103F0FF054B880B800420F2
:1021A000FFF7E0F8256038BDFFF75EFE014620B17D
:1021B000BDE838400420FFF7D5B8044B01221A705F
:1021C00038BD00BFF18EFF1FF48EFF1FF98EFF1F79
:1021D0002DE9F843314E3378002B2BD0304F3A782D
:1021E000002A27D10122D9073A7040D49A0723D474
:1021F00000225B073A701DD52A4B1A68D2B1EFF363
:102200000582BAB9EFF3108572B6186800283BD082
:10221000254C2178002937D142691A6001232370A7
:10222000002A35D0916105B962B6002583684577EB
:1022300098472570BDE8F883DFF8788098F800208B
:10224000002AD5D00025DFF870902B4659F823409E
:10225000236820461B690135984708B123699847D0
:1022600098F80020EBB29A42F0D83378C0E7FFF735
:102270007FFE80B90D4B1B780BB93378B6E7337806
:1022800003F0FE033370B1E7002DD3D162B6D1E77E
:10229000074B1A60C7E700F08DF8EBE75C88FF1F7B
:1022A000FA8EFF1FF08DFF1FFC8DFF1F5F88FF1F41
:1022B000008EFF1F088FFF1FFC8EFF1F30B42F48BA
:1022C0002F4A304B304D6024E121047011701B788F
:1022D0002E4C082B36D00A2B2D482E4920D00C2B03
:1022E0000CBF35225D2212232A60236002600B603E
:1022F000294B2A491B782A4ACBB101230B60136072
:10230000284B29491B78294A012B13D9042B1FD8A4
:1023100084230B601360264B01221A7030BC704777
:10232000392213232A60236002600B60E0E70B6010
:102330001360E5E780230B6013601D4B01221A70C8
:1023400030BC704700F58E20124908302122E8E7A2
:10235000082B07D885230B601360154B01221A70D8
:1023600030BC7047102B94BF862387230B6013600B
:102370000F4B01221A7030BC704700BF004007406D
:10238000014007405D88FF1F08B003400CB00340C8
:1023900008B00B400CB00B40098FFF1F20B003406A
:1023A00020B00B405E88FF1F24B0034024B00B40D8
:1023B0000A8FFF1F704700BF30B585B072B6194B4A
:1023C000194A1A487021197041250F24802115706F
:1023D00004701A46197013781B06FCD5144B186844
:1023E00062B6144B144C984238BF00EB800001A930
:1023F00038BF40000A22FEF7C5FD01A92046002390
:1024000011F8012B01333AB10A2B20F8022FF7D132
:102410001623237005B030BD5B00DBB2237005B01E
:1024200030BD00BF0000024007000240060002402D
:102430000800024080969800EC88FF1F81F0004160
:1024400002E000BF83F0004330B54FEA41044FEA99
:10245000430594EA050F08BF90EA020F1FBF54EA34
:10246000000C55EA020C7FEA645C7FEA655C00F0D0
:10247000E2804FEA5454D4EB5555B8BF6D420CDDA1
:102480002C4480EA020281EA030382EA000083EA24
:10249000010180EA020281EA0303362D88BF30BDC4
:1024A00011F0004F4FEA01314FF4801C4CEA11311A
:1024B00002D0404261EB410113F0004F4FEA033379
:1024C0004CEA133302D0524263EB430394EA050F04
:1024D00000F0A780A4F10104D5F1200E0DDB02FA73
:1024E0000EFC22FA05F2801841F1000103FA0EF207
:1024F000801843FA05F359410EE0A5F120050EF1CD
:10250000200E012A03FA0EFC28BF4CF0020C43FAFD
:1025100005F3C01851EBE37101F0004507D54FF00A
:10252000000EDCF1000C7EEB00006EEB0101B1F55A
:10253000801F1BD3B1F5001F0CD349085FEA3000A0
:102540004FEA3C0C04F101044FEA445212F5800FAB
:1025500080F09A80BCF1004F08BF5FEA500C50F148
:10256000000041EB045141EA050130BD5FEA4C0C2B
:10257000404141EB0101013C28BFB1F5801FE9D288
:1025800091F0000F04BF01460020B1FA81F308BFAB
:102590002033A3F10B03B3F120020CDA0C3208DD77
:1025A00002F1140CC2F10C0201FA0CF021FA02F152
:1025B0000CE002F11402D8BFC2F1200C01FA02F1C2
:1025C00020FA0CFCDCBF41EA0C019040E41AA2BFE7
:1025D00001EB0451294330BD6FEA04041F3C1CDAAF
:1025E0000C340EDC04F11404C4F1200220FA04F0CF
:1025F00001FA02F340EA030021FA04F345EA030179
:1026000030BDC4F10C04C4F1200220FA02F001FA3A
:1026100004F340EA0300294630BD21FA04F02946BC
:1026200030BD94F0000F83F4801306BF81F4801155
:102630000134013D4EE77FEA645C18BF7FEA655CC8
:1026400029D094EA050F08BF90EA020F05D054EA9A
:10265000000C04BF1946104630BD91EA030F1EBF9F
:102660000021002030BD5FEA545C05D140004941A3
:1026700028BF41F0004130BD14F580043CBF01F596
:10268000801130BD01F0004545F0FE4141F470017C
:102690004FF0000030BD7FEA645C1ABF1946104657
:1026A0007FEA655C1CBF0B46024650EA013406BF58
:1026B00052EA033591EA030F41F4002130BD00BF17
:1026C00090F0000F04BF0021704730B54FF48064D4
:1026D00004F132044FF000054FF0000150E700BF55
:1026E00090F0000F04BF0021704730B54FF48064B4
:1026F00004F1320410F0004548BF40424FF00001A1
:102700003EE700BF42004FEAE2014FEA31014FEAE3
:1027100002701FBF12F07F4393F07F4F81F0605132
:10272000704732F07F4208BF704793F07F4F04BF7D
:1027300041F40021704730B54FF4607401F000455A
:1027400021F000411CE700BF50EA010208BF7047BA
:1027500030B54FF000050AE050EA010208BF7047AB
:1027600030B511F0004502D5404261EB41014FF414
:10277000806404F132045FEA915C3FF4D8AE4FF01C
:1027800003025FEADC0C18BF03325FEADC0C18BFFF
:10279000033202EBDC02C2F1200300FA03FC20FA50
:1027A00002F001FA03FE40EA0E0021FA02F114449D
:1027B000BDE600BF4FF0FF3C06E000BF4FF0010C4C
:1027C00002E000BF4FF0010C4DF804CD4FEA410C80
:1027D0007FEA6C5C4FEA430C18BF7FEA6C5C1BD04D
:1027E00001B050EA410C0CBF52EA430C91EA030FCE
:1027F00002BF90EA020F0020704710F1000F91EA2B
:10280000030F58BF994208BF90422CBFD8176FEAF8
:10281000E37040F0010070474FEA410C7FEA6C5CC6
:1028200002D150EA013C07D14FEA430C7FEA6C5CCD
:10283000D6D152EA033CD3D05DF8040B704700BFF9
:102840008446104662468C461946634600E000BF47
:1028500001B5FFF7B7FF002848BF10F1000F01BD19
:102860004DF808EDFFF7F4FF0CBF012000205DF8E4
:1028700008FB00BF4DF808EDFFF7EAFF34BF012069
:1028800000205DF808FB00BF4DF808EDFFF7E0FF02
:1028900094BF012000205DF808FB00BF4DF808ED53
:1028A000FFF7CEFF94BF012000205DF808FB00BFBA
:1028B0004DF808EDFFF7C4FF34BF012000205DF89C
:1028C00008FB00BF4FEA410C7FEA6C5C02D150EA82
:1028D000013C0AD14FEA430C7FEA6C5C02D152EA18
:1028E000033C02D14FF0000070474FF001007047E9
:1028F0004A0011D212F5001211D20DD56FF478737F
:10290000B3EB62520ED44FEAC12343F0004343EAD3
:10291000505323FA02F070474FF00000704750EA1E
:10292000013002D14FF0FF3070474FF00000704788
:1029300080F0004002E000BF81F0004142001FBF74
:102940005FEA410392EA030F7FEA226C7FEA236C7D
:102950006AD04FEA1262D2EB1363C1BFD218414072
:1029600048404140B8BF5B42192B88BF704710F008
:10297000004F40F4000020F07F4018BF404211F0AB
:10298000004F41F4000121F07F4118BF494292EA13
:10299000030F3FD0A2F1010241FA03FC10EB0C003F
:1029A000C3F1200301FA03F100F0004302D54942CC
:1029B00060EB4000B0F5000F13D3B0F1807F06D379
:1029C00040084FEA310102F10102FE2A51D2B1F171
:1029D000004F40EBC25008BF20F0010040EA030066
:1029E0007047490040EB0000013A28BFB0F5000FE6
:1029F000EDD2B0FA80FCACF1080CB2EB0C0200FA9C
:102A00000CF0AABF00EBC25052421843BCBFD040EA
:102A10001843704792F0000F81F4000106BF80F464
:102A200000000132013BB5E74FEA41037FEA226C27
:102A300018BF7FEA236C21D092EA030F04D092F0F2
:102A4000000F08BF0846704790EA010F1CBF002026
:102A5000704712F07F4F04D1400028BF40F0004083
:102A6000704712F100723CBF00F50000704700F0A3
:102A7000004343F0FE4040F4000070477FEA2262CA
:102A800016BF08467FEA23630146420206BF5FEA9B
:102A9000412390EA010F40F4800070474FF000039B
:102AA00004E000BF10F0004348BF40425FEA000C62
:102AB00008BF704743F0964301464FF000001CE00A
:102AC00050EA010208BF70474FF000030AE000BF60
:102AD00050EA010208BF704711F0004302D540429E
:102AE00061EB41015FEA010C02BF84460146002010
:102AF00043F0B64308BFA3F18053A3F50003BCFA2B
:102B00008CF2083AA3EBC25310DB01FA02FC6344D7
:102B100000FA02FCC2F12002BCF1004F20FA02F2DE
:102B200043EB020008BF20F00100704702F12002D1
:102B300001FA02FCC2F1200250EA4C0021FA02F232
:102B400043EB020008BF20EADC7070474FF0FF0C37
:102B50001CEAD0521EBF1CEAD15392EA0C0F93EA32
:102B60000C0F6FD01A4480EA010C400218BF5FEAD4
:102B700041211ED04FF0006343EA501043EA511147
:102B8000A0FB01310CF00040B1F5000F3EBF490041
:102B900041EAD3715B0040EA010062F17F02FD2A45
:102BA0001DD8B3F1004F40EBC25008BF20F0010028
:102BB000704790F0000F0CF0004C08BF49024CEA3F
:102BC000502040EA51207F3AC2BFD2F1FF0340EAD1
:102BD000C250704740F400004FF00003013A5DDC42
:102BE00012F1190FDCBF00F000407047C2F1000283
:102BF000410021FA02F1C2F1200200FA02FC5FEA70
:102C0000310040F1000053EA4C0308BF20EADC70B9
:102C1000704792F0000F00F0004C02BF400010F42B
:102C2000000F013AF9D040EA0C0093F0000F01F0D8
:102C3000004C02BF490011F4000F013BF9D041EAFA
:102C40000C018FE70CEAD15392EA0C0F18BF93EAFC
:102C50000C0F0AD030F0004C18BF31F0004CD8D126
:102C600080EA010000F00040704790F0000F17BFAD
:102C700090F0004F084691F0000F91F0004F14D0F3
:102C800092EA0C0F01D142020FD193EA0C0F03D14B
:102C90004B0218BF084608D180EA010000F000404E
:102CA00040F0FE4040F40000704740F0FE4040F429
:102CB000400070474FF0FF0C1CEAD0521EBF1CEAC8
:102CC000D15392EA0C0F93EA0C0F69D0A2EB0302E6
:102CD00080EA010C49024FEA402037D04FF0805380
:102CE00043EA111143EA10130CF000408B4238BF45
:102CF0005B0042F17D024FF4000C8B4224BF5B1A53
:102D000040EA0C00B3EB510F24BFA3EB510340EAA0
:102D10005C00B3EB910F24BFA3EB910340EA9C004E
:102D2000B3EBD10F24BFA3EBD10340EADC001B01BE
:102D300018BF5FEA1C1CE0D1FD2A3FF650AF8B4262
:102D400040EBC25008BF20F0010070470CF0004C6F
:102D50004CEA50207F32C2BFD2F1FF0340EAC2509A
:102D6000704740F400004FF00003013A37E792F05B
:102D7000000F00F0004C02BF400010F4000F013AB9
:102D8000F9D040EA0C0093F0000F01F0004C02BFB4
:102D9000490011F4000F013BF9D041EA0C0195E71D
:102DA0000CEAD15392EA0C0F08D142027FF47DAFB6
:102DB00093EA0C0F7FF470AF084676E793EA0C0FA6
:102DC00004D14B023FF44CAF08466EE730F0004CA4
:102DD00018BF31F0004CCAD130F000427FF45CAF34
:102DE00031F000437FF43CAF5FE700BF42000ED2FA
:102DF000B2F1FE4F0BD34FF09E03B3EB126209D436
:102E00004FEA002343F0004323FA02F070474FF0EB
:102E10000000704712F1610F01D1420202D14FF060
:102E2000FF3070474FF00000704700BF70B50D4E87
:102E30000D4D761BB61006D0002455F8043B013426
:102E40009847A642F9D1094E094D761B01F072F957
:102E5000B61006D0002455F8043B01349847A6422A
:102E6000F9D170BD48410000484100005C410000BC
:102E700048410000024B13B1024800F005B870470A
:102E800000000000952E0000002301461A46184657
:102E900000F01AB838B5084B084D5B1B9C1007D0E2
:102EA000043B1D44013C55F804399847002CF9D1E6
:102EB000BDE8384001F052B90000000000000000F9
:102EC000704700BF704700BF2DE9F047DFF880A0D2
:102ED0000646DAF8000098460F469146FFF7F0FFE5
:102EE0001A4B1B68D3F8484124B365681F2D26DCB4
:102EF0005EB9AB1C0135DAF80000656044F8237058
:102F0000FFF7E0FF0020BDE8F08704EB8503012117
:102F1000C3F88890D4F88821A9400A43022EC4F847
:102F20008821C3F80881E4D1D4F88C311943C4F85E
:102F30008C11DEE703F5A674C3F84841D5E7DAF84B
:102F40000000FFF7BFFF4FF0FF30DCE7304100002B
:102F5000308DFF1F70B54FF0FF0C4CF4E06C1CEA95
:102F600011541DBF1CEA135594EA0C0F95EA0C0F7F
:102F700000F0DEF82C4481EA030621EA4C5123EAF2
:102F80004C5350EA013518BF52EA033541F4801121
:102F900043F4801338D0A0FB02CE4FF00005E1FBD4
:102FA00002E506F00042E0FB03E54FF00006E1FB1E
:102FB00003569CF0000F18BF4EF0010EA4F1FF0461
:102FC000B6F5007F64F5407404D25FEA4E0E6D41A1
:102FD00046EB060642EAC62141EA55514FEAC520B2
:102FE00040EA5E504FEACE2EB4F1FD0C88BFBCF52E
:102FF000E06F1ED8BEF1004F08BF5FEA500E50F1DF
:10300000000041EB045170BD06F0004646EA0101A4
:1030100040EA020081EA0301B4EB5C04C2BFD4EBD6
:103020000C0541EA045170BD41F480114FF0000ECF
:10303000013C00F3AB8014F1360FDEBF002001F03D
:10304000004170BDC4F10004203C35DA0C341BDCB7
:1030500004F11404C4F1200500FA05F320FA04F089
:1030600001FA05F240EA020001F0004221F00041BD
:1030700010EBD37021FA04F642EB06015EEA430E30
:1030800008BF20EAD37070BDC4F10C04C4F1200560
:1030900000FA04F320FA05F001FA04F240EA020013
:1030A00001F0004110EBD37041F100015EEA430EE4
:1030B00008BF20EAD37070BDC4F1200500FA05F204
:1030C0004EEA020E20FA04F301FA05F243EA020383
:1030D00021FA04F001F0004121FA04F220EA020092
:1030E00000EBD3705EEA430E08BF20EAD37070BDD8
:1030F00094F0000F0FD101F00046400041EB0101B8
:1031000011F4801F08BF013CF7D041EA060195F099
:10311000000F18BF704703F00046520043EB030353
:1031200013F4801F08BF013DF7D043EA0603704740
:1031300094EA0C0F0CEA135518BF95EA0C0F0CD04B
:1031400050EA410618BF52EA4306D1D181EA030191
:1031500001F000414FF0000070BD50EA410606BF8B
:103160001046194652EA430619D094EA0C0F02D1D0
:1031700050EA013613D195EA0C0F05D152EA033615
:103180001CBF104619460AD181EA030101F0004133
:1031900041F0FE4141F470014FF0000070BD41F07C
:1031A000FE4141F4780170BD70B54FF0FF0C4CF456
:1031B000E06C1CEA11541DBF1CEA135594EA0C0F75
:1031C00095EA0C0F00F0A7F8A4EB050481EA030EC2
:1031D00052EA03354FEA013100F088804FEA0333A9
:1031E0004FF0805545EA131343EA12634FEA022277
:1031F00045EA111545EA10654FEA00260EF0004138
:103200009D4208BF964244F1FD0404F5407402D289
:103210005B084FEA3202B61A65EB03055B084FEA1A
:1032200032024FF480104FF4002CB6EB020E75EB17
:10323000030E22BFB61A754640EA0C005B084FEA3F
:103240003202B6EB020E75EB030E22BFB61A7546BC
:1032500040EA5C005B084FEA3202B6EB020E75EB07
:10326000030E22BFB61A754640EA9C005B084FEA7F
:103270003202B6EB020E75EB030E22BFB61A75468C
:1032800040EADC0055EA060E18D04FEA051545EA7B
:1032900016754FEA06164FEAC30343EA52734FEA24
:1032A000C2025FEA1C1CC0D111F4801F0BD141EA9D
:1032B00000014FF000004FF0004CB6E711F4801F02
:1032C00004BF01430020B4F1FD0C88BFBCF5E06FE2
:1032D0003FF6AFAEB5EB030C04BFB6EB020C5FEAF2
:1032E000500C50F1000041EB045170BD0EF0004E47
:1032F0004EEA113114EB5C04C2BFD4EB0C0541EA79
:10330000045170BD41F480114FF0000E013C90E675
:1033100045EA060E8DE60CEA135594EA0C0F08BF39
:1033200095EA0C0F3FF43BAF94EA0C0F0AD150EA38
:1033300001347FF434AF95EA0C0F7FF425AF1046CB
:1033400019462CE795EA0C0F06D152EA03353FF4F3
:10335000FDAE1046194622E750EA410618BF52EA70
:1033600043067FF4C5AE50EA41047FF40DAF52EA44
:1033700043057FF4EBAE12E7BF05BF05BF05BF05F0
:10338000BF05BF05BF05BF05BF05BF05C005C0051B
:10339000C005C005C005C005C005C005C005C10504
:1033A000C105C105C105C105C105C205C205C205EA
:1033B000C205C205C305C305C305C305C305C405CE
:1033C000C405C405C405C505C505C505C605C605AE
:1033D000C605C605C705C705C705C805C805C8058C
:1033E000C905C905C905CA05CA05CA05CB05CB0566
:1033F000CB05CC05CC05CC05CD05CD05CD05CE0541
:10340000CE05CE05CF05CF05CF05D005D005D0051B
:10341000D105D105D205D205D205D305D305D305F3
:10342000D405D405D405D505D505D505D505D605CE
:10343000D605D605D705D705D705D705D805D805AC
:10344000D805D805D905D905D905D905DA05DA058C
:10345000DA05DA05DA05DA05DB05DB05DB05DB0570
:10346000DB05DB05DB05DB05DB05DB05DB05DB055C
:10347000DC05DB05DB05DB05DB05DB05DB05DB054B
:10348000DB05DB05DB05DB05DA05DA05DA05DA0540
:10349000DA05D905D905D905D905D805D805D7053F
:1034A000D705D705D605D605D505D505D405D40548
:1034B000D305D305D205D205D105D005D005CF055A
:1034C000CE05CD05CD05CC05CB05CA05C905C8057A
:1034D000C805C705C605C505C405C305C205C005A1
:1034E000BF05BE05BD05BC05BB05B905B805B705DB
:1034F000B505B405B305B105B005AE05AD05AB0521
:10350000AA05A805A705A505A305A205A0059E0572
:103510009C059B05990597059505930591058F05D4
:103520008D058B05890587058505820580057E0546
:103530007C05790577057505720570056D056B05C8
:1035400068056605630561055E055B055905560559
:10355000530550054D054B054805450542053F05FA
:103560003C053905360533052F052C0529052605AB
:1035700022051F051C051805150512050E050B056E
:10358000070504050005FD04F904F504F204EE0442
:10359000EA04E604E304DF04DB04D704D304CF0425
:1035A000CB04C704C304BF04BB04B704B304AF0413
:1035B000AA04A604A2049E049904950491048C0410
:1035C000880483047F047B04760472046D04680419
:1035D00064045F045B04560451044D04480443042E
:1035E0003E043A04350430042B04260421041C0450
:1035F000170412040E0409040404FF03F903F4037E
:10360000EF03EA03E503E003DB03D603D103CB03B7
:10361000C603C103BC03B703B103AC03A703A203F2
:103620009C03970392038C03870382037C03770335
:1036300072036C03670361035C03570351034C037C
:10364000460341033B03360331032B0326032003C8
:103650001B03150310030A030503FF02FA02F40219
:10366000EF02E902E402DE02D902D302CE02C9026D
:10367000C302BE02B802B302AD02A802A2029D02BA
:10368000970292028D02870282027C027702710207
:103690006C02670261025C02570251024C0247024F
:1036A00041023C02370231022C02270222021D0293
:1036B000170212020D0208020302FD01F801F301D4
:1036C000EE01E901E401DF01DA01D501D001CB010E
:1036D000C601C101BC01B701B201AE01A901A4013B
:1036E0009F019A01960191018C01870183017E015E
:1036F0007901750170016C01670163015E015A0176
:10370000550151014D014801440140013B01370180
:1037100033012F012A01260122011E011A0116017F
:1037200012010E010A0106010201FE00FA00F70073
:10373000F300EF00EB00E800E400E000DD00D9005A
:10374000D500D200CE00CB00C800C400C100BD002F
:10375000BA00B700B400B000AD00AA00A700A400F2
:10376000A1009E009B009800950092008F008C00A5
:1037700089008700840081007E007C00790077004A
:10378000740071006F006C006A00680065006300DF
:1037900061005E005C005A00580055005300510063
:1037A0004F004D004B0049004700450043004100D9
:1037B00040003E003C003A0039003700350034003C
:1037C000320030002F002D002C002A002900280094
:1037D0002600250024002200210020001F001D00DB
:1037E0001C001B001A001900180017001600150015
:1037F0001400130012001100100010000F000E0042
:103800000D000C000C000B000A000A000900090062
:103810000800070007000600060005000500050077
:103820000400040003000300030002000200020081
:103830000200010001000100010000000000000082
:103840000000000000000000000000000000000078
:103850000000000000000000000000000000000068
:103860000000000000000000000000000100010056
:10387000010001000100020002000200020002003B
:10388000030003000300030004000400040005001B
:1038900005000500050006000600060007000700F9
:1038A00007000800080008000900090009000A00D4
:1038B0000A000A000B000B000B000C000C000C00AF
:1038C0000D000D000E000E000E000F000F000F0087
:1038D0001000100010001100110011001200120061
:1038E000120013001300130014001400140014003D
:1038F000150015001500160016001600160017001A
:1039000017001700170018001800180018001900F9
:1039100019001900190019001A001A001A001A00DB
:103920001A001A001B001B001B001B001B001B00C1
:103930001B001B001B001B001C001C001C001C00AB
:103940001C001C001C001C001C001C001C001C0097
:103950001C001C001C001C001C001C001B001B0089
:103960001B001B001B001B001B001B001B001B007F
:103970001A001A001A001A001A001A001900190079
:103980001900190019001800180018001800170075
:103990001700170017001600160016001600150075
:1039A0001500150014001400140014001300130077
:1039B000130012001200120011001100110010007B
:1039C000100010000F000F000F000E000E000D0081
:1039D0000D000D000C000C000C000B000B000B0088
:1039E0000A000A000A00090009000900080008008E
:1039F0000800070007000700060006000600050093
:103A00000500050005000400040004000300030095
:103A10000300030002000200020002000200010095
:103A20000100010001000100000000000000000092
:103A30000000000000000000000000000000000086
:103A40000000000000000000000000000000000076
:103A50000000000000000000000001000100010063
:103A60000100010002000200020003000300030045
:103A7000040004000500050005000600060007001C
:103A800007000800090009000A000A000B000C00EA
:103A90000C000D000E000F001000100011001200AD
:103AA00013001400150016001700180019001A0062
:103AB0001B001C001D001F0020002100220024000C
:103AC00025002600280029002A002C002D002F00A8
:103AD0003000320034003500370039003A003C0035
:103AE0003E004000410043004500470049004B00B4
:103AF0004D004F0051005300550058005A005C0023
:103B00005E0060006300650068006A006C006F0082
:103B100071007400760079007C007E0081008400D2
:103B2000870089008C008F009200950098009B0010
:103B30009E00A100A400A700AA00AD00B000B40040
:103B4000B700BA00BD00C100C400C800CB00CF0060
:103B5000D200D600D900DD00E000E400E800EB0070
:103B6000EF00F300F700FA00FE00020106010A016F
:103B70000E01120116011A011E01220126012A015D
:103B80002F01330137013B014001440148014D0140
:103B9000510155015A015E01630167016C01700119
:103BA000750179017E01830187018C0191019601E4
:103BB0009A019F01A401A901AE01B201B701BC01A4
:103BC000C101C601CB01D001D501DA01DF01E40159
:103BD000E901EE01F301F801FD01030208020D0203
:103BE000120217021D02220227022C0232023702A1
:103BF0003C02410247024C02510257025C02610240
:103C000067026C02720277027C02820287028D02D6
:103C1000920297029D02A202A802AD02B302B8026C
:103C2000BE02C302C902CE02D302D902DE02E402FE
:103C3000E902EF02F402FA02FF0205030A0310038D
:103C400015031B03200326032B03310336033B0319
:103C5000410346034C03510357035C0361036703AD
:103C60006C03720377037C03820387038C03920344
:103C700097039C03A203A703AC03B103B703BC03E0
:103C8000C103C603CB03D103D603DB03E003E50383
:103C9000EA03EF03F403FA03FF03040409040E0428
:103CA000130417041C04210426042B0430043504D7
:103CB0003A043E04430448044D04510456045B0492
:103CC0005F04640468046D04720476047B047F045A
:103CD000830488048C049104950499049E04A2042E
:103CE000A604AA04AF04B304B704BB04BF04C3040E
:103CF000C704CB04CF04D304D704DB04DF04E304FC
:103D0000E604EA04EE04F204F504F904FD040005F7
:103D1000040507050B050E051205150519051C05FB
:103D20001F052305260529052C052F053305360516
:103D300039053C053F054205450548054B054D0540
:103D400050055305560559055B055E05610563057C
:103D5000660568056B056D057005720575057705C7
:103D600079057C057E058005820585058705890521
:103D70008B058D058F05910593059505970599058B
:103D80009B059C059E05A005A205A305A505A70505
:103D9000A805AA05AB05AD05AE05B005B105B3058F
:103DA000B405B505B705B805B905BB05BC05BD0526
:103DB000BE05BF05C005C205C305C405C505C605CA
:103DC000C705C805C805C905CA05CB05CC05CD057D
:103DD000CD05CE05CF05D005D005D105D205D2053C
:103DE000D305D305D405D405D505D505D605D60507
:103DF000D705D705D705D805D805D805D905D905DC
:103E0000D905DA05DA05DA05DA05DA05DB05DB05B9
:103E1000DB05DB05DB05DB05DB05DB05DB05DB05A2
:103E2000DB05DB05DB05DB05DB05DB05DB05DB0592
:103E3000DB05DB05DB05DB05DB05DB05DA05DA0584
:103E4000DA05DA05DA05DA05D905D905D905D9057E
:103E5000D805D805D805D805D705D705D705D7057E
:103E6000D605D605D605D505D505D505D405D40581
:103E7000D405D405D305D305D305D205D205D20583
:103E8000D105D105D005D005D005CF05CF05CF058B
:103E9000CE05CE05CE05CD05CD05CD05CC05CC0591
:103EA000CC05CB05CB05CB05CA05CA05CA05C90596
:103EB000C905C905C805C805C805C705C705C7059B
:103EC000C605C605C605C605C505C505C505C4059F
:103ED000C405C405C405C305C305C305C305C3059F
:103EE000C205C205C205C205C205C105C105C1059D
:103EF000C105C105C105C005C005C005C005C00597
:103F0000C005C005C005C005BF05BF05BF05BF058D
:103F1000BF05BF05BF05BF05BF05FFFF3C800440CF
:103F200000100000041A0000FF7F000011100000C4
:103F3000690900000C0800000002000000020000F7
:103F40000B07000040020000000200000D0E000000
:103F500040020000000200000A02090614171516AC
:103F60000F0000000002000000020000000200003C
:103F70000002000000020000000200000002000039
:103F8000000200000002000001010202040408080F
:103F9000100000006E616E00696E66006F7666004C
:103FA0004008FE4340A004404408FE4344A00440AF
:103FB0000018FE4300C004403000FE43309004402F
:103FC0003400FE43349004401C18FE431CC00440DF
:103FD0001018FE4310C004400818FE4308C00440F7
:103FE0000C18FE430CC004400C10FE430CB00440FF
:103FF0001010FE4310B004401810FE4318B00440E7
:104000001C10FE431CB004401410FE4314B00440C6
:104010000418FE4304C004400010FE4300B00440F6
:104020000008FE4300A004400408FE4304A004402E
:104030000C08FE430CA004400808FE4308A00440FE
:104040001418FE4314C004401818FE4318C004405E
:104050000410FE4304B004400810FE4308B00440BE
:104060001400FE43149004404C08FE434CA004404E
:104070000420FE4304D004402410FE4324B0044036
:104080002010FE4320B004402810FE4328B0044016
:104090002C10FE432CB004400020FE4300D004400E
:1040A0004808FE4348A004401000FE43109004401E
:1040B0000000000000000000611E0000591E00000A
:1040C000551E0000511E00004D1E0000491E00003C
:1040D000451E0000411E000000010000A488FF1FD3
:1040E00012000000000200006088FF1F4300000073
:1040F00000030000B888FF1F00000000010309044E
:10410000BC88FF1F0000000002030904D488FF1FC1
:104110000000000003030904EC88FF1F00000000FA
:10412000000000000000000000000000001519154C
:104130000889FF1FF8B500BFF8BC08BC9E46704751
:104140005FF800F02187FF1F752E000011040000AA
:0C415000D9050000E9080000AD0B0000DC
:04415C00F8B500BFF3
:104160002DE9F04FDFF8D880DFF8D8A087B00546FA
:104170004FF0625B041F40F2D156274654F8040FFB
:1041800000F072F8A8FB0023C21A03EB5203226866
:104190009B0AD18C108306FB1303F31AB1F57A7FC7
:1041A0008146938311D0114604A800F051F821688C
:1041B00004A800F05DF82268D38CBD4203F101032E
:1041C000D384DAD107B0BDE8F08F538B41F2873149
:1041D0008B4242F2107CA0EB030028D9894542F2C1
:1041E000107C03D8634588BF00F58040039200F03F
:1041F00047F8594600F034F80F4900F031F8039AB7
:10420000A2F81A90814600F037F80B4602210246C8
:104210000091504600F020F8504600F015F8226852
:104220000649C2F80C9000235161D384BBE7E145F5
:10423000DCD9A0F58040D9E70000A0410000704221
:1042400027821B604888FF1F5FF800F0350D0000D3
:104250005FF800F0E90500005FF800F0510D000084
:104260005FF800F04D2B00005FF800F0A50400009F
:104270005FF800F0090700005FF800F00527000074
:104280005FF800F0A52A0000B84000000000000020
:10429000E803000000000000FFFFFFFF010A040127
:1042A00009024300020100C03209040000010202B9
:1042B0000100052400100105240101010424020667
:1042C00005240600010705820310004009040100CF
:1042D000020A0000000705030240000007058402EF
:1042E000400000001201100102000040C0168304CB
:1042F00075020102030100000403090418035400BD
:10430000650065006E007300790064007500690047
:104310006E006F001603550053004200200053004A
:1043200065007200690061006C0000000C03000071
:10433000000000000000000000000000000000007D
:10434000000000000000000000000000F48BFF1FD0
:104350005C8CFF1FC48CFF1F0000000000000000E9
:10436000000000000000000000000000000000004D
:10437000000000000000000000000000000000003D
:10438000000000000000000000000000000000002D
:10439000000000000000000000000000000000001D
:1043A000000000000000000000000000000000000D
:1043B00000000000000000000000000000000000FD
:1043C00000000000000000000000000000000000ED
:1043D00000000000000000000000000000000000DD
:1043E00000000000000000000000000000000000CD
:1043F00001000000000000000E33CDAB34126DE66A
:10440000ECDE05000B0000000000000000000000D2
:10441000000000000000000000000000000000009C
:10442000000000000000000000000000000000008C
:10443000000000000000000000000000000000007C
:10444000000000000000000000000000000000006C
:04477000208FFF1F78
:00000001FF
