:1000000000800020BD01000019140000D51300007D
:10001000D5130000D5130000D5130000D513000040
:10002000D5130000D5130000D513000019140000EB
:1000300019140000D5130000151300001913000057
:1000400019140000191400001914000019140000FC
:1000500019140000191400001914000019140000EC
:1000600019140000191400001914000019140000DC
:1000700019140000191400001914000019140000CC
:1000800019140000191400001914000019140000BC
:1000900019140000191400001914000019140000AC
:1000A000191400001914000019140000191400009C
:1000B000191400001914000019140000191400008C
:1000C000191400001914000019140000191400007C
:1000D000191400001914000019140000191400006C
:1000E000191400001914000019140000191400005C
:1000F000191400001914000019140000191400004C
:10010000191400001914000019140000191400003B
:10011000191400001914000019140000191400002B
:10012000191400001914000019140000191400001B
:100130001914000019140000F5070000191400003C
:1001400019140000191400001914000019140000FB
:1001500019140000191400001914000019140000EB
:1001600019140000DD180000191400001914000013
:1001700019140000191400001914000019140000CB
:1001800019140000191400001914000019140000BB
:1001900019140000191400001914000019140000AB
:1001A000191400001914000019140000191400009B
:1001B000191400001914000019140000564B4CF2D9
:1001C000205210B51A804DF628121A8000BF00BFC9
:1001D00001F026F9514B4FF010621A60504A9A60B4
:1001E000504ADA60504A136813F4807304D14F49BF
:1001F0000B604FF4A85313604D4B1A78110703D5C9
:100200001A7842F008021A704A4B4B492A221A7097
:100210004A4B4B4A8B4204D252F8040B43F8040B6E
:10022000F8E7484B484900228B4202D243F8042B9E
:10023000FAE7464A464811460023013350F8044B7A
:1002400041F8044B6F2BF8D1424B4349802003F80F
:10025000010B8B42FBD1414B1A60414B8A221A7031
:10026000A3F5805324225A70A0221A709A7992071B
:10027000FCD59A79D406FCD43A4B19469A7902F007
:100280000C02082AFAD103221A7146225A718B797C
:100290009806FCD5334B9A795106FCD5324A4FF07B
:1002A000827111600921516020221A702D4A9379C0
:1002B00003F00C030C2BFAD12C4B2D4A1A602D4B5A
:1002C0002D4A1A6000225A60072243F8042C2B4A58
:1002D000C3F80C2D62B601F0C3F9144B1B68DA07A2
:1002E00005D5274801F050F9264B274A1A60274BBD
:1002F0001B785B0609D5234C234B22689A4204D114
:100300001F4801F041F90023236002F009FE01F0CB
:100310008DF801F057F8FEE70E20054030800440CC
:10032000823F04000100002B10D0034014D0034092
:1003300002D0074000E007408C93FF1F2087FF1F7B
:10034000F84600008C93FF1FEC95FF1F0082FF1FF3
:100350000000000000E400E05FE400E008ED00E0E1
:1003600000500640004006404480044004800440A1
:10037000C010050014E000E0BFD401000000202000
:100380003CF01D5F1CE00340A5C3945A00F00740F9
:10039000FFFFFFFFFFFFFFFFFFFFFFFFFFFFFFFF6D
:1003A000FFFFFFFFFFFFFFFFFFFFFFFFFFFFFFFF5D
:1003B000FFFFFFFFFFFFFFFFFFFFFFFFFFFFFFFF4D
:1003C000FFFFFFFFFFFFFFFFFFFFFFFFFFFFFFFF3D
:1003D000FFFFFFFFFFFFFFFFFFFFFFFFFFFFFFFF2D
:1003E000FFFFFFFFFFFFFFFFFFFFFFFFFFFFFFFF1D
:1003F000FFFFFFFFFFFFFFFFFFFFFFFFFFFFFFFF0D
:10040000FFFFFFFFFFFFFFFFFFFFFFFFDEF9FFFF23
:1004100008B5034B1BB103490348AFF3008008BD87
:10042000000000008C93FF1FF846000038B50D4C0B
:100430002378BFF35B8FDB0701D50B4838BD20461F
:1004400001F00CF80028F8D0942001F011F80546CE
:1004500000F064FA044B20469D6001F005F8024864
:1004600038BD00BFC493FF1FCC93FF1F10B50C46CF
:100470000121A07801F0A0F82078012101F09CF87A
:1004800060780121BDE8104001F096B88B78084AE9
:1004900052F83300012380F88030087852F8300099
:1004A00080F88030497852F8312082F880307047E7
:1004B0003445000070B453790A2B0DD0163B012B44
:1004C0000AD90B4D0B480C4B8E884C880A882E603D
:1004D000046070BC1A607047084D0948094B0E88CB
:1004E0004C888A882E60046070BC1A60704700BF18
:1004F0004880034030800340208003402880034030
:100500001080034018800340F0B42A4F2A4E2B4D30
:100510002B492C4C2C482D4A00233B60C0273760C8
:100520002B6006250D6040F2DC55256004F59834FB
:1005300008342821016013602068254D40F24442B0
:100540001043206046F8781C2B6054F80C0C1043C4
:1005500044F80C0C46F8701CAB6054F8080C1D4DA8
:10056000104344F8080C287801281AD9083C04F5EF
:100570008054194D19482960143403602068703E76
:1005800010432060B16145F8143C54F80C0C104342
:1005900044F80C0C1248B16045F8243C03681A4337
:1005A0000260044B0F49682200200860F0BC1A600A
:1005B0001A607047008003408480034074800340C9
:1005C0005480034008800340248003402880034077
:1005D00010800340A493FF1F4480034048800340E1
:1005E0000CB004404C80034010B4044A13785C1CE7
:1005F000147010BC40F82310704700BFA493FF1F75
:1006000010B5044600210F2000F0D6FFA368042196
:10061000D3F8840000F0F2FAA3680C21D3F8840028
:1006200000F0CAFBA3680521D3F8840000F02AFA81
:10063000A3680421D3F8840000F06AFBA0684FF09F
:10064000FF32BDE810400F2100F096B9F8B50C4616
:1006500005460F4FFFF758FF204600F01BF82846CD
:10066000FFF7CEFF3B788BB12C1F002654F8041FF8
:100670002846FFF7FBFE21682846FFF707FF2068A2
:1006800000F0A4F83B780136B342EFDCF8BD00BFC0
:10069000A493FF1F38B5054D0446284600F032FDEF
:1006A00021462846BDE8384000F06ABD2894FF1F67
:1006B000F0B43A493A4BCC7A1A68BCB172B6CB7AEC
:1006C000DD071C4661D49F0706D5364D0E692B68A1
:1006D000CC7A3340CB612B60660705D5324C4D692F
:1006E00023682B400B62236062B6CC7A0B68DD680E
:1006F000954207D02D4E1E602D4DDA6042F08046A7
:100700001E611D602822013AFDD12A4D86792A4AB0
:1007100055F83660012786F800714FF00046DE621A
:100720005A63DA6A002AFCDA82799E6B55F83270D5
:10073000214E012287F88020877955F8377087F895
:1007400000214FF00042DA625E63DA6A002AFCDAC6
:100750008279986B55F832300122C0F30D0083F88E
:10076000802084B1E50703D5144B8A69CC7A1A60DE
:10077000A20703D5124BCA69CC7A1A60630702D567
:10078000104B0A6A1A60F0BC70470F4DCE682C6897
:1007900034408C612C601C4695E700BF2894FF1FF5
:1007A000D893FF1F84E100E088E100E001403F00B2
:1007B00000003F8034450000FFFF001000E100E032
:1007C00004E100E008E100E080E100E010B504464B
:1007D0000121807900F0F0FEA0790121BDE81040F0
:1007E00000F0E4BE014B024A1A607047D893FF1F25
:1007F0000000013A044A05491368012023F08003F0
:1008000013600870704700BF00800340DC93FF1F37
:1008100070B5194D194C1A4EFFF708FE2946FFF71F
:10082000E3FE78232B84FFF701FE2146FFF7DCFE71
:10083000144D154A15491E2323841378002BFCD030
:100840000B78DB07F9D5336828681B1A0E2BF4D90F
:100850004FF47A7000F0B6FEFFF7E8FD0D21FFF7C8
:10086000F5FE72B60A490B4B40204FF080420870EB
:100870001A6062B670BD00BFE093FF1F0494FF1FB3
:100880007894FF1FC095FF1F5895FF1F6895FF1FA5
:100890003EE400E004E100E008B5064B1A7802B936
:1008A00008BD00221A70FFF7C1FDBDE8084003F043
:1008B00013BF00BFDC93FF1F114A124B12491348AC
:1008C00070B4116041F61B41118119810021C2E908
:1008D0000611C3E906110E4C0E4E5060FF25002094
:1008E0001C605E600C4C1162196295729D725461BD
:1008F0005C61D06070BC1061D8601861704700BF47
:10090000E093FF1F0494FF1F211A1F0A1617021AF3
:100910001C08190506090E1A0000A04230B583B064
:100920000F4B009304460F4B0F4A002100F0D4FAFE
:1009300004F140050D4B00930D4A0E4B2846012152
:1009400000F0CAFA02232046C4F88850C4F8905038
:10095000C4F88440C4F88C4084F8803003B030BDC3
:1009600000B003405C4400006444000000B00B4051
:100970009044000060440000531C70B5044611D040
:1009800052B1012A27D0D0F88420D38A9BB243F0F9
:100990000103D382002070BDBDE87040D0F8840010
:1009A00000F0DEBAD0F884000D4600F0AFFA294618
:1009B0000646D4F8880000F0A9FA96B1F8B1D4E957
:1009C0002130597D427D9142294606D8BDE87040CC
:1009D000184600F0C5BAD0F88800BDE8704000F0B5
:1009E000BFBA98B9D4E92112CB8A9BB243F0040371
:1009F000CB82D38A9BB243F00403D382CAE7D4F8F4
:100A000084002946BDE8704000F0AABAD4F88800F6
:100A10002946BDE8704000F0A3BA00BF90F821302D
:100A20008B4228D0012930B41DD059B9124A134B3A
:100A300011701970436B80F821105B0103F184433E
:100A4000C3F8001472B6436B5B0103F184430122C7
:100A500000214276C3F89C14C3F89824C3F89C2460
:100A600062B630BC7047064C034A044B60252570C3
:100A7000E1241470DDE77047014007404000FA426E
:100A80000040074090F823308B420AD0F0B4092987
:100A900000F2AE80DFE801F006062F3F4F5F6F8463
:100AA000919E7047436B5A0102F18442134603F54D
:100AB000807302F5C0720125002696602C462E46F2
:100AC000DD612F460025D5601F605D605E619C6121
:100AD00080F8231072B6436B5B0103F1844301225B
:100AE00000214276C3F89C14C3F89824C3F89C24D0
:100AF00062B6F0BC7047436B5A0102F18442134660
:100B000003F5807302F5C0720025012495602F461D
:100B1000DD612646D6E7436B5A0102F18442134653
:100B200003F5807302F5C0720126002596603446F5
:100B30002F46DD61C6E7436B5A0102F1844213463A
:100B400003F5807302F5C0720025012494602E46DF
:100B5000DD612F46B6E7436B5A0102F1844213462A
:100B600003F5807302F5C0720025012696602C46BD
:100B7000DD612F46A6E7436B5A0102F1844213461A
:100B800003F5807302F5C072002501249560DC61D5
:100B900001240025D4605C601C609D615D6197E765
:100BA000436B5A0102F18442134603F5807302F548
:100BB000C07201249460DC61EAE7436B5A0102F1E0
:100BC0008442134603F5807302F5C07200249460DA
:100BD000DC61DDE7436B5A0102F18442134603F501
:100BE000807302F5C072012500249560DC61CFE7B7
:100BF000C38A9BB243F00103C3827AE738B5437ED0
:100C000004460D4613BB636B012D4FEA431303F1FA
:100C1000844315D903F590630121042D996006D80A
:100C2000002159600422196084F8202038BD082D65
:100C30000FD9102D14D800221A6010225960F3E742
:100C40000022C3F8882484F8202038BD00F00CF876
:100C5000D9E7002008221960586084F8202038BDA8
:100C6000596020221960DFE738B5436B5B0103F15F
:100C7000844303F59063DA69044652B101F020FD24
:100C8000636B5B0103F1844303F59063DA69002A27
:100C9000F4D19B6923B1E38A9BB243F00203E38260
:100CA00072B6637E03B3626B936BD06B116C556C41
:100CB00003440B44906CD16C2B4403440B44C3F3AA
:100CC0004E0343F40043D362936DD06D116E556EA5
:100CD00003440B44906ED16E2B4403440B44C3F386
:100CE0004E0343F40043136362B6A37E002565768A
:100CF00003B938BD20460221FFF7C4FE022100F0EF
:100D000007F804212046FFF779FFA57638BD00BF1C
:100D100038B5437E05460C4683B9042C0BD8DFE872
:100D200004F0101F2E3D03006B6B5B0103F1844345
:100D30000022C3F8102185F8244038BDFFF794FF46
:100D4000EBE76B6B5A0102F1844200210120C2F8EB
:100D50001001C2F88411C2F8801185F8244038BD12
:100D60006B6B5A0102F1844201210020C2F810117C
:100D7000C2F88011C2F8840185F8244038BD6B6B3D
:100D80005A0102F1844201210020C2F81011C2F878
:100D90008001C2F8841185F8244038BD6B6B5A017C
:100DA00002F184420121C2F81011C2F88411C2F884
:100DB000801185F8244038BD38B5C37E8B4213D0EE
:100DC000437E04460D4603BB636B092D4FEA431374
:100DD00003F1844309D80021FF200822C3F80C1135
:100DE000C3F80811E061E27638BD0B2D10D90D2D46
:100DF0001AD80122C3F80821002040F6FF710C2206
:100E0000C3F80C01E161E276EEE7FFF72DFFDBE7C7
:100E10000022C3F80821012040F2FF310A22C3F862
:100E20000C01E161E276DFE701214FF6FF7010224D
:100E3000C3F80C11C3F80811E061E276D4E700BFF3
:100E400070B5037E0446002B39D1204A136843F065
:100E500000631360636B1E4A22625B0103F18443EB
:100E600000250422012684F82420204684F82C50F2
:100E7000E576E5616576E58265752946C3F890619A
:100E8000FFF7CCFD0A21FFF797FF2046A676202129
:100E9000FFF7B4FE31462046FFF7F4FD3146FFF779
:100EA00037FF72B6636B66765B0103F18443C3F868
:100EB0009C54C3F89864C3F89C6462B670BD054A3C
:100EC000136843F000631360C4E700BF3C80044034
:100ED0000002010430800440F8B50A4C069D0A4E19
:100EE000017600291ABF26463A273927C0E90C3572
:100EF00004468663826280F83C70FFF7A1FF2046BB
:100F0000F8BD00BF38600340106003402B2907D8AC
:100F1000836A585C00F01F001F3818BF012070471B
:100F200000207047836A5A565B5C002A426B4FEA86
:100F3000421202F18442B4BF00210121C2F8901193
:100F400072B6416B4A0102F1844203F01F039269B9
:100F5000003A18BF012203EB82130B6062B67047A0
:100F600050B52B2983B0044617D8836A5B5C03F025
:100F70001F031F2B11D0437EBBB9636B627D5B01E6
:100F800003F184430132012662752046C3F88C6464
:100F9000FFF7C8FF304603B050BDE38A9BB243F071
:100FA00004030020E38203B050BD0191FFF75CFE13
:100FB0000199E2E710B4047F4160022CC26002D1C3
:100FC000836810BC184710BC00F03EB970B4464BA3
:100FD000464AD3E90B4108791070454822790270DE
:100FE0009A6A0D790570002A4DD05868C06882420F
:100FF00020D9121A20683F4C05689A62A5424FF02A
:10100000010238D01C68E56815F0804F0568066855
:1010100015BF2D882D780236013645F00045066053
:10102000656335480979017012B1DB6A1B79037079
:1010300070BC70472068C48B260402F1FF313CD499
:10104000C1F30E01C183C58B196BADB20C68C582AB
:10105000E58B2D043CD4C2F30E05E583E58BADB2E0
:10106000E5820568234C013A4FF0000618BF0122C3
:10107000A5429E62C6D11868C46893F8244044F023
:1010800000444463CDE71968586B1C4C0A6305683B
:10109000CC62CC682D681A4E24F08044CC60B542F6
:1010A0004FF0030183F825101AD1037F4260022B11
:1010B000C2600AD170BC83681847C48BC1F30801B1
:1010C00004F47E442143C183BDE770BC00F0BCB88A
:1010D000E68BC2F3080506F47E463543E583BDE79B
:1010E0002B46114670BC18472894FF1F1F800040F4
:1010F0001C8000404C94FF1F1B80004000000FFF2D
:10110000B50F00004368026870B4D3E90045216858
:10111000164E29432160164D164C17491660D560AE
:1011200014611160417A154A5C180A3194F8244020
:1011300053F8215002EBC40149680D60017A5C1834
:1011400003EB8101247ECD6902EBC40149680D6087
:10115000817A581803EB810390F83000596B02EB49
:10116000C00270BC53681960704700BF01401F0087
:10117000011000380110007800001F803445000085
:10118000204A43689A42F0B40FD0827A1A4492F807
:1011900030208A4207D093F830408C4215D093F823
:1011A00031408C422BD0F0BC70470D2907D00E295E
:1011B000EBD1154C227842F004022270E5E7124C84
:1011C000227822F004022270DFE700210C46D3E9E6
:1011D000006536682E4210D00C4D05EBC202002788
:1011E00056681A19376092F830200C3405EBC205A6
:1011F00003EB84036A685B6813608172D3E70121A3
:101200000C46E4E7BC4400007494FF1F3445000022
:101210000A4A0B4B10B413600023C2E90233094C95
:1012200093845460C2E90433C2E90A33C2E90C333F
:10123000C2E9073310BC9361704700BF2894FF1FB9
:1012400000C00240BC440000EFF3108272B6437F3E
:101250005BB9017F012910B40BD0032913D00123FE
:10126000437702B962B610BC70470AB962B67047DC
:101270007047124C2168A1B1114943610B68836129
:1012800008605861EBE70F4C216881B10E4943615A
:101290000B688361086058610C4B4FF080511960F6
:1012A000DDE7074B2060C0E905111860D7E7064B62
:1012B0002060C0E905111860EEE700BF6094FF1FD1
:1012C0007094FF1F6894FF1F6494FF1F04ED00E0FB
:1012D00070B5EFF3108272B60C4C206880B10C4EE2
:1012E00000254369236073B19D6102B962B68368CA
:1012F00045779847EFF3108272B620680028F0D146
:1013000002B962B670BD3360EFE700BF6894FF1F9B
:101310006494FF1FFFF7DCBF024A136801331360B8
:10132000704700BF7894FF1FF0B5012A14BF16461E
:101330000A268BB059B3212202E05FFA8CF23946BB
:10134000B1FBF6F706FB1715ECB2092D04F13005D9
:1013500098BFECB20AAD88BF3734154488BFE4B2F9
:10136000B14202F1FF3C05F8244CE6D233B1013A18
:10137000D2B20AAB13442D2103F8241C036801A93F
:1013800011445B68C2F1220298470BB0F0BD3022D5
:101390008DF825202122E9E70029BABF49422D23F3
:1013A00000230A22FFF7C0BF00B5036883B040F6F0
:1013B0000D22ADF804205B68022201A9984703B012
:1013C0005DF804FB08B5FFF723FAFFF765FA01F0B3
:1013D00077F9FAE708B50F4C236858030DD4236852
:1013E00059050FD423681A0511D42368DB04F3D5FB
:1013F00000F012F823685803F1D500F06FFA236863
:101400005905EFD500F008F823681A05EDD500F06E
:1014100003F8EAE73480044008B5FFF7DBFF00BFBC
:10142000014B10221A80704700200540704700BF12
:10143000094A08B50346106833B169460344A1F56B
:1014400080518B4201D2136008BD01F063FD0C2373
:1014500003604FF0FF3008BD888AFF1F0078B0FAA4
:1014600080F04009704700BF01230370704700BF40
:1014700001F07ABDF0B44C1E2746002501E001358D
:101480003046B0FBF2F602FB1603092B03F1300CD9
:101490008ABF37335FFA8CF3DBB2904207F8013F23
:1014A000EDD2681C00230B5408446DB1224614F899
:1014B000016F10F8013D2370E34302320B44521ACE
:1014C0002B449A420670F1DB0846F0BC704700BF1F
:1014D00010B40F4B53F8302092F880422CB1012306
:1014E00091B182F8803010BC704703EBC0004368B4
:1014F0001A6821B922F0020210BC1A60704742F04B
:10150000030210BC1A60704782F8003110BC7047AB
:10151000344500001B4A02EBC00301295B6818D068
:10152000042909D052F83000002280F88022E1B965
:101530004FF480721A60704752F830104FF4A27264
:10154000012081F880021A601A6842F020021A60B5
:10155000704752F830004FF4A27280F880121A607F
:101560001A6822F020021A607047022905D0032968
:10157000F9D14FF481721A60704740F203121A6079
:10158000704700BF3445000030B4054B054D064C94
:10159000002210211A602A60206030BC1960704758
:1015A00014D0034004D0034000D00340212801D8C8
:1015B000FFF78EBF704700BF212801D8FFF7AABFF1
:1015C000704700BF2DE9F843044672B61F4E204B0A
:1015D000204A1B683168126862B6520102D5322B6C
:1015E00088BF01310CB9BDE8F8831B4F1B4DDFF8F4
:1015F0006090DFF86080FB1AA5FB03234FF47A7537
:1016000005FB01F505EB931572B6D9F800103268A9
:10161000D8F800C062B611487B1AA0FB03031CF087
:10162000806FC5EB93134FF47A7002D0322988BFD4
:10163000013200FB0233B3F57A7F04D3013CD2D0F0
:1016400005F57A75E0E701F03BF8DDE77894FF1FD8
:1016500018E000E004ED00E0BFD40100898888882C
:10166000F8B5274B2749284C284D294A294F2A4E9F
:101670004FF4000018604FF0807018604FF0007059
:1016800018604FF0806018604FF000601860002014
:10169000086028234EF6FF713960336013602360C1
:1016A0002B609361A361AB611363092244F81C2C86
:1016B00004F6EC74C5F8E00F2160C5F8E83FE3607C
:1016C000C5F8DC2F04F5FD2405F5FF2505F2E475CA
:1016D000C4F8FC07296011481149C4F804380360B4
:1016E0000A6001F063F81920FFF76CFF04F2FC7444
:1016F00000F0D0FDBDE8F84040F21310FFF762BFE4
:1017000008E100E0048003401C8003402480034083
:1017100014800340088003400C80034014800B4079
:1017200000800B40431E032B14D872B60A4951F8AF
:10173000230068B170B4094C058834F8132046685A
:1017400041F82360521B24F8132062B670BC704726
:1017500062B67047002070470C95FF1FB095FF1FC1
:10176000013803280BD872B6074B53F8203043B129
:1017700000205B680130002BFBD162B6704700206F
:1017800070471846F9E700BF3495FF1F30B472B6B2
:101790002B4A13781D0706D52A4B196A002936D023
:1017A000996A002941D053781C0706D5254B196C3E
:1017B00000293ED0996C002939D09378190705D5B6
:1017C000204B196E002936D0996E89B1D3781B074A
:1017D00007D51C4BD3F880207AB3D3F88820112486
:1017E0003AB162B6184B00221A7030BC00F0D4BD7A
:1017F0000D241549154D0A7843F8345003EBC40302
:101800000830013A58600A7062B630BC7047042252
:101810000D4C0F4D217843F8325003EBC2030830D2
:1018200001395860217062B6EFE70524E1E7092429
:10183000DFE70822ECE70C22EAE71022E8E700BF26
:10184000C04600000080FF1F5A95FF1FC8004000DF
:1018500088004000421E032A0ED81C4B400140F075
:10186000100070B4184472B6194CA35C032B1CD83A
:10187000DFE803F013150318704705250E88A554FB
:1018800010F0080F14BFC823882343EA0643083129
:10189000C0E9003162B670BC70470325EEE708303E
:1018A0000225EBE708300425E8E70A4B53F822004D
:1018B00038B1094B53F82200416043F8221062B658
:1018C000E9E743F82210044BF7E700BF0080FF1F51
:1018D0005495FF1F3495FF1F4495FF1F2DE9F04FCE
:1018E000DFF84893DFF848A385B03EE0BC4D9E0882
:1018F00005EBC607013A796813F00803D4B2A1F1E9
:10190000080C40F0BF8055F83600020C000C21F89E
:10191000082C00F0AE80B34821F8063C41F8043CA6
:1019200050F82430002B00F05C82AF4951F824308D
:10193000C3F804C0AD4B41F824C033F814100A4476
:1019400023F8142000F008FD002800F04382A84A84
:10195000A84B17F0080F00F1080008BF1346786085
:1019600045F83630082389F8003099F800305E07D2
:10197000DCB21BD5A04B1B78ABB1A0490A7802F0B2
:10198000FF032AB1013BDBB20B70002B00F0638434
:101990009B490A7802F0FF032AB1013BDBB20B70CE
:1019A000002B00F04182042389F8003014F0080273
:1019B00000F025829AF80020D3B2120996D1DFF800
:1019C00020B29B080BEBC3045BF833006568C0F3DF
:1019D0008300092800F0858010D80138012809D833
:1019E000884A148842F22100844200F04982814AE8
:1019F0004BF83320844A01231370B3E70D28F9D143
:101A00002F687C496D687F4E4BF833107F48804CBF
:101A1000CBF81020BBB240F2816E4FF0010C734541
:101A2000C6E90075CBF81820026084F800C000F207
:101A30001981B3F5D06F80F01283B3F5817F00F088
:101A4000F68240F2F78040F20232934240F0838007
:101A500005F07F05042D00F2B9813A0C40F0B68103
:101A60006C4911F8253043F0020301F82530134684
:101A700077E05F4A5F4B17F0080F08BF134645F841
:101A800036306FE7604600F087FC6349634A51F8DF
:101A90002430002B00F0A981586812F804C041F8E6
:101AA000240003F108017960BCF1030F05D8DFE8D9
:101AB0000CF0120F1502042111551A8817F0080FA7
:101AC00014BFC823882343EA024345F8363049E768
:101AD00002211155F1E703211155EEE705211155BA
:101AE000EBE74A48076857B34D49494CB1F800C085
:101AF0004C4D94F800802E786346402B28BF40233D
:101B000046F0020EB8F1000F88F0010884F800805A
:101B1000ACEB030214BFC82488240BEBCE0844EAC4
:101B2000034492B286F001064BF83E400A803B44E3
:101B3000C8F804702E70002A00F080810360314BD9
:101B40001A88B2F5A06F7FF455AF00219A785970CA
:101B5000354B1A704EE7B3F5A06F40F03781002285
:101B60001346F6882F4DB2422F7828BF3246402ABE
:101B7000164647F0020828BF40264FEA064C0BEBFA
:101B8000C80E4CF0C8014BF8381087F0010C4FF02C
:101B90000008CEF804303344961B85F800C084F862
:101BA000008000F05D814CF0020C402E32462F7018
:101BB00028BF40220BEBCC07150445F08805012116
:101BC0007B601344B21A4BF83C50217000F0448102
:101BD000134903600A800C4A012313700AE700BF0F
:101BE0000080FF1F0C95FF1F1C95FF1FB095FF1F66
:101BF00088004000C80040005895FF1F5995FF1FFE
:101C00006995FF1F2C95FF1F942007400095FF1F2B
:101C1000FD94FF1FC02007403495FF1F5495FF1F00
:101C2000FE94FF1FFC94FF1F982007408020074070
:101C300090200740802B00F0F581822B40F0C68079
:101C400005F07F05042D00F2C180B44B00221A80FC
:101C5000B34A12F82520950740F11A8201221A7022
:101C600002227EE742F221029342B4D013D942F21B
:101C70002122934240F0A580ADB2002D7FF46FAFDA
:101C8000A84DA94AA94B2D681560C7F30747002244
:101C90001F70134665E7B3F5086F00F0DA81B3F5FE
:101CA000106F40F09380DBF82030A14AC7F307475C
:101CB0001D06177000F1EE81DBF82830180600F1E0
:101CC0006782DBF83030190600F15C82DBF83830CF
:101CD0001A0600F15182DBF840301B0600F1468203
:101CE000DBF848301F0600F13B82DBF850301E065F
:101CF00000F16682DBF858301D0600F15B82DBF8EC
:101D00006030180600F15082DBF86830190600F1E7
:101D10004582DBF870301A0600F15E82DBF878301D
:101D20001B0600F15382DBF880301F0600F112829F
:101D3000DBF888301E0600F10782DBF890301D06C4
:101D400000F1DA81DBF89830180600F1CF81794A8A
:101D5000794B0292794A0192794E7A4ADFF81882D9
:101D60000394009200251C4656F8047B2FB1384698
:101D70007F6800F011FB002FF9D1009BD8F80070AC
:101D800043F8045B46F8045C00932FB138467F6843
:101D900000F002FB002FF9D1029A237842F8045B8D
:101DA0000292019A48F8045B22F8025B023B01921E
:101DB000032B00F2E680DFE813F02F01E1002F0192
:101DC000E10042F2213293423FF4C9AE544A0F235C
:101DD000137000E75C4A45F836001378013313703E
:101DE000C0E540F824C05749A4E5115D022923D07D
:101DF0007FF6B8AD03291AD101231355B2E5E007E8
:101E00006AD421061FD4A20706D5504A5049137838
:101E10000220DBB213700870E30602D54C4B10228F
:101E20001A7005B0BDE8F08F00F026FCBBE517F096
:101E3000080F14BF03230223135593E5BCF13F0F92
:101E400098BF00237AE63649414B80220D20087066
:101E50001A70A207E0D5D8E73F2E3FF6B9AEBAE632
:101E60003F2A4FF001007FF6B6AE4CF0020C0BEBB0
:101E7000CC02207088204BF83C002F705360AAE6FB
:101E8000928892B9334A2C78687814705070AC7884
:101E9000E8789470D07010682C796E791471862867
:101EA000AC795671947100F0B9802B4D2B4C2A7887
:101EB000207882F00106002842F002022E7014BF42
:101EC000C82588254BF832500BEBC20280F0010088
:101ED0000025207055608AE5214B22481E491A6171
:101EE000022505700E4E0A701F4919609960174C43
:101EF000174D9A610D213170FF21217029702274D4
:101F00001A4A29739F251570194C1A4A012101702C
:101F10005C60DA6005B0BDE8F08F00BF0495FF1F7C
:101F2000C02007407894FF1FC095FF1F6895FF1FD2
:101F30005895FF1F4495FF1F5495FF1FB095FF1F35
:101F40000C95FF1F1C95FF1F5A95FF1F8820074007
:101F500080200740B895FF1FFC94FF1FFD94FF1FD2
:101F60000080FF1F94200740880040008420074025
:101F70007C94FF1FBC94FF1F3495FF1F4FF001039B
:101F80002370B54BB34204F101047FF4EDAEB34DC1
:101F9000B34E2B78039C00223270B24A190713709B
:101FA00000F191806B78B04800220370CBF83020AC
:101FB000CBF838201A0773D4AB78AC4800220370F2
:101FC0001B07CBF85020CBF8582000F1AC80EB7801
:101FD000A74800221F070370CBF87020CBF87820A9
:101FE00000F19080A34D20782F7847F002020BEB90
:101FF000C20600237360CBF89030CBF8983080F0A5
:102000000103002840F01E8187F0010788204BF86B
:1020100032002F702370DEE52570B2E7964A0F205C
:10202000107042E7954B00221A80022299E505F0D4
:102030007F05042D3FF6CAAE3B0C7FF4C7AE904936
:1020400011F82530002223F0020301F82530134651
:1020500087E58C4A894B12781A70624681E58A4A74
:102060005368002B3FF4B2AE3F0CADB204E01369ED
:102070000C32002B3FF4AAAE1188B942F7D1518837
:10208000A942F4D13F0A032F0CBF1A78128968E5E0
:10209000022266E5DBF82400083800F07DF90BE643
:1020A00000F05AF9002800F0BB80784B0830CBE9EB
:1020B000103000F051F9002800F0AC80744B08306B
:1020C000CBE9123078E700F047F9002800F0B4803F
:1020D0006E4B0830CBE9083000F03EF9002800F0E4
:1020E000A5806B4B0830CBE90A305BE7DBF89C003E
:1020F000083800F051F92AE6DBF89400083800F0BF
:102100004BF91FE600F028F900287DD05F4B08301E
:10211000CBE9203000F020F900286FD05C4B08306C
:10212000CBE922305EE700F017F9002860D0574B6A
:102130000830CBE9183000F00FF9002852D0544B8A
:102140000830CBE91A3042E7DBF88C00083800F0A1
:1021500023F9F2E5DBF88400083800F01DF9E7E523
:10216000DBF84C00083800F017F9BEE5DBF8440056
:10217000083800F011F9B3E5DBF83C00083800F04E
:102180000BF9A8E5DBF83400083800F005F99DE507
:10219000DBF82C00083800F0FFF892E5DBF86C0063
:1021A000083800F0F9F8B4E5DBF86400083800F00E
:1021B000F3F8A9E5DBF85C00083800F0EDF89EE5DF
:1021C000DBF85400083800F0E7F893E5DBF87C0012
:1021D000083800F0E1F8A6E5DBF87400083800F0F4
:1021E000DBF89BE53378CBF8680001333370EEE61B
:1021F0003378CBF86000013333709CE73378CBF849
:10220000880001333370EDE63378CBF8800001337A
:1022100033707FE73378CBF8480001333370CBE677
:102220003378CBF840000133337042E73378CBF892
:10223000280001333370B5E63378CBF82000013342
:10224000337049E787F0010CC8204BF8320085F85D
:1022500000C02370BFE400BE1C95FF1FC0460000F5
:102260005A95FF1FC4200740C8200740CC200740D4
:10227000D0200740FC94FF1F5995FF1F0495FF1FB6
:10228000C02007405895FF1F6C46000088004000A2
:10229000C8004000F8B500F007FB1C48002200F120
:1022A000A0010346C3E9002208338B42FAD1184942
:1022B000184E0B68184C194DDFF870C0184F43F4D6
:1022C00080230B60C0F3072301F52731337001F53C
:1022D0007771C0F307432370000EFF2328708CF83A
:1022E0000030104804F8283C0B700F4C01233B7061
:1022F00085F84C2006F8183C70254FF40072102326
:102300002570026081F8F830F8BD00BF0080FF1F23
:10231000348004409C200740B0200740B420074090
:102320009420074008E100E049E400E080200740F5
:1023300000F0A4B800F07CB800F056B800F090B8F7
:1023400000F06EB900F048B90846114600F0B2B886
:10235000084600F033B900BF72B60D490B68B3FAF6
:1023600083F00B2810DC4FF00042C24023EA020346
:102370000B6062B6074A00EBC000C10002EBC00070
:10238000002353504360704762B60020704700BF7F
:102390009C8AFF1FBC83FF1F0E4BC31AB3F5587FE7
:1023A00010D20D4A127872B972B60C480C49A0FBD3
:1023B00003231B0908684FF0004222FA03F303438A
:1023C0000B6062B67047074A1278002AECD0FFF71C
:1023D000DDB900BFBC83FF1F5A95FF1F398EE3385C
:1023E0009C8AFF1F5895FF1F38B50F4C206878B1A5
:1023F00043880288C11801339A420D7A02D943807A
:10240000284638BDFFF7C8FF00232360284638BDA3
:10241000064B1B782BB10320FFF784F920600028BE
:10242000E6D14FF0FF35EBE75C95FF1F5895FF1F96
:1024300010B5094C206818B143881844007A10BDC3
:10244000064B1B782BB10320FFF76CF920600028A6
:10245000F2D14FF0FF3010BD5C95FF1F5895FF1F64
:10246000044B054A1B6890881BB11A885B88D31AF5
:10247000184470475C95FF1FB095FF1F0B4B1B78EE
:102480009BB110B50A4C206848B1FFF785FF0023C7
:1024900003202360FFF746F930B1FFF77DFF0320EB
:1024A000FFF740F90028F8D110BD70475895FF1F7D
:1024B0005C95FF1F2DE9F04FDFF8F49083B0012207
:1024C000019189F8002079B3374FDFF8E880374E63
:1024D000DFF8E4A0019D83463968A1B3B1F802E0BA
:1024E000CEF1400CAC4528BFAC460EEB0C040022EC
:1024F000A4B23270A5EB0C054C8001F10802BCF1CE
:10250000000F0AD00EF1FF3E7244DC441BF8014B71
:1025100002F8014FDC45F9D14C883F2C0BD805223D
:102520008AF80020002DD7D10198002389F80030C7
:1025300003B0BDE8F08F40220A800420FFF78AF93B
:1025400000223A60EBE798F800202AB34DF2E90444
:1025500008E0013C19D03278BAB900F0B1F898F827
:102560000020CAB10420FFF7FBF80728F1D84FF08C
:10257000010389F80030FFF7EFFE014638600028BC
:10258000ACD1013C89F80000E5D101234FF0FF30C8
:10259000337003B0BDE8F08F00234FF0FF3089F8AF
:1025A000003003B0BDE8F08F6495FF1F6095FF1FFA
:1025B0006195FF1F5895FF1F6995FF1F00B583B0F8
:1025C000034601210DF107008DF80730FFF772FF78
:1025D00003B05DF804FB00BF38B50E4D0E4C286803
:1025E0000123237028B140880023C0F140002370EC
:1025F00038BD0A4B1B7813B90020207038BD042069
:10260000FFF7AEF80728F7D8FFF7A6FE28600028E6
:10261000E9D1F1E76495FF1F6195FF1F5895FF1FF2
:10262000F8B5114B1B788BB1104E114D3468012752
:102630002F7064B10F4A63880027177021462380EA
:102640000420FFF707F9376000232B70F8BDFFF770
:1026500083FE084B014620B104201C70FFF7FAF8F6
:10266000F2E71F70F0E700BF5895FF1F6495FF1F4A
:102670006195FF1F6995FF1F38B50E4B1B7853B945
:102680000D4C216841B103F0FF054B880B800420FD
:10269000FFF7E0F8256038BDFFF75EFE014620B188
:1026A000BDE838400420FFF7D5B8044B01221A706A
:1026B00038BD00BF6195FF1F6495FF1F6995FF1F1F
:1026C0002DE9F843314E3378002B2BD0304F3A7838
:1026D000002A27D10122D9073A7040D49A0723D47F
:1026E00000225B073A701DD52A4B1A68D2B1EFF36E
:1026F0000582BAB9EFF3108572B6186800283BD08E
:10270000254C2178002937D142691A6001232370B2
:10271000002A35D0916105B962B6002583684577F6
:1027200098472570BDE8F883DFF8788098F8002096
:10273000002AD5D00025DFF870902B4659F82340A9
:10274000236820461B690135984708B123699847DB
:1027500098F80020EBB29A42F0D83378C0E7FFF740
:102760007FFE80B90D4B1B780BB93378B6E7337811
:1027700003F0FE033370B1E7002DD3D162B6D1E789
:10278000074B1A60C7E700F08DF8EBE7A08AFF1F40
:102790006A95FF1F6094FF1F6C94FF1FA38AFF1FA1
:1027A0007094FF1F7895FF1F6C95FF1F30B42F4862
:1027B0002F4A304B304D6024E121047011701B789A
:1027C0002E4C082B36D00A2B2D482E4920D00C2B0E
:1027D0000CBF35225D2212232A60236002600B6049
:1027E000294B2A491B782A4ACBB101230B6013607D
:1027F000284B29491B78294A012B13D9042B1FD8B0
:1028000084230B601360264B01221A7030BC704782
:10281000392213232A60236002600B60E0E70B601B
:102820001360E5E780230B6013601D4B01221A70D3
:1028300030BC704700F58E20124908302122E8E7AD
:10284000082B07D885230B601360154B01221A70E3
:1028500030BC7047102B94BF862387230B60136016
:102860000F4B01221A7030BC704700BF0040074078
:1028700001400740A18AFF1F08B003400CB003408D
:1028800008B00B400CB00B407995FF1F20B00340FF
:1028900020B00B40A28AFF1F24B0034024B00B409D
:1028A0007A95FF1F704700BF30B585B072B6194BDF
:1028B000194A1A487021197041250F24802115707A
:1028C00004701A46197013781B06FCD5144B18684F
:1028D00062B6144B144C984238BF00EB800001A93B
:1028E00038BF40000A22FEF7C5FD01A9204600239B
:1028F00011F8012B01333AB10A2B20F8022FF7D13E
:102900001623237005B030BD5B00DBB2237005B029
:1029100030BD00BF00000240070002400600024038
:102920000800024080969800308BFF1F80F0004026
:1029300002E000BF81F0004142001FBF5FEA410397
:1029400092EA030F7FEA226C7FEA236C6AD04FEA97
:102950001262D2EB1363C1BFD218414048404140DC
:10296000B8BF5B42192B88BF704710F0004F40F48E
:10297000000020F07F4018BF404211F0004F41F4AA
:10298000000121F07F4118BF494292EA030F3FD076
:10299000A2F1010241FA03FC10EB0C00C3F1200389
:1029A00001FA03F100F0004302D5494260EB400018
:1029B000B0F5000F13D3B0F1807F06D340084FEA83
:1029C000310102F10102FE2A51D2B1F1004F40EB78
:1029D000C25008BF20F0010040EA030070474900E0
:1029E00040EB0000013A28BFB0F5000FEDD2B0FA7D
:1029F00080FCACF1080CB2EB0C0200FA0CF0AABFA0
:102A000000EBC25052421843BCBFD040184370473D
:102A100092F0000F81F4000106BF80F40000013243
:102A2000013BB5E74FEA41037FEA226C18BF7FEA1A
:102A3000236C21D092EA030F04D092F0000F08BF5C
:102A40000846704790EA010F1CBF0020704712F043
:102A50007F4F04D1400028BF40F00040704712F182
:102A600000723CBF00F50000704700F0004343F0E7
:102A7000FE4040F4000070477FEA226216BF08461D
:102A80007FEA23630146420206BF5FEA412390EAE0
:102A9000010F40F4800070474FF0000304E000BFD6
:102AA00010F0004348BF40425FEA000C08BF704787
:102AB00043F0964301464FF000001CE050EA01024B
:102AC00008BF70474FF000030AE000BF50EA010260
:102AD00008BF704711F0004302D5404261EB41014D
:102AE0005FEA010C02BF84460146002043F0B64372
:102AF00008BFA3F18053A3F50003BCFA8CF2083A97
:102B0000A3EBC25310DB01FA02FC634400FA02FC9F
:102B1000C2F12002BCF1004F20FA02F243EB0200A6
:102B200008BF20F00100704702F1200201FA02FC08
:102B3000C2F1200250EA4C0021FA02F243EB0200FB
:102B400008BF20EADC7070474FF0FF0C1CEAD0523F
:102B50001EBF1CEAD15392EA0C0F93EA0C0F6FD000
:102B60001A4480EA010C400218BF5FEA41211ED0DE
:102B70004FF0006343EA501043EA5111A0FB0131CA
:102B80000CF00040B1F5000F3EBF490041EAD3719F
:102B90005B0040EA010062F17F02FD2A1DD8B3F11B
:102BA000004F40EBC25008BF20F00100704790F08A
:102BB000000F0CF0004C08BF49024CEA502040EADC
:102BC00051207F3AC2BFD2F1FF0340EAC2507047A2
:102BD00040F400004FF00003013A5DDC12F1190FE0
:102BE000DCBF00F000407047C2F10002410021FA52
:102BF00002F1C2F1200200FA02FC5FEA310040F16A
:102C0000000053EA4C0308BF20EADC70704792F0E2
:102C1000000F00F0004C02BF400010F4000F013A1A
:102C2000F9D040EA0C0093F0000F01F0004C02BF15
:102C3000490011F4000F013BF9D041EA0C018FE784
:102C40000CEAD15392EA0C0F18BF93EA0C0F0AD08A
:102C500030F0004C18BF31F0004CD8D180EA0100B0
:102C600000F00040704790F0000F17BF90F0004F49
:102C7000084691F0000F91F0004F14D092EA0C0F2B
:102C800001D142020FD193EA0C0F03D14B0218BFBE
:102C9000084608D180EA010000F0004040F0FE4004
:102CA00040F40000704740F0FE4040F440007047A0
:102CB0004FF0FF0C1CEAD0521EBF1CEAD15392EA1F
:102CC0000C0F93EA0C0F69D0A2EB030280EA010C0F
:102CD00049024FEA402037D04FF0805343EA1111A8
:102CE00043EA10130CF000408B4238BF5B0042F106
:102CF0007D024FF4000C8B4224BF5B1A40EA0C00AB
:102D0000B3EB510F24BFA3EB510340EA5C00B3EBDC
:102D1000910F24BFA3EB910340EA9C00B3EBD10FCA
:102D200024BFA3EBD10340EADC001B0118BF5FEA1C
:102D30001C1CE0D1FD2A3FF650AF8B4240EBC25045
:102D400008BF20F0010070470CF0004C4CEA502006
:102D50007F32C2BFD2F1FF0340EAC250704740F455
:102D600000004FF00003013A37E792F0000F00F047
:102D7000004C02BF400010F4000F013AF9D040EAC5
:102D80000C0093F0000F01F0004C02BF490011F459
:102D9000000F013BF9D041EA0C0195E70CEAD15351
:102DA00092EA0C0F08D142027FF47DAF93EA0C0F38
:102DB0007FF470AF084676E793EA0C0F04D14B021C
:102DC0003FF44CAF08466EE730F0004C18BF31F0CE
:102DD000004CCAD130F000427FF45CAF31F00043C8
:102DE0007FF43CAF5FE700BF4FF0FF3C06E000BF61
:102DF0004FF0010C02E000BF4FF0010C4DF804CD84
:102E00004FEA40024FEA41037FEA226C18BF7FEA93
:102E1000236C11D001B052EA530C18BF90EA010F95
:102E200058BFB2EB030088BFC81738BF6FEAE17024
:102E300018BF40F0010070477FEA226C02D15FEAC0
:102E4000402C05D17FEA236CE4D15FEA412CE1D02C
:102E50005DF8040B704700BF844608466146FFE7F3
:102E60000FB5FFF7C9FF002848BF10F1000F0FBDD5
:102E70004DF808EDFFF7F4FF0CBF012000205DF8CE
:102E800008FB00BF4DF808EDFFF7EAFF34BF012053
:102E900000205DF808FB00BF4DF808EDFFF7E0FFEC
:102EA00094BF012000205DF808FB00BF4DF808ED3D
:102EB000FFF7D2FF94BF012000205DF808FB00BFA0
:102EC0004DF808EDFFF7C8FF34BF012000205DF882
:102ED00008FB00BF42000ED2B2F1FE4F0BD34FF001
:102EE0009E03B3EB126209D44FEA002343F0004380
:102EF00023FA02F070474FF00000704712F1610FA3
:102F000001D1420202D14FF0FF3070474FF0000074
:102F1000704700BF014B1868704700BF488BFF1F08
:102F200070B50D4E0D4D761BB61006D0002455F829
:102F3000043B01349847A642F9D1094E094D761B4E
:102F400001F0C2FBB61006D0002455F8043B013452
:102F50009847A642F9D170BDE0460000E046000067
:102F6000F4460000E0460000024B0146186800F0FD
:102F700003B800BF488BFF1F2DE9F04F01F10B058F
:102F8000162D83B0064624D8102900F2B78000F031
:102F9000ADFA102502211823DFF8F0844344A3F191
:102FA00008025C68944200F0B580636823F0030374
:102FB0002344D4E902515A68E96042F001023046E4
:102FC0008D605A6000F098FA0834204603B0BDE8DE
:102FD000F08F35F0070500F19180A94200F28E8054
:102FE00000F084FAB5F5FC7FC0F090816B0A00F028
:102FF0008C80042B00F26681AB0903F1390103F1E7
:103000003807CB00DFF884844344A3F108005C68F0
:10301000A04206D10CE0002A80F22281E468A0429E
:1030200006D0636823F003035A1B0F2AF3DD3946E9
:10303000D8F81040DFF858C4644577D0626822F0B1
:103040000302531B0F2B00F36F81002BC8E904CC44
:1030500080F26081B2F5007F80F01081D3080133E7
:10306000500901228240D8F8040058F83370A76054
:1030700008EBC30E0243AEF10800E060C8F804207C
:1030800048F83340FC608B1001209840904254D89F
:10309000104206D121F003014000104201F1040169
:1030A000FAD008EBC1094C468E46E768BC4207D10E
:1030B00014E1002B80F21B81FF68BC4200F00E81FE
:1030C0007A6822F00302531B0F2BF2DDD7E902E4EA
:1030D000791945F001057D6043F00105CEF80C40FB
:1030E0003046C4F808E0C8E90411C1E902CC4D60DB
:1030F000BB5000F001FA07F1080402E00C23336032
:103100000024204603B0BDE8F08F4FF40073402147
:103110003F2777E7DC68A34208BF02317FF445AF61
:10312000D8F81040DFF868C3644587D1D8F8042088
:103130008B10012098409042AAD9D8F808406768BF
:1031400027F00307BD4202D87B1B0F2B77DCDFF88B
:103150004493CA4BD9F800201B6801322B4404EB7E
:10316000070A00F02E8103F580530F3323F47F6BA1
:103170002BF00F0B5946304600F0C4F9411C0246B3
:1031800000F0EB80824500F2E680BD4B196859449F
:103190001960084600F04B81D9F800100193013105
:1031A0001BBFA2EB0A0A5044C9F80020186012F0B5
:1031B000070A00F01481CAF108010A44CAF58051D7
:1031C00093440831A1EB0B01C1F30B09494630468A
:1031D000009200F097F9421CDDE9002300F05C81C9
:1031E000801A00EB090B1968C8F808204BF00100A1
:1031F000494444455060196000F026810F2F40F289
:10320000258160680C3F27F0070700F0010004EB00
:10321000070C38434FF0050E0F2F6060CCE901EE2C
:1032200000F2428150681446964B1A688A4238BFB1
:103230001960954B1A688A4238BF196090E062198C
:1032400043F0010345F0010565603046C8F80820E9
:10325000536000F051F90834204603B0BDE8F08F08
:103260002344E1685A68A56842F00102E9603046EB
:103270008D605A6000F040F9083442E7B2F5206FE3
:103280004FEA522361D3142B00F2BA8003F15C00A1
:10329000C0005B3308EB000758F80000083F874286
:1032A00000F09280436823F00303934202D98068C0
:1032B0008742F7D1C768D8F80420C4E90207BC6088
:1032C000C460E0E6142B59D9542B00F2A1802B0BDB
:1032D00003F16F0103F16E07CB0093E60EF1010ECF
:1032E0001EF0030F04F108047FF4DFAE51E03A440E
:1032F0003C465368F96854F8085F43F00103536093
:103300003046E9608D6000F0F7F8FAE6E90805F16B
:10331000080341E622443046536843F001035360FA
:10332000083400F0E9F8ECE6611943F0010745F0D4
:10333000010565603046C8E90411C1E902CC4F605F
:10334000A35000F0D9F80834DBE6930903F1390003
:10335000C00038339EE7444564D0D8F80840606820
:1033600020F0030B5D45ABEB050302D80F2B3FF7B5
:1033700066AF304600F0C0F80024C2E603F15C01FD
:1033800003F15B07CB003DE659F808394B4540F0A7
:10339000AA8011F0030F01F1FF31F5D1D8F8043004
:1033A00023EA0003C8F80430400098423FF6C5AE57
:1033B00018B9C2E640000EF1040E1842FAD0714668
:1033C0006FE603F1100BD5E69A104FF0010ED8F816
:1033D00004300EFA02F21A43C8F804206DE702EB3B
:1033E0000B014942C1F30B0949463046009200F0F7
:1033F00089F8431CDDE900237FF4F2AED146F2E602
:10340000542B26D8130B03F16F00C0006E3341E735
:10341000B3F5AA7F26D8EB0B03F1780103F1770708
:10342000CB00EFE5164B186858441860B4E6CAF3B1
:103430000B0CBCF1000F7FF4AFAED8F80840BB44D2
:103440004BF001006060EFE61446EDE601235360A7
:103450008FE7B3F5AA7F33D8D30B03F17800C00010
:10346000773317E740F25452934233D8AB0C03F151
:103470007D0103F17C07CB00C4E500BFAC95FF1FC5
:103480007C95FF1FA495FF1FA895FF1F788FFF1F36
:10349000808FFF1F8093FF1FAAF1080AD344ABEB74
:1034A000020B4FF000099EE604F10801304600933C
:1034B00000F0B0F8D8F80840009B60681968B3E6DF
:1034C00040F2545083420AD8930C03F17D00C000AF
:1034D0007C33DFE64FF47E737F217E2792E54FF445
:1034E0007E707E23D6E6D8F804305DE7014800F010
:1034F00095B900BFD495FF1F014800F091B900BFF6
:10350000D495FF1F38B5074D0022044608462A60AF
:10351000FDF78EFF431C00D038BD2B68002BFBD07D
:10352000236038BDE895FF1F024B13B1024800F03D
:1035300005B870470000000049350000002301462F
:103540001A46184600F06EB938B5084B084D5B1B9B
:103550009C1007D0043B1D44013C55F804399847A2
:10356000002CF9D1BDE8384001F0C4B800000000DB
:1035700000000000F8B5244F0C460646FFF7B6FFE2
:10358000BB685D68C4F57E610F3125F003054B19FA
:1035900023F47F6323F00F03A3F58054B4F5805F19
:1035A00007DB00213046FFF7ADFFBB682B44984294
:1035B00004D03046FFF7A0FF0020F8BD614230463E
:1035C000FFF7A0FF01300DD0104AB96813682D1B1A
:1035D00045F0010530461B1B4D601360FFF78CFF63
:1035E0000120F8BD00213046FFF78CFFBA68831A2E
:1035F0000F2BDEDD064C0549246843F00103001B58
:1036000053600860D5E700BF788FFF1F7C95FF1FD0
:103610008093FF1F00295ED0F8B50C460646FFF7E1
:1036200065FF54F8043CDFF8F0C123F00101A4F178
:1036300008004218DCF808705568974225F0030529
:1036400000F08880DF07556033D454F8087CC01B35
:103650000CF108048368A342394469D05719D0F8A3
:103660000CE07F68C3F80CE0CEF80830FB0740F1AF
:10367000968041F0010343601160B1F5007F33D2C1
:10368000CB08DCF8044001334A0901219140214371
:103690000CEBC3025CF83340CCF80410083AC0E9E4
:1036A00002424CF83300E0603046BDE8F840FFF7D6
:1036B00023BF53195B68DF070ED429440CF10804BB
:1036C0009368A34273D0D468DC6041F00102A36028
:1036D00042604150D1E7704741F00103B1F5007FEE
:1036E00044F8043C1160CBD3B1F5206F4FEA51236D
:1036F0004AD28B0903F13905ED0003F138025CF879
:1037000005300CEB0504083C9C4259D05A6822F065
:1037100003028A4202D99B689C42F7D1DC68C0E967
:103720000234A060D8603046BDE8F840FFF7E4BE40
:1037300053195B68DB0766D4D2E90223294441F0C0
:103740000104D3609A60446041503046BDE8F840BF
:10375000FFF7D2BEDB07294407D454F8083CC01A4F
:103760001944D0E90223D3609A60294B1B6841F0C9
:1037700001028B424260CCF8080095D8254B3046B8
:103780001968FFF7F7FE8FE7142B0AD9542B21D8BD
:103790000B0B03F16F05ED0003F16E02AFE7294457
:1037A0008EE703F15C05ED0003F15B02A7E741F052
:1037B0000103CCE90400C0E902444360415073E7CF
:1037C000DCF804109210012505FA02F20A43CCF845
:1037D0000420A4E7B3F5AA7F06D8CB0B03F1780544
:1037E000ED0003F177028AE740F25452934206D883
:1037F0008B0C03F17D05ED0003F17C027FE74FF4B4
:103800007E757E227BE741F00103436011604BE748
:103810008493FF1FAC95FF1F788FFF1F704700BF79
:10382000704700BF2DE9F047DFF880A00646DAF8C0
:10383000000098460F469146FFF7F0FF1A4B1B68B1
:10384000D3F8484124B365681F2D26DC5EB9AB1C54
:103850000135DAF80000656044F82370FFF7E0FFF7
:103860000020BDE8F08704EB85030121C3F88890B0
:10387000D4F88821A9400A43022EC4F88821C3F84D
:103880000881E4D1D4F88C311943C4F88C11DEE7F7
:1038900003F5A674C3F84841D5E7DAF80000FFF74E
:1038A000BFFF4FF0FF30DCE7C44600008893FF1FE6
:1038B00064203A2000FFFFFFBF05BF05BF05BF051D
:1038C000BF05BF05BF05BF05BF05BF05C005C005D6
:1038D000C005C005C005C005C005C005C005C105BF
:1038E000C105C105C105C105C105C205C205C205A5
:1038F000C205C205C305C305C305C305C305C40589
:10390000C405C405C405C505C505C505C605C60568
:10391000C605C605C705C705C705C805C805C80546
:10392000C905C905C905CA05CA05CA05CB05CB0520
:10393000CB05CC05CC05CC05CD05CD05CD05CE05FB
:10394000CE05CE05CF05CF05CF05D005D005D005D6
:10395000D105D105D205D205D205D305D305D305AE
:10396000D405D405D405D505D505D505D505D60589
:10397000D605D605D705D705D705D705D805D80567
:10398000D805D805D905D905D905D905DA05DA0547
:10399000DA05DA05DA05DA05DB05DB05DB05DB052B
:1039A000DB05DB05DB05DB05DB05DB05DB05DB0517
:1039B000DC05DB05DB05DB05DB05DB05DB05DB0506
:1039C000DB05DB05DB05DB05DA05DA05DA05DA05FB
:1039D000DA05D905D905D905D905D805D805D705FA
:1039E000D705D705D605D605D505D505D405D40503
:1039F000D305D305D205D205D105D005D005CF0515
:103A0000CE05CD05CD05CC05CB05CA05C905C80534
:103A1000C805C705C605C505C405C305C205C0055B
:103A2000BF05BE05BD05BC05BB05B905B805B70595
:103A3000B505B405B305B105B005AE05AD05AB05DB
:103A4000AA05A805A705A505A305A205A0059E052D
:103A50009C059B05990597059505930591058F058F
:103A60008D058B05890587058505820580057E0501
:103A70007C05790577057505720570056D056B0583
:103A800068056605630561055E055B055905560514
:103A9000530550054D054B054805450542053F05B5
:103AA0003C053905360533052F052C052905260566
:103AB00022051F051C051805150512050E050B0529
:103AC000070504050005FD04F904F504F204EE04FD
:103AD000EA04E604E304DF04DB04D704D304CF04E0
:103AE000CB04C704C304BF04BB04B704B304AF04CE
:103AF000AA04A604A2049E049904950491048C04CB
:103B0000880483047F047B04760472046D046804D3
:103B100064045F045B04560451044D0448044304E8
:103B20003E043A04350430042B04260421041C040A
:103B3000170412040E0409040404FF03F903F40338
:103B4000EF03EA03E503E003DB03D603D103CB0372
:103B5000C603C103BC03B703B103AC03A703A203AD
:103B60009C03970392038C03870382037C037703F0
:103B700072036C03670361035C03570351034C0337
:103B8000460341033B03360331032B032603200383
:103B90001B03150310030A030503FF02FA02F402D4
:103BA000EF02E902E402DE02D902D302CE02C90228
:103BB000C302BE02B802B302AD02A802A2029D0275
:103BC000970292028D02870282027C0277027102C2
:103BD0006C02670261025C02570251024C0247020A
:103BE00041023C02370231022C02270222021D024E
:103BF000170212020D0208020302FD01F801F3018F
:103C0000EE01E901E401DF01DA01D501D001CB01C8
:103C1000C601C101BC01B701B201AE01A901A401F5
:103C20009F019A01960191018C01870183017E0118
:103C30007901750170016C01670163015E015A0130
:103C4000550151014D014801440140013B0137013B
:103C500033012F012A01260122011E011A0116013A
:103C600012010E010A0106010201FE00FA00F7002E
:103C7000F300EF00EB00E800E400E000DD00D90015
:103C8000D500D200CE00CB00C800C400C100BD00EA
:103C9000BA00B700B400B000AD00AA00A700A400AD
:103CA000A1009E009B009800950092008F008C0060
:103CB00089008700840081007E007C007900770005
:103CC000740071006F006C006A006800650063009A
:103CD00061005E005C005A0058005500530051001E
:103CE0004F004D004B004900470045004300410094
:103CF00040003E003C003A003900370035003400F7
:103D0000320030002F002D002C002A00290028004E
:103D10002600250024002200210020001F001D0095
:103D20001C001B001A0019001800170016001500CF
:103D30001400130012001100100010000F000E00FC
:103D40000D000C000C000B000A000A00090009001D
:103D50000800070007000600060005000500050032
:103D6000040004000300030003000200020002003C
:103D7000020001000100010001000000000000003D
:103D80000000000000000000000000000000000033
:103D90000000000000000000000000000000000023
:103DA0000000000000000000000000000100010011
:103DB00001000100010002000200020002000200F6
:103DC00003000300030003000400040004000500D6
:103DD00005000500050006000600060007000700B4
:103DE00007000800080008000900090009000A008F
:103DF0000A000A000B000B000B000C000C000C006A
:103E00000D000D000E000E000E000F000F000F0041
:103E1000100010001000110011001100120012001B
:103E200012001300130013001400140014001400F7
:103E300015001500150016001600160016001700D4
:103E400017001700170018001800180018001900B4
:103E500019001900190019001A001A001A001A0096
:103E60001A001A001B001B001B001B001B001B007C
:103E70001B001B001B001B001C001C001C001C0066
:103E80001C001C001C001C001C001C001C001C0052
:103E90001C001C001C001C001C001C001B001B0044
:103EA0001B001B001B001B001B001B001B001B003A
:103EB0001A001A001A001A001A001A001900190034
:103EC0001900190019001800180018001800170030
:103ED0001700170017001600160016001600150030
:103EE0001500150014001400140014001300130032
:103EF0001300120012001200110011001100100036
:103F0000100010000F000F000F000E000E000D003B
:103F10000D000D000C000C000C000B000B000B0042
:103F20000A000A000A000900090009000800080048
:103F3000080007000700070006000600060005004D
:103F40000500050005000400040004000300030050
:103F50000300030002000200020002000200010050
:103F6000010001000100010000000000000000004D
:103F70000000000000000000000000000000000041
:103F80000000000000000000000000000000000031
:103F9000000000000000000000000100010001001E
:103FA0000100010002000200020003000300030000
:103FB00004000400050005000500060006000700D7
:103FC00007000800090009000A000A000B000C00A5
:103FD0000C000D000E000F00100010001100120068
:103FE00013001400150016001700180019001A001D
:103FF0001B001C001D001F002000210022002400C7
:1040000025002600280029002A002C002D002F0062
:104010003000320034003500370039003A003C00EF
:104020003E004000410043004500470049004B006E
:104030004D004F0051005300550058005A005C00DD
:104040005E0060006300650068006A006C006F003D
:1040500071007400760079007C007E00810084008D
:10406000870089008C008F009200950098009B00CB
:104070009E00A100A400A700AA00AD00B000B400FB
:10408000B700BA00BD00C100C400C800CB00CF001B
:10409000D200D600D900DD00E000E400E800EB002B
:1040A000EF00F300F700FA00FE00020106010A012A
:1040B0000E01120116011A011E01220126012A0118
:1040C0002F01330137013B014001440148014D01FB
:1040D000510155015A015E01630167016C017001D4
:1040E000750179017E01830187018C01910196019F
:1040F0009A019F01A401A901AE01B201B701BC015F
:10410000C101C601CB01D001D501DA01DF01E40113
:10411000E901EE01F301F801FD01030208020D02BD
:10412000120217021D02220227022C02320237025B
:104130003C02410247024C02510257025C026102FA
:1041400067026C02720277027C02820287028D0291
:10415000920297029D02A202A802AD02B302B80227
:10416000BE02C302C902CE02D302D902DE02E402B9
:10417000E902EF02F402FA02FF0205030A03100348
:1041800015031B03200326032B03310336033B03D4
:10419000410346034C03510357035C036103670368
:1041A0006C03720377037C03820387038C039203FF
:1041B00097039C03A203A703AC03B103B703BC039B
:1041C000C103C603CB03D103D603DB03E003E5033E
:1041D000EA03EF03F403FA03FF03040409040E04E3
:1041E000130417041C04210426042B043004350492
:1041F0003A043E04430448044D04510456045B044D
:104200005F04640468046D04720476047B047F0414
:10421000830488048C049104950499049E04A204E8
:10422000A604AA04AF04B304B704BB04BF04C304C8
:10423000C704CB04CF04D304D704DB04DF04E304B6
:10424000E604EA04EE04F204F504F904FD040005B2
:10425000040507050B050E051205150519051C05B6
:104260001F052305260529052C052F0533053605D1
:1042700039053C053F054205450548054B054D05FB
:1042800050055305560559055B055E056105630537
:10429000660568056B056D05700572057505770582
:1042A00079057C057E0580058205850587058905DC
:1042B0008B058D058F059105930595059705990546
:1042C0009B059C059E05A005A205A305A505A705C0
:1042D000A805AA05AB05AD05AE05B005B105B3054A
:1042E000B405B505B705B805B905BB05BC05BD05E1
:1042F000BE05BF05C005C205C305C405C505C60585
:10430000C705C805C805C905CA05CB05CC05CD0537
:10431000CD05CE05CF05D005D005D105D205D205F6
:10432000D305D305D405D405D505D505D605D605C1
:10433000D705D705D705D805D805D805D905D90596
:10434000D905DA05DA05DA05DA05DA05DB05DB0574
:10435000DB05DB05DB05DB05DB05DB05DB05DB055D
:10436000DB05DB05DB05DB05DB05DB05DB05DB054D
:10437000DB05DB05DB05DB05DB05DB05DA05DA053F
:10438000DA05DA05DA05DA05D905D905D905D90539
:10439000D805D805D805D805D705D705D705D70539
:1043A000D605D605D605D505D505D505D405D4053C
:1043B000D405D405D305D305D305D205D205D2053E
:1043C000D105D105D005D005D005CF05CF05CF0546
:1043D000CE05CE05CE05CD05CD05CD05CC05CC054C
:1043E000CC05CB05CB05CB05CA05CA05CA05C90551
:1043F000C905C905C805C805C805C705C705C70556
:10440000C605C605C605C605C505C505C505C40559
:10441000C405C405C405C305C305C305C305C30559
:10442000C205C205C205C205C205C105C105C10557
:10443000C105C105C105C005C005C005C005C00551
:10444000C005C005C005C005BF05BF05BF05BF0548
:10445000BF05BF05BF05BF05BF05FFFF22802403C1
:1044600022032480050E08090D0C06070F04001313
:10447000031F050E08090D0C06070F041F1F1F1F41
:104480001F1F1F1F1F1F4053435F1A16171B1D1EA0
:104490001F1F08091F1F1F1F1F1F031F00131F1FA0
:1044A00008091F1F1F1F1F1F1F1F850504060784E4
:1044B0001F1F435F40531A121F1B1D1E3C800440E8
:1044C00000100000041A0000FF7F0000111000001F
:1044D000CD0F00000C0800000002000000020000E8
:1044E0000B07000040020000000200000D0E00005B
:1044F00040020000000200000A0209061417151607
:104500000F00000000020000000200000002000096
:104510000002000000020000000200000002000093
:104520000002000000020000010102020404080869
:10453000100000004008FE4340A004404408FE4331
:1045400044A004400018FE4300C004403000FE4375
:10455000309004403400FE43349004401C18FE4365
:104560001CC004401018FE4310C004400818FE434D
:1045700008C004400C18FE430CC004400C10FE435D
:104580000CB004401010FE4310B004401810FE435D
:1045900018B004401C10FE431CB004401410FE432D
:1045A00014B004400418FE4304C004400010FE434D
:1045B00000B004400008FE4300A004400408FE438D
:1045C00004A004400C08FE430CA004400808FE436D
:1045D00008A004401418FE4314C004401818FE43F9
:1045E00018C004400410FE4304B004400810FE4309
:1045F00008B004401400FE43149004404C08FE43ED
:104600004CA004400420FE4304D004402410FE4388
:1046100024B004402010FE4320B004402810FE4384
:1046200028B004402C10FE432CB004400020FE4370
:1046300000D004404808FE4348A004401000FE4358
:104640001090044000000000000000005123000012
:104650004923000045230000412300003D230000C2
:104660003923000035230000312300000001000041
:10467000E88AFF1F1200000000020000A48AFF1F4A
:104680004300000000030000FC8AFF1F0000000040
:1046900001030904008BFF1F00000000020309044E
:1046A000188BFF1F0000000003030904308BFF1F5D
:1046B00000000000000000000000000000000000FA
:1046C00000151915508BFF1FF8B500BFF8BC08BCCA
:1046D0009E467047FFFFFFFF5FF800F02187FF1F36
:1046E0002935000011040000E5070000B9080000AA
:0446F00011120000A3
:0446F400F8B500BF56
:1046F8002DE9F04F064685B00068A14F00F0A4F9F7
:104708000546306800F0A0F93C88241A002CB8BF90
:104718006442A4F11F039BB243F6CD718B4240F271
:1047280092800246974B35683880A3FB0013C11A64
:1047380003EB5103698B2883521A40F2D1549B0A28
:1047480004FB1303002AB8BF5242E31A43F6487128
:104758008A429CB293B2C8BFC3F58043EA8B688390
:10476800C8BF9BB298186B8CAC8380B2B3F57A7FC4
:10477800E88376D06F698449384600F041F9834967
:1047880000F036F900F05CF981498046384600F0BF
:1047980037F91FFA88F88146B5F9203095F90A20CB
:1047A8007C4FDFF844A203F5BA7302FB034303F21C
:1047B800D15387FB0312DC17C4EB222440F2D15BF0
:1047C8000BFB1434A4B23AF8140000F01DF9494662
:1047D80000F016F900F034F904F5F87287FB0213BB
:1047E8001B0A0BFB132308EB00023AF81300ADF881
:1047F800082004F5787400F007F9494600F000F93C
:1048080087FB043700F01CF93F0A0BFB174408EB41
:1048180000033AF81400ADF80C3000F0F5F84946FA
:1048280000F0EEF800F00CF92A46804402A9304660
:10483800ADF80A8000F0ECF83268538C01335384E9
:1048480005B0BDE8F08F0421534800F001F9214676
:10485800524800F0E5F8514800F0CEF82A462846BC
:1048680060E700F0D1F84FF0625100F0C9F84C4908
:104878004C4F00F0C5F8002382460146E860EB8300
:10488800494800F0D5F8494B494AD3F800B0C3F875
:1048980000A0484B48491960C2F800B0474B484A45
:1048A8001F604FF07C58C2F80080019000F0A8F813
:1048B800444B196800F09CF8019A424B8146C3F8B2
:1048C80000901046414600F09BF8594680465046F5
:1048D80000F0AEF8394600F093F83B4907464846E1
:1048E80000F0AAF8002834D13849484600F094F876
:1048F800002843D03549364A4046C2F8009000F0B7
:1049080077F8394600F094F8324900F071F83249E6
:1049180000F08AF80021074600F08EF8D8B12F4938
:10492800384600F089F8D8B91749384600F068F8D1
:10493800164900F05DF800F083F8154980463846BE
:1049480000F05EF81FFA88F8814600236F616B84D7
:1049580022E71D49CFE72249384600F05DF828B123
:10496800DFF888901D4F4FF00708EEE71D493846DD
:1049780000F046F807F100470449DAE74946BAE784
:10498800C893FF1F27821B6012AEEFC099593B44A2
:104998000AD7233C4570032CB03800008C8AFF1FCF
:1049A80000002042CDCCCC3D00007042B093FF1FE8
:1049B800B493FF1FBC93FF1FCDCC4C3EB893FF1F91
:1049C800C093FF1FAC93FF1FCDCCDC40CDCCDCC027
:1049D800A893FF1F6666A63FE17A143E0000C64210
:1049E8000000C6C212AEEF40B8380000A3707D3F89
:1049F8005FF800F0392900005FF800F0A913000003
:104A08005FF800F0492B00005FF800F0A12A0000D1
:104A18005FF800F0B50400005FF800F0852E000094
:104A28005FF800F0991300005FF800F0B12C000067
:104A38005FF800F0352900005FF800F0C12E000093
:104A48005FF800F0D52E00005FF800F0B106000016
:104A58005FF800F0B5240000EC95FF1F4C460000FD
:104A680000000000E803000000000000FFFFFFFF57
:104A7800010A040109024300020100C032090400CE
:104A880000010202010005240010010524010101B2
:104A980004240206052406000107058203100040CD
:104AA80009040100020A0000000705030240000093
:104AB80007058402400000001201100102000040B6
:104AC800C0168304750201020301000004030904EF
:104AD80018035400650065006E00730079006400D7
:104AE800750069006E006F00160355005300420000
:104AF8002000530065007200690061006C0000002E
:104B08000C0300000000000000000000000000008E
:104B18000000000000000000508BFF1F0000000094
:104B2800000000003C8EFF1FA48EFF1F0C8FFF1F8C
:104B3800000000000000000000000000000000006D
:104B4800000000000000000000000000000000005D
:104B5800000000000000000000000000000000004D
:104B6800000000000000000000000000000000003D
:104B7800000000000000000000000000000000002D
:104B8800000000000000000000000000000000001D
:104B9800000000000000000000000000000000000D
:104BA80000000000000000000000000000000000FD
:104BB80000000000000000000000000000000000ED
:104BC80000000000000000000100000000000000DC
:104BD8000E33CDAB34126DE6ECDE05000B000000A1
:104BE80000000000000000000000000000000000BD
:104BF80000000000000000000000000000000000AD
:104C0800000000000000000000000000000000009C
:104C1800000000000000000000000000000000008C
:104F5800788FFF1F788FFF1F808FFF1F808FFF1FA5
:104F6800888FFF1F888FFF1F908FFF1F908FFF1F55
:104F7800988FFF1F988FFF1FA08FFF1FA08FFF1F05
:104F8800A88FFF1FA88FFF1FB08FFF1FB08FFF1FB5
:104F9800B88FFF1FB88FFF1FC08FFF1FC08FFF1F65
:104FA800C88FFF1FC88FFF1FD08FFF1FD08FFF1F15
:104FB800D88FFF1FD88FFF1FE08FFF1FE08FFF1FC5
:104FC800E88FFF1FE88FFF1FF08FFF1FF08FFF1F75
:104FD800F88FFF1FF88FFF1F0090FF1F0090FF1F23
:104FE8000890FF1F0890FF1F1090FF1F1090FF1FD1
:104FF8001890FF1F1890FF1F2090FF1F2090FF1F81
:105008002890FF1F2890FF1F3090FF1F3090FF1F30
:105018003890FF1F3890FF1F4090FF1F4090FF1FE0
:105028004890FF1F4890FF1F5090FF1F5090FF1F90
:105038005890FF1F5890FF1F6090FF1F6090FF1F40
:105048006890FF1F6890FF1F7090FF1F7090FF1FF0
:105058007890FF1F7890FF1F8090FF1F8090FF1FA0
:105068008890FF1F8890FF1F9090FF1F9090FF1F50
:105078009890FF1F9890FF1FA090FF1FA090FF1F00
:10508800A890FF1FA890FF1FB090FF1FB090FF1FB0
:10509800B890FF1FB890FF1FC090FF1FC090FF1F60
:1050A800C890FF1FC890FF1FD090FF1FD090FF1F10
:1050B800D890FF1FD890FF1FE090FF1FE090FF1FC0
:1050C800E890FF1FE890FF1FF090FF1FF090FF1F70
:1050D800F890FF1FF890FF1F0091FF1F0091FF1F1E
:1050E8000891FF1F0891FF1F1091FF1F1091FF1FCC
:1050F8001891FF1F1891FF1F2091FF1F2091FF1F7C
:105108002891FF1F2891FF1F3091FF1F3091FF1F2B
:105118003891FF1F3891FF1F4091FF1F4091FF1FDB
:105128004891FF1F4891FF1F5091FF1F5091FF1F8B
:105138005891FF1F5891FF1F6091FF1F6091FF1F3B
:105148006891FF1F6891FF1F7091FF1F7091FF1FEB
:105158007891FF1F7891FF1F8091FF1F8091FF1F9B
:105168008891FF1F8891FF1F9091FF1F9091FF1F4B
:105178009891FF1F9891FF1FA091FF1FA091FF1FFB
:10518800A891FF1FA891FF1FB091FF1FB091FF1FAB
:10519800B891FF1FB891FF1FC091FF1FC091FF1F5B
:1051A800C891FF1FC891FF1FD091FF1FD091FF1F0B
:1051B800D891FF1FD891FF1FE091FF1FE091FF1FBB
:1051C800E891FF1FE891FF1FF091FF1FF091FF1F6B
:1051D800F891FF1FF891FF1F0092FF1F0092FF1F19
:1051E8000892FF1F0892FF1F1092FF1F1092FF1FC7
:1051F8001892FF1F1892FF1F2092FF1F2092FF1F77
:105208002892FF1F2892FF1F3092FF1F3092FF1F26
:105218003892FF1F3892FF1F4092FF1F4092FF1FD6
:105228004892FF1F4892FF1F5092FF1F5092FF1F86
:105238005892FF1F5892FF1F6092FF1F6092FF1F36
:105248006892FF1F6892FF1F7092FF1F7092FF1FE6
:105258007892FF1F7892FF1F8092FF1F8092FF1F96
:105268008892FF1F8892FF1F9092FF1F9092FF1F46
:105278009892FF1F9892FF1FA092FF1FA092FF1FF6
:10528800A892FF1FA892FF1FB092FF1FB092FF1FA6
:10529800B892FF1FB892FF1FC092FF1FC092FF1F56
:1052A800C892FF1FC892FF1FD092FF1FD092FF1F06
:1052B800D892FF1FD892FF1FE092FF1FE092FF1FB6
:1052C800E892FF1FE892FF1FF092FF1FF092FF1F66
:1052D800F892FF1FF892FF1F0093FF1F0093FF1F14
:1052E8000893FF1F0893FF1F1093FF1F1093FF1FC2
:1052F8001893FF1F1893FF1F2093FF1F2093FF1F72
:105308002893FF1F2893FF1F3093FF1F3093FF1F21
:105318003893FF1F3893FF1F4093FF1F4093FF1FD1
:105328004893FF1F4893FF1F5093FF1F5093FF1F81
:105338005893FF1F5893FF1F6093FF1F6093FF1F31
:105348006893FF1F6893FF1F7093FF1F7093FF1FE1
:0C535800FFFFFFFF00000200C495FF1FD4
:00000001FF
