:1000000000800020BD01000035210000ED2000002F
:10001000ED200000ED200000ED200000ED200000AC
:10002000ED200000ED200000ED2000003521000053
:1000300035210000ED200000C91F0000CD20000088
:100040003521000035210000352100003521000058
:100050003521000035210000352100003521000048
:100060003521000035210000352100003521000038
:100070003521000035210000352100003521000028
:100080003521000035210000352100003521000018
:100090003521000035210000352100003521000008
:1000A00035210000352100003521000035210000F8
:1000B00035210000352100003521000035210000E8
:1000C00035210000352100003521000035210000D8
:1000D00035210000352100003521000035210000C8
:1000E00035210000352100003521000035210000B8
:1000F000352100001935000035210000453600008B
:100100003521000071370000352100003521000045
:100110003521000035210000352100003521000087
:100120003521000035210000352100003521000077
:100130003521000035210000F513000035210000B5
:100140003521000035210000352100003521000057
:100150003521000035210000352100003521000047
:1001600035210000CD25000035210000352100009B
:100170003521000035210000352100003521000027
:100180003521000035210000352100003521000017
:100190003521000035210000352100003521000007
:1001A00035210000352100003521000035210000F7
:1001B000352100003521000035210000564B4CF25E
:1001C000205210B51A804DF628121A8000BF00BFC9
:1001D00001F0B4FF514B4FF010621A60504A9A6020
:1001E000504ADA60504A136813F4807304D14F49BF
:1001F0000B604FF4A85313604D4B1A78110703D5C9
:100200001A7842F008021A704A4B4B492A221A7097
:100210004A4A4B4B8B4204D252F8040F43F8040B6A
:10022000F8E7484B484900228B4202D243F8042B9E
:10023000FAE74649464A002352F8230041F82300D2
:1002400001336F2BF8D1434B434A802103F8011B44
:100250009342FBD1414B3D4A1A60414B8A221A70AE
:10026000A3F5805324225A70A0221A709A7992071B
:10027000FCD59A79D406FCD43A4A937903F00C035E
:10028000082B384BF9D105221A7143225A719A79F9
:100290009006FCD5334A9179324B4906FBD5324A58
:1002A0004FF0817111600521516020221A709A79F6
:1002B00002F00C020C2AFAD12C4B2D4A1A602D4B5D
:1002C0002D4A1A6000225A60072243F8042C2B4A58
:1002D000C3F80C2D62B602F04DF8144B1B68DA0718
:1002E00005D5274801F0D8FF264B274A1A60274B2F
:1002F0001B785B0609D5234C234B22689A4204D114
:100300001F4801F0C9FF0023236005F05BFC01F0EA
:100310001BFF01F0E3FEFEE70E20054030800440A5
:10032000823F04000100002B10D0034014D0034092
:1003300002D0074000E007404490FF1F48690000DA
:100340002087FF1F4490FF1FAC98FF1F0082FF1FF4
:100350000000000000E400E05FE400E008ED00E0E1
:1003600000500640004006404480044004800440A1
:10037000C010050014E000E03F190100000020203B
:100380002AC5245E1CE00340A5C3945A00F0074030
:10039000FFFFFFFFFFFFFFFFFFFFFFFFFFFFFFFF6D
:1003A000FFFFFFFFFFFFFFFFFFFFFFFFFFFFFFFF5D
:1003B000FFFFFFFFFFFFFFFFFFFFFFFFFFFFFFFF4D
:1003C000FFFFFFFFFFFFFFFFFFFFFFFFFFFFFFFF3D
:1003D000FFFFFFFFFFFFFFFFFFFFFFFFFFFFFFFF2D
:1003E000FFFFFFFFFFFFFFFFFFFFFFFFFFFFFFFF1D
:1003F000FFFFFFFFFFFFFFFFFFFFFFFFFFFFFFFF0D
:10040000FFFFFFFFFFFFFFFFFFFFFFFFDEF9FFFF23
:1004100010B5054C237833B9044B13B10448AFF33E
:1004200000800123237010BD4490FF1F00000000D6
:100430004C690000084B10B51BB108490848AFF3E0
:1004400000800848036803B910BD074B002BFBD0A0
:10045000BDE81040184700BF000000004890FF1F93
:100460004C6900004490FF1F0000000010B5094CCB
:1004700001210A2001F028FF204601F0A1F8012106
:100480000A2001F01BFF20460E21BDE8104001F0BC
:10049000D5B800BF2087FF1F70B53D4DD0F8383567
:1004A000EA7A0446BAB172B6EA7AD007114606D59E
:1004B0003848E96806683140A96101601146920731
:1004C00006D535482A690668E97A3240EA61026051
:1004D0004E0756D462B62A68D168994207D02F4891
:1004E00010602F49D36043F08040106111602D48A7
:1004F0002D4B10264FF000410660D1625363D36A42
:10050000002BFCDA936B2949EA7A214E102008600F
:10051000C3F30D03114682B1D00703D52449B06956
:1005200008601146900703D5224AE869E97A10600D
:100530004A0702D5204A296A1160B4F8322592B2DE
:100540009A1A002AB8BF52421E2AC4BF012284F858
:100550003025B3F5BA6F1846A4F8323507D91748D5
:1005600080FB0320020A40F2D15000FB123005F05C
:10057000E9F8134905F03AF905F0FEFA80B2208057
:1005800070BD10496A69086802402A620A60A1E7E2
:100590002087FF1F80E100E084E100E001403F0090
:1005A00000003F8088F00F40FFFF001084F00F40F4
:1005B00000E100E004E100E008E100E04570032C08
:1005C000957D773E88E100E008B501211F2001F00C
:1005D0007BFE0121212001F077FE01211820BDE8DA
:1005E000084001F071BE00BF2DE9F04F04460088BD
:1005F00085B080B205F0A2F80021074605F0A8FA00
:1006000030B1C349384605F08FFA002840F0948194
:10061000BF49384605F09CFA30B1BE49384605F06E
:1006200083FA002840F0E082BA49384605F090FA93
:10063000002840F0C080B849384605F089FA30B14A
:10064000B649384605F070FA002840F05D83B3499A
:10065000384605F07DFA002800F01282B04938468D
:1006600005F062FA002800F00B823846AB49D4F856
:100670001CA004F0B1FF05460146A54804F0ACFFFC
:10068000A84905F0B3F804F01DFC03F069F9CDE9C1
:1006900000012846A349D4F81CB005F0A7F804F0DF
:1006A00011FC06460F4603F05BF980465846894622
:1006B00004F008FC92A3D3E9002304F057FC42465F
:1006C0004B4604F053FC04F033FF974905F08EF8D5
:1006D00005F052FA39468046304603F0F7F80646F0
:1006E0000F4628469149D4F81CB0E56905F07EF81C
:1006F0008C4905F07BF804F0E5FB03F0E7F8CDE961
:100700000201504604F0DEFB7DA3D3E9002304F090
:100710002DFCDDE9002304F029FC04F009FF8249E7
:1007200005F064F805F028FA00EB0809584604F0D3
:10073000C9FB32463B4604F019FC02460B4600203A
:100740007B4904F05FFA06460F462846794905F0D2
:1007500001F904F0B7FBDDE9022304F007FC0246CF
:100760000B463046394604F04FFA67A3D3E900231D
:1007700004F0FCFB04F0BCFE4844C0F5617004F0DA
:10078000DDFF0546404604F0D9FF294604F026FF68
:1007900005F0F2F92061284605F0EEF9606148465F
:1007A00004F0CCFF294604F019FF05F0E5F9A0613B
:1007B00005B0BDE8F08F5849384605F0B5F9002876
:1007C0003FF439AF38465349D4F81CA004F004FF75
:1007D000054601464E4804F0FFFE524905F006F872
:1007E00004F070FB03F0BCF8CDE9000128464D4948
:1007F000D4F81CB004F0FAFF04F064FB06460F4680
:1008000003F0AEF880465846894604F05BFB3CA3F3
:10081000D3E9002304F0AAFB42464B4604F0A6FBB2
:1008200004F086FE404904F0E1FF05F0A5F93946E1
:100830008046304603F04AF806460F4628463B49B4
:10084000D4F81CB0E56904F0D1FF364904F0CEFFBE
:1008500004F038FB03F03AF8CDE90201504604F009
:1008600031FB27A3D3E9002304F080FBDDE900235B
:1008700004F07CFB04F05CFE2B4904F0B7FF05F0AC
:100880007BF900EB0809584604F01CFB32463B4656
:1008900004F06CFB02460B460020254904F0B2F937
:1008A00006460F462846234905F054F804F00AFB93
:1008B000DDE9022304F05AFB02460B463046394676
:1008C00004F0A2F910A3D3E9002304F04FFB04F0D5
:1008D0000FFE4844C0F5617004F030FF054605F096
:1008E0004BF92061484604F029FF294604F076FEC2
:1008F00005F042F96061404652E700BFAFF3008067
:10090000AA4C58E87AB6EB3F0000000000207C407B
:10091000000070420000F0420000344300007043C9
:100920000000964335FA8E3C0000614400004040D0
:100930000000F03F0000C0403946A348E56904F0DC
:100940004BFEA24904F052FF04F0BCFA03F008F891
:1009500082468B4638469D49E66904F047FF04F01D
:10096000B1FA8046894602F0FBFFCDE90001284636
:1009700004F0A8FA90A3D3E9002304F0F7FA524652
:100980005B4604F0F3FA04F0D3FD914904F02EFF26
:1009900005F0F2F80546304604F094FA86A3D3E950
:1009A000002304F0E3FADDE9002304F0DFFA04F0A9
:1009B000BFFD874904F01AFF05F0DEF849460646F8
:1009C000404602F083FFE26900928046894638463D
:1009D0008049E76904F00AFF7C4904F007FF04F04E
:1009E00071FA02F073FF009AAB19C3F56173824686
:1009F00010468B46009304F065FA42464B4604F0DD
:100A0000B5FA02460B460020734904F0FBF8804615
:100A100089463846714904F09DFF04F053FA524666
:100A20005B4604F0A3FA02460B464046494604F0F2
:100A3000EBF863A3D3E9002304F098FA04F058FD1F
:100A4000009B181A04F07AFE0746304604F076FE42
:100A5000394604F0C3FD0646284604F06FFE3146D1
:100A600004F0BCFD05F088F82061304605F084F8FC
:100A70006061384605F080F8A06105B0BDE8F08FF0
:100A80005749384605F064F80028F6D055493846ED
:100A900005F04AF80028F0D038465149E56904F0DD
:100AA0009BFD80460146484804F096FD474904F006
:100AB0009DFE04F007FA02F053FF82468B46404643
:100AC0004249D4F81C9004F091FE04F0FBF906466C
:100AD0000F4602F045FFCDE90001284604F0F2F987
:100AE00035A3D3E9002304F041FA52465B4604F0F3
:100AF0003DFA04F01DFD364904F078FE05F03CF89F
:100B000039460546304602F0E1FEE36902930646A7
:100B10000F4640462F49D4F81C8004F067FE2B494D
:100B200004F064FE04F0CEF902F0D0FE029B82468F
:100B300018468B4604F0C6F932463B4604F016FAD6
:100B400002460B460020244904F05CF806460F4696
:100B50004046224904F0FEFE04F0B4F952465B46DA
:100B600004F004FA02460B463046394604F04CF8CD
:100B700013A3D3E9002304F0F9F904F0B9FC064605
:100B8000484604F09FF90CA3D3E9002304F0EEF9E2
:100B9000DDE9002304F0EAF904F0CAFC0C4904F092
:100BA00025FE04F0E9FF28443044354420616661A5
:100BB000A56105B0BDE8F08FAA4C58E87AB6EB3FC6
:100BC0000000000000207C400000704235FA8E3C9E
:100BD00000006144000040400000F03F0000C040C1
:100BE000000096430000B44338469349E56904F099
:100BF000F3FC80460146904804F0EEFC8F4904F077
:100C0000F5FD04F05FF902F0ABFE82468B464046EC
:100C10008A49D4F81C9004F0E9FD04F053F9064623
:100C20000F4602F09DFECDE90001284604F04AF986
:100C30007DA3D3E9002304F099F952465B4604F002
:100C400095F904F075FC7E4904F0D0FD04F094FFA2
:100C500039460546304602F039FEE36902930646FE
:100C60000F4640467749D4F81C8004F0BFFD734915
:100C700004F0BCFD04F026F902F028FE029B824637
:100C800018468B4604F01EF932463B4604F06EF9D6
:100C900002460B4600206C4903F0B4FF06460F469F
:100CA00040466A4904F056FE04F00CF952465B4691
:100CB00004F05CF902460B463046394603F0A4FFC7
:100CC0005BA3D3E9002304F051F904F011FC0646BC
:100CD000484604F0F7F854A3D3E9002304F046F99A
:100CE000DDE9002304F042F904F022FC544904F049
:100CF0007DFD04F041FF28443044354425616061A6
:100D0000A66105B0BDE8F08F38465149E56904F0A9
:100D100063FC80460146484804F05EFC474904F005
:100D200065FD04F0CFF802F01BFE82468B4640467C
:100D30004249D4F81C9004F059FD04F0C3F806466B
:100D40000F4602F00DFECDE90001284604F0BAF886
:100D500035A3D3E9002304F009F952465B4604F0B9
:100D600005F904F0E5FB364904F040FD04F004FF0A
:100D700039460546304602F0A9FDE369029306466E
:100D80000F4640462F49D4F81C8004F02FFD2B4914
:100D900004F02CFD04F096F802F098FD029B8246C8
:100DA00018468B4604F08EF832463B4604F0DEF8D7
:100DB00002460B460020244903F024FF06460F4656
:100DC0004046224904F0C6FD04F07CF852465B46DA
:100DD00004F0CCF802460B463046394603F014FFC7
:100DE00013A3D3E9002304F0C1F804F081FB064605
:100DF000484604F067F80CA3D3E9002304F0B6F8E2
:100E0000DDE9002304F0B2F804F092FB0C4904F091
:100E1000EDFC04F0B1FE28443044354426616561A0
:100E2000A0612AE6AFF30080AA4C58E87AB6EB3FFF
:100E30000000000000207C400000704235FA8E3C2B
:100E400000006144000040400000F03F0000C0404E
:100E50000000344370B50446054600231C481D4974
:100E6000238001226060E16184F8202025F8203B86
:100E700004F53C762046FFF7B7FB236925F8023FCF
:100E8000238801339BB2B5422380F3D10023002293
:100E90004FF06851104D11482380C4F8942323610A
:100EA000C4F8342584F83035C4F82855A4F8323510
:100EB000C4F82C05C4F838154FF4B27001F066F987
:100EC000054600F003FCC4F83C55204670BD00BF49
:100ED000000048423ACD933F000070420000F040CD
:100EE00010B5094C2368DB0701D5084810BD204622
:100EF00001F042F90028F8D00448FFF7ABFF204684
:100F000001F040F9014810BD6090FF1F7490FF1F71
:100F10002DE9F041D0F8285581680446284604F0B0
:100F200065FCE16804F05AFB04F026FE238894F87F
:100F300020709BB27AB2B4335F2717FB0237B7F544
:100F4000B47F1FFA80F80ADB374A87FB0223FA18BE
:100F5000FB17C3EB22234FF4B47202FB1377334920
:100F6000284604F043FC0646404604F0EBFB04EB45
:100F700047070546788C04F0E5FB314604F036FC63
:100F8000294604F02BFB04F0F7FD2061238894F838
:100F900020209BB252B25F2101FB023303F596730E
:100FA000B3F5B47F0ADB204883FB00011944DA174C
:100FB000C2EB21224FF4B47101FB123304EB430363
:100FC000588C04F0BFFB314604F010FC294604F0B5
:100FD00005FB04F0D1FDA061238894F820209BB28A
:100FE00052B25F2101FB023303F5D273B3F5B47F34
:100FF0000ADB0D4883FB00011944DA17C2EB2122FA
:101000004FF4B47101FB123304EB4303588C04F02A
:1010100099FB314604F0EAFB294604F0DFFA04F0BC
:10102000ABFD6061BDE8F081B7600BB60AD7233C29
:10103000F0B51C4C1C4D1D4F1D491E4E1E481F4A2D
:1010400000234FF0C00E2360C5F800E006253B608A
:101050000D604FF461772821194D376001601360EE
:101060002868DFF868E0174F40F2444206F59736EB
:10107000104306F5FE762860CEF800103B6030681D
:10108000A5F580551043103D3060CEF80810BB60C8
:1010900029680D480A4368212A600EF1080E036092
:1010A0002160F0BD008003408480034074800340D1
:1010B00054800340088003403C800340408003404C
:1010C00018C00440108003404C8003400C80034053
:1010D00070B54FF0FF310446D0F83C0500F05AFBE4
:1010E000F0B10F21D4F83C0500F0B6FB0021054615
:1010F000D4F83C0500F026FB0646284604F01EFB0B
:10110000084904F073FB0546304604F017FB01461E
:10111000284604F01FFC044904F05EFAC4F82C05CC
:1011200070BD00BF0000C8410000484110B5044632
:1011300000210F2001F0C8F8D4F83C054FF0FF3231
:10114000042100F01DFBD4F83C054FF0FF320C21C8
:1011500000F0EEFAD4F83C054FF0FF32052100F024
:10116000FBFAD4F83C054FF0FF32042100F0FEFA00
:10117000D4F83C054FF0FF320F21BDE8104000F0DD
:1011800019BB00BF114A124B70B58260C3600446A0
:10119000FFF76CF92046FFF717FA2046FFF748FFE4
:1011A0000121192001F090F80121202001F08CF894
:1011B000084D094B0126102120222E60204619607F
:1011C000BDE870401A60FFF7B1BF00BF000080C0EB
:1011D0000000E14304F10F4004F00F40FFFFFFFF68
:1011E0002DE9F0470C46054611462046164604F008
:1011F000F3F93F4B3F4FD3F800903F491E608246C2
:1012000004F0F4FA396804F0E9F94FF07C513860E1
:101210008046504604F0EAFA49468246304604F0D9
:10122000DBF9364904F0E2FA35490746404604F056
:1012300099FC002843D13349404604F075FC00284E
:101240004BD0304EC5F8948324F0004003F03AFEB2
:1012500023A3D3E9002303F089FE02460B4622A113
:10126000D1E9000103F0CEFC804689463046514664
:1012700004F0B4F9394604F0AFF903F023FE024656
:101280000B464046494603F071FE04F051F9002137
:10129000044604F067FCB0B11B49204604F062FC30
:1012A00078B9012385F820300021204604F05AFC4B
:1012B00008B904F10044C5F82845BDE8F087104E90
:1012C000C0E7114CEDE71149204604F02DFC00B1B8
:1012D0000E4CFF2385F82030E6E74646B2E700BF14
:1012E000000000C0F528CC3F000000E0A3702640BD
:1012F0007090FF1F6490FF1FCDCC4C3ECDCCCC3DF9
:1013000066661E4166661EC10000C6420000C6C277
:1013100070B50446FFF7C0F8314A138801339BB219
:10132000B3F5FA6F138010D82E4D2978A02948D034
:101330002046FFF7EDFD2C4B22691A60626943F8E5
:10134000302CA26943F8282C70BDB4F8323594F8DB
:101350003005002101289BB2118039D0234E214D48
:10136000B6F900001BB2181A04F0ECF94FF0625104
:1013700004F03CFA1E4904F039FAB4F83235C4F8E6
:1013800034050246D4F82C1533802046FFF728FF99
:101390002978D4F8340504F2F2230A1D5850D4F801
:1013A0002C05985001F10802D4F89403985001F1EB
:1013B0000C021031C9B2D4F828059850A029297020
:1013C000B6D104F2F22001F02BFF00232B70AFE71F
:1013D00094F8200084F8301503EB8033BEE700BF9B
:1013E0006C90FF1F6A90FF1F408003406890FF1FB2
:1013F00000002041054A08B5136823F080031360FC
:10140000FFF76EFDBDE80840FFF782BF0080034094
:1014100038B5FFF765FDFFF7B5FE0C4D0C4A0D49D9
:101420000D4C1378002BFCD00B78DB07F9D52B681B
:1014300020681B1A0E2BF4D972B60849084B4020BD
:101440004FF0804208701A6062B638BDD495FF1F15
:10145000B896FF1FD096FF1FA498FF1F3EE400E040
:1014600004E100E008B5FFF73BFDBDE80840FFF7E9
:101470002FBE00BF10B4047F4160022CC26002D0B6
:1014800010BC00F03FBD836810BC1847F0B4464B59
:10149000464A186BDC6A01791170454922790A7055
:1014A0009A6A00790870002A46D05968C9688A4249
:1014B0003ED82168CC8B240402F1FF3065D4C0F300
:1014C0000E00C883C88B80B2C882196B0968C88BAC
:1014D000000452D4C2F30E00C883C88B002480B22B
:1014E00012F1FF32C88218BF01229C62D96A2E48CD
:1014F00009680D6800F12404A54236D00068C4686C
:1015000014F0804F0C680D6815BF248824780235CC
:10151000013544F000440D604463196B254B097993
:101520001970214912B1CA6A12791A70F0BC704759
:10153000521A9A620122D9E7586B196805681E4C45
:101540000A63CC62CC682D681C4E24F080440327CB
:10155000B542CC6083F825701FD1037F4260022B17
:10156000C2601ED0F0BC00F0CDBC016890F8240031
:10157000CC6840F000404863CFE7CC8BC2F3080052
:1015800004F47E442043C883A7E7CC8BC0F3080053
:1015900004F47E442043C88394E72B461146F0BCF4
:1015A00018478368F0BC18472087FF1F1F80004042
:1015B0001C8000401B80004000000FFF75140000DD
:1015C00090E80C00F0B41C6859682568164F174E57
:1015D00029432160164D17491760D66015611160C7
:1015E000417A154A5C180A3194F8244053F8215086
:1015F00002EBC40149680D60017A5C1803EB8101BC
:10160000247ECD6902EBC40149680D60817A5818C7
:1016100003EB810390F83000596B02EBC002F0BC81
:1016200053681960704700BF01401F000110003867
:101630000110007800001F80F0650000204A436818
:101640009A42F0B40FD0827A1A4492F83020914234
:1016500007D093F830408C4215D093F831408C423B
:101660002BD0F0BC70470D2907D00E29EBD1154CBB
:10167000227842F004022270E5E7124C227822F030
:1016800004022270DFE7002421461E685D68366888
:101690002E4210D00C4D05EBC202002756685A1896
:1016A000376092F830200C3105EBC20503EB810363
:1016B0006A685B6813608472D3E701242146E4E71B
:1016C00018650000D095FF1FF065000038B5124A7C
:1016D000124B00F1A8050021044600F007FB284644
:1016E0000F4B104A012100F001FB0F490F4A022362
:1016F00084F850310B68C4F8585143F00063C4F8C3
:101700006051C4F85441C4F85C410B60136843F065
:1017100000632046136038BD94650000EC6500004E
:1017200090650000C06500003C80044030800440AB
:10173000012A03D0D0F8540100F06EB9D0F8580156
:1017400000F06AB9012903D0D0F8540100F0BEB806
:10175000D0F8580100F0BAB8012A03D0D0F85401EB
:1017600000F0A2B9D0F8580100F09EB9012A03D0C8
:10177000D0F8540100F028BAD0F8580100F024BA8B
:10178000012A03D0D0F8540100F0A2B8D0F85801D3
:1017900000F09EB801290CBFD0F85831D0F8543170
:1017A0001B6B5B0103F18443D869003018BF012033
:1017B000704700BF531C0FD052B1012A3AD0D0F865
:1017C0005421D38A9BB243F00103D3820020704797
:1017D000D0F8540100F070BB70B50446D0F8540145
:1017E0000D4600F041FB29460646D4F8580100F0AA
:1017F0003BFB76B110B3D4F85431D4F85801597D7D
:10180000427D914298BF18462946BDE8704000F0DD
:1018100053BBD0B9D4F85411D4F85821CB8A9BB219
:1018200043F00403CB82D38A9BB243F00403D382F8
:10183000002070BDD0F8580100F03EBB2946D4F816
:101840005401BDE8704000F037BB2946D4F8580178
:10185000BDE8704000F030BB01290CBFD0F8583112
:10186000D0F854311B6C186800B2704790F82130E2
:101870008B421BD0012970B419D051B9104A114BB9
:1018800011701970036D80F821105B0103F184431E
:10189000196072B6436D5B0103F18443012200219C
:1018A0004276D9619A61DA6162B670BC7047064DC2
:1018B000034A044B6026E1242E701470E1E700BF58
:1018C000014007404000FA4200400740C0697047AD
:1018D00038B5437E04460D46DBB9636D012D4FEAF2
:1018E000431303F184431DD90121042D996009D9C3
:1018F000082D23D9102D1AD920225960196084F897
:10190000202038BD002104225960196084F820206D
:1019100038BD00F01BF8636D012D4FEA431303F14E
:101920008443E1D800229A6084F8202038BD002248
:101930001A601022596084F8202038BD0020082247
:101940001960586084F8202038BD00BFF8B5436D99
:101950005B0103F184430446DA6942B101F008FDFA
:10196000636D5B0103F18443DA69002AF6D19B6958
:1019700023B1E38A9BB243F00203E38272B6637E33
:10198000002B36D0E16E236F626F0F68A06F1B686B
:10199000E16F16680568D4F8802009681268206E27
:1019A0003B4433442B440B441344C3F34E03D4F859
:1019B0008850D4F88C10D4F8902043F4004303608E
:1019C0002F68D4F894000B681668D4F8981005684E
:1019D000D4F89C2009681268606E3B4433442B4461
:1019E0000B441344C3F34E0343F40043002203604B
:1019F000627662B6A37E6BB10221204600F054F8F5
:101A00000221204600F0E0F804212046FFF760FFA5
:101A10000023A376F8BD00BF38B5C37E8B4211D03A
:101A2000437E04460D466BBB092D0CD8A36B5B01AE
:101A300003F1844300210822D960FF209960E276F7
:101A4000E06138BD38BD0B2D1FD90D2D0DD8A36B0E
:101A50005B0103F1844301229A6000200C22D860CC
:101A600040F6FF71E276E16138BDA36B5B0103F1E3
:101A7000844301211022D9604FF6FF709960E2760D
:101A8000E06138BDFFF762FFCEE7A36B5B0103F1B6
:101A9000844300229A6001200A22D86040F2FF317C
:101AA000E276E16138BD00BF90F823308B4258D018
:101AB00070B5437E05460C46002B35D1A31F032B82
:101AC000EA6B17D9520102F184420020D060002C49
:101AD0002DD1AB6B94605B0103F18443012211466D
:101AE000DA6116460020196058605E619A6185F8D7
:101AF000234070BDAB6B52015B0103F1844302F1E3
:101B0000844201210020062CD1605960196098613F
:101B1000586127D0072C2AD0082C0CBF9060916008
:101B2000D86185F8234070BDFFF710FFC6E7012C90
:101B30000DD0022C29D0032C31D0042C3AD0052C06
:101B400018D0EB8A9BB243F00103EB8270BDAB6B04
:101B500090605B0103F184432146DC612246264606
:101B6000C0E770479060D96185F8234070BD9160EF
:101B7000D961BCE7AB6B5B0103F18443012696603E
:101B800001460246D8610646ACE7AB6B90605B014C
:101B900003F184430122D86101461646A2E7AB6BEC
:101BA0005B0103F184430126966001463246D86109
:101BB000064697E7AB6B5B0103F184430126966011
:101BC0000146D86102468DE738B5437E04460D468E
:101BD0007BB9042D0AD8DFE805F00F1F2F3F030063
:101BE000A36B5B0103F1844300221A6184F8245043
:101BF00038BDFFF7ABFEECE7A26BE36B52015B0174
:101C000003F1844302F184420021012010615960F4
:101C1000196084F8245038BDA26BE36B52015B015C
:101C200003F1844302F18442012100201161196013
:101C3000586084F8245038BDA26BE36B52015B01FD
:101C400003F1844302F184420121002011611860F4
:101C5000596084F8245038BDA26BE36B52015B01DC
:101C600003F1844302F1844201211161596019603A
:101C700084F8245038BD00BFC36B5B0103F184437B
:101C8000022270B505210026012580F821200422BA
:101C900080F82420044680F82310C676C66180F8B8
:101CA00020604676C682467580F8225031461D6116
:101CB000FFF7DCFD0A21FFF7AFFE2046A5762021C5
:101CC000FFF706FE29462046FFF7EEFE294620468E
:101CD000FFF77AFF72B6636D65765B0103F18443AB
:101CE000DE619D61DD6162B670BD00BFF8B504467E
:101CF0008262C362017600294CD04D4B23631C33B2
:101D0000E3644C4F4C4E4D4D4D484E494E4A67632F
:101D10001833A3662033A663E56320646164A2647C
:101D2000C4F884301C371C3644351830183118324A
:101D3000A3F5052327656665A565E06521666266EE
:101D400018371836103D1C301C311C321C3BE7661E
:101D500026676567A067E167C4F8802020312032DC
:101D6000C4F8A03020373A23203620352030C4F87C
:101D70009400C4F888702046C4F88C60C4F8905071
:101D8000C4F89810C4F89C2084F8A430FFF774FFBE
:101D90002046F8BD2D4B23631C33E3642C4F2D4E9E
:101DA0002D4D2E482E492F4A67631833A3662033E2
:101DB000A663E56320646164A264C4F884301C37C0
:101DC0001C364435183018311832A3F5A043276566
:101DD0006665A565E0652166626618371836103DB0
:101DE0001C301C311C32443BE76626676567A067E0
:101DF000E167C4F8802020312032C4F8A0302037B9
:101E00003923203620352030C4F89400C4F8887077
:101E10002046C4F88C60C4F89050C4F89810C4F8F8
:101E20009C2084F8A430FFF727FF2046F8BD00BFB0
:101E300000B00B4004B00B4008B00B400CB00B409E
:101E400010B00B4014B00B4018B00B4000B0034072
:101E500004B0034008B003400CB0034010B003408E
:101E600014B0034018B003402B2907D8836A585C8C
:101E700000F01F001F3818BF012070470020704776
:101E8000836AC26B5B5C5201190602F184424CBF4B
:101E900000210121116172B6016B4A0102F18442F5
:101EA00003F01F039269003218BF012203EB821373
:101EB0000B6062B6704700BF2B2970B5044617D877
:101EC000836A5B5C03F01F031F2B11D0437E0E4619
:101ED000ABB9636D627D5B0103F18443013201257F
:101EE000627520463146DD60FFF7CAFF284670BDA7
:101EF000E38A9BB243F00403E382002070BDFFF746
:101F000025FDE6E710B4EFF3108272B6437F33B9D4
:101F1000017F012907D003290FD00123437702B99C
:101F200062B610BC7047124C2168A1B111494361DF
:101F30000B68836108605861EFE70F4C216881B13D
:101F40000E4943610B688361086058610C4B4FF088
:101F500080511960E1E7074B4161816120601860A1
:101F6000DBE7064B4161816120601860EEE700BF4E
:101F7000C495FF1FC095FF1FB495FF1FB895FF1FA5
:101F800004ED00E070B5EFF3108272B60C4C2068DF
:101F900080B10C4E00254369236073B19D6102B985
:101FA00062B6457783689847EFF3108272B620686F
:101FB0000028F0D102B962B670BD3360EFE700BF10
:101FC000B495FF1FB895FF1FFFF7DCBF184A30B468
:101FD0001468002C27D0036821688B420ED2CB1ADC
:101FE00000218460C1602360E060106002230375FB
:101FF00030BC704711688B42144608D3A2685B1A44
:102000000360002AF6D18260C460A060EEE7D26867
:10201000C2608460E060C568CB1A0222A8602360B9
:10202000027530BC70478460C4601060DEE700BF9A
:10203000BC95FF1FF8B5224E34682CB32368002BE3
:102040003AD1204F1D4604E03468ECB12368002BE0
:1020500032D1A36803B1DD60206933600368257560
:102060001B68BB4221D1037F4560022BC46020D096
:10207000FFF748FF6368002BE6D023602046FFF798
:10208000A5FF3468002CE1D1EFF3108372B60E4A3D
:1020900000211068116003B962B628B18468FFF7A7
:1020A00095FF20460028F9D1F8BD22460021984727
:1020B000E0E783689847DDE7013B2360E4E700BF82
:1020C000BC95FF1F75140000CC95FF1F024A1368D2
:1020D00001331360FFF7AEBFD495FF1F08B5FFF7BC
:1020E00097F9FFF7BFF901F043F9FAE708B5104C8B
:1020F00008E0236859050DD423681A050FD4236816
:10210000DB0411D423685803F3D500F05FFA236889
:102110005905F1D501F000FA23681A05EFD501F051
:1021200091FA2368DB04EDD501F022FBEAE700BF5A
:102130003480044008B5FFF7D9FF00BF014B1022DF
:102140001A80704700200540704700BF094908B554
:102150000B6830B16A461844A2F58052904202D210
:102160000860184608BD03F027FD0C2303604FF0FC
:10217000FF3008BD5887FF1F0078B0FA80F0400993
:10218000704700BF01230370704700BF03F042BDDA
:10219000F0B44D1E2E46002400E00134B0FBF2F3F3
:1021A00002FB1300092800F130078ABF3730F8B26C
:1021B000C0B206F8010F1846002BEED10A19537071
:1021C0004CB1107815F8016F28700133E01A834282
:1021D00002F80169F5DB0846F0BC704710B40F4BFC
:1021E00053F8302092F880422CB1012369B182F873
:1021F000803010BC704703EBC0035B681A6841B9BC
:1022000022F002021A6010BC704782F8003110BC44
:10221000704742F003021A6010BC7047F06500007E
:102220001C4A02EBC00301295B6811D004291BD0B2
:1022300052F83000002280F8802229B1022920D0F3
:10224000032922D01A6070474FF480721A607047D9
:1022500052F830004FF4A27280F880121A601A68A7
:1022600022F020021A60704752F830104FF4A27228
:10227000012081F880021A601A6842F020021A6078
:10228000704740F203121A6070474FF481721A606F
:10229000704700BFF065000030B4054B054D064C9B
:1022A000002210211A602A602060196030BC70473B
:1022B00014D0034004D0034000D00340212801D8AB
:1022C000FFF78CBF704700BF212801D8FFF7A8BFD8
:1022D000704700BF2DE9F843054672B6214F224BE7
:1022E000224A1B683C68126862B6520102D5322B42
:1022F00088BF0134A5B3C3F58C331D4EDFF8689059
:10230000DFF8688003F23F134FF47A72A6FB0313E1
:1023100002FB04F404EB131472B6D9F800103A6807
:10232000D8F800E062B6C1F58C3303F23F13A6FB88
:1023300003031EF0806FC4EB13134FF47A7002D0C6
:10234000322988BF013200FB0233B3F57A7F04D310
:10235000013D05D004F57A74DEE701F009F8DBE70A
:10236000BDE8F883D495FF1F18E000E004ED00E01D
:10237000398EE338F8B52D4B2D49DFF8D0E0DFF882
:10238000D0C02C4E2C4D2D4C2D4A2E4F4FF400001A
:1023900018604FF0807018604FF0007018604FF0B8
:1023A000806018604FF000601860002008602823EB
:1023B00048F6FF71CCF80010CEF80030336013609F
:1023C0002B6023603B60B3629362092245F8242CA2
:1023D000C4F8D80F05F57F65C7F8D41F07F5FF27A8
:1023E00007F5FA67C6F8F83F2B6006F5FF26C4F834
:1023F000D42F05F5FD2504F5FF24386006F2F476A8
:102400001148316005F5FF6504F5FD642B6023601C
:10241000026001F001F81920FFF75CFF00F03EFEBA
:1024200040F21310BDE8F840FFF754BF08E100E0A8
:102430000480034014800340248003402C80034028
:102440001C8003403480034000800B400C8003401C
:1024500008800340013803280BD872B6074B53F8A5
:10246000203043B100205B680130002BFBD162B605
:102470007047002070471846F9E700BF8496FF1F99
:1024800030B472B62B4A13781D0706D52A4B196A49
:10249000002936D0996A002941D053781C0706D507
:1024A000254B196C00293ED0996C002939D09378BE
:1024B000190705D5204B196E002936D0996E89B1C0
:1024C000D3781B0707D51C4BD3F880207AB3D3F8F9
:1024D000882011213AB162B6184B00221A7030BC24
:1024E00000F06ABE0D21154C154D227843F831508D
:1024F00003EBC1030830013A5860227062B630BC69
:10250000704704220D4C0F4D217843F8325003EBF5
:10251000C20308304A1E5860227062B6EFE70521F8
:10252000E1E70921DFE70822ECE70C22EAE71022C5
:10253000E8E700BF006700000080FF1FAD96FF1FA7
:10254000C800400088004000431E032B1DD81B4AD2
:10255000400140F0100030B4104472B6184CE25CF8
:10256000032A1BD8DFE802F00212151703220D8898
:10257000E25410F0080F14BFC823882343EA054330
:1025800008310360416062B630BC704708300222F7
:10259000EDE70522EBE708300422E8E7094A52F8A4
:1025A000230038B1084A52F82300416042F8231052
:1025B00062B6E9E742F82310034AF7E70080FF1FFD
:1025C000BC96FF1F8496FF1F9496FF1F2DE9F04FC6
:1025D000DFF80CB3DFF80CA387B044E0AB4F4FEA51
:1025E000930807EBC809013ED9F8042003F008035B
:1025F000F6B2A2F1080003F0FF04002B40F00281C4
:1026000057F838301B0C99B222F8081C002B00F048
:10261000F0809F4B22F8064C42F8044C53F82620D9
:10262000002A00F0C5829B4D55F8263058609A4C20
:1026300045F8260034F81630194424F8161000F036
:102640009BFD002800F0AD82944A954B19F0080FCD
:1026500000F1080018BF1346C9F8040047F83830E5
:1026600008238BF800309BF80040E4B261071AD5CC
:102670008C4B1B78A3B18C490A7802F0FF0322B17E
:10268000013BDBB20B7003B900BE88490A7802F047
:10269000FF032AB1013BDBB20B70002B00F0578225
:1026A00004238BF8003004F0080303F0FF02002B32
:1026B00000F0CC809AF80030DBB21E098ED19C0865
:1026C000DFF8C89159F8342009EBC401C2F3830242
:1026D000013A49680C2A00F28880DFE802F07C7C2D
:1026E0008686868686864786868607000868704DB9
:1026F0004A68704F704E286081B240F28160674B2B
:102700006A604FF0010E0022814249F834303A608D
:10271000C9F81020C9F8182086F800E05B4C00F2D8
:10272000E380B1F5D06F80F04683B1F5817F00F092
:10273000FC8200F28D82802900F07783822940F0AC
:10274000FA82A98801F07F01042900F2F4825B4833
:102750005B4C89000844227062700278930740F154
:10276000588484F800E04FF0020E42E3514F3A687B
:1027700032B3544B504E5449188834780D78402861
:10278000864645F0020828BF4FF0400E002C84F02A
:1027900001043470CEEB00000CBF8824C82409EB80
:1027A000C80680B285F0010544EA0E4472601880C4
:1027B00049F8384072440D70002800F045813A60B5
:1027C0003B4B1A88B2F5A06F0FD100219A7859704F
:1027D0003E4B1A7009E0364A108842F221029042BC
:1027E00000F037812D4A49F83420394A012313700B
:1027F00036E72A4A2A4B19F0080F18BF134647F844
:1028000038302DE700F0D8FC324A334952F82630F0
:10281000002B00F0D18158688C5D42F8260003F14E
:102820000802C9F80420032C05D8DFE804F02C02C4
:10283000292602228A551A8819F0080F0CBF88230E
:10284000C82343EA024347F8383009E7E00700F1BC
:102850008181210600F1F281A20706D51F4A204995
:1028600013780220DBB213700870E30602D51C4B0C
:1028700010221A7007B0BDE8F08F04228A55DAE7FB
:1028800005228A55D7E703228A55D4E70080FF1F27
:102890003096FF1FDC95FF1F9498FF1FC800400073
:1028A00088004000B896FF1F4196FF1FC096FF1F8B
:1028B000A496FF1FD895FF1F4096FF1FC02007401A
:1028C000B096FF1FEC95FF1FAC96FF1F98200740A6
:1028D000942007408496FF1FBC96FF1F8820074066
:1028E000802007409020074042F22100814200F002
:1028F0002A8100F2D880B1F5086F00F07682B1F538
:10290000106F40F01882226AB349A8780870120646
:1029100000F13A83D9F82820B049130600F10C835E
:10292000D9F83020AD49150600F10183D9F83820D7
:10293000AA49140600F1F682D9F84020A7491006EA
:1029400000F14A83D9F84820A449120600F13F83D8
:10295000D9F85020A149130600F13483D9F8582042
:102960009E49150600F12983D9F860209B49140679
:1029700000F11E83D9F868209849100600F11383EE
:10298000D9F870209549120600F10883D9F878200B
:102990009249130600F1FD82D9F880208F4915066F
:1029A00000F13183D9F888208C49140600F1258381
:1029B000D9F890208949100600F11983D9F8982098
:1029C0008649120600F10D838548864A86490190A2
:1029D0008648874D874C04970023059602958046CC
:1029E0000F4616461D460394306828B1446800F02F
:1029F000E3FB2046002CF9D100233360029B3868AA
:102A00001A46002342F8253028B1446800F0D4FB70
:102A10002046002CF9D100223A60019A98F8003043
:102A20001146002241F8042B039A0191023B4FF01A
:102A3000000122F81510032B00F22B81DFE813F0C0
:102A40007001250170012501BEF1400F18BF002261
:102A5000B5E6694A0D784878157050708D78C87859
:102A60009570D07010680D79157186284D79897927
:102A70005571917100F09B816049614E0A78307800
:102A800082F00105002842F002020D700CBF88217F
:102A9000C82149F8321009EBC20280F00100002180
:102AA000307051609EE642F22120814240F0CB819D
:102AB000544B554C5549A8781D682560CDF804E065
:102AC0000870002002908046844604464B490D78E9
:102AD00045F0020E09EBCE030393019B002B039BF1
:102AE0005C600CBF8824C82444EA080385F0010414
:102AF00049F83E3032700C70DFF8E0E0404BDFF810
:102B0000FC80002840F01E81BCF1400F1BD144F036
:102B1000020C09EBCC03029CDFF8C0E05C60002AE9
:102B200040F02681020442F088029DF804304EF8FD
:102B30003C20044433700D702346402803D100200C
:102B4000334A3B601080334A012313704DE600F096
:102B5000EBFBA5E5214B2F4828491A614FF0020EE7
:102B600080F800E02C4F0A702C49196099602C4EB7
:102B70002C4D2D4C9A610D213970FF213170DFF8F9
:102B8000B8E029702270294D294A8EF800109F273D
:102B9000012406F8047C5D600470DA6007B0BDE8CB
:102BA000F08F244A47F8380013780133137057E543
:102BB00043F826000E4D3AE58B5D032B00F2F080C2
:102BC00001A252F823F000BF612600006126000038
:102BD000852C00007F2C0000B896FF1F0080FF1F8F
:102BE0009496FF1F3096FF1F8496FF1FBC96FF1F11
:102BF000DC95FF1F9498FF1F9C98FF1FAC96FF1F4A
:102C00004096FF1FD495FF1FA498FF1FD096FF1F6B
:102C1000EC95FF1F94200740C0200740880040002B
:102C2000882007408020074098200740F095FF1F2C
:102C30004496FF1FAD96FF1F8C200740C149C24B31
:102C400080220D2008701A70A2077FF50EAE05E6EF
:102C500040F20232914240F0EE80A98801F07F01FB
:102C6000042968D86A88002A65D1B648CDF804E0FE
:102C700089000844017841F00201017021E7012335
:102C80008B55EDE400238B55EAE44FF0010388F8FF
:102C900000300135042D06F1040607F1040708F1A0
:102CA00001087FF4A1AEA94CA94B2278A94D049F3D
:102CB000059E002129701A70130700F105816278C2
:102CC000A549DFF8A0820A7010074FF00001C9F88B
:102CD0003010C9F8381000F1E080A049A2780A70DD
:102CE0000021C9F85010C9F858101107DFF8748294
:102CF00000F10181E2789A499A4C0A70002112078A
:102D0000C9F87010C9F8781000F1B08033780193D9
:102D1000002183F00102C9F89010C9F89810D0E69C
:102D20004FF0000388F80030B3E7A98801F07F0175
:102D3000042940F28D80834A0F2313708A4A0123AD
:102D4000137052E540287FF6E2AE44F002040EEB29
:102D5000C401029E4E60BAB19DF80410834A1970F6
:102D60003346403888F8005040334EF83420E7E6C8
:102D70009DF8043033700204029B0D7042F0C802CB
:102D800003444EF83C20D8E69DF804101970029BCD
:102D9000774A88F80050403840334EF83420CFE668
:102DA00019F0080F0CBF022303238B5558E4714A16
:102DB0000F21117060E6704A5468002CBBD06888FF
:102DC000B5F804E003E00C325468002CB3D013884B
:102DD0008342F8D153887345F5D1000A03280CBF0C
:102DE00094F800E0B2F808E003E0644A644C12781A
:102DF0002270E888704580F03F8162490D78402854
:102E0000844645F0020E28BF4FF0400C04EB0C0343
:102E100009EBCE02029301235460CCEB00004FEA91
:102E20000C4800220193C8245EE6554C4FF0020E78
:102E300022706270DDE7B1F5A06F7FF47CAF0123F3
:102E4000002201933DE642F221329142F7D072E72F
:102E50006A88002A7FF46FAF3A48CDF804E0890011
:102E60000844017821F0020101702AE600F084F99B
:102E7000002800F0EF8008303D4AC4F88400C4F810
:102E8000802000F079F9002800F0DE800830374A11
:102E9000C9F88C00C9F8882038E700F06DF90028DF
:102EA00000F0C0800830324AC8F84400C8F840201A
:102EB00000F062F9002800F0AF8008302B4AC9F812
:102EC0004C00C9F8482008E700F056F9002800F047
:102ED000CD800830264AC9F82400C9F8202000F027
:102EE0004BF9002800F0BC800830204AC9F82C00BB
:102EF000C9F82820E3E600F03FF9002800F09E80A2
:102F000008301B4AC8F86400C8F8602000F034F9A3
:102F1000002800F08D800830144AC9F86C00C9F808
:102F20006820E7E6C86B083800F046F904E5486B0E
:102F3000083800F041F9F9E4C86A083800F03CF9B3
:102F4000EEE400BFC020074080200740006700007B
:102F5000C4200740AD96FF1FC8200740CC20074083
:102F6000D02007400080FF1F94200740C800400089
:102F7000880040004196FF1F04670000B896FF1FBD
:102F8000B096FF1FAC96FF1F606A083800F014F976
:102F9000C0E4C86F083800F00FF9FDE4486F083846
:102FA00000F00AF9F2E4C86E083800F005F9E7E429
:102FB000486E083800F000F9DCE4C86D083800F00D
:102FC000FBF8D1E4486D083800F0F6F8C6E4C86CA8
:102FD000083800F0F1F8BBE4486C083800F0ECF871
:102FE000B0E4D1F89C00083800F0E6F8ECE4D1F841
:102FF0009400083800F0E0F8E0E4D1F88C000838DC
:1030000000F0DAF8D4E4D1F88400083800F0D4F8FD
:10301000C8E44FF0020EECE62A78C9F84800013205
:103020002A705AE62A78C8F8400001322A703FE731
:103030002A78C9F8680001322A705BE62A78C8F855
:10304000600001322A7061E72A78C9F888000132ED
:103050002A705BE62A78C4F8800001322A7010E7F3
:103060002A78C9F8280001322A7028E62A78C9F897
:10307000200001322A7032E7BEF1400FF44628BF2B
:103080004FF0400C04EB0C0302930123CCEB0E0039
:103090004FEA0C480022019318E500BFF8B500F094
:1030A000D3FB294B29482A4C2A4F2B4DDFF8BCC0B3
:1030B000DFF8BCE0294E00221A605A609A60DA609C
:1030C0001A615A619A61DA611A625A629A62DA6224
:1030D0001A635A639A63DA631A645A649A64DA6404
:1030E0001A655A659A65DA651A665A669A66DA66E4
:1030F0001A675A679A67DA67C3F880200168C3F8CD
:10310000842041F480210160C3F307212170C3F3BF
:103110000740134938701B0E2B70FF238CF80030CA
:10312000104D8EF8003010480B700123337084F876
:10313000642070264FF40074102207F82C3C2E7087
:10314000046081F8F820F8BD0080FF1F348004403F
:103150009C200740B0200740B4200740942007403F
:103160001020074049E400E008E100E0802007402B
:1031700088200740704700BF72B60D480268B2FA57
:1031800082F30B2B10DC4FF00041D94022EA010200
:10319000026062B6074803EBC303DB00C2180021DC
:1031A000C15010465160704762B60020704700BFA2
:1031B0005C87FF1FBC83FF1F0D4B0E4AC31AA2FB87
:1031C00003231B090B2B0CD80B4A127852B972B689
:1031D0000A484FF00041026821FA03F31A430260E3
:1031E00062B67047064A1278002AF0D0FFF748B955
:1031F000BC83FF1F398EE338AD96FF1F5C87FF1F2E
:10320000B896FF1F044B054A1B6890881BB11A88AB
:103210005B88D31A18447047CC96FF1F9498FF1F01
:103220002DE9F04FDFF8F89083B0012289F80020F3
:10323000019169B3DFF8EC80364F019E8346D8F8E0
:103240000000B0B3344D4488C4F14001B14228BFFE
:10325000314604EB010E00221FFA8EFE2A70761A08
:10326000A0F802E000F1080251B1013C22445944A7
:103270001BF8014B02F8014F8B45F9D1B0F802E081
:10328000BEF13F0F0BD8254A05211170002ED6D173
:103290000198002389F8003003B0BDE8F08F402288
:1032A000028001460420FFF74FF90022C8F80020F1
:1032B000E9E73A782AB3184D48F601444FF0010A7D
:1032C00007E0013C16D02A78A2B900F051F83A780C
:1032D000BAB10420FFF7BEF80728F2D889F800A099
:1032E000FFF74AFFC8F800000028ACD10C4B013CA6
:1032F0001870E8D101234FF0FF302B7003B0BDE808
:10330000F08F00234FF0FF3089F8003003B0BDE8A4
:10331000F08F00BFB896FF1FC896FF1FC096FF1F13
:10332000C196FF1FC496FF1F38B50E4B1B7873B9AB
:103330000D4C216861B103F0FF054B880B80042020
:10334000FFF702F9256038BD084B01221A7038BD1D
:10335000FFF712FF0028F7D00146BDE838400420EF
:10336000FFF7F2B8C196FF1FC496FF1FC096FF1F5C
:1033700038B5224C237803B138BD01232370FFF701
:1033800041FF70BB00F0B8F840BB00F04BF910BB38
:1033900000F0DEF9E0B900232370EFF30583002B82
:1033A000EAD1EFF3108172B6154B1868E0B1154CF5
:1033B0002278CAB945691D6001232370C5B1AA618D
:1033C00001B962B600254577836898472570D3E731
:1033D00000F020F8DFE700F01BF8D9E700F016F85E
:1033E000D3E7FFF7C7FECDE70029C5D162B638BDE8
:1033F000054B1D600029E5D1E3E700BFD196FF1F13
:10340000C495FF1FC895FF1FC095FF1F704700BFE1
:10341000704700BF704700BF30B42948294A2A4B83
:103420002A4D6024E121047011701B78284C082B70
:1034300030D00A2B2748284937D00C2B0CBF152237
:103440003D2212232A60236002600B60234B244933
:103450001B78244ABBB101230B601360224B234924
:103460001B78234A012B26D9042B0FD9082B1ED9F0
:10347000102B94BF862387230B6013601D4B012202
:103480001A7030BC70470B601360E7E784230B6051
:103490001360F3E700F58E200F4908300122132353
:1034A0002A60236002600B60D0E71922F7E78523CA
:1034B0000B601360E2E780230B601360DEE700BF60
:1034C00000400740014007406087FF1F08B00340ED
:1034D0000CB0034008B00B400CB00B40D396FF1F5C
:1034E00020B0034020B00B406187FF1F24B0034091
:1034F00024B00B40D296FF1F054A064B10781B786C
:10350000C0B2DBB2984238BF4030C01A704700BF2B
:10351000D896FF1FD996FF1FF0B4384B1A7912F0D6
:10352000300F2CD072B6997D01F0FF0200293DD0FA
:1035300062B6334F334938780D78334E1C46C0B2EB
:10354000EDB2431C402BE17928BF0023AB4202F1CE
:10355000FF32C9B21CBFF154184612F0FF02F0D17D
:103560002A4B1B68C2B23A704BB1A84236BFC5F1B4
:103570004005401B40192728C4BF01221A701F496B
:10358000CA78D2B2150616D452060DD51B4B1B793C
:103590005B0609D51E4B1F491B6800220A7003B148
:1035A0001A70164B3C22DA70F0BC70474022D97971
:1035B0005A7462B6E3E70B791C06E5D5164B174E35
:1035C0001C783378E4B2DBB29C420ED0144D01E09B
:1035D000A3420AD00133402B28BF00230879E85CBE
:1035E000C0B2C871087D0728F2D9DBB20349337035
:1035F0000B79180644BF7C23CB70C5E700A00640BA
:10360000D896FF1FD996FF1F1C97FF1FD496FF1F48
:103610006097FF1F5C97FF1F6497FF1F5D97FF1F59
:10362000DC96FF1F054A064B10781B78C0B2DBB250
:10363000984238BF4030C01A704700BFD897FF1F6C
:103640006D97FF1FF0B4384B1A7912F0300F2CD061
:1036500072B6997D01F0FF0200293DD062B6334F6A
:10366000334938780D78334E1C46C0B2EDB2431C56
:10367000402BE17928BF0023AB4202F1FF32C9B2EF
:103680001CBFF154184612F0FF02F0D12A4B1B6800
:10369000C2B23A704BB1A84236BFC5F14005401BDB
:1036A00040192728C4BF01221A701F49CA78D2B214
:1036B000150616D452060DD51B4B1B795B0609D592
:1036C0001E4B1F491B6800220A7003B11A70164B6B
:1036D0003C22DA70F0BC70474022D9795A7462B645
:1036E000E3E70B791C06E5D5164B174E1C783378AB
:1036F000E4B2DBB29C420ED0144D01E0A3420AD0EA
:103700000133282B28BF00230879E85CC0B2C871B8
:10371000087D0728F2D9DBB2034933700B7918060C
:1037200044BF7C23CB70C5E700B00640D897FF1F8D
:103730006D97FF1F9897FF1F6897FF1FDC97FF1F6C
:103740006C97FF1FE097FF1FD997FF1F7097FF1F10
:10375000054A064B10781B78C0B2DBB2984238BFDE
:103760004030C01A704700BFE897FF1FE997FF1F5E
:1037700030B42B4B1A7994061FD52A48DA7903788E
:10378000294901333F2B0978C8BF00238B42D2B2AD
:1037900003D0264CD9B2E2540170254A116861B1B8
:1037A000244A1278D2B2934236BFC2F140029B1A29
:1037B0009B18272BC4BF01230B70194AD378DBB2A7
:1037C000180611D45A060DD5154B1B795B0609D581
:1037D000194B1A491B6800220A7003B11A70104B6A
:1037E0002C22DA7030BC704711790906EAD51449E9
:1037F00010480C780178C9B28C420DD04A1C272A97
:1038000084BF00210A460F4D054C98BFD1B2AA5C77
:10381000D2B2E2710170D5E76C21D170D2E700BF5E
:1038200000C00640E897FF1FE997FF1F1498FF1F8D
:10383000E497FF1F5598FF1F5898FF1F5498FF1FCC
:103840005C98FF1FEC97FF1F70B584B072B6194BE0
:10385000194D1A48702241260F2480211A702E70AB
:103860001A460470197013781B06FCD5144B18689F
:1038700062B6144B144C984298BF00EB800001A92B
:1038800098BF40000A22FEF783FC01A920460023CE
:1038900011F8012B01333AB10A2B20F8022FF7D18E
:1038A0001623237004B070BD5B00DBB2237004B03C
:1038B00070BD00BF00000240070002400600024049
:1038C000080002407F969800F087FF1F30B5224A1B
:1038D00021F00043934287B01BDD204A934205DD6F
:1038E00002460B4601F08EF907B030BD02AA00F087
:1038F0007BF800F00303012B1AD0022B0FD01BB36F
:103900000124DDE90423DDE90201009400F0ACFFAD
:10391000EAE70022002300F08BFA07B030BDDDE9B2
:103920000423DDE9020100F083FA01F10041DBE745
:10393000DDE904450093DDE9020122462B4600F053
:1039400093FF01F10041CFE7DDE90423DDE9020146
:1039500000F06EFAC8E700BFFB21E93FFFFFEF7FF1
:1039600030B51F4A21F00043934287B01BDD1D4A4A
:10397000934205DD02460B4601F044F907B030BD25
:1039800002AA00F031F800F003000128DDE9042369
:103990001AD002280FD0E0B1DDE9020100F048FAA8
:1039A00001F10041EAE7002300930022002300F028
:1039B0005BFF07B030BD0124DDE90201009400F097
:1039C00053FF01F10041D9E7DDE9020100F030FACF
:1039D000D4E70124DDE90201009400F045FFCDE7C2
:1039E000FB21E93FFFFFEF7F2DE9F04F944E21F0DF
:1039F0000047B74291B040F382809246914A974285
:103A00000C4626DC002984A3D3E9002340F3A881D7
:103A100001F0F8F88C4B9F4204460D4600F084807C
:103A20007FA3D3E9002301F0EDF802460B46CAE973
:103A300000232046294601F0E5F879A3D3E90023C5
:103A400001F0E0F80125CAE90201284611B0BDE8FD
:103A5000F08F7E4A974240F384807D4A974259DC3A
:103A60003D15A5F21645A7EB055319461F46064618
:103A700001F016FD01F014FA8046894602460B4615
:103A800030463946CDE90A8901F0BCF80022714B75
:103A900001F06CFA8946804601F002FD01F000FA5F
:103AA00002460B4606460F4640464946CDE90C679E
:103AB00001F0A8F80022674B01F058FA0022002319
:103AC000CDE90E0101F0BAFC002800F07581002359
:103AD00030463946002201F0B1FC002814BF012312
:103AE00002235D4A0192022100912A4651460AA80A
:103AF00000F0C2FA002CC0F25181054606E0C2E98E
:103B0000000100250024C2E902450025284611B025
:103B1000BDE8F08F02460B4601F074F80025CAE9B3
:103B20000201CAE90001F1E73FA3D3E9002301F054
:103B300069F83FA3D3E900230D46044601F062F87B
:103B400002460B46CAE900232946204601F05AF8EE
:103B500037A3D3E9002301F055F80125CAE9020192
:103B6000D4E700F037FF34A3D3E900238046894629
:103B700001F0FCF90022394B01F046F801F090FC0D
:103B8000054601F08DF924A3D3E90023CDE9040112
:103B900001F0ECF902460B464046494601F032F886
:103BA0001FA3D3E9002380468946DDE9040101F023
:103BB000DDF91F2DCDE9020154DC294B6A1E53F8B3
:103BC00022309F424ED002460B464046494601F005
:103BD00019F802460B46CAE9002383460E465A46A8
:103BE00033464046494601F00DF8DDE9022301F075
:103BF00009F8002C02460B46CAE9022386DA5B4626
:103C000006F1004601F100418AE84800CAF80C10AC
:103C1000CAF808006D4279E700004054FB21F93FE3
:103C20003163621A61B4D03D0000601A61B4D03DC6
:103C30007370032E8A19A33B83C8C96D305FE43FBC
:103C4000FB21E93F7BD90240FB21F93FFB213941B0
:103C5000FFFFEF7F00007041D86700000000E03FE9
:103C600058670000DDE902234046494600F0CAFFDC
:103C70003A15C1F30A53D31A102B83460E46099204
:103C8000CAE90001ABDD5EA3D3E90023DDE904014D
:103C900001F06CF906460F4602460B46404649467F
:103CA00000F0B0FFCDE9060102460B46404649460A
:103CB00000F0A8FF32463B4600F0A4FF52A3D3E930
:103CC000002306460F46DDE9040101F04FF93246B4
:103CD0003B4600F097FFDDE90689CDE90201024687
:103CE0000B464046494600F08DFF0B46C1F30A578C
:103CF0000E460999CF1B0246312F8346CAE900239D
:103D00007ADD43A3D3E90023DDE9040101F02EF9B4
:103D100006460F4602460B4640464946CDE906890F
:103D200000F070FF02460B4680468946DDE9060139
:103D300000F068FF32463B4600F064FF36A3D3E94B
:103D4000002306460F46DDE9040101F00FF9324673
:103D50003B4600F057FF02460B46CDE9022334E70D
:103D600000F052FF304B9F4204460D4626D02CA354
:103D7000D3E9002300F048FF02460B46CAE90023BE
:103D80002946204600F03EFF25A3D3E9002300F09A
:103D90003BFF4FF0FF35CAE90201B7E6DAF804202D
:103DA000DAF80C3002F1004203F100434542CAF850
:103DB0000420CAF80C30A9E6032392E610A3D3E945
:103DC000002300F021FF10A3D3E900230D46044691
:103DD00000F01AFF02460B46CAE900232946204696
:103DE00000F010FF08A3D3E9002300F00DFF4FF00F
:103DF000FF35CAE9020189E6DDE90689EFE600BF81
:103E00000000601A61B4D03D7370032E8A19A33B81
:103E10000000002E8A19A33BC14920259A837B39D3
:103E20003163621A61B4D03DFB21F93FFFFFFFFF10
:103E30002DE9F04F21F00046B6F1795F85B00C46D0
:103E400092469B4605466BDA01F02AFB002800F0FB
:103E5000E8802A4623462846214601F087F874A3C5
:103E6000D3E900238046894601F080F872A3D3E9A4
:103E7000002300F0C9FE42464B4601F077F870A3DC
:103E8000D3E9002300F0BEFE42464B4601F06EF837
:103E90006DA3D3E9002300F0B7FE42464B4601F084
:103EA00065F86BA3D3E9002300F0ACFE42464B4615
:103EB00001F05CF868A3D3E9002300F0A5FE4246B8
:103EC0004B4601F053F8CDE900010022644B404617
:103ED000494601F04BF8DDE9002306460F4640460F
:103EE000494601F043F85246804689465B462846DB
:103EF000214601F03BF802460B464046494600F099
:103F000081FE02460B463046394600F07BFE0246F3
:103F10000B460020534900F075FE05B0BDE8F08F58
:103F200002460B4601F022F841A3D3E90023804664
:103F3000894601F01BF840A3D3E9002300F064FE9A
:103F400042464B4601F012F83DA3D3E9002300F0AE
:103F500059FE42464B4601F009F83BA3D3E9002342
:103F600000F052FE42464B4601F000F838A3D3E978
:103F7000002300F047FE42464B4600F0F7FF36A311
:103F8000D3E9002300F040FE4B46424600F0EEFF2E
:103F9000354B9E42CDE9000197DD344B9E424FF0F8
:103FA000000238DCA6F5001300202E4916461F46F5
:103FB00000F028FECDE902010022294B4046494687
:103FC00000F0D4FF32463B4600F01CFEDDE9002342
:103FD00006460F464046494600F0C8FF5246804616
:103FE00089465B462846214600F0C0FF02460B4644
:103FF0004046494600F006FE02460B46304639462A
:1040000000F000FE02460B46DDE9020100F0FAFD79
:1040100005B0BDE8F08F164B164FCDE90223002600
:10402000CAE71049002005B0BDE8F08FAFF300806B
:10403000D43888BEE9FAA8BDC4B1B4BD9EEE213E15
:10404000AD529C804F7E923E9015CB19A001FA3E56
:104050007751C1166CC1563F4C5555555555A53F26
:104060000000E03F0000F03F3233D33F0000E93F63
:104070000000E73F0000D23F2DE9F04FADF51D7D78
:10408000784CA69E784D54F8264009942646D41EB6
:1040900085FB0475E417C4EBA50424EAE4741D460B
:1040A0000B93631CA3EB8303013D02EBC303089353
:1040B0002B460D940295651BF41804900A9116D4B2
:1040C0002C44013422AEA79F08E057F8250000F0E9
:1040D000E7FE0135A542E6E9020108D0002DF4DA39
:1040E000013500200021A542E6E90201F6D1099B35
:1040F000002B2FDB099BDDF8089074AA02EBC30BA1
:104100000DF5E47A029B002BC0F295810B9BC3EB6B
:10411000090824AB03EBC808049BA3F1080524ABF2
:1041200003EBC90400260027F5E9022374E8020125
:1041300000F01CFF02460B463046394600F064FD95
:10414000444506460F46EFD1EAE90267DA4509F130
:104150000109D7D1099D05F18043023B9B001A1D3F
:1041600010A90A440B440F920E939CAB03EBC503BA
:10417000002D53E928672BDD9CAB03EBC504A83C5D
:104180000DF13C0A0DF5E47B0022384B30463946F0
:1041900000F0ECFE01F084F900F082FE0022344BC6
:1041A0008046894600F0E2FE02460B46304639461C
:1041B00000F028FD01F074F974E802234AF8040FB6
:1041C0004946404600F020FD5C4506460F46DBD1DF
:1041D000089C30463946224600F08AFC00224FF007
:1041E0007F5306460F4600F0C1FE00F0F9FB0022A7
:1041F000204B00F0BBFE02460B463046394600F02D
:1042000001FD0F46064601F04BF9814600F048FEDD
:1042100002460B463046394600F0F4FC002C0646B8
:104220000F4640F3EF80691E10AAC4F1180352F83C
:10423000212042FA03F000FA03F3D31A10AAC4F1C2
:10424000170842F82130814443FA08F8B8F1000F0A
:104250003DDD002D09F1010940F3D482002214460E
:104260000FA911E0E0680000ABAAAA2A0000703E86
:104270000000704100002040C3F180700BB1086065
:104280000124013295420DDD51F8043F002CF3D09A
:10429000C3F1FF13013203F57F4395420B604FF0EA
:1042A0000104F1DC089B002B0DDD012B00F0B28036
:1042B000022B08D16A1E10AB10A953F82230C3F3A9
:1042C000150341F82230B8F1020F00F0828000227D
:1042D00000233046394601F0B1F8002800F05C8236
:1042E000099B05F1FF3B5B4510DC05F1804310AAFB
:1042F000013B0F9802EB8303002253F80419834219
:1043000042EA0102F9D1002A40F0B280099B10AACA
:10431000013B52F82330002B40F072820E9A0123A9
:1043200052F8041901330029FAD0E9186A1C8A42AC
:104330000C9149DC0D990B985118DB0001F180417B
:104340000593A79B05440139E80003EB810A24ABE0
:10435000D20003EB000B74AB13440193A2F10803EA
:10436000069007934FF000095AF8040F00F098FDEB
:10437000029B002BEBE8020128DB069B03EB090400
:10438000079B09EB030824AB1C449844049B0026BC
:10439000A3F108050027F5E9022374E8020100F003
:1043A000E5FD02460B463046394600F02DFC4445FB
:1043B00006460F46EFD1019BE3E802670193059B98
:1043C00009F108099945CFD10C9DCEE600260027BA
:1043D000F1E732463B460020AF4900F013FC0646A9
:1043E0000F46002C3FF473AF089AAB49002000F051
:1043F0007FFB02460B463046394600F003FC06467A
:104400000F4664E710D16B1E10AA52F823304FEA12
:10441000E3581BE76A1E10AB10A953F82230C3F310
:10442000160341F822304EE700229C4B01F024F89D
:1044300058B980464BE700260027EAE90267DA45CB
:1044400009F101097FF45EAE84E6002D09F101094E
:10445000C8BF4FF002083FF701AF32463B4600208D
:104460008D4900F0CFFB4FF0020806460F462EE7BD
:1044700010AB089A53F82B30CDF81490183ACDF8B9
:10448000048008926BB90BF18043013B10A901EB4A
:10449000830353F804190BF1FF3B183A0029F8D0B5
:1044A0000892089A7C49002000F022FBBBF1000F23
:1044B00004460D46C0F2B6814FEACB030DF5E8780D
:1044C00010AA02EB8B0608EB03090493043609F1EA
:1044D000080756F8040D00F0E3FC22462B4600F0D6
:1044E00045FD002267E902016D4B2046294600F098
:1044F0003DFDB84504460D46EBD10DF5987A4B4687
:10450000CDF808A0DDF824A0CDF818B04FF00009D0
:104510009B46BAF1000FC0F22881DFF888815D4622
:104520005BA3D3E9002300260027002403E0A14574
:1045300010DBF8E90223F5E8020100F017FD02465E
:104540000B463046394600F05FFB0134A245064673
:104550000F46ECDA029B03EBC903ABF1080BC3E98E
:10456000006772AB5B4509F10109D2D1A69BDDF86A
:1045700018B0DDF808A0032B00F28380DFE813F009
:10458000D300940094000400BBF1000F40F3548169
:10459000049BCDF808B00AEB0308D8E90067D346BE
:1045A00058E9029A32463B464846514600F02CFBF9
:1045B00004460D4602460B464846514600F022FB93
:1045C00032463B4600F020FBC8E9000168E902459D
:1045D000C34526462F46E3D1DA46DDF808B0BBF1E5
:1045E000010F40F32981049B5344D3E900679846A7
:1045F00099460DF59C7B59E902343046CDE90234E9
:104600001A463946234600F0FFFA04460D46024694
:104610000B46DDE9020100F0F5FA32463B4600F0B8
:10462000F3FAC9E9000169E90245CB4526462F4660
:10463000E1D1002308F108081D4650AC1846294670
:1046400078E9022300F0E0FA444503460D46F5D12F
:10465000019A002A00F0D8800A9FDAF80440DAF8BC
:104660000C20DAF80010DAF808003B6105F100458B
:1046700004F1004402F100437D617C60FB6039601D
:10468000B860059B03F007000DF51D7DBDE8F08FB8
:1046900000000040FB21F93F0000F03F0000E03F38
:1046A0000000703EF0680000049C0026083454446A
:1046B00033463046194674E9022300F0A5FA544502
:1046C00006460B46F5D1019A30461946002A4FD0CE
:1046D0000A9803F10044324644600660DAE90001BA
:1046E00000F090FABBF1000F02460B460DDD0124ED
:1046F00010461946FAE9022300F086FA0134A34570
:1047000002460B46F4DA019909B103F10043194658
:104710000A9B1046C3E90201059B03F007000DF553
:104720001D7DBDE8F08F049B002208339A44134698
:10473000104619467AE9022300F066FA0BF1FF3BB6
:10474000BBF1FF3F02460B46F2D1019909B103F1DB
:10475000004319460A9B1046C3E90001059B03F07C
:1047600007000DF51D7DBDE8F08F00260027F1E65E
:104770000A9B3246C3E900010B46DAE9000100F06A
:1047800041FABBF1000F02460B46B0DC19460A9B0A
:104790001046C3E90201BFE7089BCDF814905A42C6
:1047A00030463946CDF8048000F0A2F900222C4BA7
:1047B00006460F4600F060FE002840D00022294B3C
:1047C0003046394600F0D2FB00F06AFE044600F0A5
:1047D00067FB0022224B00F0C9FB0B46024639461C
:1047E000304600F00FFA00F05BFE089B183305F12D
:1047F000010B089310AB43F8250043F82B4050E61B
:10480000012392E500244DE518462946DAE9002304
:10481000DAE902450A9FC7E90401C7E90023C7E9AD
:1048200002452EE7A69B032B3FF62BAFDFE803F0F4
:10483000151010020DF5987A00231D4608E7304642
:10484000394600F02DFE10ABAB4643F8250028E6B4
:10485000002633460DF5987A35E70022134674E7B3
:10486000000070410000703E2DE9F04F21F000463D
:10487000B6F1795F85B00C4690469946054604DA54
:1048800000F00EFE002800F085802A4623462846C8
:10489000214600F06BFB06460F4602460B462846B3
:1048A000214600F063FB3EA3D3E9002382468B46FA
:1048B0003046394600F05AFB3BA3D3E9002300F011
:1048C000A1F932463B4600F051FB39A3D3E900235E
:1048D00000F09AF932463B4600F048FB36A3D3E994
:1048E000002300F08FF932463B4600F03FFB34A333
:1048F000D3E9002300F088F90E9BCDE900019BB3BA
:104900000022334B4046494600F030FBDDE90023EE
:10491000CDE902015046594600F028FB02460B46FD
:10492000DDE9020100F06EF932463B4600F01EFB65
:1049300042464B4600F066F923A3D3E9002306461E
:104940000F465046594600F011FB02460B463046D2
:10495000394600F059F902460B462846214600F038
:1049600051F905B0BDE8F08F02460B463046394696
:1049700000F0FCFA14A3D3E9002300F043F95246F7
:104980005B4600F0F3FA2A46234600F03DF905B0F5
:10499000BDE8F08F2846214605B0BDE8F08F00BF86
:1049A0007CD5CF5A3AD9E53DEB9C2B8AE6E55A3EB9
:1049B0007DFEB157E31DC73ED561C119A0012A3F55
:1049C000A6F810111111813F495555555555C53F50
:1049D0000000E03F21F00041704700BFFFFFFFFFF4
:1049E000C1F30A522DE9F843A2F2FF36132E0B460B
:1049F0000D460446884607461CDC002E3FDB3A4A3B
:104A000042FA06F901EA09020243864617D034A3A6
:104A1000D3E9002300F0F8F80022002300F036FD6F
:104A200020B1002D40DB28EA090500273846294639
:104A3000BDE8F883332E06DDB6F5806F2FD0204613
:104A40001946BDE8F883A2F213424FF0FF3929FA64
:104A500002F910EA090FF2D021A3D3E9002300F0F4
:104A6000D3F80022002300F011FD0028DED0002D35
:104A700020DB454627EA090738462946D8E718A328
:104A8000D3E9002300F0C0F80022002300F0FEFC70
:104A90000028CBD0002D18DB00273D46C6E7024694
:104AA0000B4600F0B1F8CCE74FF4801343FA06F65A
:104AB000B044B8E7142E10D00123C6F1340603FA2F
:104AC00006F6371928BF9844D3E725F00042074B74
:104AD000224318BF1D460027A8E705F10108C8E7D3
:104AE0009C7500883CE4377EFFFF0F000000F0BF9C
:104AF000F8B5C1F30A5604460D460B46174606BBE9
:104B000021F00043034325D00022354B00F02EFA5C
:104B1000344A974204460D460B462ADBC1F30A5637
:104B2000363E3E4440F2FE72964228DC002E12DDF4
:104B300023F0FF4323F4E00343EA065520462946C9
:104B4000F8BD40F2FF729642EBD102460B4600F0F0
:104B50005BF8F8BDF8BD16F1350F1DDA4CF2503395
:104B60009F4222462B4625DC19A1D1E9000100F025
:104B70003DF817A3D3E9002300F0F8F9F8BD224669
:104B80002B4615A1D1E9000100F030F812A3D3E9BA
:104B9000002300F0EBF9F8BD23F0FF4323F4E0031A
:104BA000363643EA06552046294600220E4B00F0D1
:104BB000DDF9F8BD08A1D1E9000100F017F806A35E
:104BC000D3E9002300F0D2F9F8BD00BFAFF30080B5
:104BD00059F3F8C21F6EA5019C7500883CE4377E2E
:104BE00000005043B03CFFFF0000903C03F0004346
:104BF00021F0004242EA0301704700BF81F000410A
:104C000002E000BF83F0004330B54FEA41044FEAB1
:104C1000430594EA050F08BF90EA020F1FBF54EA4C
:104C2000000C55EA020C7FEA645C7FEA655C00F0E8
:104C3000E2804FEA5454D4EB5555B8BF6D420CDDB9
:104C40002C4480EA020281EA030382EA000083EA3C
:104C5000010180EA020281EA0303362D88BF30BDDC
:104C600011F0004F4FEA01314FF4801C4CEA113132
:104C700002D0404261EB410113F0004F4FEA033391
:104C80004CEA133302D0524263EB430394EA050F1C
:104C900000F0A780A4F10104D5F1200E0DDB02FA8B
:104CA0000EFC22FA05F2801841F1000103FA0EF21F
:104CB000801843FA05F359410EE0A5F120050EF1E5
:104CC000200E012A03FA0EFC28BF4CF0020C43FA16
:104CD00005F3C01851EBE37101F0004507D54FF023
:104CE000000EDCF1000C7EEB00006EEB0101B1F573
:104CF000801F1BD3B1F5001F0CD349085FEA3000B9
:104D00004FEA3C0C04F101044FEA445212F5800FC3
:104D100080F09A80BCF1004F08BF5FEA500C50F160
:104D2000000041EB045141EA050130BD5FEA4C0C43
:104D3000404141EB010111F4801FA4F10104E9D1CC
:104D400091F0000F04BF01460020B1FA81F308BFC3
:104D50002033A3F10B03B3F120020CDA0C3208DD8F
:104D600002F1140CC2F10C0201FA0CF021FA02F16A
:104D70000CE002F11402D8BFC2F1200C01FA02F1DA
:104D800020FA0CFCDCBF41EA0C019040E41AA2BFFF
:104D900001EB0451294330BD6FEA04041F3C1CDAC7
:104DA0000C340EDC04F11404C4F1200220FA04F0E7
:104DB00001FA02F340EA030021FA04F345EA030191
:104DC00030BDC4F10C04C4F1200220FA02F001FA53
:104DD00004F340EA0300294630BD21FA04F02946D5
:104DE00030BD94F0000F83F4801306BF81F480116E
:104DF0000134013D4EE77FEA645C18BF7FEA655CE1
:104E000029D094EA050F08BF90EA020F05D054EAB2
:104E1000000C04BF1946104630BD91EA030F1EBFB7
:104E20000021002030BD5FEA545C05D140004941BB
:104E300028BF41F0004130BD14F580043CBF01F5AE
:104E4000801130BD01F0004545F0FE4141F4700194
:104E50004FF0000030BD7FEA645C1ABF194610466F
:104E60007FEA655C1CBF0B46024650EA013406BF70
:104E700052EA033591EA030F41F4002130BD00BF2F
:104E800090F0000F04BF0021704730B54FF48064EC
:104E900004F132044FF000054FF0000150E700BF6D
:104EA00090F0000F04BF0021704730B54FF48064CC
:104EB00004F1320410F0004548BF40424FF00001B9
:104EC0003EE700BF42004FEAE2014FEA31014FEAFC
:104ED00002701FBF12F07F4393F07F4F81F060514B
:104EE000704792F0000F14BF93F07F4F704730B5BA
:104EF0004FF4607401F0004521F0004120E700BF4D
:104F000050EA010208BF704730B54FF000050AE0D3
:104F100050EA010208BF704730B511F0004502D5D4
:104F2000404261EB41014FF4806404F132045FEAD6
:104F3000915C3FF4DCAE4FF003025FEADC0C18BF7B
:104F400003325FEADC0C18BF033202EBDC02C2F171
:104F5000200300FA03FC20FA02F001FA03FE40EA03
:104F60000E0021FA02F11444C1E600BF70B54FF003
:104F7000FF0C4CF4E06C1CEA11541DBF1CEA1355E5
:104F800094EA0C0F95EA0C0F00F0DEF82C4481EA4D
:104F9000030621EA4C5123EA4C5350EA013518BF6D
:104FA00052EA033541F4801143F4801338D0A0FB5A
:104FB00002CE4FF00005E1FB02E506F00042E0FB07
:104FC00003E54FF00006E1FB03569CF0000F18BF0D
:104FD0004EF0010EA4F1FF04B6F5007F64F54074B5
:104FE00004D25FEA4E0E6D4146EB060642EAC62148
:104FF00041EA55514FEAC52040EA5E504FEACE2EB5
:10500000B4F1FD0C88BFBCF5E06F1ED8BEF1004FB7
:1050100008BF5FEA500E50F1000041EB045170BD33
:1050200006F0004646EA010140EA020081EA030177
:10503000B4EB5C04C2BFD4EB0C0541EA045170BD73
:1050400041F480114FF0000E013C00F3AB8014F1ED
:10505000360FDEBF002001F0004170BDC4F1000436
:10506000203C35DA0C341BDC04F11404C4F12005B7
:1050700000FA05F320FA04F001FA05F240EA020012
:1050800001F0004221F0004110EBD37021FA04F648
:1050900042EB06015EEA430E08BF20EAD37070BD02
:1050A000C4F10C04C4F1200500FA04F320FA05F061
:1050B00001FA04F240EA020001F0004110EBD37063
:1050C00041F100015EEA430E08BF20EAD37070BDD3
:1050D000C4F1200500FA05F24EEA020E20FA04F3AC
:1050E00001FA05F243EA020321FA04F001F000415B
:1050F00021FA04F220EA020000EBD3705EEA430ECC
:1051000008BF20EAD37070BD94F0000F0FD101F0FA
:105110000046400041EB010111F4801F08BF013C33
:10512000F7D041EA060195F0000F18BF704703F071
:105130000046520043EB030313F4801F08BF013DF8
:10514000F7D043EA0603704794EA0C0F0CEA1355B4
:1051500018BF95EA0C0F0CD050EA410618BF52EA6E
:105160004306D1D181EA030101F000414FF0000074
:1051700070BD50EA410606BF1046194652EA430682
:1051800019D094EA0C0F02D150EA013613D195EAF6
:105190000C0F05D152EA03361CBF104619460AD13E
:1051A00081EA030101F0004141F0FE4141F4700148
:1051B0004FF0000070BD41F0FE4141F4780170BD38
:1051C00070B54FF0FF0C4CF4E06C1CEA11541DBF9D
:1051D0001CEA135594EA0C0F95EA0C0F00F0A7F89F
:1051E000A4EB050481EA030E52EA03354FEA0131CC
:1051F00000F088804FEA03334FF0805545EA1313DF
:1052000043EA12634FEA022245EA111545EA1065A6
:105210004FEA00260EF000419D4208BF964244F13D
:10522000FD0404F5407402D25B084FEA3202B61A5C
:1052300065EB03055B084FEA32024FF480104FF430
:10524000002CB6EB020E75EB030E22BFB61A7546A4
:1052500040EA0C005B084FEA3202B6EB020E75EB37
:10526000030E22BFB61A754640EA5C005B084FEA9F
:105270003202B6EB020E75EB030E22BFB61A75466C
:1052800040EA9C005B084FEA3202B6EB020E75EB77
:10529000030E22BFB61A754640EADC0055EA060E38
:1052A00018D04FEA051545EA16754FEA06164FEA7B
:1052B000C30343EA52734FEAC2025FEA1C1CC0D127
:1052C00011F4801F0BD141EA00014FF000004FF0B4
:1052D000004CB6E711F4801F04BF01430020B4F175
:1052E000FD0C88BFBCF5E06F3FF6AFAEB5EB030C2D
:1052F00004BFB6EB020C5FEA500C50F1000041EB2A
:10530000045170BD0EF0004E4EEA113114EB5C04F6
:10531000C2BFD4EB0C0541EA045170BD41F48011C9
:105320004FF0000E013C90E645EA060E8DE60CEAD1
:10533000135594EA0C0F08BF95EA0C0F3FF43BAFEE
:1053400094EA0C0F0AD150EA01347FF434AF95EAA5
:105350000C0F7FF425AF104619462CE795EA0C0F89
:1053600006D152EA03353FF4FDAE1046194622E756
:1053700050EA410618BF52EA43067FF4C5AE50EA30
:1053800041047FF40DAF52EA43057FF4EBAE12E720
:105390004FF0FF3C06E000BF4FF0010C02E000BF01
:1053A0004FF0010C4DF804CD4FEA410C7FEA6C5CE4
:1053B0004FEA430C18BF7FEA6C5C1BD001B050EA87
:1053C000410C0CBF52EA430C91EA030F02BF90EA72
:1053D000020F0020704710F1000F91EA030F58BF31
:1053E000994208BF90422CBFD8176FEAE37040F093
:1053F000010070474FEA410C7FEA6C5C02D150EA31
:10540000013C07D14FEA430C7FEA6C5CD6D152EAEB
:10541000033CD3D05DF8040B704700BF84461046B0
:1054200062468C461946634600E000BF01B5FFF7AF
:10543000B7FF002848BF10F1000F01BD4DF808ED7F
:10544000FFF7F4FF0CBF012000205DF808FB00BF50
:105450004DF808EDFFF7EAFF34BF012000205DF8AA
:1054600008FB00BF4DF808EDFFF7E0FF94BF0120F7
:1054700000205DF808FB00BF4DF808EDFFF7CEFFF8
:1054800094BF012000205DF808FB00BF4DF808ED37
:10549000FFF7C4FF34BF012000205DF808FB00BF08
:1054A0004FEA410212F5001215D211D56FF478734C
:1054B000B3EB625212D94FEAC12343F0004343EAEF
:1054C000505311F0004F23FA02F018BF40427047CA
:1054D0004FF00000704750EA013005D111F0004054
:1054E00008BF6FF0004070474FF00000704700BFEA
:1054F0004A0011D212F5001211D20DD56FF4787353
:10550000B3EB62520ED44FEAC12343F0004343EAA7
:10551000505323FA02F070474FF00000704750EAF2
:10552000013002D14FF0FF3070474FF0000070475C
:105530004FEA4102B2F1E04324BFB3F5001CDCF1B5
:10554000FE5C0DD901F0004C4FEAC0024CEA5070ED
:10555000B2F1004F40EB830008BF20F0010070471C
:1055600011F0804F21D113F13872BCBF01F000401F
:10557000704741F480114FEA5252C2F11802C2F151
:10558000200C10FA0CF320FA02F018BF40F00100D2
:105590004FEAC1234FEAD32303FA0CFC40EA0C0084
:1055A00023FA02F34FEA4303CCE77FEA625307D1C1
:1055B00050EA01331EBF4FF0FE4040F440007047F8
:1055C00001F0004040F0FE4040F40000704700BF92
:1055D00080F0004002E000BF81F0004142001FBFA8
:1055E0005FEA410392EA030F7FEA226C7FEA236CB1
:1055F0006AD04FEA1262D2EB1363C1BFD2184140A6
:1056000048404140B8BF5B42192B88BF704710F03B
:10561000004F40F4000020F07F4018BF404211F0DE
:10562000004F41F4000121F07F4118BF494292EA46
:10563000030F3FD0A2F1010241FA03FC10EB0C0072
:10564000C3F1200301FA03F100F0004302D54942FF
:1056500060EB4000B0F5000F13D3B0F1807F06D3AC
:1056600040084FEA310102F10102FE2A51D2B1F1A4
:10567000004F40EBC25008BF20F0010040EA030099
:105680007047490040EB000010F4000FA2F1010246
:10569000EDD1B0FA80FCACF1080CB2EB0C0200FAD0
:1056A0000CF0AABF00EBC25052421843BCBFD0401E
:1056B0001843704792F0000F81F4000106BF80F498
:1056C00000000132013BB5E74FEA41037FEA226C5B
:1056D00018BF7FEA236C21D092EA030F04D092F026
:1056E000000F08BF0846704790EA010F1CBF00205A
:1056F000704712F07F4F04D1400028BF40F00040B7
:10570000704712F100723CBF00F50000704700F0D6
:10571000004343F0FE4040F4000070477FEA2262FD
:1057200016BF08467FEA23630146420206BF5FEACE
:10573000412390EA010F40F4800070474FF00003CE
:1057400004E000BF10F0004348BF40425FEA000C95
:1057500008BF704743F0964301464FF000001CE03D
:1057600050EA010208BF70474FF000030AE000BF93
:1057700050EA010208BF704711F0004302D54042D1
:1057800061EB41015FEA010C02BF84460146002043
:1057900043F0B64308BFA3F18053A3F50003BCFA5E
:1057A0008CF2083AA3EBC25310DB01FA02FC63440B
:1057B00000FA02FCC2F12002BCF1004F20FA02F212
:1057C00043EB020008BF20F00100704702F1200205
:1057D00001FA02FCC2F1200250EA4C0021FA02F266
:1057E00043EB020008BF20EADC7070474FF0FF0C6B
:1057F0001CEAD0521EBF1CEAD15392EA0C0F93EA66
:105800000C0F6FD01A4480EA010C400218BF5FEA07
:1058100041211ED04FF0006343EA501043EA51117A
:10582000A0FB01310CF00040B1F5000F3EBF490074
:1058300041EAD3715B0040EA010062F17F02FD2A78
:105840001DD8B3F1004F40EBC25008BF20F001005B
:10585000704790F0000F0CF0004C08BF49024CEA72
:10586000502040EA51207F3AC2BFD2F1FF0340EA04
:10587000C250704740F400004FF00003013A5DDC75
:1058800012F1190FDCBF00F000407047C2F10002B6
:10589000410021FA02F1C2F1200200FA02FC5FEAA3
:1058A000310040F1000053EA4C0308BF20EADC70ED
:1058B000704792F0000F00F0004C02BF400010F45F
:1058C000000F013AF9D040EA0C0093F0000F01F00C
:1058D000004C02BF490011F4000F013BF9D041EA2E
:1058E0000C018FE70CEAD15392EA0C0F18BF93EA30
:1058F0000C0F0AD030F0004C18BF31F0004CD8D15A
:1059000080EA010000F00040704790F0000F17BFE0
:1059100090F0004F084691F0000F91F0004F14D026
:1059200092EA0C0F01D142020FD193EA0C0F03D17E
:105930004B0218BF084608D180EA010000F0004081
:1059400040F0FE4040F40000704740F0FE4040F45C
:10595000400070474FF0FF0C1CEAD0521EBF1CEAFB
:10596000D15392EA0C0F93EA0C0F69D0A2EB030219
:1059700080EA010C49024FEA402037D04FF08053B3
:1059800043EA111143EA10130CF000408B4238BF78
:105990005B0042F17D024FF4000C8B4224BF5B1A86
:1059A00040EA0C00B3EB510F24BFA3EB510340EAD4
:1059B0005C00B3EB910F24BFA3EB910340EA9C0082
:1059C000B3EBD10F24BFA3EBD10340EADC001B01F2
:1059D00018BF5FEA1C1CE0D1FD2A3FF650AF8B4296
:1059E00040EBC25008BF20F0010070470CF0004CA3
:1059F0004CEA50207F32C2BFD2F1FF0340EAC250CE
:105A0000704740F400004FF00003013A37E792F08E
:105A1000000F00F0004C02BF400010F4000F013AEC
:105A2000F9D040EA0C0093F0000F01F0004C02BFE7
:105A3000490011F4000F013BF9D041EA0C0195E750
:105A40000CEAD15392EA0C0F08D142027FF47DAFE9
:105A500093EA0C0F7FF470AF084676E793EA0C0FD9
:105A600004D14B023FF44CAF08466EE730F0004CD7
:105A700018BF31F0004CCAD130F000427FF45CAF67
:105A800031F000437FF43CAF5FE700BF4FF0FF3CD5
:105A900006E000BF4FF0010C02E000BF4FF0010C28
:105AA0004DF804CD4FEA40024FEA41037FEA226CF1
:105AB00018BF7FEA236C11D001B052EA530C18BF13
:105AC00090EA010F58BFB2EB030088BFC81738BF78
:105AD0006FEAE17018BF40F0010070477FEA226C66
