:1000000000800020BD010000AD200000692000003C
:1000100069200000692000006920000069200000BC
:10002000692000006920000069200000AD20000068
:10003000AD20000069200000851E0000951F000013
:10004000AD200000AD200000AD200000AD2000007C
:10005000AD200000AD200000AD200000AD2000006C
:10006000AD200000AD200000AD200000AD2000005C
:10007000AD200000AD200000AD200000AD2000004C
:10008000AD200000AD200000AD200000AD2000003C
:10009000AD200000AD200000AD200000AD2000002C
:1000A000AD200000AD200000AD200000AD2000001C
:1000B000AD200000AD200000AD200000AD2000000C
:1000C000AD200000AD200000AD200000AD200000FC
:1000D000AD200000AD200000AD200000AD200000EC
:1000E000AD200000AD200000AD200000AD200000DC
:1000F000AD200000B9350000AD200000E53600005D
:10010000AD20000011380000AD200000AD2000003F
:10011000AD200000AD200000AD200000AD200000AB
:10012000AD200000AD200000AD200000AD2000009B
:10013000AD200000AD200000C9130000AD2000007C
:10014000AD200000AD200000AD200000AD2000007B
:10015000AD200000AD200000AD200000AD2000006B
:10016000AD20000061250000AD200000AD200000A2
:10017000AD200000AD200000AD200000AD2000004B
:10018000AD200000AD200000AD200000AD2000003B
:10019000AD200000AD200000AD200000AD2000002B
:1001A000AD200000AD200000AD200000AD2000001B
:1001B000AD200000AD200000AD200000564B4CF2F9
:1001C000205210B51A804DF628121A8000BF00BFC9
:1001D00001F070FF514B4FF010621A60504A9A6064
:1001E000504ADA60504A136813F4807304D14F49BF
:1001F0000B604FF4A85313604D4B1A78110703D5C9
:100200001A7842F008021A704A4B4B492A221A7097
:100210004A4B4B4A8B4204D252F8040B43F8040B6E
:10022000F8E7484B484900228B4202D243F8042B9E
:10023000FAE7464A464811460023013350F8044B7A
:1002400041F8044B6F2BF8D1424B4349802003F80F
:10025000010B8B42FBD1414B1A60414B8A221A7031
:10026000A3F5805324225A70A0221A709A7992071B
:10027000FCD59A79D406FCD43A4B19469A7902F007
:100280000C02082AFAD103221A7140225A718B7982
:100290009806FCD5334B9A795106FCD5324A33493E
:1002A00011600221516020221A702E4A937903F0C6
:1002B0000C030C2BFAD12E4B2E4A1A602E4B2F4AD0
:1002C0001A6000225A60072243F8042C2C4AC3F813
:1002D0000C2D62B602F008F8144B1B68DA0705D53E
:1002E000284801F095FF284B284A1A60284B1B78B4
:1002F0005B0609D5244C254B22689A4204D121483B
:1003000001F086FF0023236005F098F901F0D8FE84
:1003100001F0A2FEFEE700BF0E2005403080044041
:10032000823F04000100002B10D0034014D0034092
:1003300002D0074000E007402490FF1F2087FF1FE6
:100340000C6600002490FF1FE098FF1F0082FF1F33
:100350000000000000E400E05FE400E008ED00E0E1
:100360000050064000400640448004400000030165
:1003700004800440C010050014E000E0FF76010096
:1003800000002020BBEF375E1CE00340A5C3945A59
:1003900000F00740FFFFFFFFFFFFFFFFFFFFFFFF32
:1003A000FFFFFFFFFFFFFFFFFFFFFFFFFFFFFFFF5D
:1003B000FFFFFFFFFFFFFFFFFFFFFFFFFFFFFFFF4D
:1003C000FFFFFFFFFFFFFFFFFFFFFFFFFFFFFFFF3D
:1003D000FFFFFFFFFFFFFFFFFFFFFFFFFFFFFFFF2D
:1003E000FFFFFFFFFFFFFFFFFFFFFFFFFFFFFFFF1D
:1003F000FFFFFFFFFFFFFFFFFFFFFFFFFFFFFFFF0D
:10040000FFFFFFFFFFFFFFFFFFFFFFFFDEF9FFFF23
:1004100010B5054C237833B9044B13B10448AFF33E
:1004200000800123237010BD2490FF1F00000000F6
:100430000C66000008B5034B1BB103490348AFF33A
:10044000008008BD000000002890FF1F0C6600001F
:1004500010B5094C01210A2001F0F2FE204601F0FE
:1004600093F801210A2001F0E5FE20460E21BDE8A7
:10047000104001F0C7B800BF9495FF1F70B5414D03
:10048000D0F83815EB7A0446B3B172B6EB7ADE07D2
:100490001A466ED4980706D53B482E690368EA7A57
:1004A0003340EB610360530705D5384A6869136828
:1004B00003402B62136062B62A68D3688B4207D070
:1004C00033481060334BD16041F0804010611360BD
:1004D0003149324B102008604FF00041D162536324
:1004E000D36A002BFCDA936B2D49EA7A102008605E
:1004F000C3F30D03114662B1D60735D4900703D577
:10050000284AE869E97A10604A0702D5264A296A2A
:100510001160B4F832259A1A002AB8BF52421E2A36
:10052000C4BF012284F83025B3F5BA6F1846A4F889
:10053000323507D91D4880FB0320000A40F2D15212
:1005400002FB103004F014FE194904F065FE05F0BA
:100550004FF880B220802188164801F05BFD1548D5
:10056000BDE8704001F05EBD1349A86908601146FE
:10057000C4E71248EE6802683240AA6102601A4677
:1005800088E700BF9495FF1F84E100E088E100E068
:1005900001403F0000003F8088F00F40FFFF001047
:1005A00084F00F4004E100E008E100E04570032C16
:1005B000957D773E2487FF1F00E100E080E100E0A9
:1005C00008B501211F2001F03BFE0121212001F08F
:1005D00037FE01211820BDE8084001F031BE00BF00
:1005E0002DE9F04F0588ADB283B00446284604F0EB
:1005F000BBFD3B2D00F29C80064601469448D4F892
:100600001C8004F0FFFC934904F006FE03F0ECF9B3
:100610009049D4F81CB08246304604F0FDFD0546F2
:1006200003F0E2F90746404604F02EFA86A3D3E928
:10063000002304F081FA80465046894604F024FAEB
:1006400002460B464046494604F076FA04F086FC22
:10065000814904F0E1FD04F0CBFF8246584604F0E6
:1006600013FA79A3D3E9002304F066FA80463846EA
:10067000894604F009FA02460B464046494604F012
:100680005BFA04F06BFC744904F0C6FD04F0B0FFA3
:100690000746284603F06CF97049D4F81CB0D4F82A
:1006A0001C900546304604F0B7FD6A4904F0B4FDDD
:1006B00003F05EF929468046584604F0ADFD014638
:1006C0004FF07E5004F09EFC65490646484604F013
:1006D00057FE414604F0A0FD0146304604F094FC6C
:1006E000604904F099FD04F083FF0AEB0705C5F5A6
:1006F0009665281A04F038FD0546384604F034FDA6
:10070000294604F081FC0646504604F02DFD314692
:1007100004F07AFC04F06CFF2061304604F068FFBE
:100720006061284604F064FFA06103B0BDE8F08F6B
:10073000772D00F299804649D4F81C8004F062FCC1
:1007400006460146424804F05DFC424904F064FD5F
:1007500003F04AF93F49D4F81CA00546304604F09E
:100760005BFD834603F040F90746404604F08CF9F0
:1007700035A3D3E9002304F0DFF9804628468946F3
:1007800004F082F902460B464046494604F0D4F98B
:1007900004F0E4FB304904F03FFD04F029FF054676
:1007A000584603F0E5F82D490190304604F034FD39
:1007B0002849D4F81CB0D4F81C9004F02DFD03F0A7
:1007C000D7F8019B80461946584604F025FD01469E
:1007D0004FF07E5004F016FC21490646484604F0CE
:1007E000CFFD414604F018FD0146304604F00CFCF4
:1007F0001C4904F011FD04F0FBFE0646504604F0CF
:1008000043F911A3D3E9002304F096F98046384652
:10081000894604F039F902460B464046494604F041
:100820008BF904F09BFB0C4904F0F6FC04F0E0FEAD
:1008300028443044354425616061A66103B0BDE8B9
:10084000F08F00BFAFF30080AA4C58E87AB6EB3FB8
:100850000000704235FA8E3C000096440000404093
:100860000000C04000001644B32D00F299809A4960
:10087000D4F81C8004F0C6FB05460146974804F0F6
:10088000C1FB974904F0C8FC03F0AEF89449E6694F
:100890008246284604F0C0FC814603F0A5F8834652
:1008A000304604F0F1F88AA3D3E9002304F044F9B8
:1008B000064658460F4604F0E7F802460B46304617
:1008C000394604F039F904F049FB864904F0A4FCE8
:1008D00004F08EFE0646484603F04AF8D4F81CB0F1
:1008E0008149E36901930746284604F095FC7C4959
:1008F00004F092FC03F03CF80546404604F0C4F8CE
:1009000073A3D3E9002304F017F9804650468946C3
:1009100004F0BAF802460B464046494604F00CF98A
:1009200004F01CFB6F4904F077FC04F061FE3946CB
:100930008719584604F070FC01464FF07E5004F0D1
:1009400061FB6A498046019804F01AFD294604F0CB
:1009500063FC0146404604F057FB654904F05CFC2B
:1009600004F046FEC0F59660C01B04F0FDFB054692
:1009700004F03EFE2061384604F0F6FB294604F000
:1009800043FB04F035FE6061304604F0EDFB294680
:1009900004F03AFB04F02CFEA06103B0BDE8F08F38
:1009A000EF2D40F2A980B5F5967F80F0298151495D
:1009B000D4F81C8004F026FB05460146474804F0A5
:1009C00021FB474904F028FC03F00EF84449E6698E
:1009D0008246284604F020FC814603F005F8834651
:1009E000304604F051F83AA3D3E9002304F0A4F808
:1009F000064658460F4604F047F802460B46304676
:100A0000394604F099F804F0A9FA364904F004FCD8
:100A100004F0EEFD0646484602F0AAFFD4F81CB0EA
:100A20003149E36901930746284604F0F5FB2C4958
:100A300004F0F2FB02F09CFF0546404604F024F867
:100A400023A3D3E9002304F077F880465046894673
:100A500004F01AF802460B464046494604F06CF88A
:100A600004F07CFA1F4904F0D7FB04F0C1FD3946BD
:100A70008719584604F0D0FB01464FF07E5004F031
:100A8000C1FA1A498046019804F07AFC294604F01C
:100A9000C3FB0146404604F0B7FA154904F0BCFB1D
:100AA00004F0A6FDC0F59660C01B04F05DFB054692
:100AB000304604F059FB294604F0A6FA04F098FDEC
:100AC0002061284604F094FD606138465DE700BF70
:100AD000AA4C58E87AB6EB3F0000F04200007042A2
:100AE00035FA8E3C00009644000040400000C040B3
:100AF00000001644000070438749D4F81C8004F0BD
:100B000081FA06460146854804F07CFA844904F0DF
:100B100083FB02F069FF8249D4F81CA005463046E9
:100B200004F07AFB834602F05FFF0746404603F07D
:100B3000ABFF77A3D3E9002303F0FEFF80462846EE
:100B4000894603F0A1FF02460B464046494603F0A2
:100B5000F3FF04F003FA734904F05EFB04F048FD70
:100B60000546584602F004FF6F490190304604F0F4
:100B700053FB6B49D4F81CB0D4F81C9004F04CFB28
:100B800002F0F6FE019B80461946584604F044FBED
:100B900001464FF07E5004F035FA64490646484657
:100BA00004F0EEFB414604F037FB0146304604F00A
:100BB0002BFA5F4904F030FB04F01AFD064650465C
:100BC00003F062FF52A3D3E9002303F0B5FF804690
:100BD0003846894603F058FF02460B4640464946D0
:100BE00003F0AAFF04F0BAF94E4904F015FB04F033
:100BF000FFFC28443044354426616561A06194E5DA
:100C0000B5F5B47FBFF491AD4A49D4F81C8004F027
:100C1000F9F906460146414804F0F4F9404904F068
:100C2000FBFA02F0E1FE3E49D4F81CA0054630462E
:100C300004F0F2FA834602F0D7FE0746404603F07E
:100C400023FF33A3D3E9002303F076FF8046284631
:100C5000894603F019FF02460B464046494603F019
:100C60006BFF04F07BF92F4904F0D6FA04F0C0FCC6
:100C70000546584602F07CFE2B490190304604F0B0
:100C8000CBFA2749D4F81CB0D4F81C9004F0C4FA6D
:100C900002F06EFE019B80461946584604F0BCFAED
:100CA00001464FF07E5004F0ADF920490646484613
:100CB00004F066FB414604F0AFFA0146304604F00A
:100CC000A3F91B4904F0A8FA04F092FC064650462A
:100CD00003F0DAFE0EA3D3E9002303F02DFF8046D4
:100CE0003846894603F0D0FE02460B464046494648
:100CF00003F022FF04F032F90A4904F08DFA04F0FF
:100D000077FC28443044354420616661A5610CE5D8
:100D1000AA4C58E87AB6EB3F00003443000070421A
:100D200035FA8E3C00009644000040400000C04070
:100D3000000016440000964370B5044605460023A3
:100D40001B481C49238001226060E16184F8202057
:100D500025F8203B04F53C762046FFF741FC23694B
:100D600025F8023F238801339BB2B5422380F3D19B
:100D7000002300221049114D11482380C4F8942308
:100D80002361C4F8342584F83035C4F82855A4F814
:100D90003235C4F82C05C4F83815942001F0B2F9A6
:100DA000054600F093FCC4F83C55204670BD00BFDA
:100DB000000048423ACD933F000002BA0000704262
:100DC0000000F04010B50A4C2378BFF35B8FDB07BF
:100DD00001D5084810BD204601F08AF90028F8D056
:100DE0000448FFF7A9FF204601F088F9014810BD2B
:100DF0004090FF1F4890FF1F2DE9F041D0F8285583
:100E000081680446284604F007FAE16804F0FCF81B
:100E100004F0EEFB238894F82070B4337AB25F2795
:100E200017FB0237B7F5B47F1FFA80F80ADB374BA0
:100E300083FB07233B44FA17C2EB23234FF4B4721E
:100E400002FB13773249284604F0E6F9064640468D
:100E500004F08EF904EB47070546788C04F088F916
:100E6000314604F0D9F9294604F0CEF804F0C0FB6D
:100E70002061228894F820305F215BB201FB0323BC
:100E800003F59673B3F5B47F0ADB204A82FB0312A5
:100E90001A44D917C1EB22224FF4B47101FB12336B
:100EA00004EB4303588C04F063F9314604F0B4F9C1
:100EB000294604F0A9F804F09BFBA061228894F86D
:100EC00020305F215BB201FB032303F5D273B3F53E
:100ED000B47F0ADB0D4A82FB03121A44D917C1EB17
:100EE00022224FF4B47101FB123304EB4303588CFC
:100EF00004F03EF9314604F08FF9294604F084F8F5
:100F000004F076FB6061BDE8F08100BFB7600BB60E
:100F10000AD7233C2DE9F04FDFF80CB1DFF80CA124
:100F20003E4DDFF80C9183B004464FF000081FFAE5
:100F300088F3C4F81CB020462380FFF751FB2069DA
:100F400004F012F9514604F067F904F051FB86B23F
:100F50003146284601F05EF8284601F063F8E06962
:100F6000514604F059F9E0612046FFF739FB0A22A7
:100F7000276921690023284601F064F8284601F01A
:100F800051F82046C4F81CB0FFF72AFB2369E0693A
:100F90000093494604F040F9E0612046FFF720FB4A
:100FA000009B184604F0E0F8494604F035F904F0D7
:100FB0001FFB2269BB1B121A92B29BB2D31A00927A
:100FC000174A82FB0320DB17C3EBE00004F0D0F8E4
:100FD000009AA0600190104604F0CAF8019B0090AE
:100FE0001049184604F018F9009A0146104604F01A
:100FF00009F8B9B2711A0029B8BF4942E060284621
:1010000001F008F808F10108284601F00BF8B8F5DE
:10101000B47F8CD103B0BDE8F08F00BF2487FF1FE1
:1010200067666666000020423ACD933FCDCC4C3EC9
:10103000CDCCCC3EF0B41C4F1C4C1D4E1D4A1E4D59
:101040001E481F4900234FF0C00C2360C7F800C0A2
:101050003360062616604FF496662E6005F5A035BF
:101060002822103502600B602868164E40F2444179
:1010700008432860A5F58055143D47F8782C336067
:10108000286808432860104847F8702CB36002684D
:10109000A5F59735A5F5DC750A43682102602B603C
:1010A0002160F0BC704700BF848003400080034093
:1010B0007480034054800340088003403C80034018
:1010C000408003401080034008B0044070B54FF0EA
:1010D000FF310446D0F83C0500F058FB00B970BD64
:1010E0000F21D4F83C0500F0B3FB00210546D4F8ED
:1010F0003C0500F023FB0646284604F035F8084975
:1011000004F08AF80546304604F02EF801462846D9
:1011100004F036F9034903F075FFC4F82C0570BDDF
:101120000000C8410000484110B5044600210F20CE
:1011300001F086F8D4F83C054FF0FF32042100F0AE
:101140001BFBD4F83C054FF0FF320C2100F0ECFA09
:10115000D4F83C054FF0FF32052100F0F9FAD4F83D
:101160003C054FF0FF32042100F0FCFAD4F83C05B6
:101170004FF0FF320F21BDE8104000F021BB00BF4F
:10118000114A124B70B58260C3600446FFF760F9E4
:101190002046FFF715FA2046FFF74CFF01211920E2
:1011A00001F04EF80121202001F04AF8084D094BCA
:1011B0000126102120222E6020461960BDE87040D3
:1011C0001A60FFF7B1BF00BF0000C0C000001644A6
:1011D00004F10F4004F00F402DE9F0470C4606469D
:1011E00011462046174603F00DFF354BDFF8F4801B
:1011F000D3F8009033491F60824604F00DF8D8F808
:10120000001003F001FF4FF07C51C8F800000546C4
:10121000504604F001F849468046384603F0F2FE95
:10122000294903F0F9FF29498146284604F0B0F91D
:10123000002835D12649284604F08CF900283DD0F5
:10124000234F2449C6F8945324F0004003F0E4FFF0
:101250000146214803F0D6FE41460446384603F0D5
:10126000D3FE494603F0CEFE0146204603F0D4FFEC
:101270000021044604F08CF9B0B11849204604F06E
:1012800087F978B9012386F820300021204604F040
:101290007FF908B904F10044C6F82845BDE8F08795
:1012A0000A4FCEE70D4CEDE70D49204604F052F908
:1012B00000B10B4CFF2386F82030E6E72F46C0E74D
:1012C0008895FF1FCDCC4C3ECDCCCC3D66661E41F3
:1012D00066661EC1AE47613E1F8533410000C642AF
:1012E0000000C6C28C95FF1F70B50446FFF7C6F814
:1012F000304A138801339BB2B3F5FA6F138010D8CC
:101300002D4D2978A0294DD02046FFF775FD2B4B98
:1013100022691A60626943F8302CA26943F8282CCC
:1013200070BDB4F8323594F83005254E224D0128B1
:1013300008BF94F820009BB208BF03EB8033B6F9D6
:1013400000001BB24FF0000108BF84F83015118077
:10135000181A03F00DFF4FF0625103F05DFF1949B9
:1013600003F05AFFB4F83235C4F834050246D4F815
:101370002C1533802046FFF72FFF2978D4F8340549
:1013800004F2F22253185050D4F82C255A60D4F8A5
:1013900094239A601031C9B2D4F828252970A02965
:1013A000DA60B1D104F2F22001F022FF00232B70A9
:1013B000AAE700BF4690FF1F4490FF1F40800340F4
:1013C0009095FF1F00002041054A08B5136823F0DF
:1013D00080031360FFF7F6FCBDE80840FFF784BF09
:1013E0000080034038B5FFF7EDFCFFF7C9FE0A4D5A
:1013F0000A4A0B490B4C1378002BFCD00B78DB0707
:10140000F9D52B6820681B1A0E2BF4D9FFF7DAFCEC
:10141000BDE83840FFF77EBDEC95FF1FCC96FF1F5F
:10142000DC96FF1FB498FF1F08B5FFF7CBFCBDE8A3
:101430000840FFF74BBE00BF10B4047F4160022C90
:10144000C26002D1836810BC184710BC00F0B4BC65
:1014500070B4464B464AD3E90B41087910704548B1
:10146000227902709A6A0D790570002A4CD05D6865
:101470002068EC68A2421FD906683F4D121BAE429D
:101480009A621C684FF0010237D0E56815F0804F72
:101490000568066815BF2D882D780236013645F09F
:1014A00000450660656335480979017012B1DB6A51
:1014B0001B79037070BC7047C58B541E2D04A4B2F9
:1014C0003CD4C4F30E04C483C58B0C68ADB2C58292
:1014D000E68B360495B23CD4C5F30E05E583E58B67
:1014E000ADB2E58200269E62234D06681C6812F1AB
:1014F000FF3218BF0122AE42C7D193F82400E5683D
:1015000040F000406063CEE71968586B1C4C0A63DA
:101510000568CC62CC682D681A4E24F08044CC60FB
:10152000B5424FF0030183F825101AD1037F4260C2
:10153000022BC2600AD1836870BC1847C58BC4F304
:10154000080405F47E452C43C483BDE770BC00F05D
:1015500033BCE68BC5F3080506F47E463543E583C8
:10156000BDE72B46114670BC184700BF9495FF1F7E
:101570001F8000401C800040B895FF1F1B8000406A
:1015800000000FFF3914000070B443680268184E61
:10159000D3E90045216829432160164D164C1749AF
:1015A0001660D56014611160417A154A5C180A31E1
:1015B00094F8244053F8215002EBC40149680D60AF
:1015C000017A5C1803EB8101247ECD6902EBC40132
:1015D00049680D60817A581803EB810390F8300058
:1015E000596B02EBC00270BC53681960704700BFB2
:1015F00001401F00011000380110007800001F801A
:101600008C600000204A43689A42F0B40FD0827A7E
:101610001A4492F830208A4207D093F830408C4226
:1016200015D093F831408C422BD0F0BC70470D2977
:1016300007D00E29EBD1154C227842F0040222701B
:10164000E5E7124C227822F004022270DFE7002145
:101650000C46D3E9006536682E4210D00C4D05EBE0
:10166000C202002756681A19376092F830200C34ED
:1016700005EBC20503EB84036A685B681360817243
:10168000D3E701210C46E4E7B05F0000E895FF1FB7
:101690008C6000000A4A0B4B10B413600023C2E9AF
:1016A0000233094C93845460C2E904339361C2E964
:1016B0000A33C2E90C33C2E9073310BC704700BFDC
:1016C0009495FF1F00C00240B05F000030B583B0AA
:1016D0000F4B009304460F4B0F4A002100F002FB12
:1016E00004F140050D4B009328460D4B0D4A012196
:1016F00000F0F8FA02232046C4F88850C4F890504D
:10170000C4F88440C4F88C4084F8803003B030BD05
:1017100000B00340286000003060000000B00B40C3
:101720002C6000005C600000012A03D0D0F8840027
:1017300000F050BAD0F8880000F04CBA012903D06C
:10174000D0F8840000F0BAB8D0F8880000F0B6B83D
:10175000012A03D0D0F8840000F0B2B8D0F8880095
:1017600000F0AEB8012A03D0D0F8840000F0DAB956
:10177000D0F8880000F0D6B9012A03D0D0F8840050
:1017800000F04AB9D0F8880000F046B901290CBF32
:10179000D0F88830D0F884305B6B5B0103F1844370
:1017A000D869003018BF0120704700BF01290CBF65
:1017B000D0F88830D0F884305B6B186900B270477D
:1017C000531C0ED04AB1012A28D0D0F88420D38AE5
:1017D00043F00103D38200207047D0F8840000F06A
:1017E000C5BA70B50446D0F884000D4600F094FAEE
:1017F00029460646D4F8880000F08EFA96B1D4F84F
:101800008430F0B1D4F88800597D427D914298BF70
:1018100018462946BDE8704000F0A8BAD0F8880004
:1018200000F0A4BAD4F8883058B9D4F88410CA8A21
:1018300042F00402CA82DA8A42F00402DA8200200C
:1018400070BD29461846BDE8704000F08FBA00BF51
:10185000FFF7ACBF90F821308B4228D0012930B47B
:101860001DD059B9124A134B11701970436B80F88F
:1018700021105B0103F18443C3F8001472B6436B7B
:101880005B0103F18443012200214276C3F89C14DA
:10189000C3F89824C3F89C2462B630BC7047064C49
:1018A000034A044B60252570E1241470DDE770477E
:1018B000014007404000FA4200400740C0697047BD
:1018C00090F823308B420AD0F0B4092900F29E80B0
:1018D000DFE801F02E2E61060671818F3F537047BD
:1018E000436B5A0102F18442134603F5807302F5FB
:1018F000C0720025012494602E46DD612F4600252C
:10190000D5601F605D605E619C6180F8231072B6D7
:10191000436B5B0103F18443012200214276C3F84B
:101920009C14C3F89824C3F89C2462B6F0BC70479A
:10193000436B5A0102F18442134603F5807302F5AA
:10194000C0720125002696602C462E46DD612F468A
:10195000D5E7436B5A0102F18442134603F58073C5
:1019600002F5C07200249460DC6101240025D4607B
:101970005C601C609D615D61C7E7436B5A0102F1C9
:101980008442134603F5807302F5C07201250024DA
:101990009560DC61E9E7436B5A0102F1844213462A
:1019A00003F5807302F5C0720025012495602F466F
:1019B000DD612646A3E7436B5A0102F184421346D8
:1019C00003F5807302F5C0720025012696602C464F
:1019D000DD612F4693E7436B5A0102F184421346BF
:1019E00003F5807302F5C072002501249560DC6167
:1019F000BBE7436B5A0102F18442134603F580733F
:101A000002F5C07201249460DC61AEE7C38A43F042
:101A10000103C3828AE700BF38B5437E04460D4602
:101A200003BB636B5B0103F18443012D03F59063FA
:101A300013D90121042D996006D800215960042290
:101A4000196084F8202038BD082D0ED9102D13D828
:101A500000221A6010225960F3E700229A6084F88D
:101A6000202038BD00F00CF8DBE7002008221960C8
:101A7000586084F8202038BD596020221960E0E7C2
:101A800038B5436B5B0103F1844303F59063DA6976
:101A9000044652B101F0B0FC636B5B0103F1844377
:101AA00003F59063DA69002AF4D19B691BB1E38ADC
:101AB00043F00203E38272B6637E03B3626B936BFF
:101AC000D06B116C556C03440B44906CD16C2B445F
:101AD00003440B44C3F34E0343F40043D362936DBA
:101AE000D06D116E556E03440B44906ED16E2B4435
:101AF00003440B44C3F34E0343F40043136362B641
:101B0000A37E0025657603B938BD20460221FFF784
:101B1000D7FE022100F006F804212046FFF77CFFE3
:101B2000A57638BD38B5437E05460C4683B9042CEE
:101B30000BD8DFE804F01020304003006B6B5B0132
:101B400003F184430022C3F8102185F8244038BDF6
:101B5000FFF796FFEBE76B6B5A0102F184421346E5
:101B600000210120C2F81001C3F88411C3F88011CC
:101B700085F8244038BD6B6B5A0102F1844213464C
:101B800001210020C2F81011C3F88011C3F88401AC
:101B900085F8244038BD6B6B5A0102F1844213462C
:101BA00001210020C2F81011C3F88001C3F884118C
:101BB00085F8244038BD6B6B5A0102F1844213460C
:101BC0000121C2F81011C3F88411C3F8801185F8FF
:101BD000244038BD38B5C37E8B4212D0437E0446C4
:101BE0000D46EBB9636B5B0103F18443092D03F5EB
:101BF000807307D80021FF200822D9609960E06136
:101C0000E27638BD0B2D0ED90D2D16D801229A6023
:101C1000002040F6FF710C22D860E161E276F0E727
:101C2000FFF72EFFDEE700229A60012040F2FF312D
:101C30000A22D860E161E276E3E701214FF6FF7006
:101C40001022D9609960E061E276DAE770B5037E30
:101C50000446002B39D1204A136843F00063136017
:101C6000636B1E4A22625B0103F184430025042258
:101C7000012684F82420204684F82C50E576E5617E
:101C80006576E58265752946C3F89061FFF7E2FD48
:101C90000A21FFF79FFF2046A6762021FFF7BCFE12
:101CA00031462046FFF70CFE3146FFF73BFF72B688
:101CB000636B66765B0103F18443C3F89C54C3F8FD
:101CC0009864C3F89C6462B670BD054A136843F01B
:101CD00000631360C4E700BF3C80044000020104BD
:101CE00030800440F8B50A4C069E0A4D0176002962
:101CF0000ABF25463A273927044685638262C0E930
:101D00000C3680F83C70FFF7A1FF2046F8BD00BFFD
:101D100010600340386003402B2907D8836A585C61
:101D200000F01F001F3818BF0120704700207047C7
:101D3000436B826A5B01525C03F18443110603F535
:101D4000C0734CBF00210121196172B6416B4B0178
:101D500003F1844302F01F029B69003318BF012383
:101D600002EB83120A6062B6704700BF2B2970B580
:101D7000044618D8826A525C02F01F021F2A12D051
:101D8000437E0E46ABB9636B627D5B0103F1844316
:101D900001320125627520463146C3F88C54FFF7A5
:101DA000C7FF284670BDE28A42F00402E2820020AA
:101DB00070BDFFF765FEE6E7EFF3108272B6437F72
:101DC0005BB9017F012910B40BD0032913D0012383
:101DD000437702B962B610BC70470AB962B6704761
:101DE0007047124C2168A1B1114943610B688361AE
:101DF00008605861EBE70F4C216881B10E494361DF
:101E00000B688361086058610C4B4FF0805119607A
:101E1000DDE7074B2060C0E905111860D7E7064BE6
:101E20002060C0E905111860EEE700BFD495FF1FE0
:101E3000E495FF1FDC95FF1FD895FF1F04ED00E020
:101E400070B5EFF3108272B60C4C206880B10C4E66
:101E500000254369236073B19D6102B962B645777D
:101E600083689847EFF3108272B620680028F0D19B
:101E700002B962B670BD3360EFE700BFDC95FF1FAB
:101E8000D895FF1FFFF7DCBF1A4B1968F1B170B48A
:101E900006680D68AE4210D2AD1B0022C0E90212E6
:101EA0000D60C86018600223037570BC70471C6821
:101EB0009442194610D8254616468B68721B02605C
:101EC000002BF4D1C0E902318860ECE718600223EE
:101ED000C0E9021103757047DB68C0E90213C860EE
:101EE0002C44C268A41B022390600C60037570BC74
:101EF000704700BFCC95FF1FF8B5234E3468002C07
:101F000029D02368002B3BD11D46204F08E0836871
:101F100098476368C3B93468ECB12368002B2FD1AC
:101F2000A36803B1DD6020693360036825751B6811
:101F3000BB4221D1037F4560022BC460E7D0FFF78D
:101F40003BFF6368002BE6D023602046FFF79CFF31
:101F50003468002CE1D1EFF3108272B60C4B0021F3
:101F60001868196002B962B628B18468FFF78CFF5F
:101F700020460028F9D1F8BD224600219847C8E73D
:101F8000013B2360E7E700BFCC95FF1F3914000039
:101F9000D095FF1F024A136801331360FFF7ACBFEF
:101FA000EC95FF1FF0B5012A08BF0A228BB059B388
:101FB000212502E05FFA8CF53946B1FBF2F702FB0E
:101FC0001716F4B2092E04F1300698BFF4B20AAE27
:101FD00088BF37342E4488BFE4B2914205F1FF3CFC
:101FE00006F8244CE6D233B1013DEDB20AAB2B44E6
:101FF0002D2203F8242C036801AA51195B68C5F14E
:10200000220298470BB0F0BD30228DF82520212503
:10201000E9E700BF0029BABF49422D2300230A2265
:10202000FFF7C0BF00B5064A036812885B6883B03B
:1020300001A9ADF804200222984703B05DF804FB23
:10204000886000002AB930B40368C9B21B6830BC8C
:102050001847FFF7A7BF00BF08B5FFF7C3F9FFF7A1
:10206000E3F901F0C9F9FAE708B50F4C2368580302
:102070000DD4236859050FD423681A0511D4236899
:10208000DB04F3D501F0C4FB23685803F1D500F05D
:1020900067FA23685905EFD501F08EFA23681A050F
:1020A000EDD501F01FFBEAE73480044008B5FFF7E7
:1020B000DBFF00BF014B10221A8070470020054053
:1020C000704700BF094A08B50346106833B1694636
:1020D0000344A1F580518B4201D2136008BD03F087
:1020E000A7FA0C2303604FF0FF3008BD2087FF1FC5
:1020F0000078B0FA80F04009704700BF01230370F8
:10210000704700BF03F0BEBA4B1EF0B49C460025DA
:1021100001E001353846B0FBF2F702FB1706F4B2D6
:10212000092E04F130068ABF3734F4B2E4B290428B
:102130000CF8014FEDD26C1C00220A550C4465B11D
:1021400014F8012D5E785A70981C0133DA430A4462
:10215000401A2A4490422670F2DB0846F0BC7047D1
:1021600010B40F4B53F8302092F880424CB1012349
:1021700019B982F8003110BC704782F8803010BC69
:10218000704703EBC0035B681A6821B142F0030299
:102190001A6010BC704722F002021A6010BC70472F
:1021A0008C600000194A02EBC00301295B6852F8F9
:1021B000302014D0042907D0002082F88002C1B951
:1021C0004FF480721A60704701204FF4A27182F8B8
:1021D000800219601A6842F020021A6070474FF4BA
:1021E000A27082F8801218601A6822F020021A6029
:1021F0007047022906D0032906BF4FF481721A6086
:102200001860704740F203121A6070478C6000003B
:1022100030B4054B054D064C002210211A602A608F
:102220002060196030BC704714D0034004D00340D4
:1022300000D00340212801D8FFF792BF704700BFAC
:10224000212801D8FFF7AEBF704700BF2DE9F84342
:10225000054672B61F4E204B204A1B683168126833
:1022600062B6520102D5322B88BF01310DB9BDE8EB
:10227000F8831B4F1B4CDFF86090DFF86080FB1A7F
:10228000A4FB03234FF47A7404FB01F404EB9314CE
:1022900072B6D9F800103268D8F800C062B611489A
:1022A0007B1AA0FB03031CF0806FC4EB93134FF465
:1022B0007A7002D0322988BF013200FB0233B3F5B5
:1022C0007A7F04D3013DD2D004F57A74E0E701F0BF
:1022D00093F8DDE7EC95FF1F18E000E004ED00E067
:1022E000FF760100ABAAAAAAF8B5264B2649274CCF
:1022F000274D284A284F294E4FF4000018604FF010
:10230000807018604FF0007018604FF080601860A7
:102310004FF0006018600020086028234BF6FF7122
:1023200039603360136023602B609361A361AB61FC
:102330001363092244F81C2C04F6EC74C5F8E00F72
:102340002160C5F8E83FE360C5F8DC2F04F5FD2403
:1023500005F5FF2504F2FC7405F2E47520602960A0
:102360000F481049A36003600A6001F099F8192032
:10237000FFF76CFF00F014FE40F21310BDE8F840C8
:10238000FFF764BF08E100E0048003401C800340C5
:102390002480034014800340088003400C800340E5
:1023A00014800B4000800B40431E032B14D872B6E0
:1023B0000A4951F8230068B170B4094C058834F813
:1023C0001320466841F82360521B24F8132062B69C
:1023D00070BC704762B67047002070478096FF1F40
:1023E000A498FF1F013803280BD872B6074B53F887
:1023F000203043B100205B680130002BFBD162B676
:102400007047002070471846F9E700BFA896FF1FE5
:1024100030B472B62B4A13781D0706D52A4B196AB9
:10242000002936D0996A002941D053781C0706D577
:10243000254B196C00293ED0996C002939D093782E
:10244000190705D5204B196E002936D0996E89B130
:10245000D3781B0707D51C4BD3F880207AB3D3F869
:10246000882011243AB162B6184B00221A7030BC91
:1024700000F030BE0D241549154D0A7843F834504C
:1024800003EBC4030830013A58600A7062B630BCEE
:10249000704704220D4C0F4D217843F8325003EB66
:1024A000C203083001395860217062B6EFE7052495
:1024B000E1E70924DFE70822ECE70C22EAE7102233
:1024C000E8E700BF186200000080FF1FCE96FF1FE4
:1024D000C800400088004000421E032A0ED81C4B52
:1024E000400140F0100070B4184472B6194CA35C5F
:1024F000032B1CD8DFE803F00313161870470325DD
:102500000E88A55410F0080F14BFC823882343EA8F
:1025100006430831C0E9003162B670BC704708302C
:102520000225EDE70525EBE708300425E8E70A4B2F
:1025300053F8220038B1094B53F82200416043F8A8
:10254000221062B6E9E743F82210044BF7E700BF18
:102550000080FF1FC896FF1FA896FF1FB896FF1F99
:102560002DE9F04FDFF87492DFF874A2DFF874B24F
:1025700087B03FE08A4D960805EBC607013B7968B6
:1025800012F00802DCB2A1F1080040F0498255F8CF
:1025900036301B0C1FFA83FC21F808CC002B00F00E
:1025A0003682804B21F8062C41F8042C53F8242065
:1025B000002A00F076827C4A52F8243058607B4B27
:1025C00042F8240033F81420944423F814C000F097
:1025D00063FD002800F05E82754A764B17F0080F05
:1025E00000F1080008BF1346786045F8363008232C
:1025F00089F8003099F80040E4B266071AD56E4BAE
:102600001B78A3B16D490A7802F0FF0322B1013BA8
:10261000DBB20B7003B900BE69490A7802F0FF0310
:102620002AB1013BDBB20B70002B00F0B082042317
:1026300089F8003014F0080300F016829AF80020A0
:10264000D2B2130996D19208554C54F8321004EBCB
:10265000C200C1F38301013940680C2900F29C805B
:10266000DFE801F090909A9A9A9A9A9A539A9A9AD5
:10267000070005684668534F53490091C7E9005663
:102680004C49DFF86481504F44F83210A8B240F250
:10269000816C0022012160453A602261A26188F8C4
:1026A000001000F2A580B0F5D06F80F03A83B0F54D
:1026B000817F00F0268300F22E81802800F0B8820E
:1026C000822840F09D8106F07F05042D00F298815C
:1026D0003E4802803E4A12F82520350C96070495A4
:1026E00040F11A84012D017000F2F38202902A4613
:1026F000402A114628BF40218C46090401910299C5
:1027000061440391A2EB0C0228E12F4B00931E6859
:102710006EB3DFF8D8E0DFF8D080BEF800702D4D42
:1027200098F800002978402F3B4628BF4023FA1A2A
:10273000002841F0020C80F0010092B288F80000FD
:10274000AEF8002014BFC820882004EBCC0E40EA6D
:10275000034081F00101334444F83C00CEF80460AA
:10276000297012B93F2F98BF0023009A1360154BB0
:102770001A88B2F5A06F0FD100219A785970164BC4
:102780001A7009E00F4B198842F22103994200F0B8
:10279000D281084B44F8323001238BF8003026E711
:1027A0000080FF1F8096FF1F9096FF1FA498FF1FB9
:1027B00088004000C8004000CC96FF1FCD96FF1F48
:1027C000DD96FF1FA096FF1F7496FF1F7896FF1FD0
:1027D000C02007407096FF1F9820074080200740C8
:1027E00090200740942007407196FF1F7296FF1FAC
:1027F00042F22107B84200F0FC8000F29E80B0F562
:10280000086F00F00782B0F5106F40F0F980B04A11
:10281000236AC5F3074515701D0600F14B83A36AB3
:10282000180600F14C83236B190600F17083A36B2B
:102830001A0600F16783236C1B0600F15E83A36C0C
:102840001F0600F15583236D1E0600F14C83A36D16
:102850001D0600F14383236E180600F13A83A36E30
:10286000190600F13183236F1A0600F1FC82A36F71
:102870001B0600F1F382D4F880301F0600F1B3820A
:10288000D4F888301E0600F1A882D4F890301D06D6
:1028900000F19D82D4F89830180600F192828D4B99
:1028A0008D4A019304928D4B8D4A03928D4E8E4A30
:1028B000CDF8148002920025984656F8040B28B1F2
:1028C000476800F007FC3846002FF9D1029BD8F882
:1028D000000043F8045B46F8045C029328B14768A3
:1028E00000F0F8FB3846002FF9D1049A019B42F81A
:1028F000045B0492039A1B7822F8025B023B48F8BF
:10290000045B0392032B00F2AA81DFE813F0DF01DE
:10291000A401DF01A40140F2023290426DD106F021
:102920007F06042E6CD82A0C6AD1704810F8261045
:1029300041F0020100F826100BE042F22126B042DD
:1029400017D16B4E6B486C4936680660C5F3074576
:102950000D70CDE90122039204929446674D0298CE
:102960002F7847F0020E04EBCE0601217060C826D6
:1029700015E042F22132904242D1604D2F7847F06B
:10298000020E04EBCE0000224260002940F0F582E6
:102990000A4603910191049102918C468826019880
:1029A00088F80030304387F0010644F83E002E706E
:1029B000002A40F01081BCF1400F1AD146F0020607
:1029C00004EBC60C0398CCF8040001294FEA02433B
:1029D00040F08B8143F0880344F8363088F80010CB
:1029E0002F701044402A04D1454B00990022086002
:1029F0001A8001238BF80030CEE6B0F5A06FBCD072
:102A00003A4A0F23137001238BF80030C4E63D4A85
:102A10003D4B17F0080F08BF134645F83630E6E582
:102A200000F058FB2D492B4A51F82430002B3CD0A4
:102A3000586812F804C041F8240003F108017960D5
:102A4000BCF1030F05D8DFE80CF002673F6A0321F1
:102A500011551A8817F0080F14BFC823882343EABA
:102A6000024345F83630C2E5E00700F193802106C5
:102A700058D4A20706D5254A254913780220DBB28F
:102A800013700870E30602D5214B10221A7007B0AC
:102A9000BDE8F08F1F4A45F83600137801331370F4
:102AA000A5E543F82400104A89E5135D032B00F2E5
:102AB0006B8201A151F823F0EF250000EF25000003
:102AC000432C0000492C000005211155C1E700BF2F
:102AD000CC96FF1FC896FF1FB896FF1FA896FF1F32
:102AE000A498FF1F8096FF1F9096FF1FC0200740ED
:102AF000EC95FF1FB498FF1FDC96FF1F7096FF1F19
:102B00007296FF1F88004000C800400088200740E0
:102B100080200740CE96FF1F0221115599E704211E
:102B2000115596E7B349B44B80220D2008701A70F6
:102B3000A207A7D59FE7B14B057841781D70597062
:102B40008578C1789D70D970196805791D718629BD
:102B5000457980795D71987179D0A94DDFF8F88257
:102B60002B7898F8001083F00100002943F002034D
:102B7000287014BFC820882044F8330004EBC30336
:102B800081F00101002088F80010586001E600F093
:102B90000FFC4CE59B4A9C4899491361022505703E
:102BA000944E0B70994911609160994C924D9361CC
:102BB0000D213170FF21217029702374954B2973E9
:102BC0009F251D70944C954B012101705460D3607A
:102BD00007B0BDE8F08F402A46F002067FF6F0AE5F
:102BE0008F4B8A4888F80010012914BF1946014606
:102BF00004EBC60344F8361003995960894B2F70D3
:102C000001F14000403A00991A80012308608BF8D6
:102C10000030C1E5844D85482D780570360C40F0B4
:102C2000A18032460390CDE901600496B44695E652
:102C3000310C7E480491012902804AD802900A464C
:102C400056E500231355D2E401231355CFE4784B06
:102C50000F21197081E7019B4FF001021A70019B4F
:102C600001330193734BB3427FF427AE724D734E21
:102C70002B78DDF8148000223270714A1907137026
:102C800000F18C806B786F4900220B702263A26385
:102C90001A0770D4AB786C4900220B701B072265B1
:102CA000A26500F1F680EB78684900221F070B70DF
:102CB0002267A26700F1DC8098F80010002281F002
:102CC0000103C4F89020C4F8982056E6019B1D70BB
:102CD000C5E75F4A03920221023A04918C464FF401
:102CE000003102920191002238E643F0C80344F813
:102CF000363088F80010049B02992F70194408465A
:102D000070E606F07F06042E3FF67AAE2A0C7FF4BA
:102D100077AE384810F8261021F0020100F826108E
:102D200017E64C4A506800283FF46AAE2D0CB7B243
:102D300004E00C32506800283FF462AE1188A942CA
:102D4000F7D15188B942F4D12D0A032D0ABF0246AA
:102D5000128912780290360C964228BF16463246E7
:102D60000496C5E404918C46411CCDE902014FF460
:102D700080310191F2E500F08FF9002800F0EE803B
:102D8000224B0830C4E9103000F086F9002800F02A
:102D9000E080234B0830C4E912307BE700F07CF977
:102DA000002800F0E580194B0830C4E9083000F035
:102DB00073F9002800F0D780194B0830C4E90A30B5
:102DC00060E7D4F89C00083800F084F967E5D4F88F
:102DD0009400083800F07EF95CE5D4F88C000838DF
:102DE00000F078F951E5D4F88400083800F072F961
:102DF00046E500BFC020074080200740AC98FF1F79
:102E00007096FF1F0080FF1F94200740880040003D
:102E10008820074084200740F095FF1F3096FF1F51
:102E2000C80040007296FF1FCC96FF1F7896FF1FC8
:102E3000CD96FF1F9096FF1F18620000CE96FF1FD1
:102E4000C4200740C8200740CC200740D0200740BE
:102E50007A96FF1FC46100007196FF1FE06F08386B
:102E600000F038F907E5606F083800F033F9FEE448
:102E700000F012F900285CD0474B0830C4E920303C
:102E800000F00AF900284ED0444B0830C4E9223043
:102E900012E700F001F9002856D03F4B0830C4E992
:102EA000183000F0F9F8002849D03C4B0830C4E94C
:102EB0001A30F8E6606A083800F00CF9AFE4E06A0E
:102EC000083800F007F9AEE4E06E083800F002F9C7
:102ED000C9E4606E083800F0FDF8C0E4E06D083821
:102EE00000F0F8F8B7E4606D083800F0F3F8AEE4ED
:102EF000E06C083800F0EEF8A5E4606C083800F0EB
:102F0000E9F89CE4E06B083800F0E4F893E4606BC7
:102F1000083800F0DFF88AE4012D2A463FF6D9AEE2
:102F20000290FFF7E5BB3378C4F8880001333370B3
:102F3000C2E63378C4F8800001333370A0E73378F9
:102F4000A06601333370AEE6337820660133337008
:102F5000A7E73378A064013333709BE633782064AD
:102F60000133337010E73378A0620133337089E6A0
:102F7000337820620133337019E70392019204928F
:102F800002929446C8260AE517F0080F14BF0323DF
:102F900002231355FFF72BBB88004000C8004000F8
:102FA000F8B500F0A3FC284B2848294C294D2A4E9F
:102FB0000022C3E90022C3E90222C3E90422C3E9D3
:102FC0000622C3E90822C3E90A22C3E90C22C3E9A5
:102FD0000E22C3E91022C3E91222C3E91422C3E975
:102FE0001622C3E91822C3E91A22C3E91C22C3E945
:102FF0001E22C3F880200168C3F8842041F4802198
:103000000160C3F3072100F528302170C3F307479F
:103010005430124937701B0E2B70114FFF2304F8E8
:103020001C3C03700F4C0B700F4801233B7085F85C
:103030004C2006F82C3C70254FF4007210232570AC
:10304000026081F8F830F8BD0080FF1F3480044032
:103050009C200740B4200740B020074010200740C4
:103060009420074049E400E008E100E000F0A4B843
:1030700000F07CB800F056B800F090B800F06CB9E1
:1030800000F046B90846114600F0B2B8084600F014
:1030900033B900BF704700BF72B60C480268B2FA7D
:1030A00082F30B2B0FDC4FF00041D94022EA0102E2
:1030B000026062B6064903EBC303DB00C8180022B6
:1030C000CA504260704762B6002070473487FF1FC5
:1030D000BC83FF1F0E4BC31AB3F5587F10D20D4AA5
:1030E000127872B972B60C4A0C49A2FB0323086825
:1030F0004FF000421B0922FA03F303430B6062B650
:103100007047074A1278002AECD0FFF781B900BF58
:10311000BC83FF1FCE96FF1F398EE3383487FF1F15
:10312000CC96FF1F38B50F4C206878B143880288D1
:10313000C11801339A420D7A02D94380284638BD1E
:10314000FFF7C8FF00232360284638BD064B1B78D5
:103150002BB10320FFF728F920600028E6D14FF0BB
:10316000FF35EBE7D096FF1FCC96FF1F10B5094C3B
:10317000206818B143881844007A10BD064B1B78AC
:103180002BB10320FFF710F920600028F2D14FF097
:10319000FF3010BDD096FF1FCC96FF1F044B054A91
:1031A0001B6890881BB11A885B88D31A1844704733
:1031B000D096FF1FA498FF1F0B4B1B789BB110B537
:1031C0000A4C206848B1FFF785FF002303202360E5
:1031D000FFF7EAF830B1FFF77DFF0320FFF7E4F8CF
:1031E0000028F8D110BD7047CC96FF1FD096FF1F66
:1031F0002DE9F04FDFF8F49083B0012289F8002028
:10320000019179B3374FDFF8E880374EDFF8E4A05B
:10321000019D83463868A8B3B0F802E0CEF1400CB7
:10322000AC4528BFAC460EEB0C040022A4B23270B1
:10323000A5EB0C05448000F10802BCF1000F0AD098
:103240000EF1FF3E7244DC441BF8014B02F8014FC3
:10325000DC45F9D144883F2C0BD805228AF80020A0
:10326000002DD7D10198002389F8003003B0BDE8C4
:10327000F08F4022028001460420FFF72DF9002242
:103280003A60EAE798F8002022B34AF2F92408E00D
:10329000013C18D03278B2B900F0AEF898F80020AE
:1032A000C2B10420FFF79EF80728F1D84FF00103C0
:1032B00089F80030FFF7F0FE38600028ACD1013CFF
:1032C00089F80000E6D101234FF0FF30337003B0DE
:1032D000BDE8F08F00234FF0FF3089F8003003B0D5
:1032E000BDE8F08FD896FF1FD496FF1FD596FF1F1D
:1032F000CC96FF1FDD96FF1F00B583B001218DF82E
:1033000007000DF10700FFF773FF03B05DF804FB42
:1033100038B50E4D0E4C28680123237028B1408823
:103320000023C0F14000237038BD0A4B1B7813B94D
:103330000020207038BD0420FFF754F80728F7D884
:10334000FFF7AAFE28600028E9D1F1E7D896FF1F11
:10335000D596FF1FCC96FF1FF8B5114B1B788BB18C
:10336000104E114D346801272F7064B10F4A6388E5
:1033700000271770214623800420FFF7ADF837603F
:1033800000232B70F8BDFFF787FE084B28B10146DC
:1033900004201C70FFF7A0F8F2E71F70F0E700BFF1
:1033A000CC96FF1FD896FF1FD596FF1FDD96FF1FF7
:1033B00038B50E4B1B7853B90D4C216841B103F061
:1033C000FF054B880B800420FFF786F8256038BD89
:1033D000FFF762FE28B10146BDE838400420FFF740
:1033E0007BB8044B01221A7038BD00BFD596FF1F71
:1033F000D896FF1FDD96FF1F38B5224C237803B106
:1034000038BD01232370FFF7C9FE002833D100F037
:10341000C3F800282CD100F055F930BB00F0E8F9D2
:1034200000BB00232370EFF30583002BE8D1EFF3FB
:10343000108572B6144B186880B1144C217869B9A4
:1034400042691A6001232370C2B1916105B962B665
:103450000025457783689847257038BD002DCFD16A
:1034600062B638BD00F01AF8DBE700F015F8D5E7D2
:1034700000F010F8CFE7FFF70DFEC8E7044B1A6025
:10348000E4E700BFDE96FF1FD495FF1FE095FF1F06
:10349000E495FF1F704700BF704700BF704700BF33
:1034A00030B42F482F4A304B304D6024E121047056
:1034B00011701B782E4C082B36D00A2B2D482E4924
:1034C00020D00C2B0CBF35223D2212232A60236012
:1034D00002600B60294B2A491B782A4ACBB1012391
:1034E0000B601360284B29491B78294A012B13D9FB
:1034F000042B1FD884230B601360264B01221A7003
:1035000030BC7047392213232A60236002600B60AD
:10351000E0E70B601360E5E780230B6013601D4B51
:1035200001221A7030BC704700F58E200830124915
:103530000122E8E7082B07D885230B601360154BA1
:1035400001221A7030BC7047102B94BF862387234A
:103550000B6013600F4B01221A7030BC704700BF24
:1035600000400740014007403887FF1F08B0034074
:103570000CB0034008B00B400CB00B40DF96FF1FAF
:1035800020B0034020B00B403987FF1F24B0034018
:1035900024B00B40E096FF1F054A064B1B781078BD
:1035A000DBB2C0B2834238BF4033181A704700BF45
:1035B0002997FF1F2897FF1FF0B43848027912F0AF
:1035C000300F2BD072B6817D01F0FF0200293CD074
:1035D00062B6334F33493C780D78334EE4B2EDB2E6
:1035E000631C402BC17928BF0023AB4202F1FF329C
:1035F000C9B21CBFF1541C4612F0FF02F0D12B4B94
:103600001B68E2B23A704BB1AC4236BFC5F140051F
:10361000641B6419272CC4BF01221A701F4AD0787A
:10362000C0B2050616D442060DD51C4B1B795B06AD
:1036300009D51F4B1F491B6800220A7003B11A707D
:10364000164B3C22DA70F0BC70474022C1794274BC
:1036500062B6E3E713791C06E5D5174B174E1C78C5
:103660003378E4B2DBB29C420FD0154D01E0A342A7
:103670000BD00133402B28BF00231179E95CC9B27C
:10368000D171117D0729F2D9DCB2044B34701A795B
:10369000110644BF7C22DA70C5E700BF00A00640D7
:1036A0002897FF1F2997FF1FE896FF1FE496FF1F2B
:1036B0002C97FF1F3097FF1F7497FF1F7597FF1FF1
:1036C0003497FF1F054A064B1B781078DBB2C0B257
:1036D000834238BF4033181A704700BFBD97FF1FA1
:1036E000BC97FF1FF0B43848027912F0300F2BD08E
:1036F00072B6817D01F0FF0200293CD062B6334FE3
:1037000033493C780D78334EE4B2EDB2631C402B64
:10371000C17928BF0023AB4202F1FF32C9B21CBFFE
:10372000F1541C4612F0FF02F0D12B4B1B68E2B2A1
:103730003A704BB1AC4236BFC5F14005641B641909
:10374000272CC4BF01221A701F4AD078C0B20506C8
:1037500016D442060DD51C4B1B795B0609D51F4BB1
:103760001F491B6800220A7003B11A70164B3C22D5
:10377000DA70F0BC70474022C179427462B6E3E768
:1037800013791C06E5D5174B174E1C783378E4B235
:10379000DBB29C420FD0154D01E0A3420BD00133A8
:1037A000282B28BF00231179E95CC9B2D171117DA2
:1037B0000729F2D9DCB2044B34701A79110644BFE0
:1037C0007C22DA70C5E700BF00B00640BC97FF1F3F
:1037D000BD97FF1F7C97FF1F7897FF1FC097FF1FA4
:1037E000C497FF1FF097FF1FF197FF1FC897FF1F98
:1037F000054A064B1B781078DBB2C0B2834238BF53
:103800004033181A704700BF3998FF1F3898FF1FC0
:1038100030B42C4B1A79940621D52B48DA790378E9
:103820002A4C01333F2B2478D1B2CABF00221A465A
:103830001346944203D0264CDBB2A1540370254BAF
:10384000196861B1244B1B78DBB293428ABFC3F184
:103850004003D21AD218272AC4BF01230B70194A79
:10386000D378DBB2180611D45A060DD5154B1B7947
:103870005B0609D5194B1A491B6800220A7003B16F
:103880001A70104B2C22DA7030BC7047117909067F
:10389000EAD5144910480C780178C9B28C420DD091
:1038A0000131272984BF002421460F4A054D525C6F
:1038B00098BFCCB2D2B2EA710470D5E76C21D17056
:1038C000D2E700BF00C006403898FF1F3998FF1F9D
:1038D000F897FF1FF497FF1F6D98FF1F3C98FF1F7D
:1038E0004098FF1F6C98FF1F4498FF1F30B585B0AC
:1038F00072B6194B194A1A487021197041250F24C4
:103900008021157004701A46197013781B06FCD5B7
:10391000144B186862B6144B144C984298BF00EBD5
:10392000800001A998BF40000A22FEF7EDFB01A923
:103930002046002311F8012B01333AB10A2B20F85D
:10394000022FF7D11623237005B030BD5B00DBB228
:10395000237005B030BD00BF0000024007000240E8
:1039600006000240080002407F969800C887FF1FAB
:1039700000B51C4A20F00043934283B018DDB3F138
:10398000FF4F05DB014601F03DFB03B05DF804FB92
:10399000694600F067F800F00302012A0ED0022AFF
:1039A00018D092B101220199009800F0FDFDECE7DA
:1039B000002100F0CBF903B05DF804FB01990098F9
:1039C00000F0F2FD00F10040DFE70199009800F0FF
:1039D000BDF9DAE70199009800F0B8F900F100406C
:1039E000D3E700BFD80F493F00B51D4A20F0004380
:1039F000934283B019DDB3F1FF4F05DB014601F0BF
:103A000001FB03B05DF804FB694600F02BF800F001
:103A10000300012810D0022819D090B10199009814
:103A200000F094F900F10040EBE70022002100F0E3
:103A3000BBFD03B05DF804FB0199009800F086F926
:103A4000DFE701220199009800F0AEFDD9E70122DD
:103A50000199009800F0A8FD00F10040D1E700BFF7
:103A6000D80F493F2DE9F04FAB4A20F00044944273
:103A700089B06EDDA94A944206460D461CDC00283A
:103A800024F00F04A64940F31E8101F0BBFAA54BB8
:103A90009C4206466CD0A44901F0B4FA0146286065
:103AA000304601F0AFFAA04901F0ACFA0127686096
:103AB000384609B0BDE8F08F9C4A94426DDDB4F100
:103AC000FF4F4EDAE715863FA4EBC754204601F0BE
:103AD00069FD01F04DFB034601462046059301F0C8
:103AE00091FA4FF0874101F097FB804601F05AFDB3
:103AF00001F03EFB014604464046069401F082FA7E
:103B00004FF0874101F088FB0021079001F018FD7C
:103B1000002800F0B6802046002101F011FD0028A9
:103B200014BF01230223824A019202213A460091E6
:103B300005A8294600F0CEF9002E0746B8DAD5E9E7
:103B4000002302F1004203F1004347422A606B6008
:103B5000AEE700270022086038464A6009B0BDE899
:103B6000F08F014601F04EFA0027686028609FE759
:103B7000704901F047FA7049044601F043FA0146E2
:103B80002860204601F03EFA6B4901F03BFA01271C
:103B90006860384609B0BDE8F08F00F07BFD6749EA
:103BA000804601F039FB4FF07C5101F02DFA01F015
:103BB000F9FC074601F0DCFA5949834601F02CFB79
:103BC0000146404601F01EFA57498146584601F029
:103BD00023FB1F2F82460146484620DC01F012FAE3
:103BE000574A791E24F0FF0352F821209342804661
:103BF00018D0C5F800804146484601F003FA514606
:103C000001F000FA002E6860BFF652AF08F10048DC
:103C100000F10040C5F8008068607F4248E701F08D
:103C2000F1F98046E215C8F3C753D31A082BE0DD3B
:103C300040490392584601F0EFFA80460146484653
:103C400001F0E0F901460446484601F0DBF941463F
:103C500001F0D8F938498046584601F0DDFA41466E
:103C600001F0D0F901468246204601F0CBF9039AD3
:103C7000C0F3C753D21A192A804604DC2860A14633
:103C8000B9E703234FE72F49584601F0C5FA8046AC
:103C90000146204601F0B6F901468146204601F072
:103CA000B1F9414601F0AEF927490446584601F002
:103CB000B3FA214601F0A6F901468246484601F0D2
:103CC000A1F9804695E701F09FF9164B9C42064604
:103CD0000ED0154901F098F901462860304601F0F0
:103CE00091F9114901F090F94FF0FF376860DFE674
:103CF000104901F089F91049044601F085F901469F
:103D00002860204601F07EF90B4901F07DF94FF063
:103D1000FF376860CCE600BFD80F493FE3CB1640C1
:103D2000800FC93FD00FC93F43443537800F494307
:103D30009C6200000044353708A3852E84F9223F99
:103D40001C62000000A3852E32318D242DE9F8433A
:103D500020F00045B5F1485F06460F4649DA01F00C
:103D600021FC002800F09D803146304601F054FAD5
:103D70004E49044601F050FA4D4901F045F92146FB
:103D800001F04AFA4B4901F03DF9214601F044FAAD
:103D9000494901F039F9214601F03EFA474901F05D
:103DA00031F9214601F038FA454901F02DF9214653
:103DB00001F032FA80464FF07C51204601F02CFA97
:103DC00041460546204601F027FA3946044630466A
:103DD00001F022FA0146204601F014F90146284676
:103DE00001F010F901464FF07E5001F00BF9BDE8EB
:103DF000F883014601F010FA2C49044601F00CFA50
:103E00002B4901F001F9214601F006FA294901F098
:103E1000F9F8214601F000FA274901F0F5F82146AA
:103E200001F0FAF9254901F0EDF8214601F0F4F925
:103E3000234901F0E9F8214601F0EEF9214B9D42BA
:103E40008046B8DD204B9D4227DC05F17F452946A1
:103E50004FF07E5001F0D6F881464FF07C5120465D
:103E600001F0DAF9294601F0CDF841460546204631
:103E700001F0D2F939460446304601F0CDF9014649
:103E8000204601F0BFF80146284601F0BBF8014684
:103E9000484601F0B7F8BDE8F883DFF834900B4DE1
:103EA000DBE74FF07E50BDE8F88300BF4ED747AD4B
:103EB000F6740F317CF29334010DD037610BB63AB2
:103EC000ABAA2A3D9999993E0000483F0000903ED8
:103ED0000000383F2DE9F04FDDB0A34C669D0991FD
:103EE000591E54F825400191111D039406930B921D
:103EF0000546C0F29882D31E44BF13460433DB103C
:103F000005930133DB000A93DDE90A239B1A04932E
:103F1000059A019BD61A039A12EB030818D408F1EC
:103F200001080024B04420AFDDF89C9108E059F866
:103F3000260001F01DF90136464547F8040B07D06D
:103F4000002EF4DA01362046464547F8040BF7D137
:103F5000039B002BC0F20683069B03999B002A1F3C
:103F6000D518029220AA89000093D71849AB07916F
:103F700003EB010848AE4FF00009019B002BB8BFCE
:103F8000CB460FDB029CBA46CB465AF8041D54F8C8
:103F9000040F01F041F90146584601F035F8AC42F2
:103FA0008346F2D146F804BB464507F10407E4D145
:103FB00000990298079A039E0144A2F108030D4656
:103FC0000CA90B4407930BAB134408934FEA8609E3
:103FD0005CAB4B44002E53F850AC22DD0DF59078CD
:103FE00008EB86040CAF4FF06E51504601F014F907
:103FF00001F0D8FA01F0BCF84FF08741834601F098
:104000000BF90146504600F0FDFF01F0CBFA54F8E1
:10401000041D47F8040B584600F0F6FF444582465D
:10402000E1D1049F5046394600F076FB4FF07851BD
:10403000044601F0F1F800F031FB4FF0824101F04D
:10404000EBF80146204600F0DDFF044601F0AAFA35
:10405000824601F08DF80146204600F0D3FF002F84
:10406000044640F38380711E0CAAC7F1080352F87E
:10407000212042FA03F000FA03F3D31AC7F107082C
:104080000CAA43FA08F8B8F1000F42F82130824434
:1040900077DC0021204601F053FA002800F0B480BC
:1040A000039B771EBB4210DC06F180430CAA013B48
:1040B000089802EB8303002253F80419834242EA72
:1040C0000102F9D1002A40F0F880039B0CAA013BC1
:1040D00052F82330002B40F0EA80079B012753F869
:1040E00004290137002AFAD006F1010AF3190093D6
:1040F000D046059B0AEB0309069B9C1920AB09F1EE
:10410000804903EB8404679B09F1FF3903EB8909BC
:1041100048AB03EB8A0A59F8040F01F029F8019B18
:104120002646002B46F8040B1BDB043CDDF808B0E8
:10413000002701E054F804095BF8041F01F06CF853
:104140000146384600F060FFAB450746F2D1009BC0
:104150004AF8047B08F1010898453446DBDD1E4629
:1041600034E70027F3E700BFE065000040F09680E9
:10417000731E0CAA52F823304FEA2328B8F1000F1F
:1041800087DD002E0AF1010A40F3CF810C9F002F3A
:104190006CD1012E09D00CA9012251F8047F531CC7
:1041A000002F65D19E421A46F7D1049B002B0DDDEE
:1041B000012B00F02E81022B08D1721E0CAB0CA932
:1041C00053F8223003F03F0341F82230B8F1020FD8
:1041D0007FF45FAF21464FF07E5000F013FF04469E
:1041E000002F3FF456AF04994FF07E5000F094FA40
:1041F0000146204600F006FF04460021204601F05B
:104200009FF900287FF44CAFDDE90A322046991A65
:10421000CDF8048000F080FA4FF08741044601F0A9
:10422000ADF9002800F083814FF06E51204600F078
:10423000F3FF01F0B7F900F09BFF4FF0874105460F
:1042400000F0EAFF0146204600F0DCFE01F0AAF98A
:104250000CAB771C43F82600284601F0A3F9049B19
:10426000083304930CAB43F827003CE00123002201
:104270000CA9C7F580779E4241F822700CDD51F8F9
:104280002320894401EB830300E01A68C2F1FF0296
:1042900043F8042B4B45F8D1012786E74FF07C51BA
:1042A00001F06CF9002840F0C3808046F1E606F189
:1042B000010AD046CDF800A01BE70CAB049A53F8D6
:1042C0002730CDF80480083A049263B906F18043A0
:1042D000023B0CA901EB830353F80419013F083A90
:1042E0000029F9D0049204994FF07E5000F014FA9E
:1042F000002F0446C0F23F814FEA870848AA08F120
:10430000040390440CAA04934FF06E5602EB030989
:1043100008F1040559F8040D00F02AFF214600F0C9
:104320007BFF314645F8040D204600F075FF0CABCD
:1043300099450446EED1DDF80C90CDF814A034ABCD
:10434000B9F1000F0293A8F104084FF000069B4654
:10435000009723DB924D934847464FF0000A002414
:1043600003E0B4420DDC55F8040F57F8041F00F0C9
:1043700053FF0146504600F047FE0134A1458246F6
:10438000EFDA009A4BF804AB9642A8F1040806F164
:10439000010306D0B9F1000F1E46DBDA4FF0000A28
:1043A000EFE7669BDDF814A0009F032B2CD8DFE815
:1043B00003F0A6020250049B1D46029B00242046E7
:1043C0001D441C4655F8041D00F01EFEAC42F9D1F8
:1043D00004463498214600F015FE019B002B40F066
:1043E000AE80099B002F1C600CDD34AD012401342C
:1043F00055F8041F00F008FEA742F8DA019B0BB144
:1044000000F10040099B58600AF007005DB0BDE86C
:10441000F08F721E0CAB0CA953F8223003F07F030F
:1044200041F82230D2E608230A93002305936BE576
:10443000002E0AF1010AC8BF4FF002083FF7A6AEEE
:1044400021464FF07E5000F0DDFD4FF0020804469B
:104450001FE6002F40F3A280BD005CAB2B4434AAC2
:1044600053F8A08C02925419934654F8049C414688
:10447000484600F0C9FD06460146484600F0C2FD28
:10448000414600F0C1FD206044F8046DA345B046EC
:10449000EBD1012F40F382805CAB2B44029A53F89E
:1044A000A08C15442C4635AF54F8049C4146484630
:1044B00000F0AAFD06460146484600F0A3FD41462D
:1044C00000F0A2FD206044F8046DA742B046EBD195
:1044D000029C00200435083455F8041D00F094FDBA
:1044E000AC42F9D10199349A359B81BB09990A6094
:1044F0004B6088600AF007005DB0BDE8F08F049B58
:10450000029D1C4600202C4454F8041D00F07CFD44
:10451000A542F9D1019B0BB100F10040099B186045
:104520000AF007005DB0BDE8F08F00273DE62046A9
:1045300001F038F80CAB374643F82600D3E6099B68
:1045400004F10044002F1C603FF74FAF58E7099972
:1045500002F1004203F1004300F100400A604B60A9
:104560008860C7E72B1F0293069B9B000093039B69
:104570009B0007931CE5669B032B3FF645AF01A20A
:1045800052F823F09945000095450000954500003C
:104590005344000000241CE70020BBE70020A1E7F3
:1045A000B46500000000C93F2DE9F84320F0004346
:1045B000B3F1485F04460F46904603DA00F0F2FF7D
:1045C000002858D02146204600F026FE0546014628
:1045D000204600F021FE29490646284600F01CFE30
:1045E000274900F00FFD294600F016FE254900F08E
:1045F0000BFD294600F010FE234900F003FD29467B
:1046000000F00AFE214900F0FFFC8146B8F1000FDE
:1046100022D04FF07C51384600F0FEFD49468046DE
:10462000304600F0F9FD0146404600F0EBFC29461B
:1046300000F0F2FD394600F0E5FC1549054630462C
:1046400000F0EAFD0146284600F0DEFC0146204667
:1046500000F0D8FCBDE8F8830146284600F0DCFDF8
:104660000B4900F0CFFC314600F0D6FD214600F0AA
:10467000CBFCBDE8F8832046BDE8F883D3C92E2FD4
:10468000342FD7321BEF3836010D50398988083C5A
:10469000ABAA2A3E20F00040704700BFF8B520F0DA
:1046A0000047FC0D7F3C162C054624DC002C0646FA
:1046B00014DB164F274138421BD0154900F0A4FCEB
:1046C000002100F065FFA0B1002D04DA4FF40003D3
:1046D00043FA04F4264426EA0700F8BD0C4900F02A
:1046E00093FC002100F054FF18B1002D0ADB0020DC
:1046F000F8BD2846F8BDB7F1FF4FFAD3014600F0E8
:1047000083FCF8BD002FF4D00248F8BDFFFF7F0006
:10471000CAF24971000080BF10B50C4630F000416C
:1047200003461BD0B1F1FF4F19D210F0FF4F0246E4
:1047300019D14FF0984100F06FFD1E4A9442034694
:104740002ADB0246C0F3C75019382044FE280EDD8C
:104750001949184661F31E0000F05EFD10BD0146C8
:1047600000F052FC10BDC80D2044FE28F0DC0028EB
:104770000DDC10F1160F13DA4CF250329442E7DCE4
:104780000E49184661F31E0000F046FD10BD22F0F0
:10479000FF4242EAC05010BD084900F03DFD10BD87
:1047A00022F0FF42193042EAC0504FF04C5100F065
:1047B00033FD10BDB03CFFFFCAF249716042A20D4B
:1047C00081F0004102E000BF83F0004330B54FEAC2
:1047D00041044FEA430594EA050F08BF90EA020F2F
:1047E0001FBF54EA000C55EA020C7FEA645C7FEAC2
:1047F000655C00F0E2804FEA5454D4EB5555B8BFE5
:104800006D420CDD2C4480EA020281EA030382EA55
:10481000000083EA010180EA020281EA0303362DE7
:1048200088BF30BD11F0004F4FEA01314FF4801CBA
:104830004CEA113102D0404261EB410113F0004FCC
:104840004FEA03334CEA133302D0524263EB430383
:1048500094EA050F00F0A780A4F10104D5F1200E21
:104860000DDB02FA0EFC22FA05F2801841F100017C
:1048700003FA0EF2801843FA05F359410EE0A5F150
:1048800020050EF1200E012A03FA0EFC28BF4CF081
:10489000020C43FA05F3C01851EBE37101F0004537
:1048A00007D54FF0000EDCF1000C7EEB00006EEB44
:1048B0000101B1F5801F1BD3B1F5001F0CD34908CE
:1048C0005FEA30004FEA3C0C04F101044FEA445225
:1048D00012F5800F80F09A80BCF1004F08BF5FEAAC
:1048E000500C50F1000041EB045141EA050130BD8C
:1048F0005FEA4C0C404141EB010111F4801FA4F12F
:104900000104E9D191F0000F04BF01460020B1FA83
:1049100081F308BF2033A3F10B03B3F120020CDABB
:104920000C3208DD02F1140CC2F10C0201FA0CF099
:1049300021FA02F10CE002F11402D8BFC2F1200CFE
:1049400001FA02F120FA0CFCDCBF41EA0C019040B4
:10495000E41AA2BF01EB0451294330BD6FEA0404FD
:104960001F3C1CDA0C340EDC04F11404C4F12002E8
:1049700020FA04F001FA02F340EA030021FA04F3FA
:1049800045EA030130BDC4F10C04C4F1200220FA51
:1049900002F001FA04F340EA0300294630BD21FA8F
:1049A00004F0294630BD94F0000F83F4801306BF55
:1049B00081F480110134013D4EE77FEA645C18BF49
:1049C0007FEA655C29D094EA050F08BF90EA020FE0
:1049D00005D054EA000C04BF1946104630BD91EAD8
:1049E000030F1EBF0021002030BD5FEA545C05D1DB
:1049F0004000494128BF41F0004130BD14F580041A
:104A00003CBF01F5801130BD01F0004545F0FE418D
:104A100041F470014FF0000030BD7FEA645C1ABFC2
:104A2000194610467FEA655C1CBF0B46024650EAF9
:104A3000013406BF52EA033591EA030F41F4002125
:104A400030BD00BF90F0000F04BF0021704730B5AB
:104A50004FF4806404F132044FF000054FF0000180
:104A600050E700BF90F0000F04BF0021704730B541
:104A70004FF4806404F1320410F0004548BF404216
:104A80004FF000013EE700BF42004FEAE2014FEA6B
:104A900031014FEA02701FBF12F07F4393F07F4F46
:104AA00081F06051704732F07F4208BF704793F049
:104AB0007F4F04BF41F40021704730B54FF460745C
:104AC00001F0004521F000411CE700BF50EA01025F
:104AD00008BF704730B54FF000050AE050EA010208
:104AE00008BF704730B511F0004502D5404261EB78
:104AF00041014FF4806404F132045FEA915C3FF4B9
:104B0000D8AE4FF003025FEADC0C18BF03325FEA55
:104B1000DC0C18BF033202EBDC02C2F1200300FA06
:104B200003FC20FA02F001FA03FE40EA0E0021FA2B
:104B300002F11444BDE600BF70B54FF0FF0C4CF419
:104B4000E06C1CEA11541DBF1CEA135594EA0C0FCB
:104B500095EA0C0F00F0DEF82C4481EA030621EA06
:104B60004C5123EA4C5350EA013518BF52EA033541
:104B700041F4801143F4801338D0A0FB02CE4FF0F3
:104B80000005E1FB02E506F00042E0FB03E54FF023
:104B90000006E1FB03569CF0000F18BF4EF0010E1B
:104BA000A4F1FF04B6F5007F64F5407404D25FEA17
:104BB0004E0E6D4146EB060642EAC62141EA5551CA
:104BC0004FEAC52040EA5E504FEACE2EB4F1FD0C0C
:104BD00088BFBCF5E06F1ED8BEF1004F08BF5FEA8A
:104BE000500E50F1000041EB045170BD06F000463C
:104BF00046EA010140EA020081EA0301B4EB5C04E9
:104C0000C2BFD4EB0C0541EA045170BD41F48011E0
:104C10004FF0000E013C00F3AB8014F1360FDEBF05
:104C2000002001F0004170BDC4F10004203C35DAE1
:104C30000C341BDC04F11404C4F1200500FA05F364
:104C400020FA04F001FA05F240EA020001F0004205
:104C500021F0004110EBD37021FA04F642EB06017B
:104C60005EEA430E08BF20EAD37070BDC4F10C04A5
:104C7000C4F1200500FA04F320FA05F001FA04F269
:104C800040EA020001F0004110EBD37041F1000155
:104C90005EEA430E08BF20EAD37070BDC4F1200560
:104CA00000FA05F24EEA020E20FA04F301FA05F2C8
:104CB00043EA020321FA04F001F0004121FA04F270
:104CC00020EA020000EBD3705EEA430E08BF20EA40
:104CD000D37070BD94F0000F0FD101F0004640007A
:104CE00041EB010111F4801F08BF013CF7D041EAFC
:104CF000060195F0000F18BF704703F00046520000
:104D000043EB030313F4801F08BF013DF7D043EAD0
:104D10000603704794EA0C0F0CEA135518BF95EA86
:104D20000C0F0CD050EA410618BF52EA4306D1D10D
:104D300081EA030101F000414FF0000070BD50EA2C
:104D4000410606BF1046194652EA430619D094EAB6
:104D50000C0F02D150EA013613D195EA0C0F05D1A0
:104D600052EA03361CBF104619460AD181EA0301F4
:104D700001F0004141F0FE4141F470014FF00000AC
:104D800070BD41F0FE4141F4780170BD70B54FF047
:104D9000FF0C4CF4E06C1CEA11541DBF1CEA1355C7
:104DA00094EA0C0F95EA0C0F00F0A7F8A4EB0504A9
:104DB00081EA030E52EA03354FEA013100F08880A0
:104DC0004FEA03334FF0805545EA131343EA126369
:104DD0004FEA022245EA111545EA10654FEA00261E
:104DE0000EF000419D4208BF964244F1FD0404F5D7
:104DF000407402D25B084FEA3202B61A65EB030533
:104E00005B084FEA32024FF480104FF4002CB6EBEF
:104E1000020E75EB030E22BFB61A754640EA0C006F
:104E20005B084FEA3202B6EB020E75EB030E22BFAF
:104E3000B61A754640EA5C005B084FEA3202B6EBF0
:104E4000020E75EB030E22BFB61A754640EA9C00AF
:104E50005B084FEA3202B6EB020E75EB030E22BF7F
:104E6000B61A754640EADC0055EA060E18D04FEA3D
:104E7000051545EA16754FEA06164FEAC30343EADD
:104E800052734FEAC2025FEA1C1CC0D111F4801FAA
:104E90000BD141EA00014FF000004FF0004CB6E7A3
:104EA00011F4801F04BF01430020B4F1FD0C88BF42
:104EB000BCF5E06F3FF6AFAEB5EB030C04BFB6EB4D
:104EC000020C5FEA500C50F1000041EB045170BD40
:104ED0000EF0004E4EEA113114EB5C04C2BFD4EB6D
:104EE0000C0541EA045170BD41F480114FF0000EF1
:104EF000013C90E645EA060E8DE60CEA135594EA6D
:104F00000C0F08BF95EA0C0F3FF43BAF94EA0C0F6F
:104F10000AD150EA01347FF434AF95EA0C0F7FF4E4
:104F200025AF104619462CE795EA0C0F06D152EA38
:104F300003353FF4FDAE1046194622E750EA41061C
:104F400018BF52EA43067FF4C5AE50EA41047FF42D
:104F50000DAF52EA43057FF4EBAE12E74FEA410290
:104F6000B2F1E04324BFB3F5001CDCF1FE5C0DD9C7
:104F700001F0004C4FEAC0024CEA5070B2F1004F11
:104F800040EB830008BF20F00100704711F0804F14
:104F900021D113F13872BCBF01F00040704741F4D9
:104FA00080114FEA5252C2F11802C2F1200C10FADD
:104FB0000CF320FA02F018BF40F001004FEAC123C1
:104FC0004FEAD32303FA0CFC40EA0C0023FA02F365
:104FD0004FEA4303CCE77FEA625307D150EA01333B
:104FE0001EBF4FF0FE4040F44000704701F000400B
:104FF00040F0FE4040F40000704700BF80F00040E9
:1050000002E000BF81F0004142001FBF5FEA4103A0
:1050100092EA030F7FEA226C7FEA236C6AD04FEAA0
:105020001262D2EB1363C1BFD218414048404140E5
:10503000B8BF5B42192B88BF704710F0004F40F497
:10504000000020F07F4018BF404211F0004F41F4B3
:10505000000121F07F4118BF494292EA030F3FD07F
:10506000A2F1010241FA03FC10EB0C00C3F1200392
:1050700001FA03F100F0004302D5494260EB400021
:10508000B0F5000F13D3B0F1807F06D340084FEA8C
:10509000310102F10102FE2A51D2B1F1004F40EB81
:1050A000C25008BF20F0010040EA030070474900E9
:1050B00040EB000010F4000FA2F10102EDD1B0FAB4
:1050C00080FCACF1080CB2EB0C0200FA0CF0AABFA9
:1050D00000EBC25052421843BCBFD0401843704747
:1050E00092F0000F81F4000106BF80F4000001324D
:1050F000013BB5E74FEA41037FEA226C18BF7FEA24
:10510000236C21D092EA030F04D092F0000F08BF65
:105110000846704790EA010F1CBF0020704712F04C
:105120007F4F04D1400028BF40F00040704712F18B
:1051300000723CBF00F50000704700F0004343F0F0
:10514000FE4040F4000070477FEA226216BF084626
:105150007FEA23630146420206BF5FEA412390EAE9
:10516000010F40F4800070474FF0000304E000BFDF
:1051700010F0004348BF40425FEA000C08BF704790
:1051800043F0964301464FF000001CE050EA010254
:1051900008BF70474FF000030AE000BF50EA010269
:1051A00008BF704711F0004302D5404261EB410156
:1051B0005FEA010C02BF84460146002043F0B6437B
:1051C00008BFA3F18053A3F50003BCFA8CF2083AA0
:1051D000A3EBC25310DB01FA02FC634400FA02FCA9
:1051E000C2F12002BCF1004F20FA02F243EB0200B0
:1051F00008BF20F00100704702F1200201FA02FC12
:10520000C2F1200250EA4C0021FA02F243EB020004
:1052100008BF20EADC7070474FF0FF0C1CEAD05248
:105220001EBF1CEAD15392EA0C0F93EA0C0F6FD009
:105230001A4480EA010C400218BF5FEA41211ED0E7
:105240004FF0006343EA501043EA5111A0FB0131D3
:105250000CF00040B1F5000F3EBF490041EAD371A8
:105260005B0040EA010062F17F02FD2A1DD8B3F124
:10527000004F40EBC25008BF20F00100704790F093
:10528000000F0CF0004C08BF49024CEA502040EAE5
:1052900051207F3AC2BFD2F1FF0340EAC2507047AB
:1052A00040F400004FF00003013A5DDC12F1190FE9
:1052B000DCBF00F000407047C2F10002410021FA5B
:1052C00002F1C2F1200200FA02FC5FEA310040F173
:1052D000000053EA4C0308BF20EADC70704792F0EC
:1052E000000F00F0004C02BF400010F4000F013A24
:1052F000F9D040EA0C0093F0000F01F0004C02BF1F
:10530000490011F4000F013BF9D041EA0C018FE78D
:105310000CEAD15392EA0C0F18BF93EA0C0F0AD093
:1053200030F0004C18BF31F0004CD8D180EA0100B9
:1053300000F00040704790F0000F17BF90F0004F52
:10534000084691F0000F91F0004F14D092EA0C0F34
:1053500001D142020FD193EA0C0F03D14B0218BFC7
:10536000084608D180EA010000F0004040F0FE400D
:1053700040F40000704740F0FE4040F440007047A9
:105380004FF0FF0C1CEAD0521EBF1CEAD15392EA28
:105390000C0F93EA0C0F69D0A2EB030280EA010C18
:1053A00049024FEA402037D04FF0805343EA1111B1
:1053B00043EA10130CF000408B4238BF5B0042F10F
:1053C0007D024FF4000C8B4224BF5B1A40EA0C00B4
:1053D000B3EB510F24BFA3EB510340EA5C00B3EBE6
:1053E000910F24BFA3EB910340EA9C00B3EBD10FD4
:1053F00024BFA3EBD10340EADC001B0118BF5FEA26
:105400001C1CE0D1FD2A3FF650AF8B4240EBC2504E
:1054100008BF20F0010070470CF0004C4CEA50200F
:105420007F32C2BFD2F1FF0340EAC250704740F45E
:1054300000004FF00003013A37E792F0000F00F050
:10544000004C02BF400010F4000F013AF9D040EACE
:105450000C0093F0000F01F0004C02BF490011F462
:10546000000F013BF9D041EA0C0195E70CEAD1535A
:1054700092EA0C0F08D142027FF47DAF93EA0C0F41
:105480007FF470AF084676E793EA0C0F04D14B0225
:105490003FF44CAF08466EE730F0004C18BF31F0D7
:1054A000004CCAD130F000427FF45CAF31F00043D1
:1054B0007FF43CAF5FE700BF4FF0FF3C06E000BF6A
:1054C0004FF0010C02E000BF4FF0010C4DF804CD8D
:1054D0004FEA40024FEA41037FEA226C18BF7FEA9D
:1054E000236C11D001B052EA530C18BF90EA010F9F
:1054F00058BFB2EB030088BFC81738BF6FEAE1702E
:1055000018BF40F0010070477FEA226C02D15FEAC9
:10551000402C05D17FEA236CE4D15FEA412CE1D035
:105520005DF8040B704700BF844608466146FFE7FC
:105530000FB5FFF7C9FF002848BF10F1000F0FBDDE
:105540004DF808EDFFF7F4FF0CBF012000205DF8D7
:1055500008FB00BF4DF808EDFFF7EAFF34BF01205C
:1055600000205DF808FB00BF4DF808EDFFF7E0FFF5
:1055700094BF012000205DF808FB00BF4DF808ED46
:10558000FFF7D2FF94BF012000205DF808FB00BFA9
:105590004DF808EDFFF7C8FF34BF012000205DF88B
:1055A00008FB00BF4FEA4002B2F1FE4F0FD34FF0AD
:1055B0009E03B3EB12620DD94FEA002343F0004380
:1055C00010F0004F23FA02F018BF404270474FF02E
:1055D0000000704712F1610F01D1420205D110F0B5
:1055E000004008BF6FF0004070474FF00000704768
:1055F00042000ED2B2F1FE4F0BD34FF09E03B3EB3D
:10560000126209D44FEA002343F0004323FA02F068
:1056100070474FF00000704712F1610F01D1420254
:1056200002D14FF0FF3070474FF00000704700BFCD
:10563000014B1868704700BFE087FF1F70B50D4E23
:105640000D4D761BB61006D00024013455F8043BEE
:105650009847A642F9D1094E094D761B00F0C8FFC4
:10566000B61006D00024013455F8043B9847A642F2
:10567000F9D170BDFC650000FC6500000866000003
:10568000FC650000024B0146186800F003B800BF3B
:10569000E087FF1F2DE9F04F01F10B05162D83B0B8
:1056A000064623D8102900F2B98000F0ABFA102585
:1056B00018230220BA4F3B44A3F108025C689442CD
:1056C00000F0B980636823F003032344D4E9025156
:1056D0005A68E96042F0010230468D605A6000F07D
:1056E00097FA0834204603B0BDE8F08F35F007057F
:1056F00000F19480A94200F2918000F083FAB5F5A0
:10570000FC7FC0F0A2816B0A00F08F80042B00F2B6
:105710007881AB0903F1390003F1380CC300A04FC5
:105720003B44A3F108015C68A14206D10CE0002AC9
:1057300080F22781E468A14206D0636823F0030366
:105740005A1B0F2AF3DD60463C69DFF868C26445E6
:105750007CD0636823F003035A1B0F2A00F3838174
:10576000002AC7E904CC80F27481B3F5007F80F091
:105770002581DB08591C7A6857F83180C4F8088005
:105780004FF0010E9B100EFA03F307EBC10E13430B
:10579000AEF10802E2607B6047F83140C8F80C4087
:1057A0008210012494409C4256D81C4206D120F01D
:1057B000030064001C4200F10400FAD007EBC009AA
:1057C000CE468046DEF80C309E4507D125E1002A02
:1057D00080F22C81DB689E4500F01F81596821F022
:1057E00003014A1B0F2AF2DDD3E9028E5C1945F052
:1057F00001055D6042F00105C8F80CE03046CEF8C6
:105800000880C7E90444C4E902CC65605A5000939B
:1058100000F0FEF9009B03F1080402E00C23336062
:105820000024204603B0BDE8F08F4FF40073402001
:105830004FF03F0C73E7DC68A34208BF02307FF4EF
:1058400041AF3C69DFF86CC1644582D17B6882104E
:10585000012494409C42A8D9BC68636823F00308E3
:10586000A84503D3A8EB05030F2B7ADCDFF848919A
:105870004C4BD9F800201B6801322B4404EB080A7A
:1058800000F03C8103F580530F3323F47F6B2BF042
:105890000F0B5946304600F0C1F9411C024600F09A
:1058A000FC80824500F2F7803F4B1868584418602E
:1058B000014600F05781D9F80000019301301BBF69
:1058C000A2EB0A0A5144C9F80020196012F0070A35
:1058D00000F02081CAF108010A44CAF580519344BE
:1058E0000831A1EB0B01C1F30B0949463046009288
:1058F00000F094F9421CDDE9002300F05881801A81
:1059000000EB090B1868BA604BF001014844BC4237
:105910005160186000F03281B8F10F0F40F2308111
:105920006168A8F10C0C2CF0070C01F0010104EBEC
:105930000C0E41EA0C014FF00508BCF10F0F61603D
:10594000CEE9018800F23B8151681446174B1A6872
:10595000824238BF1860164B1A68824238BF1860FE
:105960009DE0621943F0010345F001056560304692
:10597000BA60536000F04CF90834204603B0BDE82B
:10598000F08F2344E1685A68A56842F00102E9609B
:1059900030468D605A6000F03BF9083441E700BFA3
:1059A000108CFF1FA098FF1F7098FF1F9898FF1F73
:1059B0009C98FF1F188CFF1F1890FF1F5A0A042A7B
:1059C00063D9142A00F2B78002F15C01C9005B328E
:1059D00007EB010E7958AEF1080E8E4500F091806C
:1059E0004A6822F003029A4202D989688E45F7D1AB
:1059F000D1F80CE07B68C4E9021ECEF80840CC6008
:105A0000CEE6142B59D9542B00F29D802B0B03F1B9
:105A10006F0003F16E0CC30081E608F1010818F075
:105A2000030F0EF1080E7FF4CDAE51E019441C4671
:105A30004A68DB6854F8085F42F001024A60304669
:105A4000EB609D6000F0E4F8EBE6E80805F1080380
:105A500030E6234430465A6842F001025A60083466
:105A600000F0D6F8DDE6611945F0010E42F00105BF
:105A7000C4F804E03046C7E90411C1E902CC4D6026
:105A8000E25000F0C5F80834CBE69A0902F139017A
:105A9000C90038329CE7BC425FD0BC68616821F025
:105AA000030BAB45ABEB050302D30F2B3FF759AF0D
:105AB000304600F0ADF80024B3E603F15C0003F1DA
:105AC0005B0CC3002BE659F808394B4540F0968033
:105AD00010F0030F00F1FF30F5D17B6823EA0403D7
