:1000000000800020BD01000005200000BD1F000091
:10001000BD1F0000BD1F0000BD1F0000BD1F000070
:10002000BD1F0000BD1F0000BD1F00000520000017
:1000300005200000BD1F0000E91D0000ED1E0000AE
:10004000052000000520000005200000052000001C
:10005000052000000520000005200000052000000C
:1000600005200000052000000520000005200000FC
:1000700005200000052000000520000005200000EC
:1000800005200000052000000520000005200000DC
:1000900005200000052000000520000005200000CC
:1000A00005200000052000000520000005200000BC
:1000B00005200000052000000520000005200000AC
:1000C000052000000520000005200000052000009C
:1000D000052000000520000005200000052000008C
:1000E000052000000520000005200000052000007C
:1000F00005200000B135000005200000DD360000BD
:10010000052000000938000005200000052000003F
:10011000052000000520000005200000052000004B
:10012000052000000520000005200000052000003B
:100130000520000005200000FD1300000520000040
:10014000052000000520000005200000052000001B
:10015000052000000520000005200000052000000B
:1001600005200000D5240000052000000520000027
:1001700005200000052000000520000005200000EB
:1001800005200000052000000520000005200000DB
:1001900005200000052000000520000005200000CB
:1001A00005200000052000000520000005200000BB
:1001B000052000000520000005200000564B4CF2F1
:1001C000205210B51A804DF628121A8000BF00BFC9
:1001D00001F01CFF514B4FF010621A60504A9A60B8
:1001E000504ADA60504A136813F4807304D14F49BF
:1001F0000B604FF4A85313604D4B1A78110703D5C9
:100200001A7842F008021A704A4B4B492A221A7097
:100210004A4A4B4B8B4204D252F8040F43F8040B6A
:10022000F8E7484B484900228B4202D243F8042B9E
:10023000FAE74649464A002352F8230041F82300D2
:1002400001336F2BF8D1434B434A802103F8011B44
:100250009342FBD1414B3D4A1A60414B8A221A70AE
:10026000A3F5805324225A70A0221A709A7992071B
:10027000FCD59A79D406FCD43A4A937903F00C035E
:10028000082B384BF9D103221A7146225A719A79F8
:100290009006FCD5334A9179324B4906FBD5324A58
:1002A0004FF0827111600921516020221A709A79F1
:1002B00002F00C020C2AFAD12C4B2D4A1A602D4B5D
:1002C0002D4A1A6000225A60072243F8042C2B4A58
:1002D000C3F80C2D62B601F0B3FF144B1B68DA07AC
:1002E00005D5274801F040FF264B274A1A60274BC7
:1002F0001B785B0609D5234C234B22689A4204D114
:100300001F4801F031FF0023236005F0A7FC01F036
:1003100083FE01F04BFEFEE70E20054030800440D6
:10032000823F04000100002B10D0034014D0034092
:1003300002D0074000E007405490FF1FA86A000069
:100340002087FF1F5490FF1F2CA2FF1F0082FF1F5A
:100350000000000000E400E05FE400E008ED00E0E1
:1003600000500640004006404480044004800440A1
:10037000C010050014E000E0BFD401000000202000
:10038000AB4EB95D1CE00340A5C3945A00F0074092
:10039000FFFFFFFFFFFFFFFFFFFFFFFFFFFFFFFF6D
:1003A000FFFFFFFFFFFFFFFFFFFFFFFFFFFFFFFF5D
:1003B000FFFFFFFFFFFFFFFFFFFFFFFFFFFFFFFF4D
:1003C000FFFFFFFFFFFFFFFFFFFFFFFFFFFFFFFF3D
:1003D000FFFFFFFFFFFFFFFFFFFFFFFFFFFFFFFF2D
:1003E000FFFFFFFFFFFFFFFFFFFFFFFFFFFFFFFF1D
:1003F000FFFFFFFFFFFFFFFFFFFFFFFFFFFFFFFF0D
:10040000FFFFFFFFFFFFFFFFFFFFFFFFDEF9FFFF23
:1004100010B5054C237833B9044B13B10448AFF33E
:1004200000800123237010BD5490FF1F00000000C6
:10043000AC6A0000084B10B51BB108490848AFF37F
:1004400000800848036803B910BD074B002BFBD0A0
:10045000BDE81040184700BF000000005890FF1F83
:10046000AC6A00005490FF1F0000000010B501218D
:100470000C4C092001F090FE01210F2001F08CFEB0
:10048000204601F0C9FB0121092001F07FFE012176
:100490000F2001F07BFE20460D21BDE8104001F049
:1004A000F9BB00BF2087FF1FF8B55949D0F8B42E1B
:1004B000CB7A0446C3B172B6CB7ADD07184606D5AF
:1004C000544DC8682E6830408861286018469B07E4
:1004D00006D5514D0B692E68C87A3340CB612B602D
:1004E000470700F18E8062B60B68D868904207D04B
:1004F0004A4D1D604A48DA6042F080451D6118602F
:10050000484D494A01264FF000402E60D8625A6398
:10051000DA6A002AFCDA45489D6B424E424A0127BE
:10052000076008274FF000403760C5F30D05D8621B
:100530005A63DA6A002AFCDA9B6B3C48CA7A344F69
:1005400008260660C3F30D03104682B1D60703D513
:100550003748BE6906601046960703D5354ACE690E
:10056000C87A1660420702D5334A096A1160B4F8A6
:10057000A62E92B29A1A002AB8BF52421E2AC4BFAF
:10058000012284F8A42EB4F8A82E92B2AA1A002A46
:10059000B8BF52421E2AC4BF012284F8A52EB3F56B
:1005A000BA6FA4F8A63E18462E46A4F8A85E07D94E
:1005B000224880FB0320020A40F2D15000FB123097
:1005C00005F00CF91E4905F05DF905F021FBB5F5C4
:1005D000BA6F80B2A4F8600907D9184E86FB0536B9
:1005E000330A40F2D15606FB1356304605F0F6F8B2
:1005F000134905F047F905F00BFB80B2A4F8620936
:10060000F8BD10484B6905682B400B6203606AE730
:100610002087FF1F80E100E084E100E001403F000F
:1006200000003F8088F00F40FFFF001084F00F4073
:1006300000E100E004E100E008E100E04570032C87
:10064000957D773E88E100E008B50121212001F089
:10065000A3FD0121182001F09FFD0121032001F0DD
:100660009BFD0121002001F097FD0121022001F0F6
:1006700093FD01210846BDE8084001F08DBD00BF93
:100680002DE9F04F0446B0F8600985B080B205F05E
:10069000A1F80021054605F0A7FA30B1C449284663
:1006A00005F08EFA002840F09981C149284605F0EE
:1006B0009BFA30B1BF49284605F082FA002840F085
:1006C000ED82BC49284605F08FFA002840F0C4802E
:1006D000B949284605F088FA30B1B849284605F0EE
:1006E0006FFA002840F06E83B449284605F07CFA82
:1006F000002800F01A82B249284605F061FA002865
:1007000000F013822846AD49D4F888A904F0B0FF60
:1007100005460146A64804F0ABFFAA4905F0B2F829
:1007200004F01CFC03F068F9CDE900012846A54956
:10073000D4F888B905F0A6F804F010FC06460F4678
:1007400003F05AF980465846894604F007FC96A300
:10075000D3E9002304F056FC42464B4604F052FC19
:1007600004F032FF984905F08DF805F051FA39464A
:100770008046304603F0F6F806460F462846934971
:10078000D4F888B9D4F8885905F07CF88D4905F07B
:1007900079F804F0E3FB03F0E5F8CDE902015046F7
:1007A00004F0DCFB80A3D3E9002304F02BFCDDE99B
:1007B000002304F027FC04F007FF834905F062F8EA
:1007C00005F026FA00EB0809584604F0C7FB32464C
:1007D0003B4604F017FC02460B4600207C4904F01F
:1007E0005DFA06460F4628467A4905F0FFF804F000
:1007F000B5FBDDE9022304F005FC02460B4630465A
:10080000394604F04DFA0022734B04F0FBFB04F070
:10081000BBFE4844C0F5BB60043004F0DBFF054676
:10082000404604F0D7FF294604F024FF05F0F0F914
:10083000C4F87009284605F0EBF9C4F87409484675
:1008400004F0C8FF294604F015FF05F0E1F9C4F8EB
:10085000780905B0BDE8F08F5749284605F0B0F992
:1008600000283FF435AF28465249D4F888A904F04F
:10087000FFFE054601464E4804F0FAFE514905F0D8
:1008800001F804F06BFB03F0B7F8CDE9000128464E
:100890004C49D4F888B904F0F5FF04F05FFB064634
:1008A0000F4603F0A9F880465846894604F056FBE7
:1008B0003DA3D3E9002304F0A5FB42464B4604F0D8
:1008C000A1FB04F081FE404904F0DCFF05F0A0F933
:1008D00039468046304603F045F806460F4628461E
:1008E0003A49D4F888B9D4F8885904F0CBFF35498F
:1008F00004F0C8FF04F032FB03F034F8CDE9020144
:10090000504604F02BFB28A3D3E9002304F07AFB24
:10091000DDE9002304F076FB04F056FE2A4904F0DA
:10092000B1FF05F075F900EB0809584604F016FB15
:1009300032463B4604F066FB02460B460020244943
:1009400004F0ACF906460F462846224905F04EF859
:1009500004F004FBDDE9022304F054FB02460B46DD
:100960003046394604F09CF900221B4B04F04AFB48
:1009700004F00AFE4844C0F5BB60043004F02AFFCE
:10098000054605F045F9C4F87009484604F022FF11
:10099000294604F06FFE05F03BF9C4F8740940469F
:1009A0004EE700BFAFF30080AA4C58E87AB6EB3FA1
:1009B000000070420000F042000034430000704329
:1009C0000000964335FA8E3C0080BB440000404056
:1009D0000000F03F0000C040007087402946A64854
:1009E000D4F888B904F044FEA44904F04BFF04F0A5
:1009F000B5FA03F001F806460F4628469F49D4F899
:100A000088A904F03FFF04F0A9FA8046894602F065
:100A1000F3FFCDE90001584604F0A0FA94A3D3E90E
:100A2000002304F0EFFA32463B4604F0EBFA04F000
:100A3000CBFD934904F026FF05F0EAF80646504640
:100A400004F08CFA8AA3D3E9002304F0DBFADDE991
:100A5000002304F0D7FA04F0B7FD894904F012FF2F
:100A600005F0D6F849460746404602F07BFF80462F
:100A7000894628468349D4F888B9D4F888A904F06F
:100A800001FF7E4904F0FEFE04F068FA02F06AFFFE
:100A9000CDE90001584604F061FA42464B4604F0A5
:100AA000B1FA02460B460020774904F0F7F8804679
:100AB00089465046754904F099FF04F04FFADDE984
:100AC000002304F09FFA02460B464046494604F0D4
:100AD000E7F800226E4B04F095FA04F055FDF51985
:100AE000C5F5BB650435281A04F074FE0546384682
:100AF00004F070FE294604F0BDFD0746304604F0C0
:100B000069FE394604F0B6FD05F082F8C4F87009B4
:100B1000384605F07DF8C4F87409284605F078F8E1
:100B2000C4F8780905B0BDE8F08F5A49284605F0A9
:100B30005BF80028F6D05849284605F041F800280F
:100B4000F0D028465349D4F8885904F091FD8046E6
:100B50000146494804F08CFD484904F093FE04F036
:100B6000FDF902F049FF82468B4640464349D4F8DE
:100B7000889904F087FE04F0F1F906460F4602F06A
:100B80003BFFCDE90001284604F0E8F938A3D3E99A
:100B9000002304F037FA52465B4604F033FA04F0BF
:100BA00013FD374904F06EFE05F032F8394605466C
:100BB000304602F0D7FED4F88839029306460F4635
:100BC00040463049D4F8888904F05CFE2B4904F093
:100BD00059FE04F0C3F902F0C5FE029B8246184696
:100BE0008B4604F0BBF932463B4604F00BFA024652
:100BF0000B460020244904F051F806460F464046B3
:100C0000224904F0F3FE04F0A9F952465B4604F0D1
:100C1000F9F902460B463046394604F041F8002205
:100C20001B4B04F0EFF904F0AFFC0646484604F015
:100C300095F90FA3D3E9002304F0E4F9DDE90023DB
:100C400004F0E0F904F0C0FC0D4904F01BFE04F0D0
:100C5000DFFF284430443544C4F87009C4F874698F
:100C6000C4F8785905B0BDE8F08F00BFAFF300803D
:100C7000AA4C58E87AB6EB3F0000704235FA8E3C39
:100C80000080BB44000040400000F03F0000C04036
:100C900000708740000096430000B4432846944902
:100CA000D4F8885904F0E4FC80460146904804F0EA
:100CB000DFFC904904F0E6FD04F050F902F09CFEE0
:100CC00082468B4640468B49D4F8889904F0DAFD79
:100CD00004F044F906460F4602F08EFECDE900010D
:100CE000284604F03BF980A3D3E9002304F08AF9F5
:100CF00052465B4604F086F904F066FC7E4904F037
:100D0000C1FD04F085FF39460546304602F02AFE53
:100D1000D4F88839029306460F4640467749D4F8FE
:100D2000888904F0AFFD734904F0ACFD04F016F9B6
:100D300002F018FE029B824618468B4604F00EF91C
:100D400032463B4604F05EF902460B4600206C49F1
:100D500003F0A4FF06460F4640466A4904F046FEEB
:100D600004F0FCF852465B4604F04CF902460B4690
:100D70003046394603F094FF0022634B04F042F9F9
:100D800004F002FC0646484604F0E8F856A3D3E90E
:100D9000002304F037F9DDE9002304F033F904F00F
:100DA00013FC554904F06EFD04F032FF2844304432
:100DB0003544C4F87059C4F87409C4F8786905B0AA
:100DC000BDE8F08F28465149D4F8885904F050FC0A
:100DD00080460146464804F04BFC464904F052FD6B
:100DE00004F0BCF802F008FE82468B4640464149BA
:100DF000D4F8889904F046FD04F0B0F806460F4692
:100E000002F0FAFDCDE90001284604F0A7F836A368
:100E1000D3E9002304F0F6F852465B4604F0F2F8FA
:100E200004F0D2FB344904F02DFD04F0F1FE394604
:100E30000546304602F096FDD4F8883902930646FE
:100E40000F4640462D49D4F8888904F01BFD2949F6
:100E500004F018FD04F082F802F084FD029B824643
:100E600018468B4604F07AF832463B4604F0CAF83E
:100E700002460B460020224903F010FF06460F46AB
:100E80004046204904F0B2FD04F068F852465B4643
:100E900004F0B8F802460B463046394603F000FF2E
:100EA0000022194B04F0AEF804F06EFB06464846EB
:100EB00004F054F80CA3D3E9002304F0A3F8DDE90F
:100EC000002304F09FF804F07FFB0B4904F0DAFCE8
:100ED00004F09EFE284430443544C4F87069C4F8D8
:100EE0007459C4F878091DE6AA4C58E87AB6EB3F65
:100EF0000000704235FA8E3C0080BB440000404048
:100F00000000F03F0000C040007087400000344304
:100F100070B54FF416620446002105F087F90023EE
:100F2000012227482749A4F8603904F68C15A4F853
:100F3000623904F65C46C4F86409C4F8881984F878
:100F40008C2984F88D29A4F860392046FFF798FB96
:100F5000D4F8703925F8023FB4F8603901339BB2F8
:100F6000B542A4F86039F0D1002300221649174D8C
:100F70001748A4F86039C4F8002DC4F87039C4F8D3
:100F8000042D84F8A43EC4F8AC2E84F8A53EC4F821
:100F9000B02EA4F8A63EC4F8981EA4F8A83EC4F843
:100FA0009C1EC4F8A05EC4F8B40E4FF4B27001F0F9
:100FB00055F8054600F05CFAC4F8B85E204670BDEE
:100FC000000048423ACD933F000070420000F040DC
:100FD0000000013A10B5094C2368DB0701D5084829
:100FE00010BD204601F030F80028F8D00448FFF783
:100FF0008FFF204601F02EF8014810BD7090FF1FB2
:101000007890FF1F2DE9F041D0F8985ED0F868196C
:101010000446284604F036FCD4F86C1904F02AFB88
:1010200004F0F6FDB4F8602994F88C3992B2B43229
:101030005BB25F2717FB0327B7F5B47F1FFA80F871
:101040000ADB7C4A87FB0223FA18FB17C3EB222337
:101050004FF4B47202FB13777749284604F012FC70
:101060000646404604F0BAFB04EB47030546B3F8D6
:101070008E0904F0B3FB314604F004FC294604F069
:10108000F9FA04F0C5FDC4F87009B4F8603994F8B1
:101090008C299BB252B25F2101FB023303F5967398
:1010A000B3F5B47F0ADB634883FB00011944DA1708
:1010B000C2EB21224FF4B47101FB123304EB430362
:1010C000B3F88E0904F08AFB314604F0DBFB2946B5
:1010D00004F0D0FA04F09CFDC4F87809B4F8603943
:1010E00094F88C299BB252B25F2101FB023303F5C5
:1010F000D273B3F5B47F0ADB4E4883FB0001194479
:10110000DA17C2EB21224FF4B47101FB123304EB66
:101110004303B3F88E0904F061FB314604F0B2FBDF
:10112000294604F0A7FA04F073FDC4F87409B4F872
:10113000623994F88D799BB27AB2AA335F2717FB94
:101140000237B7F5B47F0ADB3A4A87FB0223FA1865
:10115000FB17C3EB22234FF4B47202FB137736491B
:10116000D4F89C0E04F08EFB04EB47070646B7F854
:101170008E0904F033FB314604F084FB294604F069
:1011800079FA04F045FDC4F87C09B4F8623994F8A2
:101190008D299BB252B25F2101FB023303F591739B
:1011A000B3F5B47F0ADB234883FB00011944DA1747
:1011B000C2EB21224FF4B47101FB123304EB430361
:1011C000B3F88E0904F00AFB314604F05BFB2946B4
:1011D00004F050FA04F01CFDC4F88409B4F8623934
:1011E00094F88D299BB252B25F2101FB023303F5C3
:1011F000CD73B3F5B47F0ADB0E4883FB00011944BD
:10120000DA17C2EB21224FF4B47101FB123304EB65
:101210004303B3F88E0904F0E1FA314604F032FBDF
:10122000294604F027FA04F0F3FCC4F88009BDE86D
:10123000F08100BFB7600BB60AD7233C38B504462F
:10124000FFF732F91C4A138801339BB2B3F5FA6FEA
:101250001CD81A4D13802978A02926D02046FFF7E4
:10126000D1FE174BD4F87C291A60D4F880299A62F1
:10127000D4F8842943F8082CD4F870291A61D4F8DA
:1012800074291A63D4F878299A6138BDB4F86019C2
:101290000C480A4D89B20023138000F07FFE0948F4
:1012A00000F02CFE2978A029D8D104F65E4001F088
:1012B000A7FF00232B70D1E77690FF1F7490FF1FCC
:1012C000188003405C87FF1FF0B5264C264D274F42
:1012D0002749284E2848294A00234FF0C00E236092
:1012E000C5F800E006253B600D6040F2DC57282180
:1012F000234D3760016013602868224FDFF88CE0CF
:1013000040F2444210432860A5F58055143D3960F1
:10131000B360286806F5983610432860CEF80010B0
:10132000FB60306805F58055183510433060CEF805
:101330003010FB63286810432860CEF81010FB6162
:10134000B0681043B060CEF818107B6255F80C1CE2
:101350000D480A43682145F80C2C0EF1180E036065
:101360002160F0BD0080034084800340748003400E
:1013700054800340088003403C8003404080034089
:1013800018C004400C8003404C800340148003408C
:10139000F8B5154A154BC0F86829C0F86C390446F1
:1013A000FFF764F82046FFF74FF92046FFF78CFF60
:1013B0000121192000F0F0FE0121202000F0ECFEB8
:1013C0000B4B0C4A0C481021196020274FF4805613
:1013D0004FF4803501244FF400311F601E6015600A
:1013E00004601160F8BD00BF0000E0C000803B4415
:1013F00004F00F4044F00F40C4F00F40054A08B518
:10140000136823F080031360FFF7E4FDBDE8084094
:10141000FFF714BF0080034038B50E4A0E490F4D48
:101420000F4C1378002BFCD00B78DB07F9D52B6819
:1014300020681B1A0E2BF4D9FFF7CCFDFFF7A8FF8D
:1014400072B60849084B40204FF0804208701A607D
:1014500062B638BD38A0FF1F50A0FF1F549FFF1F6A
:1014600024A2FF1F3EE400E004E100E0704700BF5B
:1014700038B5124A124B00F1A8050021044600F0CD
:1014800067FA28460F4B104A012100F061FA0F4914
:101490000F4A022384F850310B68C4F8585143F0C6
:1014A0000063C4F86051C4F85441C4F85C410B6057
:1014B000136843F000632046136038BD5066000097
:1014C000A86600004C6600007C6600003C8004407A
:1014D0003080044090F821308B421BD0012970B439
:1014E00019D051B9104A114B11701970036D80F861
:1014F00021105B0103F18443196072B6436D5B01F7
:1015000003F18443012200214276D9619A61DA61B4
:1015100062B670BC7047064D034A044B6026E12456
:101520002E701470E1E700BF014007404000FA420E
:101530000040074038B5437E04460D46DBB9636D75
:10154000012D4FEA431303F184431DD90121042DDA
:10155000996009D9082D23D9102D1AD92022596054
:10156000196084F8202038BD0021042259601960D8
:1015700084F8202038BD00F01BF8636D012D4FEA80
:10158000431303F18443E1D800229A6084F82020B9
:1015900038BD00221A601022596084F8202038BD1E
:1015A000002008221960586084F8202038BD00BF50
:1015B000F8B5436D5B0103F184430446DA6942B137
:1015C00001F022FF636D5B0103F18443DA69002AB5
:1015D000F6D19B6923B1E38A9BB243F00203E38215
:1015E00072B6637E002B36D0E16E236F626F0F6898
:1015F000A06F1B68E16F16680568D4F88020096841
:101600001268206E3B4433442B440B441344C3F311
:101610004E03D4F88850D4F88C10D4F8902043F4BA
:10162000004303602F68D4F894000B681668D4F860
:1016300098100568D4F89C2009681268606E3B44D5
:1016400033442B440B441344C3F34E0343F400438D
:1016500000220360627662B6A37E6BB1022120464F
:1016600000F054F80221204600F0E0F80421204662
:10167000FFF760FF0023A376F8BD00BF38B5C37E37
:101680008B4211D0437E04460D466BBB092D0CD80E
:10169000A36B5B0103F1844300210822D960FF2082
:1016A0009960E276E06138BD38BD0B2D1FD90D2D54
:1016B0000DD8A36B5B0103F1844301229A600020E3
:1016C0000C22D86040F6FF71E276E16138BDA36B71
:1016D0005B0103F1844301211022D9604FF6FF70B2
:1016E0009960E276E06138BDFFF762FFCEE7A36B59
:1016F0005B0103F1844300229A6001200A22D86032
:1017000040F2FF31E276E16138BD00BF90F823304E
:101710008B4258D070B5437E05460C46002B35D120
:10172000A31F032BEA6B17D9520102F18442002058
:10173000D060002C2DD1AB6B94605B0103F184432E
:1017400001221146DA6116460020196058605A617C
:101750009E6185F8234070BDAB6B52015B0103F1C4
:10176000844302F1844201210020062CD16059609B
:1017700019609861586127D0072C2AD0082C0CBF1B
:1017800090609160D86185F8234070BDFFF710FF2D
:10179000C6E7012C0DD0022C29D0032C31D0042C0B
:1017A0003AD0052C18D0EB8A9BB243F00103EB82B0
:1017B00070BDAB6B90605B0103F184432146DC613B
:1017C00026462246C0E770479060D96185F82340DD
:1017D00070BD9160D961BCE7AB6B5B0103F18443E1
:1017E0000126966001463246D8610646ACE7AB6BEF
:1017F00090605B0103F184430126D86101463246C3
:10180000A2E7AB6B5B01012103F184430E469160BB
:101810000146D861324697E7AB6B5B0103F1844325
:10182000012696600146D86102468DE738B5437EB1
:1018300004460D467BB9042D0AD8DFE805F00F1FDA
:101840002F3F0300A36B5B0103F1844300221A6165
:1018500084F8245038BDFFF7ABFEECE7A26BE36BD6
:1018600052015B0103F1844302F184420021012013
:1018700010615960196084F8245038BDA26BE36B85
:1018800052015B0103F1844302F1844201210020F3
:1018900011611960586084F8245038BDA26BE36B65
:1018A00052015B0103F1844302F1844201210020D3
:1018B00011611860596084F8245038BDA26BE36B45
:1018C00052015B0103F1844302F184420121116161
:1018D0005960196084F8245038BD00BFC36B5B01A8
:1018E00003F18443022270B505210026012580F80A
:1018F0002120042280F82420044680F82310C67694
:10190000C66180F820604676C682467580F822500F
:1019100031461D61FFF7DEFD0A21FFF7AFFE2046CD
:10192000A5762021FFF706FE29462046FFF7EEFEAA
:1019300029462046FFF77AFF72B6636D65765B0134
:1019400003F18443DE619D61DD6162B670BD00BF5D
:10195000F8B504468262C362017600294CD04D4B33
:1019600023631C33E3644C4F4C4E4D4D4D484E4960
:101970004E4A67631833A3662033A663E563206489
:101980006164A264C4F884301C371C3644351830B6
:1019900018311832A3F5052327656665A565E0654E
:1019A0002166626618371836103D1C301C311C3217
:1019B0001C3BE76626676567A067E167C4F880207F
:1019C00020312032C4F8A03020373A232036203589
:1019D0002030C4F89400C4F888702046C4F88C60A5
:1019E000C4F89050C4F89810C4F89C2084F8A4302F
:1019F000FFF774FF2046F8BD2D4B23631C33E364CF
:101A00002C4F2D4E2D4D2E482E492F4A67631833EB
:101A1000A3662033A663E56320646164A264C4F80E
:101A200084301C371C364435183018311832A3F571
:101A3000A04327656665A565E0652166626618377F
:101A40001836103D1C301C311C32443BE7662667BB
:101A50006567A067E167C4F8802020312032C4F8B0
:101A6000A03020373923203620352030C4F89400A8
:101A7000C4F888702046C4F88C60C4F89050C4F84C
:101A80009810C4F89C2084F8A430FFF727FF204664
:101A9000F8BD00BF00B00B4004B00B4008B00B40D5
:101AA0000CB00B4010B00B4014B00B4018B00B4002
:101AB00000B0034004B0034008B003400CB0034042
:101AC00010B0034014B0034018B0034010B4047FBA
:101AD0004160022CC26002D010BC00F023B98368C0
:101AE00010BC1847F0B4464B464A186BDC6A0179C3
:101AF0001170454922790A709A6A00790870002AA3
:101B000046D05968C9688A423ED82168CC8B2404E3
:101B100002F1FF3065D4C0F30E00C883C88B80B2D9
:101B2000C882196B0968C88B000452D4C2F30E0036
:101B3000C883C88B002480B212F1FF32C88218BF5C
:101B400001229C62D96A2E4809680D6800F12404BC
:101B5000A54236D00068C46814F0804F0C680D6848
:101B600015BF248824780235013544F000440D6007
:101B70004463196B254B09791970214912B1CA6A5E
:101B800012791A70F0BC7047521A9A620122D9E792
:101B9000586B196805681E4C0A63CC62CC682D68C6
:101BA0001C4E24F080440327B542CC6083F8257096
:101BB0001FD1037F4260022BC2601ED0F0BC00F038
:101BC000B1B8016890F82400CC6840F00040486348
:101BD000CFE7CC8BC2F3080004F47E442043C883D3
:101BE000A7E7CC8BC0F3080004F47E442043C883ED
:101BF00094E72B461146F0BC18478368F0BC1847A1
:101C00002087FF1F1F8000401C8000401B80004079
:101C100000000FFFCD1A000090E80C00F0B41C6823
:101C200059682568164F174E29432160164D1749EC
:101C30001760D66015611160417A154A5C180A3147
:101C400094F8244053F8215002EBC40149680D6018
:101C5000017A5C1803EB8101247ECD6902EBC4019B
:101C600049680D60817A581803EB810390F83000C1
:101C7000596B02EBC002F0BC53681960704700BF9B
:101C800001401F00011000380110007800001F8083
:101C900028670000204A43689A42F0B40FD0827A45
:101CA0001A4492F83020914207D093F830408C4289
:101CB00015D093F831408C422BD0F0BC70470D29E1
:101CC00007D00E29EBD1154C227842F00402227085
:101CD000E5E7124C227822F004022270DFE70024AC
:101CE00021461E685D6836682E4210D00C4D05EB0B
:101CF000C202002756685A18376092F830200C311B
:101D000005EBC20503EB81036A685B6813608472AC
:101D1000D3E701242146E4E7AC660000509FFF1F93
:101D20002867000010B4EFF3108272B6437F33B916
:101D3000017F012907D003290FD00123437702B97E
:101D400062B610BC7047124C2168A1B111494361C1
:101D50000B68836108605861EFE70F4C216881B11F
:101D60000E4943610B688361086058610C4B4FF06A
:101D700080511960E1E7074B416181612060186083
:101D8000DBE7064B4161816120601860EEE700BF30
:101D9000449FFF1F409FFF1F349FFF1F389FFF1F5F
:101DA00004ED00E070B5EFF3108272B60C4C2068C1
:101DB00080B10C4E00254369236073B19D6102B967
:101DC00062B6457783689847EFF3108272B6206851
:101DD0000028F0D102B962B670BD3360EFE700BFF2
:101DE000349FFF1F389FFF1FFFF7DCBF184A30B436
:101DF0001468002C27D0036821688B420ED2CB1ABE
:101E000000218460C1602360E060106002230375DC
:101E100030BC704711688B42144608D3A2685B1A25
:101E20000360002AF6D18260C460A060EEE7D26849
:101E3000C2608460E060C568CB1A0222A86023609B
:101E4000027530BC70478460C4601060DEE700BF7C
:101E50003C9FFF1FF8B5224E34682CB32368002B3B
:101E60003AD1204F1D4604E03468ECB12368002BC2
:101E700032D1A36803B1DD60206933600368257542
:101E80001B68BB4221D1037F4560022BC46020D078
:101E9000FFF748FF6368002BE6D023602046FFF77A
:101EA000A5FF3468002CE1D1EFF3108372B60E4A1F
:101EB00000211068116003B962B628B18468FFF789
:101EC00095FF20460028F9D1F8BD22460021984709
:101ED000E0E783689847DDE7013B2360E4E700BF64
:101EE0003C9FFF1FCD1A00004C9FFF1F024A136842
:101EF00001331360FFF7AEBF549FFF1F00B5064AC2
:101F0000036812885B6883B001A9ADF8042002223F
:101F1000984703B05DF804FB24670000F0B507465E
:101F20008BB0002A33D0012A08BF0A2251B32124E2
:101F300000E0F4B2B1FBF2F502FB1511C8B20929B9
:101F400000F1300198BFC8B20AA988BF37302144D8
:101F500088BFC0B201F8240C661E2946002DE8D1C6
:101F600033B1013CE4B20AAB23442D2203F8242C04
:101F70003B6801AA11195B683846C4F122029847F0
:101F80000BB0F0BD30228DF825202124E8E703684E
:101F9000C9B21B6898470BB0F0BD00BF0029BABF9B
:101FA00049422D2300230A22FFF7B8BF08B5FFF7E7
:101FB00033FAFFF75BFA01F027FAFAE708B5104C9D
:101FC00008E0236859050DD423681A050FD4236847
:101FD000DB0411D423685803F3D500F07BFA23689F
:101FE0005905F1D501F0E4FA23681A05EFD501F09F
:101FF00075FB2368DB04EDD501F006FCEAE700BFC2
:102000003480044008B5FFF7D9FF00BF014B102210
:102010001A80704700200540704700BF094908B585
:102020000B6830B16A461844A2F58052904202D241
:102030000860184608BD03F00BFE0C2303604FF048
:10204000FF3008BD5887FF1F0078B0FA80F04009C4
:10205000704700BF01230370704700BF03F026BE26
:10206000F0B44D1E2E46002400E00134B0FBF2F324
:1020700002FB1300092800F130078ABF3730F8B29D
:10208000C0B206F8010F1846002BEED10A195370A2
:102090004CB1107815F8016F28700133E01A8342B3
:1020A00002F80169F5DB0846F0BC704710B40F4B2D
:1020B00053F8302092F880422CB1012369B182F8A4
:1020C000803010BC704703EBC0035B681A6841B9ED
:1020D00022F002021A6010BC704782F8003110BC76
:1020E000704742F003021A6010BC70472867000076
:1020F0001C4A02EBC00301295B6811D004291BD0E4
:1021000052F83000002280F8802229B1022920D024
:10211000032922D01A6070474FF480721A6070470A
:1021200052F830004FF4A27280F880121A601A68D8
:1021300022F020021A60704752F830104FF4A27259
:10214000012081F880021A601A6842F020021A60A9
:10215000704740F203121A6070474FF481721A60A0
:10216000704700BF2867000030B4054B054D064C92
:10217000002210211A602A602060196030BC70476C
:1021800014D0034004D0034000D00340212801D8DC
:10219000FFF78CBF704700BF212801D8FFF7A8BF09
:1021A000704700BF2DE9F843054672B6204F214B1A
:1021B000214A1B683C68126862B6520102D5322B74
:1021C00088BF013495B3C3F5EA331C4EDFF8649041
:1021D000DFF86480BF334FF47A72A6FB031302FB6F
:1021E00004F404EB931472B6D9F800103A68D8F8E6
:1021F00000E062B6C1F5EA33BF33A6FB03031EF06D
:10220000806FC4EB93134FF47A7002D0322988BFE9
:10221000013200FB0233B3F57A7F04D3013D05D0D0
:1022200004F57A74DFE701F0EFF8DCE7BDE8F88346
:10223000549FFF1F18E000E004ED00E089888888C3
:10224000F8B52D4B2D49DFF8D0E0DFF8D0C02C4E8B
:102250002C4D2D4C2D4A2E4F4FF4000018604FF09E
:10226000807018604FF0007018604FF08060186048
:102270004FF0006018600020086028234EF6FF71C0
:10228000CCF80010CEF80030336013602B60236070
:102290003B60B3629362092245F8242CC4F8D80F3E
:1022A00005F57F65C7F8D41F07F5FF2707F5FA671F
:1022B000C6F8F83F2B6006F5FF26C4F8D42F05F5C5
:1022C000FD2504F5FF24386006F2F47611483160EC
:1022D00005F5FF6504F5FD642B602360026001F0E5
:1022E000E7F81920FFF75EFF00F05CFE40F21310E4
:1022F000BDE8F840FFF756BF08E100E00480034066
:1023000014800340248003402C8003401C80034041
:102310003480034000800B400C8003400880034061
:10232000431E032B14D872B60A4951F8230068B132
:1023300070B4094C058834F81320466841F82360CE
:10234000521B24F8132062B670BC704762B6704707
:1023500000207047B09FFF1F14A2FF1F0138032801
:102360000BD872B6074B53F8203043B100205B689E
:102370000130002BFBD162B6704700207047184631
:10238000F9E700BF04A0FF1F30B472B62B4A1378E0
:102390001D0706D52A4B196A002936D0996A0029EB
:1023A00041D053781C0706D5254B196C00293ED027
:1023B000996C002939D09378190705D5204B196EEF
:1023C000002936D0996E89B1D3781B0707D51C4BED
:1023D000D3F880207AB3D3F8882011213AB162B6BD
:1023E000184B00221A7030BC00F07EBE0D21154C37
:1023F000154D227843F8315003EBC1030830013A00
:102400005860227062B630BC704704220D4C0F4DEC
:10241000217843F8325003EBC20308304A1E58605B
:10242000227062B6EFE70521E1E70921DFE7082224
:10243000ECE70C22EAE71022E8E700BF6068000042
:102440000080FF1F2DA0FF1FC80040008800400033
:10245000431E032B1DD81B4A400140F0100030B42E
:10246000104472B6184CE25C032A1BD8DFE802F075
:102470000212151703220D88E25410F0080F14BF42
:10248000C823882343EA054308310360416062B6EC
:1024900030BC704708300222EDE70522EBE7083038
:1024A0000422E8E7094A52F8230038B1084A52F8F2
:1024B0002300416042F8231062B6E9E742F8231096
:1024C000034AF7E70080FF1F3CA0FF1F04A0FF1F87
:1024D00014A0FF1F2DE9F04FDFF80CB3DFF80CA3B9
:1024E00087B044E0AB4F4FEA930807EBC809013EC1
:1024F000D9F8042003F00803F6B2A2F1080003F0B3
:10250000FF04002B40F0028157F838301B0C99B2C1
:1025100022F8081C002B00F0F0809F4B22F8064C9C
:1025200042F8044C53F82620002A00F0C5829B4D47
:1025300055F8263058609A4C45F8260034F8163085
:10254000194424F8161000F0AFFD002800F0AD8209
:10255000944A954B19F0080F00F1080018BF134674
:10256000C9F8040047F8383008238BF800309BF88E
:102570000040E4B261071AD58C4B1B78A3B18C499B
:102580000A7802F0FF0322B1013BDBB20B7003B902
:1025900000BE88490A7802F0FF032AB1013BDBB292
:1025A0000B70002B00F0578204238BF8003004F0EE
:1025B000080303F0FF02002B00F0CC809AF80030F3
:1025C000DBB21E098ED19C08DFF8C89159F834207F
:1025D00009EBC401C2F38302013A49680C2A00F2F4
:1025E0008880DFE802F07C7C868686868686478641
:1025F000868607000868704D4A68704F704E2860E4
:1026000081B240F28160674B6A604FF0010E002298
:10261000814249F834303A60C9F81020C9F81820CE
:1026200086F800E05B4C00F2E380B1F5D06F80F0FB
:102630004683B1F5817F00F0FC8200F28D82802913
:1026400000F07783822940F0FA82A98801F07F01A7
:10265000042900F2F4825B485B4C89000844227034
:1026600062700278930740F1588484F800E04FF0DC
:10267000020E42E3514F3A6832B3544B504E544924
:10268000188834780D784028864645F0020828BF1F
:102690004FF0400E002C84F001043470CEEB0000AB
:1026A0000CBF8824C82409EBC80680B285F0010558
:1026B00044EA0E447260188049F8384072440D7044
:1026C000002800F045813A603B4B1A88B2F5A06FB4
:1026D0000FD100219A7859703E4B1A7009E0364AA2
:1026E000108842F22102904200F037812D4A49F8C9
:1026F0003420394A0123137036E72A4A2A4B19F04D
:10270000080F18BF134647F838302DE700F0ECFCEF
:10271000324A334952F82630002B00F0D1815868F4
:102720008C5D42F8260003F10802C9F80420032C4E
:1027300005D8DFE804F02C02292602228A551A88DF
:1027400019F0080F0CBF8823C82343EA024347F857
:10275000383009E7E00700F18181210600F1F281BC
:10276000A20706D51F4A204913780220DBB2137056
:102770000870E30602D51C4B10221A7007B0BDE8A2
:10278000F08F04228A55DAE705228A55D7E703221B
:102790008A55D4E70080FF1FB09FFF1F5C9FFF1F7B
:1027A00014A2FF1FC80040008800400038A0FF1F8F
:1027B000C19FFF1F40A0FF1F24A0FF1F589FFF1FA6
:1027C000C09FFF1FC020074030A0FF1F6C9FFF1F4E
:1027D0002CA0FF1F982007409420074004A0FF1F53
:1027E0003CA0FF1F88200740802007409020074022
:1027F00042F22100814200F02A8100F2D880B1F536
:10280000086F00F07682B1F5106F40F01882226AEE
:10281000B349A8780870120600F13A83D9F8282045
:10282000B049130600F10C83D9F83020AD491506E4
:1028300000F10183D9F83820AA49140600F1F68284
:10284000D9F84020A749100600F14A83D9F848205A
:10285000A449120600F13F83D9F85020A14913067C
:1028600000F13483D9F858209E49150600F12983D8
:10287000D9F860209B49140600F11E83D9F868201E
:102880009849100600F11383D9F870209549120673
:1028900000F10883D9F878209249130600F1FD82EF
:1028A000D9F880208F49150600F13183D9F88820A6
:1028B0008C49140600F12583D9F890208949100627
:1028C00000F11983D9F898208649120600F10D838A
:1028D0008548864A864901908648874D874C0497EB
:1028E00000230596029580460F4616461D46039422
:1028F000306828B1446800F0F7FB2046002CF9D17D
:1029000000233360029B38681A46002342F82530C2
:1029100028B1446800F0E8FB2046002CF9D10022E1
:102920003A60019A98F800301146002241F8042BD1
:10293000039A0191023B4FF0000122F81510032B7E
:1029400000F22B81DFE813F07001250170012501F1
:10295000BEF1400F18BF0022B5E6694A0D784878ED
:10296000157050708D78C8789570D07010680D799A
:10297000157186284D7989795571917100F09B8187
:102980006049614E0A78307882F00105002842F0F3
:1029900002020D700CBF8821C82149F8321009EBE2
:1029A000C20280F001000021307051609EE642F2C8
:1029B0002120814240F0CB81544B554C5549A87899
:1029C0001D682560CDF804E0087000200290804664
:1029D000844604464B490D7845F0020E09EBCE03C0
:1029E0000393019B002B039B5C600CBF8824C824CD
:1029F00044EA080385F0010449F83E3032700C7057
:102A0000DFF8E0E0404BDFF8FC80002840F01E815A
:102A1000BCF1400F1BD144F0020C09EBCC03029C2B
:102A2000DFF8C0E05C60002A40F02681020442F03A
:102A300088029DF804304EF83C20044433700D7039
:102A40002346402803D10020334A3B601080334A9C
:102A5000012313704DE600F0B3FCA5E5214B2F4890
:102A600028491A614FF0020E80F800E02C4F0A70DE
:102A70002C49196099602C4E2C4D2D4C9A610D21DA
:102A80003970FF213170DFF8B8E029702270294DCC
:102A9000294A8EF800109F27012406F8047C5D6007
:102AA0000470DA6007B0BDE8F08F244A47F83800B8
:102AB00013780133137057E543F826000E4D3AE5BD
:102AC0008B5D032B00F2F08001A252F823F000BFCF
:102AD00069250000692500008D2B0000872B000070
:102AE00038A0FF1F0080FF1F14A0FF1FB09FFF1F13
:102AF00004A0FF1F3CA0FF1F5C9FFF1F14A2FF1F2D
:102B00001CA2FF1F2CA0FF1FC09FFF1F549FFF1F71
:102B100024A2FF1F50A0FF1F6C9FFF1F942007409F
:102B2000C0200740880040008820074080200740E0
:102B300098200740709FFF1FC49FFF1F2DA0FF1FFD
:102B40008C200740C149C24B80220D2008701A70AA
:102B5000A2077FF50EAE05E640F20232914240F048
:102B6000EE80A98801F07F01042968D86A88002ACC
:102B700065D1B648CDF804E089000844017841F0F9
:102B80000201017021E701238B55EDE400238B55F1
:102B9000EAE44FF0010388F800300135042D06F116
:102BA000040607F1040708F101087FF4A1AEA94C5F
:102BB000A94B2278A94D049F059E002129701A7007
:102BC000130700F105816278A549DFF8A0820A7039
:102BD00010074FF00001C9F83010C9F8381000F1A3
:102BE000E080A049A2780A700021C9F85010C9F805
:102BF00058101107DFF8748200F10181E2789A49D8
:102C00009A4C0A7000211207C9F87010C9F87810A0
:102C100000F1B08033780193002183F00102C9F8FC
:102C20009010C9F89810D0E64FF0000388F80030F3
:102C3000B3E7A98801F07F01042940F28D80834A1F
:102C40000F2313708A4A0123137052E540287FF640
:102C5000E2AE44F002040EEBC401029E4E60BAB133
:102C60009DF80410834A19703346403888F80050A4
:102C700040334EF83420E7E69DF804303370020408
:102C8000029B0D7042F0C80203444EF83C20D8E687
:102C90009DF804101970029B774A88F8005040385C
:102CA00040334EF83420CFE619F0080F0CBF022352
:102CB00003238B5558E4714A0F21117060E6704A66
:102CC0005468002CBBD06888B5F804E003E00C32EF
:102CD0005468002CB3D013888342F8D153887345CD
:102CE000F5D1000A03280CBF94F800E0B2F808E020
:102CF00003E0644A644C12782270E888704580F0E2
:102D00003F8162490D784028844645F0020E28BF75
:102D10004FF0400C04EB0C0309EBCE0202930123AD
:102D20005460CCEB00004FEA0C4800220193C82409
:102D30005EE6554C4FF0020E22706270DDE7B1F591
:102D4000A06F7FF47CAF0123002201933DE642F2A5
:102D500021329142F7D072E76A88002A7FF46FAF80
:102D60003A48CDF804E089000844017821F00201D6
:102D700001702AE600F098F9002800F0EF80083092
:102D80003D4AC4F88400C4F8802000F08DF9002882
:102D900000F0DE800830374AC9F88C00C9F8882076
:102DA00038E700F081F9002800F0C0800830324A8E
:102DB000C8F84400C8F8402000F076F9002800F078
:102DC000AF8008302B4AC9F84C00C9F8482008E702
:102DD00000F06AF9002800F0CD800830264AC9F8D2
:102DE0002400C9F8202000F05FF9002800F0BC8022
:102DF0000830204AC9F82C00C9F82820E3E600F082
:102E000053F9002800F09E8008301B4AC8F864007F
:102E1000C8F8602000F048F9002800F08D800830E4
:102E2000144AC9F86C00C9F86820E7E6C86B08388E
:102E300000F05AF904E5486B083800F055F9F9E458
:102E4000C86A083800F050F9EEE400BFC02007401F
:102E50008020074060680000C42007402DA0FF1FAD
:102E6000C8200740CC200740D02007400080FF1F2B
:102E700094200740C800400088004000C19FFF1F09
:102E80006468000038A0FF1F30A0FF1F2CA0FF1FA8
:102E9000606A083800F028F9C0E4C86F083800F00C
:102EA00023F9FDE4486F083800F01EF9F2E4C86E1B
:102EB000083800F019F9E7E4486E083800F014F912
:102EC000DCE4C86D083800F00FF9D1E4486D08382B
:102ED00000F00AF9C6E4C86C083800F005F9BBE454
:102EE000486C083800F000F9B0E4D1F89C000838CC
:102EF00000F0FAF8ECE4D1F89400083800F0F4F8A7
:102F0000E0E4D1F88C00083800F0EEF8D4E4D1F811
:102F10008400083800F0E8F8C8E44FF0020EECE650
:102F20002A78C9F8480001322A705AE62A78C8F887
:102F3000400001322A703FE72A78C9F86800013260
:102F40002A705BE62A78C8F8600001322A7061E7CF
:102F50002A78C9F8880001322A705BE62A78C4F81A
:102F6000800001322A7010E72A78C9F8280001325F
:102F70002A7028E62A78C9F8200001322A7032E740
:102F8000BEF1400FF44628BF4FF0400C04EB0C0399
:102F900002930123CCEB0E004FEA0C480022019370
:102FA00018E500BFF8B500F09BFC294B29482A4CD6
:102FB0002A4F2B4DDFF8BCC0DFF8BCE0294E0022C1
:102FC0001A605A609A60DA601A615A619A61DA612D
:102FD0001A625A629A62DA621A635A639A63DA630D
:102FE0001A645A649A64DA641A655A659A65DA65ED
:102FF0001A665A669A66DA661A675A679A67DA67CD
:10300000C3F880200168C3F8842041F48021016066
:10301000C3F307212170C3F30740134938701B0E17
:103020002B70FF238CF80030104D8EF800301048C4
:103030000B700123337084F8642070264FF4007401
:10304000102207F82C3C2E70046081F8F820F8BD9F
:103050000080FF1F348004409C200740B0200740C0
:10306000B4200740942007401020074049E400E0C6
:1030700008E100E0802007408820074000F0A4B865
:1030800000F07CB800F056B800F090B800F06CB9D1
:1030900000F046B90846114600F0B2B8084600F004
:1030A00033B900BF704700BF72B60D480268B2FA6C
:1030B00082F30B2B10DC4FF00041D94022EA0102D1
:1030C000026062B6074803EBC303DB00C2180021AD
:1030D000C15010465160704762B60020704700BF73
:1030E0006C87FF1FBC83FF1F0D4B0E4AC31AA2FB48
:1030F00003231B090B2B0CD80B4A127852B972B65A
:103100000A484FF00041026821FA03F31A430260B3
:1031100062B67047064A1278002AF0D0FFF734B939
:10312000BC83FF1F398EE3382DA0FF1F6C87FF1F64
:1031300038A0FF1F38B50F4D286878B14388028842
:10314000C118013393420C7A02D24380204638BD25
:10315000FFF7CAFF002320462B6038BD064B1B78C3
:103160002BB10320FFF7DCF828600028E6D14FF0F0
:10317000FF3038BD4CA0FF1F38A0FF1F10B5094C11
:10318000206818B143881844007A10BD064B1B789C
:103190002BB10320FFF7C4F820600028F2D14FF0D4
:1031A000FF3010BD4CA0FF1F38A0FF1F044B054A85
:1031B0001B6890881BB11A885B88D31A1844704723
:1031C0004CA0FF1F14A2FF1F0B4B1B789BB110B527
:1031D0000A4C206848B1FFF787FF002303202360D3
:1031E000FFF79EF830B1FFF77FFF0320FFF798F855
:1031F0000028F8D110BD704738A0FF1F4CA0FF1F5A
:103200002DE9F04FDFF8F89083B0012289F8002013
:10321000019169B3DFF8EC80364F019E8346D8F800
:103220000000B0B3344D4488C4F14001B14228BF1E
:10323000314604EB010E00221FFA8EFE2A70761A28
:10324000A0F802E000F1080251B1013C22445944C7
:103250001BF8014B02F8014F8B45F9D1B0F802E0A1
:10326000BEF13F0F0BD8254A05211170002ED6D193
:103270000198002389F8003003B0BDE8F08F4022A8
:10328000028001460420FFF7E3F80022C8F800207E
:10329000E9E73A782AB3184D4DF2E9044FF0010AF4
:1032A00007E0013C16D02A78A2B900F0ADF83A78D0
:1032B000BAB10420FFF752F80728F2D889F800A025
:1032C000FFF7F2FEC8F800000028ACD10C4B013C1F
:1032D0001870E8D101234FF0FF302B7003B0BDE828
:1032E000F08F00234FF0FF3089F8003003B0BDE8C5
:1032F000F08F00BF38A0FF1F48A0FF1F40A0FF1F96
:1033000041A0FF1F44A0FF1F00B583B002AB012105
:1033100003F8010D1846FFF773FF03B05DF804FBD7
:1033200038B50E4D0E4C28680123237028B1408813
:1033300000232370C0F1400038BD0A4B1B7813B93D
:103340000020207038BD0420FFF708F80728F7D8C0
:10335000FFF7AAFE28600028E9D1F1E744A0FF1F8B
:1033600041A0FF1F38A0FF1FF8B5114B1B788BB190
:10337000104E114D346801272F7064B10F4A6388D5
:1033800000271770214623800420FFF761F837607B
:1033900000232B70F8BDFFF787FE084B28B10146CC
:1033A00004201C70FFF754F8F2E71F70F0E700BF2D
:1033B00038A0FF1F44A0FF1F41A0FF1F40A0FF1F18
:1033C00038B50E4B1B7873B90D4C216861B103F011
:1033D000FF054B880B800420FFF73AF8256038BDC5
:1033E000084B01221A7038BDFFF75EFE0028F7D0A7
:1033F0000146BDE838400420FFF72AB841A0FF1F6E
:1034000044A0FF1F40A0FF1F38B5224C237803B112
:1034100038BD01232370FFF7C9FE70BB00F0B8F878
:1034200040BB00F04BF910BB00F0DEF9E0B900231F
:103430002370EFF30583002BEAD1EFF3108172B60E
:10344000154B1868E0B1154C2278CAB945691D6062
:1034500001232370C5B1AA6101B962B60025457781
:10346000836898472570D3E700F020F8DFE700F085
:103470001BF8D9E700F016F8D3E7FFF713FECDE706
:103480000029C5D162B638BD054B1D600029E5D1C4
:10349000E3E700BF51A0FF1F449FFF1F489FFF1F8E
:1034A000409FFF1F704700BF704700BF704700BFBD
:1034B00030B42948294A2A4B2A4D6024E12104705E
:1034C00011701B78284C082B30D00A2B274828492C
:1034D00037D00C2B0CBF35225D2212232A602360CB
:1034E00002600B60234B24491B78244ABBB10123A3
:1034F0000B601360224B23491B78234A012B26D9EA
:10350000042B0FD9082B1ED9102B94BF8623872399
:103510000B6013601D4B01221A7030BC70470B60AA
:103520001360E7E784230B601360F3E700F58E2058
:103530000F490830212213232A60236002600B60A8
:10354000D0E73922F7E785230B601360E2E7802399
:103550000B601360DEE700BF0040074001400740FA
:103560007087FF1F08B003400CB0034008B00B4049
:103570000CB00B4053A0FF1F20B0034020B00B4005
:103580007187FF1F24B0034024B00B4052A0FF1FDF
:10359000054A064B10781B78C0B2DBB2984238BFA0
:1035A0004030C01A704700BF58A0FF1F59A0FF1F2E
:1035B000F0B4384B1A7912F0300F2CD072B6997DD6
:1035C00001F0FF0200293DD062B6334F334938780D
:1035D0000D78334E1C46C0B2EDB2431C402BE1794E
:1035E00028BF0023AB4202F1FF32C9B21CBFF15425
:1035F000184612F0FF02F0D12A4B1B68C2B23A7093
:103600004BB1A84236BFC5F14005401B40192728E1
:10361000C4BF01221A701F49CA78D2B2150616D447
:1036200052060DD51B4B1B795B0609D51E4B1F4956
:103630001B6800220A7003B11A70164B3C22DA7024
:10364000F0BC70474022D9795A7462B6E3E70B792F
:103650001C06E5D5164B174E1C783378E4B2DBB266
:103660009C420ED0144D01E0A3420AD00133402BFE
:1036700028BF00230879E85CC0B2C871087D07281C
:10368000F2D9DBB2034933700B79180644BF7C23AF
:10369000CB70C5E700A0064058A0FF1F59A0FF1F30
:1036A0009CA0FF1F54A0FF1FE0A0FF1FDCA0FF1F76
:1036B000E4A0FF1FDDA0FF1F5CA0FF1F054A064B13
:1036C00010781B78C0B2DBB2984238BF4030C01AC5
:1036D000704700BF58A1FF1FEDA0FF1FF0B4384B8B
:1036E0001A7912F0300F2CD072B6997D01F0FF02DA
:1036F00000293DD062B6334F334938780D78334EC8
:103700001C46C0B2EDB2431C402BE17928BF002318
:10371000AB4202F1FF32C9B21CBFF154184612F09D
:10372000FF02F0D12A4B1B68C2B23A704BB1A842DB
:1037300036BFC5F14005401B40192728C4BF0122F0
:103740001A701F49CA78D2B2150616D452060DD582
:103750001B4B1B795B0609D51E4B1F491B680022BA
:103760000A7003B11A70164B3C22DA70F0BC704735
:103770004022D9795A7462B6E3E70B791C06E5D585
:10378000164B174E1C783378E4B2DBB29C420ED055
:10379000144D01E0A3420AD00133282B28BF002397
:1037A0000879E85CC0B2C871087D0728F2D9DBB29D
:1037B000034933700B79180644BF7C23CB70C5E7EF
:1037C00000B0064058A1FF1FEDA0FF1F18A1FF1F6A
:1037D000E8A0FF1F5CA1FF1FECA0FF1F60A1FF1F5F
:1037E00059A1FF1FF0A0FF1F054A064B10781B7858
:1037F000C0B2DBB2984238BF4030C01A704700BF39
:1038000068A1FF1F69A1FF1F30B42B4B1A799406E2
:103810001FD52A48DA790378294901333F2B0978E3
:10382000C8BF00238B42D2B203D0264CD9B2E25497
:103830000170254A116861B1244A1278D2B29342CC
:1038400036BFC2F140029B1A9B18272BC4BF01232D
:103850000B70194AD378DBB2180611D45A060DD56D
:10386000154B1B795B0609D5194B1A491B680022B9
:103870000A7003B11A70104B2C22DA7030BC7047FA
:1038800011790906EAD5144910480C780178C9B2B3
:103890008C420DD04A1C272A84BF00210A460F4DB6
:1038A000054C98BFD1B2AA5CD2B2E2710170D5E7E3
:1038B0006C21D170D2E700BF00C0064068A1FF1F95
:1038C00069A1FF1F94A1FF1F64A1FF1FD5A1FF1FC6
:1038D000D8A1FF1FD4A1FF1FDCA1FF1F6CA1FF1FF8
:1038E00070B584B072B6194B194D1A487022412632
:1038F0000F2480211A702E701A46047019701378E4
:103900001B06FCD5144B186862B6144B144C984235
:1039100098BF00EB800001A998BF40000A22FEF783
:103920009FFB01A92046002311F8012B01333AB176
:103930000A2B20F8022FF7D11623237004B070BD94
:103940005B00DBB2237004B070BD00BF000002401A
:103950000700024006000240080002407F969800DF
:103960000088FF1F30B5224A21F00043934287B000
:103970001BDD204A934205DD02460B4601F08EF91D
:1039800007B030BD02AA00F07BF800F00303012B62
:103990001AD0022B0FD01BB30124DDE90423DDE98B
:1039A0000201009400F0ACFFEAE70022002300F0DF
:1039B0008BFA07B030BDDDE90423DDE9020100F038
:1039C00083FA01F10041DBE7DDE904450093DDE91D
:1039D000020122462B4600F093FF01F10041CFE7A0
:1039E000DDE90423DDE9020100F06EFAC8E700BF5B
:1039F000FB21E93FFFFFEF7F30B51F4A21F0004375
:103A0000934287B01BDD1D4A934205DD02460B46FB
:103A100001F044F907B030BD02AA00F031F800F01F
:103A200003000128DDE904231AD002280FD0E0B1F9
:103A3000DDE9020100F048FA01F10041EAE7002364
:103A400000930022002300F05BFF07B030BD01248B
:103A5000DDE90201009400F053FF01F10041D9E7D4
:103A6000DDE9020100F030FAD4E70124DDE90201CA
:103A7000009400F045FFCDE7FB21E93FFFFFEF7F1A
:103A80002DE9F04F944E21F00047B74291B040F33A
:103A900082809246914A97420C4626DC002984A3F4
:103AA000D3E9002340F3A88101F0F8F88C4B9F4242
:103AB00004460D4600F084807FA3D3E9002301F083
:103AC000EDF802460B46CAE900232046294601F0DC
:103AD000E5F879A3D3E9002301F0E0F80125CAE96C
:103AE0000201284611B0BDE8F08F7E4A974240F3AC
:103AF00084807D4A974259DC3D15A5F21645A7EB17
:103B0000055319461F46064601F016FD01F014FA4A
:103B10008046894602460B4630463946CDE90A8939
:103B200001F0BCF80022714B01F06CFA8946804626
:103B300001F002FD01F000FA02460B4606460F4670
:103B400040464946CDE90C6701F0A8F80022674BD2
:103B500001F058FA00220023CDE90E0101F0BAFC71
:103B6000002800F07581002330463946002201F01C
:103B7000B1FC002814BF012302235D4A01920221F7
:103B800000912A4651460AA800F0C2FA002CC0F261
:103B90005181054606E0C2E9000100250024C2E982
:103BA00002450025284611B0BDE8F08F02460B46BD
:103BB00001F074F80025CAE90201CAE90001F1E741
:103BC0003FA3D3E9002301F069F83FA3D3E9002321
:103BD0000D46044601F062F802460B46CAE900238E
:103BE0002946204601F05AF837A3D3E9002301F013
:103BF00055F80125CAE90201D4E700F037FF34A3E4
:103C0000D3E900238046894601F0FCF90022394BB4
:103C100001F046F801F090FC054601F08DF924A36F
:103C2000D3E90023CDE9040101F0ECF902460B468B
:103C30004046494601F032F81FA3D3E900238046ED
:103C40008946DDE9040101F0DDF91F2DCDE902010E
:103C500054DC294B6A1E53F822309F424ED0024654
:103C60000B464046494601F019F802460B46CAE9A0
:103C7000002383460E465A4633464046494601F0E5
:103C80000DF8DDE9022301F009F8002C02460B468D
:103C9000CAE9022386DA5B4606F1004601F10041DB
:103CA0008AE84800CAF80C10CAF808006D4279E7A3
:103CB00000004054FB21F93F3163621A61B4D03DEA
:103CC0000000601A61B4D03D7370032E8A19A33BC3
:103CD00083C8C96D305FE43FFB21E93F7BD90240D7
:103CE000FB21F93FFB213941FFFFEF7F00007041CD
:103CF000386900000000E03FB8680000DDE90223F9
:103D00004046494600F0CAFF3A15C1F30A53D31A98
:103D1000102B83460E460992CAE90001ABDD5EA373
:103D2000D3E90023DDE9040101F06CF906460F46F2
:103D300002460B464046494600F0B0FFCDE9060179
:103D400002460B464046494600F0A8FF32463B4635
:103D500000F0A4FF52A3D3E9002306460F46DDE995
:103D6000040101F04FF932463B4600F097FFDDE9D0
:103D70000689CDE9020102460B464046494600F05D
:103D80008DFF0B46C1F30A570E460999CF1B024619
:103D9000312F8346CAE900237ADD43A3D3E9002308
:103DA000DDE9040101F02EF906460F4602460B46F6
:103DB00040464946CDE9068900F070FF02460B46B1
:103DC00080468946DDE9060100F068FF32463B4641
:103DD00000F064FF36A3D3E9002306460F46DDE971
:103DE000040101F00FF932463B4600F057FF02464E
:103DF0000B46CDE9022334E700F052FF304B9F42DF
:103E000004460D4626D02CA3D3E9002300F048FF3A
:103E100002460B46CAE900232946204600F03EFF31
:103E200025A3D3E9002300F03BFF4FF0FF35CAE99B
:103E30000201B7E6DAF80420DAF80C3002F10042A9
:103E400003F100434542CAF80420CAF80C30A9E641
:103E5000032392E610A3D3E9002300F021FF10A36F
:103E6000D3E900230D46044600F01AFF02460B4634
:103E7000CAE900232946204600F010FF08A3D3E931
:103E8000002300F00DFF4FF0FF35CAE9020189E67B
:103E9000DDE90689EFE600BF0000601A61B4D03D9D
:103EA0007370032E8A19A33B0000002E8A19A33BCE
:103EB000C14920259A837B393163621A61B4D03DB0
:103EC000FB21F93FFFFFFFFF2DE9F04F21F00046F6
:103ED000B6F1795F85B00C4692469B4605466BDA93
:103EE00001F02AFB002800F0E8802A4623462846F5
:103EF000214601F087F874A3D3E900238046894660
:103F000001F080F872A3D3E9002300F0C9FE424615
:103F10004B4601F077F870A3D3E9002300F0BEFE12
:103F200042464B4601F06EF86DA3D3E9002300F042
:103F3000B7FE42464B4601F065F86BA3D3E9002378
:103F400000F0ACFE42464B4601F05CF868A3D3E9B2
:103F5000002300F0A5FE42464B4601F053F8CDE9A0
:103F600000010022644B4046494601F04BF8DDE970
:103F7000002306460F464046494601F043F85246A4
:103F8000804689465B462846214601F03BF80246BA
:103F90000B464046494600F081FE02460B4630463D
:103FA000394600F07BFE02460B460020534900F0E4
:103FB00075FE05B0BDE8F08F02460B4601F022F811
:103FC00041A3D3E900238046894601F01BF840A3B2
:103FD000D3E9002300F064FE42464B4601F012F89C
:103FE0003DA3D3E9002300F059FE42464B4601F0C1
:103FF00009F83BA3D3E9002300F052FE42464B46AA
:1040000001F000F838A3D3E9002300F047FE424650
:104010004B4600F0F7FF36A3D3E9002300F040FE43
:104020004B46424600F0EEFF354B9E42CDE9000183
:1040300097DD344B9E424FF0000238DCA6F50013AA
:1040400000202E4916461F4600F028FECDE9020149
:104050000022294B4046494600F0D4FF32463B46F9
:1040600000F01CFEDDE9002306460F4640464946A7
:1040700000F0C8FF5246804689465B4628462146E6
:1040800000F0C0FF02460B464046494600F006FEDF
:1040900002460B463046394600F000FE02460B460B
:1040A000DDE9020100F0FAFD05B0BDE8F08F164B26
:1040B000164FCDE902230026CAE71049002005B0BB
:1040C000BDE8F08FAFF30080D43888BEE9FAA8BD10
:1040D000C4B1B4BD9EEE213EAD529C804F7E923E57
:1040E0009015CB19A001FA3E7751C1166CC1563F0D
:1040F0004C5555555555A53F0000E03F0000F03F99
:104100003233D33F0000E93F0000E73F0000D23FD9
:104110002DE9F04FADF51D7D784CA69E784D54F8F5
:10412000264009942646D41E85FB0475E417C4EB8B
:10413000A50424EAE4741D460B93631CA3EB8303DC
:10414000013D02EBC30308932B460D940295651BBA
:10415000F41804900A9116D42C44013422AEA79F7F
:1041600008E057F8250000F0E7FE0135A542E6E932
:10417000020108D0002DF4DA013500200021A5420B
:10418000E6E90201F6D1099B002B2FDB099BDDF844
:10419000089074AA02EBC30B0DF5E47A029B002B86
:1041A000C0F295810B9BC3EB090824AB03EBC80855
:1041B000049BA3F1080524AB03EBC90400260027E8
:1041C000F5E9022374E8020100F01CFF02460B46E9
:1041D0003046394600F064FD444506460F46EFD1AF
:1041E000EAE90267DA4509F10109D7D1099D05F12C
:1041F0008043023B9B001A1D10A90A440B440F92F6
:104200000E939CAB03EBC503002D53E928672BDD10
:104210009CAB03EBC504A83C0DF13C0A0DF5E47B17
:104220000022384B3046394600F0ECFE01F084F9AC
:1042300000F082FE0022344B8046894600F0E2FE08
:1042400002460B463046394600F028FD01F074F96D
:1042500074E802234AF8040F4946404600F020FD66
:104260005C4506460F46DBD1089C3046394622465F
:1042700000F08AFC00224FF07F5306460F4600F004
:10428000C1FE00F0F9FB0022204B00F0BBFE02460D
:104290000B463046394600F001FD0F46064601F058
:1042A0004BF9814600F048FE02460B46304639463F
:1042B00000F0F4FC002C06460F4640F3EF80691E28
:1042C00010AAC4F1180352F8212042FA03F000FAB0
:1042D00003F3D31A10AAC4F1170842F8213081441D
:1042E00043FA08F8B8F1000F3DDD002D09F101098E
:1042F00040F3D482002214460FA911E0406A000066
:10430000ABAAAA2A0000703E0000704100002040C5
:10431000C3F180700BB108600124013295420DDDBC
:1043200051F8043F002CF3D0C3F1FF13013203F521
:104330007F4395420B604FF00104F1DC089B002B9A
:104340000DDD012B00F0B280022B08D16A1E10ABEC
:1043500010A953F82230C3F3150341F82230B8F105
:10436000020F00F08280002200233046394601F01F
:10437000B1F8002800F05C82099B05F1FF3B5B452A
:1043800010DC05F1804310AA013B0F9802EB830378
:10439000002253F80419834242EA0102F9D1002AAB
:1043A00040F0B280099B10AA013B52F82330002B49
:1043B00040F072820E9A012352F804190133002949
:1043C000FAD0E9186A1C8A420C9149DC0D990B98C5
:1043D0005118DB0001F180410593A79B0544013989
:1043E000E80003EB810A24ABD20003EB000B74ABB3
:1043F00013440193A2F10803069007934FF00009BC
:104400005AF8040F00F098FD029B002BEBE8020124
:1044100028DB069B03EB0904079B09EB030824AB8D
:104420001C449844049B0026A3F108050027F5E9E5
:10443000022374E8020100F0E5FD02460B46304617
:10444000394600F02DFC444506460F46EFD1019B4E
:10445000E3E802670193059B09F108099945CFD16B
:104460000C9DCEE600260027F1E732463B460020B1
:10447000AF4900F013FC06460F46002C3FF473AF23
:10448000089AAB49002000F07FFB02460B463046FD
:10449000394600F003FC06460F4664E710D16B1E58
:1044A00010AA52F823304FEAE3581BE76A1E10ABFC
:1044B00010A953F82230C3F3160341F822304EE717
:1044C00000229C4B01F024F858B980464BE70026A7
:1044D0000027EAE90267DA4509F101097FF45EAED7
:1044E00084E6002D09F10109C8BF4FF002083FF72B
:1044F00001AF32463B4600208D4900F0CFFB4FF024
:10450000020806460F462EE710AB089A53F82B30E8
:10451000CDF81490183ACDF8048008926BB90BF1DD
:104520008043013B10A901EB830353F804190BF1FD
:10453000FF3B183A0029F8D00892089A7C490020DD
:1045400000F022FBBBF1000F04460D46C0F2B6811D
:104550004FEACB030DF5E87810AA02EB8B0608EBC7
:1045600003090493043609F1080756F8040D00F016
:10457000E3FC22462B4600F045FD002267E90201DC
:104580006D4B2046294600F03DFDB84504460D46DA
:10459000EBD10DF5987A4B46CDF808A0DDF824A0B4
:1045A000CDF818B04FF000099B46BAF1000FC0F2E9
:1045B0002881DFF888815D465BA3D3E900230026CC
:1045C0000027002403E0A14510DBF8E90223F5E809
:1045D000020100F017FD02460B463046394600F056
:1045E0005FFB0134A24506460F46ECDA029B03EB63
:1045F000C903ABF1080BC3E9006772AB5B4509F176
:104600000109D2D1A69BDDF818B0DDF808A0032B74
:1046100000F28380DFE813F0D300940094000400DC
:10462000BBF1000F40F35481049BCDF808B00AEBB6
:104630000308D8E90067D34658E9029A32463B4658
:104640004846514600F02CFB04460D4602460B46F8
:104650004846514600F022FB32463B4600F020FB24
:10466000C8E9000168E90245C34526462F46E3D163
:10467000DA46DDF808B0BBF1010F40F32981049B55
:104680005344D3E90067984699460DF59C7B59E958
:1046900002343046CDE902341A463946234600F04A
:1046A000FFFA04460D4602460B46DDE9020100F022
:1046B000F5FA32463B4600F0F3FAC9E9000169E930
:1046C0000245CB4526462F46E1D1002308F10808D4
:1046D0001D4650AC1846294678E9022300F0E0FA5E
:1046E000444503460D46F5D1019A002A00F0D880D2
:1046F0000A9FDAF80440DAF80C20DAF80010DAF849
:1047000008003B6105F1004504F1004402F100435B
:104710007D617C60FB603960B860059B03F0070039
:104720000DF51D7DBDE8F08F00000040FB21F93F35
:104730000000F03F0000E03F0000703E506A0000C3
:10474000049C00260834544433463046194674E924
:10475000022300F0A5FA544506460B46F5D1019A0E
:1047600030461946002A4FD00A9803F100443246D9
:1047700044600660DAE9000100F090FABBF1000F36
:1047800002460B460DDD012410461946FAE90223C4
:1047900000F086FA0134A34502460B46F4DA01998B
:1047A00009B103F1004319460A9B1046C3E902010F
:1047B000059B03F007000DF51D7DBDE8F08F049B00
:1047C000002208339A441346104619467AE9022318
:1047D00000F066FA0BF1FF3BBBF1FF3F02460B46D0
:1047E000F2D1019909B103F1004319460A9B104621
:1047F000C3E90001059B03F007000DF51D7DBDE831
:10480000F08F00260027F1E60A9B3246C3E900013B
:104810000B46DAE9000100F041FABBF1000F024655
:104820000B46B0DC19460A9B1046C3E90201BFE7FC
:10483000089BCDF814905A4230463946CDF8048092
:1048400000F0A2F900222C4B06460F4600F060FE55
:10485000002840D00022294B3046394600F0D2FBD8
:1048600000F06AFE044600F067FB0022224B00F0D5
:10487000C9FB0B4602463946304600F00FFA00F0FD
:104880005BFE089B183305F1010B089310AB43F84E
:10489000250043F82B4050E6012392E500244DE526
:1048A00018462946DAE90023DAE902450A9FC7E9F2
:1048B0000401C7E90023C7E902452EE7A69B032BA5
:1048C0003FF62BAFDFE803F0151010020DF5987AD4
:1048D00000231D4608E73046394600F02DFE10AB98
:1048E000AB4643F8250028E6002633460DF5987AB6
:1048F00035E70022134674E7000070410000703E67
:104900002DE9F04F21F00046B6F1795F85B00C46F5
:1049100090469946054604DA00F00EFE002800F0A5
:1049200085802A4623462846214600F06BFB064632
:104930000F4602460B462846214600F063FB3EA385
:10494000D3E9002382468B463046394600F05AFBB5
:104950003BA3D3E9002300F0A1F932463B4600F027
:1049600051FB39A3D3E9002300F09AF932463B46C4
:1049700000F048FB36A3D3E9002300F08FF932465C
:104980003B4600F03FFB34A3D3E9002300F088F955
:104990000E9BCDE900019BB30022334B40464946B4
:1049A00000F030FBDDE90023CDE902015046594615
:1049B00000F028FB02460B46DDE9020100F06EF92B
:1049C00032463B4600F01EFB42464B4600F066F97D
:1049D00023A3D3E9002306460F465046594600F06C
:1049E00011FB02460B463046394600F059F90246A3
:1049F0000B462846214600F051F905B0BDE8F08F7E
:104A000002460B463046394600F0FCFA14A3D3E9BF
:104A1000002300F043F952465B4600F0F3FA2A46C1
:104A2000234600F03DF905B0BDE8F08F2846214649
:104A300005B0BDE8F08F00BF7CD5CF5A3AD9E53D2F
:104A4000EB9C2B8AE6E55A3E7DFEB157E31DC73E3F
:104A5000D561C119A0012A3FA6F810111111813F9B
:104A6000495555555555C53F0000E03F21F00041DF
:104A7000704700BFFFFFFFFFC1F30A522DE9F84363
:104A8000A2F2FF36132E0B460D4604468846074613
:104A90001CDC002E3FDB3A4A42FA06F901EA090221
:104AA0000243864617D034A3D3E9002300F0F8F878
:104AB0000022002300F036FD20B1002D40DB28EA63
:104AC0000905002738462946BDE8F883332E06DD60
:104AD000B6F5806F2FD020461946BDE8F883A2F2C4
:104AE00013424FF0FF3929FA02F910EA090FF2D008
:104AF00021A3D3E9002300F0D3F80022002300F023
:104B000011FD0028DED0002D20DB454627EA0907ED
:104B100038462946D8E718A3D3E9002300F0C0F8A7
:104B20000022002300F0FEFC0028CBD0002D18DB73
:104B300000273D46C6E702460B4600F0B1F8CCE739
:104B40004FF4801343FA06F6B044B8E7142E10D0A1
:104B50000123C6F1340603FA06F6371928BF984434
:104B6000D3E725F00042074B224318BF1D4600271C
:104B7000A8E705F10108C8E79C7500883CE4377E8A
:104B8000FFFF0F000000F0BFF8B5C1F30A5604465E
:104B90000D460B46174606BB21F00043034325D0C4
:104BA0000022354B00F02EFA344A974204460D4657
:104BB0000B462ADBC1F30A56363E3E4440F2FE72F3
:104BC000964228DC002E12DD23F0FF4323F4E0039D
:104BD00043EA065520462946F8BD40F2FF72964248
:104BE000EBD102460B4600F05BF8F8BDF8BD16F1BC
:104BF000350F1DDA4CF250339F4222462B4625DCFE
:104C000019A1D1E9000100F03DF817A3D3E9002371
:104C100000F0F8F9F8BD22462B4615A1D1E90001B4
:104C200000F030F812A3D3E9002300F0EBF9F8BD4F
:104C300023F0FF4323F4E003363643EA06552046CB
:104C4000294600220E4B00F0DDF9F8BD08A1D1E99C
:104C5000000100F017F806A3D3E9002300F0D2F911
:104C6000F8BD00BFAFF3008059F3F8C21F6EA50175
:104C70009C7500883CE4377E00005043B03CFFFF49
:104C80000000903C03F0004321F0004242EA03019F
:104C9000704700BF81F0004102E000BF83F0004395
:104CA00030B54FEA41044FEA430594EA050F08BFC7
:104CB00090EA020F1FBF54EA000C55EA020C7FEA8B
:104CC000645C7FEA655C00F0E2804FEA5454D4EB08
:104CD0005555B8BF6D420CDD2C4480EA020281EAD2
:104CE000030382EA000083EA010180EA020281EA0A
:104CF0000303362D88BF30BD11F0004F4FEA01315C
:104D00004FF4801C4CEA113102D0404261EB41016A
:104D100013F0004F4FEA03334CEA133302D05242F0
:104D200063EB430394EA050F00F0A780A4F10104AC
:104D3000D5F1200E0DDB02FA0EFC22FA05F28018E6
:104D400041F1000103FA0EF2801843FA05F35941CC
:104D50000EE0A5F120050EF1200E012A03FA0EFC4B
:104D600028BF4CF0020C43FA05F3C01851EBE37175
:104D700001F0004507D54FF0000EDCF1000C7EEB92
:104D800000006EEB0101B1F5801F1BD3B1F5001FD0
:104D90000CD349085FEA30004FEA3C0C04F10104EF
:104DA0004FEA445212F5800F80F09A80BCF1004F18
:104DB00008BF5FEA500C50F1000041EB045141EA9A
:104DC000050130BD5FEA4C0C404141EB010111F49B
:104DD000801FA4F10104E9D191F0000F04BF014646
:104DE0000020B1FA81F308BF2033A3F10B03B3F124
:104DF00020020CDA0C3208DD02F1140CC2F10C02B4
:104E000001FA0CF021FA02F10CE002F11402D8BF11
:104E1000C2F1200C01FA02F120FA0CFCDCBF41EADD
:104E20000C019040E41AA2BF01EB0451294330BDAC
:104E30006FEA04041F3C1CDA0C340EDC04F1140489
:104E4000C4F1200220FA04F001FA02F340EA030060
:104E500021FA04F345EA030130BDC4F10C04C4F1A6
:104E6000200220FA02F001FA04F340EA0300294686
:104E700030BD21FA04F0294630BD94F0000F83F4D0
:104E8000801306BF81F480110134013D4EE77FEAB3
:104E9000645C18BF7FEA655C29D094EA050F08BFFF
:104EA00090EA020F05D054EA000C04BF19461046E0
:104EB00030BD91EA030F1EBF0021002030BD5FEA24
:104EC000545C05D14000494128BF41F0004130BD4C
:104ED00014F580043CBF01F5801130BD01F00045A0
:104EE00045F0FE4141F470014FF0000030BD7FEA13
:104EF000645C1ABF194610467FEA655C1CBF0B460E
:104F0000024650EA013406BF52EA033591EA030F24
:104F100041F4002130BD00BF90F0000F04BF00211C
:104F2000704730B54FF4806404F132044FF000054F
:104F30004FF0000150E700BF90F0000F04BF0021C8
:104F4000704730B54FF4806404F1320410F000452E
:104F500048BF40424FF000013EE700BF42004FEA29
:104F6000E2014FEA31014FEA02701FBF12F07F43A6
:104F700093F07F4F81F06051704792F0000F14BFA3
:104F800093F07F4F704730B54FF4607401F00045E7
:104F900021F0004120E700BF50EA010208BF70473E
:104FA00030B54FF000050AE050EA010208BF704733
:104FB00030B511F0004502D5404261EB41014FF49C
:104FC000806404F132045FEA915C3FF4DCAE4FF0A0
:104FD00003025FEADC0C18BF03325FEADC0C18BF87
:104FE000033202EBDC02C2F1200300FA03FC20FAD8
:104FF00002F001FA03FE40EA0E0021FA02F1144425
:10500000C1E600BF70B54FF0FF0C4CF4E06C1CEA39
:1050100011541DBF1CEA135594EA0C0F95EA0C0FAE
:1050200000F0DEF82C4481EA030621EA4C5123EA21
:105030004C5350EA013518BF52EA033541F4801150
:1050400043F4801338D0A0FB02CE4FF00005E1FB03
:1050500002E506F00042E0FB03E54FF00006E1FB4D
:1050600003569CF0000F18BF4EF0010EA4F1FF0490
:10507000B6F5007F64F5407404D25FEA4E0E6D41D0
:1050800046EB060642EAC62141EA55514FEAC520E1
:1050900040EA5E504FEACE2EB4F1FD0C88BFBCF55D
:1050A000E06F1ED8BEF1004F08BF5FEA500E50F10E
:1050B000000041EB045170BD06F0004646EA0101D4
:1050C00040EA020081EA0301B4EB5C04C2BFD4EB06
:1050D0000C0541EA045170BD41F480114FF0000EFF
:1050E000013C00F3AB8014F1360FDEBF002001F06D
:1050F000004170BDC4F10004203C35DA0C341BDCE7
:1051000004F11404C4F1200500FA05F320FA04F0B8
:1051100001FA05F240EA020001F0004221F00041EC
:1051200010EBD37021FA04F642EB06015EEA430E5F
:1051300008BF20EAD37070BDC4F10C04C4F120058F
:1051400000FA04F320FA05F001FA04F240EA020042
:1051500001F0004110EBD37041F100015EEA430E13
:1051600008BF20EAD37070BDC4F1200500FA05F233
:105170004EEA020E20FA04F301FA05F243EA0203B2
:1051800021FA04F001F0004121FA04F220EA0200C1
:1051900000EBD3705EEA430E08BF20EAD37070BD07
:1051A00094F0000F0FD101F00046400041EB0101E7
:1051B00011F4801F08BF013CF7D041EA060195F0C9
:1051C000000F18BF704703F00046520043EB030383
:1051D00013F4801F08BF013DF7D043EA0603704770
:1051E00094EA0C0F0CEA135518BF95EA0C0F0CD07B
:1051F00050EA410618BF52EA4306D1D181EA0301C1
:1052000001F000414FF0000070BD50EA410606BFBA
:105210001046194652EA430619D094EA0C0F02D1FF
:1052200050EA013613D195EA0C0F05D152EA033644
:105230001CBF104619460AD181EA030101F0004162
:1052400041F0FE4141F470014FF0000070BD41F0AB
:10525000FE4141F4780170BD70B54FF0FF0C4CF485
:10526000E06C1CEA11541DBF1CEA135594EA0C0FA4
:1052700095EA0C0F00F0A7F8A4EB050481EA030EF1
:1052800052EA03354FEA013100F088804FEA0333D8
:105290004FF0805545EA131343EA12634FEA0222A6
:1052A00045EA111545EA10654FEA00260EF0004167
:1052B0009D4208BF964244F1FD0404F5407402D2B9
:1052C0005B084FEA3202B61A65EB03055B084FEA4A
:1052D00032024FF480104FF4002CB6EB020E75EB47
:1052E000030E22BFB61A754640EA0C005B084FEA6F
:1052F0003202B6EB020E75EB030E22BFB61A7546EC
:1053000040EA5C005B084FEA3202B6EB020E75EB36
:10531000030E22BFB61A754640EA9C005B084FEAAE
:105320003202B6EB020E75EB030E22BFB61A7546BB
:1053300040EADC0055EA060E18D04FEA051545EAAA
:1053400016754FEA06164FEAC30343EA52734FEA53
:10535000C2025FEA1C1CC0D111F4801F0BD141EACC
:1053600000014FF000004FF0004CB6E711F4801F31
:1053700004BF01430020B4F1FD0C88BFBCF5E06F11
:105380003FF6AFAEB5EB030C04BFB6EB020C5FEA21
:10539000500C50F1000041EB045170BD0EF0004E76
:1053A0004EEA113114EB5C04C2BFD4EB0C0541EAA8
:1053B000045170BD41F480114FF0000E013C90E6A5
:1053C00045EA060E8DE60CEA135594EA0C0F08BF69
:1053D00095EA0C0F3FF43BAF94EA0C0F0AD150EA68
:1053E00001347FF434AF95EA0C0F7FF425AF1046FB
:1053F00019462CE795EA0C0F06D152EA03353FF423
:10540000FDAE1046194622E750EA410618BF52EA9F
:1054100043067FF4C5AE50EA41047FF40DAF52EA73
:1054200043057FF4EBAE12E74FF0FF3C06E000BF10
:105430004FF0010C02E000BF4FF0010C4DF804CD1D
:105440004FEA410C7FEA6C5C4FEA430C18BF7FEADD
:105450006C5C1BD001B050EA410C0CBF52EA430C0B
:1054600091EA030F02BF90EA020F0020704710F18B
:10547000000F91EA030F58BF994208BF90422CBF1A
:10548000D8176FEAE37040F0010070474FEA410C13
:105490007FEA6C5C02D150EA013C07D14FEA430C31
:1054A0007FEA6C5CD6D152EA033CD3D05DF8040BA2
:1054B000704700BF8446104662468C4619466346D4
:1054C00000E000BF01B5FFF7B7FF002848BF10F1AB
:1054D000000F01BD4DF808EDFFF7F4FF0CBF0120F0
:1054E00000205DF808FB00BF4DF808EDFFF7EAFF6C
:1054F00034BF012000205DF808FB00BF4DF808ED27
:10550000FFF7E0FF94BF012000205DF808FB00BF1B
:105510004DF808EDFFF7CEFF94BF012000205DF8A5
:1055200008FB00BF4DF808EDFFF7C4FF34BF0120B2
:1055300000205DF808FB00BF4FEA410212F500129F
:1055400015D211D56FF47873B3EB625212D94FEACA
:10555000C12343F0004343EA505311F0004F23FAB4
:1055600002F018BF404270474FF00000704750EA09
:10557000013005D111F0004008BF6FF000407047C6
:105580004FF00000704700BF4A0011D212F5001220
:1055900011D20DD56FF47873B3EB62520ED44FEA8B
:1055A000C12343F0004343EA505323FA02F070470B
:1055B0004FF00000704750EA013002D14FF0FF3049
:1055C00070474FF0000070474FEA4102B2F1E043EC
:1055D00024BFB3F5001CDCF1FE5C0DD901F0004CDA
:1055E0004FEAC0024CEA5070B2F1004F40EB83002A
:1055F00008BF20F00100704711F0804F21D113F156
:105600003872BCBF01F00040704741F480114FEA8E
:105610005252C2F11802C2F1200C10FA0CF320FA17
:1056200002F018BF40F001004FEAC1234FEAD32334
:1056300003FA0CFC40EA0C0023FA02F34FEA43039E
:10564000CCE77FEA625307D150EA01331EBF4FF027
:10565000FE4040F44000704701F0004040F0FE4042
:1056600040F40000704700BF80F0004002E000BF3F
:1056700081F0004142001FBF5FEA410392EA030F3D
:105680007FEA226C7FEA236C6AD04FEA1262D2EB87
:105690001363C1BFD218414048404140B8BF5B428C
:1056A000192B88BF704710F0004F40F4000020F025
:1056B0007F4018BF404211F0004F41F4000121F03B
:1056C0007F4118BF494292EA030F3FD0A2F1010285
:1056D00041FA03FC10EB0C00C3F1200301FA03F1C3
:1056E00000F0004302D5494260EB4000B0F5000FE6
:1056F00013D3B0F1807F06D340084FEA310102F1A5
:105700000102FE2A51D2B1F1004F40EBC25008BF56
:1057100020F0010040EA03007047490040EB000020
:1057200010F4000FA2F10102EDD1B0FA80FCACF14F
:10573000080CB2EB0C0200FA0CF0AABF00EBC2504E
:1057400052421843BCBFD0401843704792F0000F3C
:1057500081F4000106BF80F400000132013BB5E78F
:105760004FEA41037FEA226C18BF7FEA236C21D005
:1057700092EA030F04D092F0000F08BF084670476A
:1057800090EA010F1CBF0020704712F07F4F04D138
:10579000400028BF40F00040704712F100723CBF4B
:1057A00000F50000704700F0004343F0FE4040F475
:1057B000000070477FEA226216BF08467FEA236333
:1057C0000146420206BF5FEA412390EA010F40F41E
:1057D000800070474FF0000304E000BF10F000436A
:1057E00048BF40425FEA000C08BF704743F0964351
:1057F00001464FF000001CE050EA010208BF70476C
:105800004FF000030AE000BF50EA010208BF7047F2
:1058100011F0004302D5404261EB41015FEA010C07
:1058200002BF84460146002043F0B64308BFA3F1FF
:105830008053A3F50003BCFA8CF2083AA3EBC253E1
:1058400010DB01FA02FC634400FA02FCC2F1200200
:10585000BCF1004F20FA02F243EB020008BF20F037
:105860000100704702F1200201FA02FCC2F120029D
:1058700050EA4C0021FA02F243EB020008BF20EA92
:10588000DC7070474FF0FF0C1CEAD0521EBF1CEAC0
:10589000D15392EA0C0F93EA0C0F6FD01A4480EAAE
:1058A000010C400218BF5FEA41211ED04FF0006397
:1058B00043EA501043EA5111A0FB01310CF00040C3
:1058C000B1F5000F3EBF490041EAD3715B0040EAE9
:1058D000010062F17F02FD2A1DD8B3F1004F40EBB9
:1058E000C25008BF20F00100704790F0000F0CF08C
:1058F000004C08BF49024CEA502040EA51207F3A50
:10590000C2BFD2F1FF0340EAC250704740F400002A
:105910004FF00003013A5DDC12F1190FDCBF00F01B
:1059200000407047C2F10002410021FA02F1C2F1C9
:10593000200200FA02FC5FEA310040F1000053EA65
:105940004C0308BF20EADC70704792F0000F00F0B3
:10595000004C02BF400010F4000F013AF9D040EAB9
:105960000C0093F0000F01F0004C02BF490011F44D
:10597000000F013BF9D041EA0C018FE70CEAD1534B
:1059800092EA0C0F18BF93EA0C0F0AD030F0004CCB
:1059900018BF31F0004CD8D180EA010000F000407F
:1059A000704790F0000F17BF90F0004F084691F03D
:1059B000000F91F0004F14D092EA0C0F01D1420277
:1059C0000FD193EA0C0F03D14B0218BF084608D140
:1059D00080EA010000F0004040F0FE4040F400008A
:1059E000704740F0FE4040F4400070474FF0FF0C1D
:1059F0001CEAD0521EBF1CEAD15392EA0C0F93EA64
:105A00000C0F69D0A2EB030280EA010C49024FEAB5
:105A1000402037D04FF0805343EA111143EA10136E
:105A20000CF000408B4238BF5B0042F17D024FF426
:105A3000000C8B4224BF5B1A40EA0C00B3EB510F01
:105A400024BFA3EB510340EA5C00B3EB910F24BFEA
:105A5000A3EB910340EA9C00B3EBD10F24BFA3EB6F
:105A6000D10340EADC001B0118BF5FEA1C1CE0D137
:105A7000FD2A3FF650AF8B4240EBC25008BF20F0EA
:105A8000010070470CF0004C4CEA50207F32C2BF3E
:105A9000D2F1FF0340EAC250704740F400004FF0DB
:105AA0000003013A37E792F0000F00F0004C02BF0C
:105AB000400010F4000F013AF9D040EA0C0093F0D6
:105AC000000F01F0004C02BF490011F4000F013B30
:105AD000F9D041EA0C0195E70CEAD15392EA0C0F98
